{
  "_format": "hh-sol-artifact-1",
  "contractName": "ChainChaos",
  "sourceName": "contracts/ChainChaos.sol",
  "abi": [
    {
      "inputs": [
        {
          "internalType": "address",
          "name": "_usdcToken",
          "type": "address"
        }
      ],
      "stateMutability": "nonpayable",
      "type": "constructor"
    },
    {
      "inputs": [],
      "name": "BetAlreadySettled",
      "type": "error"
    },
    {
      "inputs": [],
      "name": "BetNotActive",
      "type": "error"
    },
    {
      "inputs": [],
      "name": "BetNotSettled",
      "type": "error"
    },
    {
      "inputs": [],
      "name": "BetTooLarge",
      "type": "error"
    },
    {
      "inputs": [],
      "name": "BetTooSmall",
      "type": "error"
    },
    {
      "inputs": [],
      "name": "InsufficientUSDCAllowance",
      "type": "error"
    },
    {
      "inputs": [],
      "name": "InvalidBetAmount",
      "type": "error"
    },
    {
      "inputs": [],
      "name": "InvalidBetId",
      "type": "error"
    },
    {
      "inputs": [],
      "name": "InvalidWinnerIndices",
      "type": "error"
    },
    {
      "inputs": [],
      "name": "NoRefundAvailable",
      "type": "error"
    },
    {
      "inputs": [],
      "name": "NoWinnersProvided",
      "type": "error"
    },
    {
      "inputs": [],
      "name": "NotWinnerOrAlreadyClaimed",
      "type": "error"
    },
    {
      "inputs": [
        {
          "internalType": "address",
          "name": "owner",
          "type": "address"
        }
      ],
      "name": "OwnableInvalidOwner",
      "type": "error"
    },
    {
      "inputs": [
        {
          "internalType": "address",
          "name": "account",
          "type": "address"
        }
      ],
      "name": "OwnableUnauthorizedAccount",
      "type": "error"
    },
    {
      "inputs": [],
      "name": "PlayerAlreadyBet",
      "type": "error"
    },
    {
      "inputs": [
        {
          "internalType": "address",
          "name": "token",
          "type": "address"
        }
      ],
      "name": "SafeERC20FailedOperation",
      "type": "error"
    },
    {
      "inputs": [],
      "name": "WrongCurrency",
      "type": "error"
    },
    {
      "anonymous": false,
      "inputs": [
        {
          "indexed": true,
          "internalType": "uint256",
          "name": "betId",
          "type": "uint256"
        }
      ],
      "name": "BetCancelled",
      "type": "event"
    },
    {
      "anonymous": false,
      "inputs": [
        {
          "indexed": true,
          "internalType": "uint256",
          "name": "betId",
          "type": "uint256"
        },
        {
          "indexed": false,
          "internalType": "string",
          "name": "category",
          "type": "string"
        },
        {
          "indexed": false,
          "internalType": "string",
          "name": "description",
          "type": "string"
        },
        {
          "indexed": false,
          "internalType": "enum ChainChaos.CurrencyType",
          "name": "currencyType",
          "type": "uint8"
        },
        {
          "indexed": false,
          "internalType": "uint256",
          "name": "betAmount",
          "type": "uint256"
        }
      ],
      "name": "BetCreated",
      "type": "event"
    },
    {
      "anonymous": false,
      "inputs": [
        {
          "indexed": true,
          "internalType": "uint256",
          "name": "betId",
          "type": "uint256"
        },
        {
          "indexed": false,
          "internalType": "uint256",
          "name": "actualValue",
          "type": "uint256"
        },
        {
          "indexed": false,
          "internalType": "uint256[]",
          "name": "winnerIndices",
          "type": "uint256[]"
        },
        {
          "indexed": false,
          "internalType": "bool",
          "name": "refundMode",
          "type": "bool"
        }
      ],
      "name": "BetSettled",
      "type": "event"
    },
    {
      "anonymous": false,
      "inputs": [
        {
          "indexed": true,
          "internalType": "uint256",
          "name": "betId",
          "type": "uint256"
        },
        {
          "indexed": false,
          "internalType": "uint256",
          "name": "fee",
          "type": "uint256"
        }
      ],
      "name": "OwnerFeeCollected",
      "type": "event"
    },
    {
      "anonymous": false,
      "inputs": [
        {
          "indexed": true,
          "internalType": "address",
          "name": "previousOwner",
          "type": "address"
        },
        {
          "indexed": true,
          "internalType": "address",
          "name": "newOwner",
          "type": "address"
        }
      ],
      "name": "OwnershipTransferred",
      "type": "event"
    },
    {
      "anonymous": false,
      "inputs": [
        {
          "indexed": true,
          "internalType": "uint256",
          "name": "betId",
          "type": "uint256"
        },
        {
          "indexed": true,
          "internalType": "address",
          "name": "player",
          "type": "address"
        },
        {
          "indexed": false,
          "internalType": "uint256",
          "name": "guess",
          "type": "uint256"
        }
      ],
      "name": "PlayerBetPlaced",
      "type": "event"
    },
    {
      "anonymous": false,
      "inputs": [
        {
          "indexed": true,
          "internalType": "uint256",
          "name": "betId",
          "type": "uint256"
        },
        {
          "indexed": true,
          "internalType": "address",
          "name": "winner",
          "type": "address"
        },
        {
          "indexed": false,
          "internalType": "uint256",
          "name": "prize",
          "type": "uint256"
        }
      ],
      "name": "PrizeClaimed",
      "type": "event"
    },
    {
      "anonymous": false,
      "inputs": [
        {
          "indexed": true,
          "internalType": "uint256",
          "name": "betId",
          "type": "uint256"
        },
        {
          "indexed": true,
          "internalType": "address",
          "name": "player",
          "type": "address"
        },
        {
          "indexed": false,
          "internalType": "uint256",
          "name": "amount",
          "type": "uint256"
        }
      ],
      "name": "Refunded",
      "type": "event"
    },
    {
      "inputs": [],
      "name": "OWNER_FEE_PERCENT",
      "outputs": [
        {
          "internalType": "uint256",
          "name": "",
          "type": "uint256"
        }
      ],
      "stateMutability": "view",
      "type": "function"
    },
    {
      "inputs": [
        {
          "internalType": "uint256",
          "name": "",
          "type": "uint256"
        }
      ],
      "name": "activeBetIds",
      "outputs": [
        {
          "internalType": "uint256",
          "name": "",
          "type": "uint256"
        }
      ],
      "stateMutability": "view",
      "type": "function"
    },
    {
      "inputs": [
        {
          "internalType": "uint256",
          "name": "",
          "type": "uint256"
        }
      ],
      "name": "bets",
      "outputs": [
        {
          "internalType": "uint256",
          "name": "id",
          "type": "uint256"
        },
        {
          "internalType": "string",
          "name": "category",
          "type": "string"
        },
        {
          "internalType": "string",
          "name": "description",
          "type": "string"
        },
        {
          "internalType": "enum ChainChaos.CurrencyType",
          "name": "currencyType",
          "type": "uint8"
        },
        {
          "internalType": "uint256",
          "name": "betAmount",
          "type": "uint256"
        },
        {
          "internalType": "uint256",
          "name": "actualValue",
          "type": "uint256"
        },
        {
          "internalType": "enum ChainChaos.BetStatus",
          "name": "status",
          "type": "uint8"
        },
        {
          "internalType": "uint256",
          "name": "totalPot",
          "type": "uint256"
        },
        {
          "internalType": "bool",
          "name": "refundMode",
          "type": "bool"
        },
        {
          "internalType": "uint256",
          "name": "createdAt",
          "type": "uint256"
        }
      ],
      "stateMutability": "view",
      "type": "function"
    },
    {
      "inputs": [
        {
          "internalType": "uint256",
          "name": "betId",
          "type": "uint256"
        }
      ],
      "name": "cancelBet",
      "outputs": [],
      "stateMutability": "nonpayable",
      "type": "function"
    },
    {
      "inputs": [
        {
          "internalType": "uint256",
          "name": "betId",
          "type": "uint256"
        }
      ],
      "name": "claimPrize",
      "outputs": [],
      "stateMutability": "nonpayable",
      "type": "function"
    },
    {
      "inputs": [
        {
          "internalType": "string",
          "name": "category",
          "type": "string"
        },
        {
          "internalType": "string",
          "name": "description",
          "type": "string"
        },
        {
          "internalType": "enum ChainChaos.CurrencyType",
          "name": "currencyType",
          "type": "uint8"
        },
        {
          "internalType": "uint256",
          "name": "betAmount",
          "type": "uint256"
        }
      ],
      "name": "createBet",
      "outputs": [
        {
          "internalType": "uint256",
          "name": "",
          "type": "uint256"
        }
      ],
      "stateMutability": "nonpayable",
      "type": "function"
    },
    {
      "inputs": [],
      "name": "getActiveBets",
      "outputs": [
        {
          "internalType": "uint256[]",
          "name": "",
          "type": "uint256[]"
        }
      ],
      "stateMutability": "view",
      "type": "function"
    },
    {
      "inputs": [
        {
          "internalType": "uint256",
          "name": "betId",
          "type": "uint256"
        }
      ],
      "name": "getBetInfo",
      "outputs": [
        {
          "internalType": "uint256",
          "name": "id",
          "type": "uint256"
        },
        {
          "internalType": "string",
          "name": "category",
          "type": "string"
        },
        {
          "internalType": "string",
          "name": "description",
          "type": "string"
        },
        {
          "internalType": "enum ChainChaos.CurrencyType",
          "name": "currencyType",
          "type": "uint8"
        },
        {
          "internalType": "uint256",
          "name": "betAmount",
          "type": "uint256"
        },
        {
          "internalType": "uint256",
          "name": "actualValue",
          "type": "uint256"
        },
        {
          "internalType": "enum ChainChaos.BetStatus",
          "name": "status",
          "type": "uint8"
        },
        {
          "internalType": "uint256",
          "name": "totalPot",
          "type": "uint256"
        },
        {
          "internalType": "bool",
          "name": "refundMode",
          "type": "bool"
        },
        {
          "internalType": "uint256",
          "name": "playerBetCount",
          "type": "uint256"
        },
        {
          "internalType": "uint256",
          "name": "createdAt",
          "type": "uint256"
        }
      ],
      "stateMutability": "view",
      "type": "function"
    },
    {
      "inputs": [
        {
          "internalType": "uint256",
          "name": "betId",
          "type": "uint256"
        }
      ],
      "name": "getBetPot",
      "outputs": [
        {
          "internalType": "uint256",
          "name": "",
          "type": "uint256"
        }
      ],
      "stateMutability": "view",
      "type": "function"
    },
    {
      "inputs": [
        {
          "internalType": "uint256",
          "name": "betId",
          "type": "uint256"
        }
      ],
      "name": "getBetWinnerIndices",
      "outputs": [
        {
          "internalType": "uint256[]",
          "name": "",
          "type": "uint256[]"
        }
      ],
      "stateMutability": "view",
      "type": "function"
    },
    {
      "inputs": [
        {
          "internalType": "uint256",
          "name": "betId",
          "type": "uint256"
        },
        {
          "internalType": "uint256",
          "name": "playerBetIndex",
          "type": "uint256"
        }
      ],
      "name": "getPlayerBet",
      "outputs": [
        {
          "internalType": "address",
          "name": "player",
          "type": "address"
        },
        {
          "internalType": "uint256",
          "name": "guess",
          "type": "uint256"
        },
        {
          "internalType": "bool",
          "name": "claimed",
          "type": "bool"
        }
      ],
      "stateMutability": "view",
      "type": "function"
    },
    {
      "inputs": [],
      "name": "getSettledBets",
      "outputs": [
        {
          "internalType": "uint256[]",
          "name": "",
          "type": "uint256[]"
        }
      ],
      "stateMutability": "view",
      "type": "function"
    },
    {
      "inputs": [
        {
          "internalType": "uint256",
          "name": "",
          "type": "uint256"
        },
        {
          "internalType": "address",
          "name": "",
          "type": "address"
        }
      ],
      "name": "hasPlayerBet",
      "outputs": [
        {
          "internalType": "bool",
          "name": "",
          "type": "bool"
        }
      ],
      "stateMutability": "view",
      "type": "function"
    },
    {
      "inputs": [],
      "name": "nextBetId",
      "outputs": [
        {
          "internalType": "uint256",
          "name": "",
          "type": "uint256"
        }
      ],
      "stateMutability": "view",
      "type": "function"
    },
    {
      "inputs": [],
      "name": "owner",
      "outputs": [
        {
          "internalType": "address",
          "name": "",
          "type": "address"
        }
      ],
      "stateMutability": "view",
      "type": "function"
    },
    {
      "inputs": [
        {
          "internalType": "uint256",
          "name": "betId",
          "type": "uint256"
        },
        {
          "internalType": "uint256",
          "name": "guess",
          "type": "uint256"
        }
      ],
      "name": "placeBetNative",
      "outputs": [],
      "stateMutability": "payable",
      "type": "function"
    },
    {
      "inputs": [
        {
          "internalType": "uint256",
          "name": "betId",
          "type": "uint256"
        },
        {
          "internalType": "uint256",
          "name": "guess",
          "type": "uint256"
        }
      ],
      "name": "placeBetUSDC",
      "outputs": [],
      "stateMutability": "nonpayable",
      "type": "function"
    },
    {
      "inputs": [],
      "name": "renounceOwnership",
      "outputs": [],
      "stateMutability": "nonpayable",
      "type": "function"
    },
    {
      "inputs": [
        {
          "internalType": "uint256",
          "name": "betId",
          "type": "uint256"
        },
        {
          "internalType": "uint256",
          "name": "actualValue",
          "type": "uint256"
        }
      ],
      "name": "settleBet",
      "outputs": [],
      "stateMutability": "nonpayable",
      "type": "function"
    },
    {
      "inputs": [
        {
          "internalType": "uint256",
          "name": "",
          "type": "uint256"
        }
      ],
      "name": "settledBetIds",
      "outputs": [
        {
          "internalType": "uint256",
          "name": "",
          "type": "uint256"
        }
      ],
      "stateMutability": "view",
      "type": "function"
    },
    {
      "inputs": [
        {
          "internalType": "address",
          "name": "newOwner",
          "type": "address"
        }
      ],
      "name": "transferOwnership",
      "outputs": [],
      "stateMutability": "nonpayable",
      "type": "function"
    },
    {
      "inputs": [],
      "name": "usdcToken",
      "outputs": [
        {
          "internalType": "contract IERC20",
          "name": "",
          "type": "address"
        }
      ],
      "stateMutability": "view",
      "type": "function"
    },
    {
      "stateMutability": "payable",
      "type": "receive"
    }
  ],
  "bytecode": "0x60a06040526001805534801561001457600080fd5b5060405161390c38038061390c8339818101604052810190610036919061021a565b33600073ffffffffffffffffffffffffffffffffffffffff168173ffffffffffffffffffffffffffffffffffffffff16036100a95760006040517f1e4fbdf70000000000000000000000000000000000000000000000000000000081526004016100a09190610256565b60405180910390fd5b6100b8816100f360201b60201c565b508073ffffffffffffffffffffffffffffffffffffffff1660808173ffffffffffffffffffffffffffffffffffffffff168152505050610271565b60008060009054906101000a900473ffffffffffffffffffffffffffffffffffffffff169050816000806101000a81548173ffffffffffffffffffffffffffffffffffffffff021916908373ffffffffffffffffffffffffffffffffffffffff1602179055508173ffffffffffffffffffffffffffffffffffffffff168173ffffffffffffffffffffffffffffffffffffffff167f8be0079c531659141344cd1fd0a4f28419497f9722a3daafe3b4186f6b6457e060405160405180910390a35050565b600080fd5b600073ffffffffffffffffffffffffffffffffffffffff82169050919050565b60006101e7826101bc565b9050919050565b6101f7816101dc565b811461020257600080fd5b50565b600081519050610214816101ee565b92915050565b6000602082840312156102305761022f6101b7565b5b600061023e84828501610205565b91505092915050565b610250816101dc565b82525050565b600060208201905061026b6000830184610247565b92915050565b60805161365d6102af6000396000818161089b01528181610a0e01528181610c0501528181611ea80152818161226b0152612572015261365d6000f3fe6080604052600436106101395760003560e01c80638da5cb5b116100ab578063d6ce91441161006f578063d6ce91441461045a578063d709815414610476578063d8bf89741461049f578063ddd70709146104dc578063f2fde38b14610519578063f4a690f61461054257610140565b80638da5cb5b146103715780639aca27921461039c578063a8a3221e146103c7578063ada73020146103f2578063c303b9021461041d57610140565b8063357401f5116100fd578063357401f5146102335780635195d6121461025c578063589f241014610299578063639a66e7146102d6578063715018a61461031357806379141f801461032a57610140565b80630d2cbe13146101455780630d4276531461016e57806311eac8551461019757806322af00fa146101c257806327baedd51461020857610140565b3661014057005b600080fd5b34801561015157600080fd5b5061016c6004803603810190610167919061281a565b610581565b005b34801561017a57600080fd5b506101956004803603810190610190919061281a565b6107a0565b005b3480156101a357600080fd5b506101ac610c03565b6040516101b991906128d9565b60405180910390f35b3480156101ce57600080fd5b506101e960048036038101906101e491906128f4565b610c27565b6040516101ff9a99989796959493929190612a9a565b60405180910390f35b34801561021457600080fd5b5061021d610db2565b60405161022a9190612c02565b60405180910390f35b34801561023f57600080fd5b5061025a600480360381019061025591906128f4565b610e0a565b005b34801561026857600080fd5b50610283600480360381019061027e91906128f4565b610f1c565b6040516102909190612c24565b60405180910390f35b3480156102a557600080fd5b506102c060048036038101906102bb9190612c7d565b610f40565b6040516102cd9190612cbd565b60405180910390f35b3480156102e257600080fd5b506102fd60048036038101906102f89190612e32565b610f6f565b60405161030a9190612c24565b60405180910390f35b34801561031f57600080fd5b506103286110f1565b005b34801561033657600080fd5b50610351600480360381019061034c91906128f4565b611105565b6040516103689b9a99989796959493929190612ed1565b60405180910390f35b34801561037d57600080fd5b506103866112ca565b6040516103939190612f99565b60405180910390f35b3480156103a857600080fd5b506103b16112f3565b6040516103be9190612c24565b60405180910390f35b3480156103d357600080fd5b506103dc6112f9565b6040516103e99190612c24565b60405180910390f35b3480156103fe57600080fd5b506104076112fe565b6040516104149190612c02565b60405180910390f35b34801561042957600080fd5b50610444600480360381019061043f91906128f4565b611356565b6040516104519190612c02565b60405180910390f35b610474600480360381019061046f919061281a565b6113c4565b005b34801561048257600080fd5b5061049d600480360381019061049891906128f4565b611737565b005b3480156104ab57600080fd5b506104c660048036038101906104c191906128f4565b611831565b6040516104d39190612c24565b60405180910390f35b3480156104e857600080fd5b5061050360048036038101906104fe91906128f4565b611851565b6040516105109190612c24565b60405180910390f35b34801561052557600080fd5b50610540600480360381019061053b9190612fb4565b611875565b005b34801561054e57600080fd5b506105696004803603810190610564919061281a565b6118fb565b60405161057893929190612fe1565b60405180910390f35b610589611983565b6000600260008481526020019081526020016000209050600060028111156105b4576105b36129c0565b5b8160060160009054906101000a900460ff1660028111156105d8576105d76129c0565b5b1461060f576040517fe38f163d00000000000000000000000000000000000000000000000000000000815260040160405180910390fd5b81816005018190555060018160060160006101000a81548160ff021916908360028111156106405761063f6129c0565b5b021790555061064e83611a0a565b600583908060018154018082558091505060019003906000526020600020016000909190919091505561068081611acf565b1561072d5760018160090160006101000a81548160ff021916908315150217905550827f53b6ca4744013ba75fef77024c44b5e6774b52578c20619933d321b59f5e6ada83600067ffffffffffffffff8111156106e0576106df612ce2565b5b60405190808252806020026020018201604052801561070e5781602001602082028036833780820191505090505b50600160405161072093929190613018565b60405180910390a261079b565b600061073882611bea565b905080826008019080519060200190610752929190612766565b5061075c82611de0565b837f53b6ca4744013ba75fef77024c44b5e6774b52578c20619933d321b59f5e6ada8483600060405161079193929190613018565b60405180910390a2505b505050565b6000600260008481526020019081526020016000209050600060028111156107cb576107ca6129c0565b5b8160060160009054906101000a900460ff1660028111156107ef576107ee6129c0565b5b14610826576040517fe38f163d00000000000000000000000000000000000000000000000000000000815260040160405180910390fd5b600180811115610839576108386129c0565b5b8160030160009054906101000a900460ff16600181111561085d5761085c6129c0565b5b14610894576040517f164fb6c200000000000000000000000000000000000000000000000000000000815260040160405180910390fd5b80600401547f000000000000000000000000000000000000000000000000000000000000000073ffffffffffffffffffffffffffffffffffffffff1663dd62ed3e33306040518363ffffffff1660e01b81526004016108f4929190613056565b602060405180830381865afa158015610911573d6000803e3d6000fd5b505050506040513d601f19601f820116820180604052508101906109359190613094565b101561096d576040517fe2822ff100000000000000000000000000000000000000000000000000000000815260040160405180910390fd5b6003600084815260200190815260200160002060003373ffffffffffffffffffffffffffffffffffffffff1673ffffffffffffffffffffffffffffffffffffffff16815260200190815260200160002060009054906101000a900460ff1615610a02576040517feb0163a100000000000000000000000000000000000000000000000000000000815260040160405180910390fd5b610a53333083600401547f000000000000000000000000000000000000000000000000000000000000000073ffffffffffffffffffffffffffffffffffffffff16611f2e909392919063ffffffff16565b80600a0160405180606001604052803373ffffffffffffffffffffffffffffffffffffffff16815260200184815260200160001515815250908060018154018082558091505060019003906000526020600020906003020160009091909190915060008201518160000160006101000a81548173ffffffffffffffffffffffffffffffffffffffff021916908373ffffffffffffffffffffffffffffffffffffffff1602179055506020820151816001015560408201518160020160006101000a81548160ff02191690831515021790555050508060040154816007016000828254610b3f91906130f0565b9250508190555060016003600085815260200190815260200160002060003373ffffffffffffffffffffffffffffffffffffffff1673ffffffffffffffffffffffffffffffffffffffff16815260200190815260200160002060006101000a81548160ff0219169083151502179055503373ffffffffffffffffffffffffffffffffffffffff16837fae6e469845072cd465cbe2a8b4f46cff1b0263205ffe97879e063bbbea36bb7c84604051610bf69190612c24565b60405180910390a3505050565b7f000000000000000000000000000000000000000000000000000000000000000081565b6002602052806000526040600020600091509050806000015490806001018054610c5090613153565b80601f0160208091040260200160405190810160405280929190818152602001828054610c7c90613153565b8015610cc95780601f10610c9e57610100808354040283529160200191610cc9565b820191906000526020600020905b815481529060010190602001808311610cac57829003601f168201915b505050505090806002018054610cde90613153565b80601f0160208091040260200160405190810160405280929190818152602001828054610d0a90613153565b8015610d575780601f10610d2c57610100808354040283529160200191610d57565b820191906000526020600020905b815481529060010190602001808311610d3a57829003601f168201915b5050505050908060030160009054906101000a900460ff16908060040154908060050154908060060160009054906101000a900460ff16908060070154908060090160009054906101000a900460ff169080600b015490508a565b60606005805480602002602001604051908101604052809291908181526020018280548015610e0057602002820191906000526020600020905b815481526020019060010190808311610dec575b5050505050905090565b610e12611983565b600060026000838152602001908152602001600020905060006002811115610e3d57610e3c6129c0565b5b8160060160009054906101000a900460ff166002811115610e6157610e606129c0565b5b14610e98576040517fe38f163d00000000000000000000000000000000000000000000000000000000815260040160405180910390fd5b60028160060160006101000a81548160ff02191690836002811115610ec057610ebf6129c0565b5b021790555060018160090160006101000a81548160ff021916908315150217905550610eeb82611a0a565b817fe3906e8d1e2167ef706b023e6e83af697db5cd38f233c71bf5021b26b316c3a260405160405180910390a25050565b60048181548110610f2c57600080fd5b906000526020600020016000915090505481565b60036020528160005260406000206020528060005260406000206000915091509054906101000a900460ff1681565b6000610f79611983565b60008203610fb3576040517f9de3d44100000000000000000000000000000000000000000000000000000000815260040160405180910390fd5b600060016000815480929190610fc890613184565b919050559050600060026000838152602001908152602001600020905081816000018190555086816001019081610fff919061336e565b5085816002019081611011919061336e565b50848160030160006101000a81548160ff02191690836001811115611039576110386129c0565b5b021790555083816004018190555060008160060160006101000a81548160ff0219169083600281111561106f5761106e6129c0565b5b02179055504281600b01819055506004829080600181540180825580915050600190039060005260206000200160009091909190915055817ff7dfcab2992417049cb3e78dcb5d3ac9520e053800daab4885bc264a958f19f8888888886040516110dc9493929190613440565b60405180910390a28192505050949350505050565b6110f9611983565b6111036000611fb0565b565b60006060806000806000806000806000806000600260008e81526020019081526020016000209050806000015481600101826002018360030160009054906101000a900460ff16846004015485600501548660060160009054906101000a900460ff1687600701548860090160009054906101000a900460ff1689600a01805490508a600b015489805461119890613153565b80601f01602080910402602001604051908101604052809291908181526020018280546111c490613153565b80156112115780601f106111e657610100808354040283529160200191611211565b820191906000526020600020905b8154815290600101906020018083116111f457829003601f168201915b5050505050995088805461122490613153565b80601f016020809104026020016040519081016040528092919081815260200182805461125090613153565b801561129d5780601f106112725761010080835404028352916020019161129d565b820191906000526020600020905b81548152906001019060200180831161128057829003601f168201915b505050505098509b509b509b509b509b509b509b509b509b509b509b505091939597999b90929496989a50565b60008060009054906101000a900473ffffffffffffffffffffffffffffffffffffffff16905090565b60015481565b600581565b6060600480548060200260200160405190810160405280929190818152602001828054801561134c57602002820191906000526020600020905b815481526020019060010190808311611338575b5050505050905090565b6060600260008381526020019081526020016000206008018054806020026020016040519081016040528092919081815260200182805480156113b857602002820191906000526020600020905b8154815260200190600101908083116113a4575b50505050509050919050565b6000600260008481526020019081526020016000209050600060028111156113ef576113ee6129c0565b5b8160060160009054906101000a900460ff166002811115611413576114126129c0565b5b1461144a576040517fe38f163d00000000000000000000000000000000000000000000000000000000815260040160405180910390fd5b6000600181111561145e5761145d6129c0565b5b8160030160009054906101000a900460ff166001811115611482576114816129c0565b5b146114b9576040517f164fb6c200000000000000000000000000000000000000000000000000000000815260040160405180910390fd5b806004015434146114f6576040517f9de3d44100000000000000000000000000000000000000000000000000000000815260040160405180910390fd5b6003600084815260200190815260200160002060003373ffffffffffffffffffffffffffffffffffffffff1673ffffffffffffffffffffffffffffffffffffffff16815260200190815260200160002060009054906101000a900460ff161561158b576040517feb0163a100000000000000000000000000000000000000000000000000000000815260040160405180910390fd5b80600a0160405180606001604052803373ffffffffffffffffffffffffffffffffffffffff16815260200184815260200160001515815250908060018154018082558091505060019003906000526020600020906003020160009091909190915060008201518160000160006101000a81548173ffffffffffffffffffffffffffffffffffffffff021916908373ffffffffffffffffffffffffffffffffffffffff1602179055506020820151816001015560408201518160020160006101000a81548160ff02191690831515021790555050503481600701600082825461167391906130f0565b9250508190555060016003600085815260200190815260200160002060003373ffffffffffffffffffffffffffffffffffffffff1673ffffffffffffffffffffffffffffffffffffffff16815260200190815260200160002060006101000a81548160ff0219169083151502179055503373ffffffffffffffffffffffffffffffffffffffff16837fae6e469845072cd465cbe2a8b4f46cff1b0263205ffe97879e063bbbea36bb7c8460405161172a9190612c24565b60405180910390a3505050565b600060026000838152602001908152602001600020905060006002811115611762576117616129c0565b5b8160060160009054906101000a900460ff166002811115611786576117856129c0565b5b036117bd576040517f616e4dc100000000000000000000000000000000000000000000000000000000815260040160405180910390fd5b8060090160009054906101000a900460ff168061180e57506002808111156117e8576117e76129c0565b5b8160060160009054906101000a900460ff16600281111561180c5761180b6129c0565b5b145b156118225761181d8183612074565b61182d565b61182c8183612304565b5b5050565b600060026000838152602001908152602001600020600701549050919050565b6005818154811061186157600080fd5b906000526020600020016000915090505481565b61187d611983565b600073ffffffffffffffffffffffffffffffffffffffff168173ffffffffffffffffffffffffffffffffffffffff16036118ef5760006040517f1e4fbdf70000000000000000000000000000000000000000000000000000000081526004016118e69190612f99565b60405180910390fd5b6118f881611fb0565b50565b60008060008060026000878152602001908152602001600020600a01858154811061192957611928613493565b5b906000526020600020906003020190508060000160009054906101000a900473ffffffffffffffffffffffffffffffffffffffff1681600101548260020160009054906101000a900460ff16935093509350509250925092565b61198b61260e565b73ffffffffffffffffffffffffffffffffffffffff166119a96112ca565b73ffffffffffffffffffffffffffffffffffffffff1614611a08576119cc61260e565b6040517f118cdaa70000000000000000000000000000000000000000000000000000000081526004016119ff9190612f99565b60405180910390fd5b565b60005b600480549050811015611acb578160048281548110611a2f57611a2e613493565b5b906000526020600020015403611abe5760046001600480549050611a5391906134c2565b81548110611a6457611a63613493565b5b906000526020600020015460048281548110611a8357611a82613493565b5b90600052602060002001819055506004805480611aa357611aa26134f6565b5b60019003818190600052602060002001600090559055611acb565b8080600101915050611a0d565b5050565b6000600182600a018054905011611ae95760019050611be5565b600082600a01600081548110611b0257611b01613493565b5b906000526020600020906003020160000160009054906101000a900473ffffffffffffffffffffffffffffffffffffffff1690506000600190505b83600a0180549050811015611bde578173ffffffffffffffffffffffffffffffffffffffff1684600a018281548110611b7957611b78613493565b5b906000526020600020906003020160000160009054906101000a900473ffffffffffffffffffffffffffffffffffffffff1673ffffffffffffffffffffffffffffffffffffffff1614611bd157600092505050611be5565b8080600101915050611b3d565b5060019150505b919050565b6060600082600a018054905003611c4c57600067ffffffffffffffff811115611c1657611c15612ce2565b5b604051908082528060200260200182016040528015611c445781602001602082028036833780820191505090505b509050611ddb565b60007fffffffffffffffffffffffffffffffffffffffffffffffffffffffffffffffff90506000805b84600a0180549050811015611cf6576000611cbb86600a018381548110611c9f57611c9e613493565b5b9060005260206000209060030201600101548760050154612616565b905083811015611cd15780935060019250611ce8565b838103611ce7578280611ce390613184565b9350505b5b508080600101915050611c75565b5060008167ffffffffffffffff811115611d1357611d12612ce2565b5b604051908082528060200260200182016040528015611d415781602001602082028036833780820191505090505b5090506000805b86600a0180549050811015611dd2576000611d8e88600a018381548110611d7257611d71613493565b5b9060005260206000209060030201600101548960050154612616565b9050858103611dc45781848480611da490613184565b955081518110611db757611db6613493565b5b6020026020010181815250505b508080600101915050611d48565b50819450505050505b919050565b6000606460058360070154611df59190613525565b611dff9190613596565b90506000811115611f2a5760006001811115611e1e57611e1d6129c0565b5b8260030160009054906101000a900460ff166001811115611e4257611e416129c0565b5b03611e9a57611e4f6112ca565b73ffffffffffffffffffffffffffffffffffffffff166108fc829081150290604051600060405180830381858888f19350505050158015611e94573d6000803e3d6000fd5b50611eed565b611eec611ea56112ca565b827f000000000000000000000000000000000000000000000000000000000000000073ffffffffffffffffffffffffffffffffffffffff166126459092919063ffffffff16565b5b81600001547f68944df5e29d9545d24c647f50529fdbcdaf2b667b84ef6ba77deedde37e6acf82604051611f219190612c24565b60405180910390a25b5050565b611faa848573ffffffffffffffffffffffffffffffffffffffff166323b872dd868686604051602401611f63939291906135c7565b604051602081830303815290604052915060e01b6020820180517bffffffffffffffffffffffffffffffffffffffffffffffffffffffff83818316178352505050506126c4565b50505050565b60008060009054906101000a900473ffffffffffffffffffffffffffffffffffffffff169050816000806101000a81548173ffffffffffffffffffffffffffffffffffffffff021916908373ffffffffffffffffffffffffffffffffffffffff1602179055508173ffffffffffffffffffffffffffffffffffffffff168173ffffffffffffffffffffffffffffffffffffffff167f8be0079c531659141344cd1fd0a4f28419497f9722a3daafe3b4186f6b6457e060405160405180910390a35050565b6000805b83600a01805490508110156121a0573373ffffffffffffffffffffffffffffffffffffffff1684600a0182815481106120b4576120b3613493565b5b906000526020600020906003020160000160009054906101000a900473ffffffffffffffffffffffffffffffffffffffff1673ffffffffffffffffffffffffffffffffffffffff1614801561213b575083600a01818154811061211a57612119613493565b5b906000526020600020906003020160020160009054906101000a900460ff16155b1561219357600184600a01828154811061215857612157613493565b5b906000526020600020906003020160020160006101000a81548160ff02191690831515021790555083600401548261219091906130f0565b91505b8080600101915050612078565b50600081036121db576040517fe49c14cb00000000000000000000000000000000000000000000000000000000815260040160405180910390fd5b600060018111156121ef576121ee6129c0565b5b8360030160009054906101000a900460ff166001811115612213576122126129c0565b5b03612264573373ffffffffffffffffffffffffffffffffffffffff166108fc829081150290604051600060405180830381858888f1935050505015801561225e573d6000803e3d6000fd5b506122b0565b6122af33827f000000000000000000000000000000000000000000000000000000000000000073ffffffffffffffffffffffffffffffffffffffff166126459092919063ffffffff16565b5b3373ffffffffffffffffffffffffffffffffffffffff16827f7ca5472b7ea78c2c0141c5a12ee6d170cf4ce8ed06be3d22c8252ddfc7a6a2c4836040516122f79190612c24565b60405180910390a3505050565b60008060005b846008018054905081101561245857600085600801828154811061233157612330613493565b5b906000526020600020015490503373ffffffffffffffffffffffffffffffffffffffff1686600a01828154811061236b5761236a613493565b5b906000526020600020906003020160000160009054906101000a900473ffffffffffffffffffffffffffffffffffffffff1673ffffffffffffffffffffffffffffffffffffffff161480156123f2575085600a0181815481106123d1576123d0613493565b5b906000526020600020906003020160020160009054906101000a900460ff16155b1561244a57600186600a01828154811061240f5761240e613493565b5b906000526020600020906003020160020160006101000a81548160ff021916908315150217905550838061244290613184565b945050600192505b50808060010191505061230a565b5080612490576040517f62d67f1200000000000000000000000000000000000000000000000000000000815260040160405180910390fd5b60006064600586600701546124a59190613525565b6124af9190613596565b85600701546124be91906134c2565b90506000856008018054905082856124d69190613525565b6124e09190613596565b9050600060018111156124f6576124f56129c0565b5b8660030160009054906101000a900460ff16600181111561251a576125196129c0565b5b0361256b573373ffffffffffffffffffffffffffffffffffffffff166108fc829081150290604051600060405180830381858888f19350505050158015612565573d6000803e3d6000fd5b506125b7565b6125b633827f000000000000000000000000000000000000000000000000000000000000000073ffffffffffffffffffffffffffffffffffffffff166126459092919063ffffffff16565b5b3373ffffffffffffffffffffffffffffffffffffffff16857f4aa95f981a8337cb337de335b965507da0879c3b49f799d20058e913f5ad2c26836040516125fe9190612c24565b60405180910390a3505050505050565b600033905090565b600081831161263057828261262b91906134c2565b61263d565b818361263c91906134c2565b5b905092915050565b6126bf838473ffffffffffffffffffffffffffffffffffffffff1663a9059cbb85856040516024016126789291906135fe565b604051602081830303815290604052915060e01b6020820180517bffffffffffffffffffffffffffffffffffffffffffffffffffffffff83818316178352505050506126c4565b505050565b600080602060008451602086016000885af1806126e7576040513d6000823e3d81fd5b3d92506000519150506000821461270257600181141561271e565b60008473ffffffffffffffffffffffffffffffffffffffff163b145b1561276057836040517f5274afe70000000000000000000000000000000000000000000000000000000081526004016127579190612f99565b60405180910390fd5b50505050565b8280548282559060005260206000209081019282156127a2579160200282015b828111156127a1578251825591602001919060010190612786565b5b5090506127af91906127b3565b5090565b5b808211156127cc5760008160009055506001016127b4565b5090565b6000604051905090565b600080fd5b600080fd5b6000819050919050565b6127f7816127e4565b811461280257600080fd5b50565b600081359050612814816127ee565b92915050565b60008060408385031215612831576128306127da565b5b600061283f85828601612805565b925050602061285085828601612805565b9150509250929050565b600073ffffffffffffffffffffffffffffffffffffffff82169050919050565b6000819050919050565b600061289f61289a6128958461285a565b61287a565b61285a565b9050919050565b60006128b182612884565b9050919050565b60006128c3826128a6565b9050919050565b6128d3816128b8565b82525050565b60006020820190506128ee60008301846128ca565b92915050565b60006020828403121561290a576129096127da565b5b600061291884828501612805565b91505092915050565b61292a816127e4565b82525050565b600081519050919050565b600082825260208201905092915050565b60005b8381101561296a57808201518184015260208101905061294f565b60008484015250505050565b6000601f19601f8301169050919050565b600061299282612930565b61299c818561293b565b93506129ac81856020860161294c565b6129b581612976565b840191505092915050565b7f4e487b7100000000000000000000000000000000000000000000000000000000600052602160045260246000fd5b60028110612a00576129ff6129c0565b5b50565b6000819050612a11826129ef565b919050565b6000612a2182612a03565b9050919050565b612a3181612a16565b82525050565b60038110612a4857612a476129c0565b5b50565b6000819050612a5982612a37565b919050565b6000612a6982612a4b565b9050919050565b612a7981612a5e565b82525050565b60008115159050919050565b612a9481612a7f565b82525050565b600061014082019050612ab0600083018d612921565b8181036020830152612ac2818c612987565b90508181036040830152612ad6818b612987565b9050612ae5606083018a612a28565b612af26080830189612921565b612aff60a0830188612921565b612b0c60c0830187612a70565b612b1960e0830186612921565b612b27610100830185612a8b565b612b35610120830184612921565b9b9a5050505050505050505050565b600081519050919050565b600082825260208201905092915050565b6000819050602082019050919050565b612b79816127e4565b82525050565b6000612b8b8383612b70565b60208301905092915050565b6000602082019050919050565b6000612baf82612b44565b612bb98185612b4f565b9350612bc483612b60565b8060005b83811015612bf5578151612bdc8882612b7f565b9750612be783612b97565b925050600181019050612bc8565b5085935050505092915050565b60006020820190508181036000830152612c1c8184612ba4565b905092915050565b6000602082019050612c396000830184612921565b92915050565b6000612c4a8261285a565b9050919050565b612c5a81612c3f565b8114612c6557600080fd5b50565b600081359050612c7781612c51565b92915050565b60008060408385031215612c9457612c936127da565b5b6000612ca285828601612805565b9250506020612cb385828601612c68565b9150509250929050565b6000602082019050612cd26000830184612a8b565b92915050565b600080fd5b600080fd5b7f4e487b7100000000000000000000000000000000000000000000000000000000600052604160045260246000fd5b612d1a82612976565b810181811067ffffffffffffffff82111715612d3957612d38612ce2565b5b80604052505050565b6000612d4c6127d0565b9050612d588282612d11565b919050565b600067ffffffffffffffff821115612d7857612d77612ce2565b5b612d8182612976565b9050602081019050919050565b82818337600083830152505050565b6000612db0612dab84612d5d565b612d42565b905082815260208101848484011115612dcc57612dcb612cdd565b5b612dd7848285612d8e565b509392505050565b600082601f830112612df457612df3612cd8565b5b8135612e04848260208601612d9d565b91505092915050565b60028110612e1a57600080fd5b50565b600081359050612e2c81612e0d565b92915050565b60008060008060808587031215612e4c57612e4b6127da565b5b600085013567ffffffffffffffff811115612e6a57612e696127df565b5b612e7687828801612ddf565b945050602085013567ffffffffffffffff811115612e9757612e966127df565b5b612ea387828801612ddf565b9350506040612eb487828801612e1d565b9250506060612ec587828801612805565b91505092959194509250565b600061016082019050612ee7600083018e612921565b8181036020830152612ef9818d612987565b90508181036040830152612f0d818c612987565b9050612f1c606083018b612a28565b612f29608083018a612921565b612f3660a0830189612921565b612f4360c0830188612a70565b612f5060e0830187612921565b612f5e610100830186612a8b565b612f6c610120830185612921565b612f7a610140830184612921565b9c9b505050505050505050505050565b612f9381612c3f565b82525050565b6000602082019050612fae6000830184612f8a565b92915050565b600060208284031215612fca57612fc96127da565b5b6000612fd884828501612c68565b91505092915050565b6000606082019050612ff66000830186612f8a565b6130036020830185612921565b6130106040830184612a8b565b949350505050565b600060608201905061302d6000830186612921565b818103602083015261303f8185612ba4565b905061304e6040830184612a8b565b949350505050565b600060408201905061306b6000830185612f8a565b6130786020830184612f8a565b9392505050565b60008151905061308e816127ee565b92915050565b6000602082840312156130aa576130a96127da565b5b60006130b88482850161307f565b91505092915050565b7f4e487b7100000000000000000000000000000000000000000000000000000000600052601160045260246000fd5b60006130fb826127e4565b9150613106836127e4565b925082820190508082111561311e5761311d6130c1565b5b92915050565b7f4e487b7100000000000000000000000000000000000000000000000000000000600052602260045260246000fd5b6000600282049050600182168061316b57607f821691505b60208210810361317e5761317d613124565b5b50919050565b600061318f826127e4565b91507fffffffffffffffffffffffffffffffffffffffffffffffffffffffffffffffff82036131c1576131c06130c1565b5b600182019050919050565b60008190508160005260206000209050919050565b60006020601f8301049050919050565b600082821b905092915050565b60006008830261322e7fffffffffffffffffffffffffffffffffffffffffffffffffffffffffffffffff826131f1565b61323886836131f1565b95508019841693508086168417925050509392505050565b600061326b613266613261846127e4565b61287a565b6127e4565b9050919050565b6000819050919050565b61328583613250565b61329961329182613272565b8484546131fe565b825550505050565b600090565b6132ae6132a1565b6132b981848461327c565b505050565b5b818110156132dd576132d26000826132a6565b6001810190506132bf565b5050565b601f821115613322576132f3816131cc565b6132fc846131e1565b8101602085101561330b578190505b61331f613317856131e1565b8301826132be565b50505b505050565b600082821c905092915050565b600061334560001984600802613327565b1980831691505092915050565b600061335e8383613334565b9150826002028217905092915050565b61337782612930565b67ffffffffffffffff8111156133905761338f612ce2565b5b61339a8254613153565b6133a58282856132e1565b600060209050601f8311600181146133d857600084156133c6578287015190505b6133d08582613352565b865550613438565b601f1984166133e6866131cc565b60005b8281101561340e578489015182556001820191506020850194506020810190506133e9565b8683101561342b5784890151613427601f891682613334565b8355505b6001600288020188555050505b505050505050565b6000608082019050818103600083015261345a8187612987565b9050818103602083015261346e8186612987565b905061347d6040830185612a28565b61348a6060830184612921565b95945050505050565b7f4e487b7100000000000000000000000000000000000000000000000000000000600052603260045260246000fd5b60006134cd826127e4565b91506134d8836127e4565b92508282039050818111156134f0576134ef6130c1565b5b92915050565b7f4e487b7100000000000000000000000000000000000000000000000000000000600052603160045260246000fd5b6000613530826127e4565b915061353b836127e4565b9250828202613549816127e4565b915082820484148315176135605761355f6130c1565b5b5092915050565b7f4e487b7100000000000000000000000000000000000000000000000000000000600052601260045260246000fd5b60006135a1826127e4565b91506135ac836127e4565b9250826135bc576135bb613567565b5b828204905092915050565b60006060820190506135dc6000830186612f8a565b6135e96020830185612f8a565b6135f66040830184612921565b949350505050565b60006040820190506136136000830185612f8a565b6136206020830184612921565b939250505056fea26469706673582212207773ca6760550b1cf56aaf70bf8c5c80d243ef6bcfd913b1b6806bddca6461e364736f6c634300081c0033",
  "linkReferences": {},
  "deployedLinkReferences": {}
}