{
  "contracts/ChainChaos.sol": {
    "ChainChaos": {
      "abi": [
        {
          "inputs": [
            {
              "internalType": "address",
              "name": "_usdcToken",
              "type": "address"
            }
          ],
          "stateMutability": "nonpayable",
          "type": "constructor"
        },
        {
          "inputs": [],
          "name": "BetAlreadySettled",
          "type": "error"
        },
        {
          "inputs": [],
          "name": "BetNotActive",
          "type": "error"
        },
        {
          "inputs": [],
          "name": "BetNotSettled",
          "type": "error"
        },
        {
          "inputs": [],
          "name": "BetTooLarge",
          "type": "error"
        },
        {
          "inputs": [],
          "name": "BetTooSmall",
          "type": "error"
        },
        {
          "inputs": [],
          "name": "InsufficientUSDCAllowance",
          "type": "error"
        },
        {
          "inputs": [],
          "name": "InvalidBetAmount",
          "type": "error"
        },
        {
          "inputs": [],
          "name": "InvalidBetId",
          "type": "error"
        },
        {
          "inputs": [],
          "name": "InvalidWinnerIndices",
          "type": "error"
        },
        {
          "inputs": [],
          "name": "NoRefundAvailable",
          "type": "error"
        },
        {
          "inputs": [],
          "name": "NoWinnersProvided",
          "type": "error"
        },
        {
          "inputs": [],
          "name": "NotWinnerOrAlreadyClaimed",
          "type": "error"
        },
        {
          "inputs": [
            {
              "internalType": "address",
              "name": "owner",
              "type": "address"
            }
          ],
          "name": "OwnableInvalidOwner",
          "type": "error"
        },
        {
          "inputs": [
            {
              "internalType": "address",
              "name": "account",
              "type": "address"
            }
          ],
          "name": "OwnableUnauthorizedAccount",
          "type": "error"
        },
        {
          "inputs": [],
          "name": "PlayerAlreadyBet",
          "type": "error"
        },
        {
          "inputs": [
            {
              "internalType": "address",
              "name": "token",
              "type": "address"
            }
          ],
          "name": "SafeERC20FailedOperation",
          "type": "error"
        },
        {
          "inputs": [],
          "name": "WrongCurrency",
          "type": "error"
        },
        {
          "anonymous": false,
          "inputs": [
            {
              "indexed": true,
              "internalType": "uint256",
              "name": "betId",
              "type": "uint256"
            }
          ],
          "name": "BetCancelled",
          "type": "event"
        },
        {
          "anonymous": false,
          "inputs": [
            {
              "indexed": true,
              "internalType": "uint256",
              "name": "betId",
              "type": "uint256"
            },
            {
              "indexed": false,
              "internalType": "string",
              "name": "category",
              "type": "string"
            },
            {
              "indexed": false,
              "internalType": "string",
              "name": "description",
              "type": "string"
            },
            {
              "indexed": false,
              "internalType": "enum ChainChaos.CurrencyType",
              "name": "currencyType",
              "type": "uint8"
            },
            {
              "indexed": false,
              "internalType": "uint256",
              "name": "betAmount",
              "type": "uint256"
            }
          ],
          "name": "BetCreated",
          "type": "event"
        },
        {
          "anonymous": false,
          "inputs": [
            {
              "indexed": true,
              "internalType": "uint256",
              "name": "betId",
              "type": "uint256"
            },
            {
              "indexed": false,
              "internalType": "uint256",
              "name": "actualValue",
              "type": "uint256"
            },
            {
              "indexed": false,
              "internalType": "uint256[]",
              "name": "winnerIndices",
              "type": "uint256[]"
            },
            {
              "indexed": false,
              "internalType": "bool",
              "name": "refundMode",
              "type": "bool"
            }
          ],
          "name": "BetSettled",
          "type": "event"
        },
        {
          "anonymous": false,
          "inputs": [
            {
              "indexed": true,
              "internalType": "uint256",
              "name": "betId",
              "type": "uint256"
            },
            {
              "indexed": false,
              "internalType": "uint256",
              "name": "fee",
              "type": "uint256"
            }
          ],
          "name": "OwnerFeeCollected",
          "type": "event"
        },
        {
          "anonymous": false,
          "inputs": [
            {
              "indexed": true,
              "internalType": "address",
              "name": "previousOwner",
              "type": "address"
            },
            {
              "indexed": true,
              "internalType": "address",
              "name": "newOwner",
              "type": "address"
            }
          ],
          "name": "OwnershipTransferred",
          "type": "event"
        },
        {
          "anonymous": false,
          "inputs": [
            {
              "indexed": true,
              "internalType": "uint256",
              "name": "betId",
              "type": "uint256"
            },
            {
              "indexed": true,
              "internalType": "address",
              "name": "player",
              "type": "address"
            },
            {
              "indexed": false,
              "internalType": "uint256",
              "name": "guess",
              "type": "uint256"
            }
          ],
          "name": "PlayerBetPlaced",
          "type": "event"
        },
        {
          "anonymous": false,
          "inputs": [
            {
              "indexed": true,
              "internalType": "uint256",
              "name": "betId",
              "type": "uint256"
            },
            {
              "indexed": true,
              "internalType": "address",
              "name": "winner",
              "type": "address"
            },
            {
              "indexed": false,
              "internalType": "uint256",
              "name": "prize",
              "type": "uint256"
            }
          ],
          "name": "PrizeClaimed",
          "type": "event"
        },
        {
          "anonymous": false,
          "inputs": [
            {
              "indexed": true,
              "internalType": "uint256",
              "name": "betId",
              "type": "uint256"
            },
            {
              "indexed": true,
              "internalType": "address",
              "name": "player",
              "type": "address"
            },
            {
              "indexed": false,
              "internalType": "uint256",
              "name": "amount",
              "type": "uint256"
            }
          ],
          "name": "Refunded",
          "type": "event"
        },
        {
          "inputs": [],
          "name": "OWNER_FEE_PERCENT",
          "outputs": [
            {
              "internalType": "uint256",
              "name": "",
              "type": "uint256"
            }
          ],
          "stateMutability": "view",
          "type": "function"
        },
        {
          "inputs": [
            {
              "internalType": "uint256",
              "name": "",
              "type": "uint256"
            }
          ],
          "name": "activeBetIds",
          "outputs": [
            {
              "internalType": "uint256",
              "name": "",
              "type": "uint256"
            }
          ],
          "stateMutability": "view",
          "type": "function"
        },
        {
          "inputs": [
            {
              "internalType": "uint256",
              "name": "",
              "type": "uint256"
            }
          ],
          "name": "bets",
          "outputs": [
            {
              "internalType": "uint256",
              "name": "id",
              "type": "uint256"
            },
            {
              "internalType": "string",
              "name": "category",
              "type": "string"
            },
            {
              "internalType": "string",
              "name": "description",
              "type": "string"
            },
            {
              "internalType": "enum ChainChaos.CurrencyType",
              "name": "currencyType",
              "type": "uint8"
            },
            {
              "internalType": "uint256",
              "name": "betAmount",
              "type": "uint256"
            },
            {
              "internalType": "uint256",
              "name": "actualValue",
              "type": "uint256"
            },
            {
              "internalType": "enum ChainChaos.BetStatus",
              "name": "status",
              "type": "uint8"
            },
            {
              "internalType": "uint256",
              "name": "totalPot",
              "type": "uint256"
            },
            {
              "internalType": "bool",
              "name": "refundMode",
              "type": "bool"
            },
            {
              "internalType": "uint256",
              "name": "createdAt",
              "type": "uint256"
            }
          ],
          "stateMutability": "view",
          "type": "function"
        },
        {
          "inputs": [
            {
              "internalType": "uint256",
              "name": "betId",
              "type": "uint256"
            }
          ],
          "name": "cancelBet",
          "outputs": [],
          "stateMutability": "nonpayable",
          "type": "function"
        },
        {
          "inputs": [
            {
              "internalType": "uint256",
              "name": "betId",
              "type": "uint256"
            }
          ],
          "name": "claimPrize",
          "outputs": [],
          "stateMutability": "nonpayable",
          "type": "function"
        },
        {
          "inputs": [
            {
              "internalType": "string",
              "name": "category",
              "type": "string"
            },
            {
              "internalType": "string",
              "name": "description",
              "type": "string"
            },
            {
              "internalType": "enum ChainChaos.CurrencyType",
              "name": "currencyType",
              "type": "uint8"
            },
            {
              "internalType": "uint256",
              "name": "betAmount",
              "type": "uint256"
            }
          ],
          "name": "createBet",
          "outputs": [
            {
              "internalType": "uint256",
              "name": "",
              "type": "uint256"
            }
          ],
          "stateMutability": "nonpayable",
          "type": "function"
        },
        {
          "inputs": [],
          "name": "getActiveBets",
          "outputs": [
            {
              "internalType": "uint256[]",
              "name": "",
              "type": "uint256[]"
            }
          ],
          "stateMutability": "view",
          "type": "function"
        },
        {
          "inputs": [
            {
              "internalType": "uint256",
              "name": "betId",
              "type": "uint256"
            }
          ],
          "name": "getBetInfo",
          "outputs": [
            {
              "internalType": "uint256",
              "name": "id",
              "type": "uint256"
            },
            {
              "internalType": "string",
              "name": "category",
              "type": "string"
            },
            {
              "internalType": "string",
              "name": "description",
              "type": "string"
            },
            {
              "internalType": "enum ChainChaos.CurrencyType",
              "name": "currencyType",
              "type": "uint8"
            },
            {
              "internalType": "uint256",
              "name": "betAmount",
              "type": "uint256"
            },
            {
              "internalType": "uint256",
              "name": "actualValue",
              "type": "uint256"
            },
            {
              "internalType": "enum ChainChaos.BetStatus",
              "name": "status",
              "type": "uint8"
            },
            {
              "internalType": "uint256",
              "name": "totalPot",
              "type": "uint256"
            },
            {
              "internalType": "bool",
              "name": "refundMode",
              "type": "bool"
            },
            {
              "internalType": "uint256",
              "name": "playerBetCount",
              "type": "uint256"
            },
            {
              "internalType": "uint256",
              "name": "createdAt",
              "type": "uint256"
            }
          ],
          "stateMutability": "view",
          "type": "function"
        },
        {
          "inputs": [
            {
              "internalType": "uint256",
              "name": "betId",
              "type": "uint256"
            }
          ],
          "name": "getBetPot",
          "outputs": [
            {
              "internalType": "uint256",
              "name": "",
              "type": "uint256"
            }
          ],
          "stateMutability": "view",
          "type": "function"
        },
        {
          "inputs": [
            {
              "internalType": "uint256",
              "name": "betId",
              "type": "uint256"
            }
          ],
          "name": "getBetWinnerIndices",
          "outputs": [
            {
              "internalType": "uint256[]",
              "name": "",
              "type": "uint256[]"
            }
          ],
          "stateMutability": "view",
          "type": "function"
        },
        {
          "inputs": [
            {
              "internalType": "uint256",
              "name": "betId",
              "type": "uint256"
            },
            {
              "internalType": "uint256",
              "name": "playerBetIndex",
              "type": "uint256"
            }
          ],
          "name": "getPlayerBet",
          "outputs": [
            {
              "internalType": "address",
              "name": "player",
              "type": "address"
            },
            {
              "internalType": "uint256",
              "name": "guess",
              "type": "uint256"
            },
            {
              "internalType": "bool",
              "name": "claimed",
              "type": "bool"
            }
          ],
          "stateMutability": "view",
          "type": "function"
        },
        {
          "inputs": [],
          "name": "getSettledBets",
          "outputs": [
            {
              "internalType": "uint256[]",
              "name": "",
              "type": "uint256[]"
            }
          ],
          "stateMutability": "view",
          "type": "function"
        },
        {
          "inputs": [
            {
              "internalType": "uint256",
              "name": "",
              "type": "uint256"
            },
            {
              "internalType": "address",
              "name": "",
              "type": "address"
            }
          ],
          "name": "hasPlayerBet",
          "outputs": [
            {
              "internalType": "bool",
              "name": "",
              "type": "bool"
            }
          ],
          "stateMutability": "view",
          "type": "function"
        },
        {
          "inputs": [],
          "name": "nextBetId",
          "outputs": [
            {
              "internalType": "uint256",
              "name": "",
              "type": "uint256"
            }
          ],
          "stateMutability": "view",
          "type": "function"
        },
        {
          "inputs": [],
          "name": "owner",
          "outputs": [
            {
              "internalType": "address",
              "name": "",
              "type": "address"
            }
          ],
          "stateMutability": "view",
          "type": "function"
        },
        {
          "inputs": [
            {
              "internalType": "uint256",
              "name": "betId",
              "type": "uint256"
            },
            {
              "internalType": "uint256",
              "name": "guess",
              "type": "uint256"
            }
          ],
          "name": "placeBetNative",
          "outputs": [],
          "stateMutability": "payable",
          "type": "function"
        },
        {
          "inputs": [
            {
              "internalType": "uint256",
              "name": "betId",
              "type": "uint256"
            },
            {
              "internalType": "uint256",
              "name": "guess",
              "type": "uint256"
            }
          ],
          "name": "placeBetUSDC",
          "outputs": [],
          "stateMutability": "nonpayable",
          "type": "function"
        },
        {
          "inputs": [],
          "name": "renounceOwnership",
          "outputs": [],
          "stateMutability": "nonpayable",
          "type": "function"
        },
        {
          "inputs": [
            {
              "internalType": "uint256",
              "name": "betId",
              "type": "uint256"
            },
            {
              "internalType": "uint256",
              "name": "actualValue",
              "type": "uint256"
            }
          ],
          "name": "settleBet",
          "outputs": [],
          "stateMutability": "nonpayable",
          "type": "function"
        },
        {
          "inputs": [
            {
              "internalType": "uint256",
              "name": "",
              "type": "uint256"
            }
          ],
          "name": "settledBetIds",
          "outputs": [
            {
              "internalType": "uint256",
              "name": "",
              "type": "uint256"
            }
          ],
          "stateMutability": "view",
          "type": "function"
        },
        {
          "inputs": [
            {
              "internalType": "address",
              "name": "newOwner",
              "type": "address"
            }
          ],
          "name": "transferOwnership",
          "outputs": [],
          "stateMutability": "nonpayable",
          "type": "function"
        },
        {
          "inputs": [],
          "name": "usdcToken",
          "outputs": [
            {
              "internalType": "contract IERC20",
              "name": "",
              "type": "address"
            }
          ],
          "stateMutability": "view",
          "type": "function"
        },
        {
          "stateMutability": "payable",
          "type": "receive"
        }
      ],
      "evm": {
        "bytecode": {
          "linkReferences": {},
          "object": "60a06040526001805534801561001457600080fd5b5060405161390c38038061390c8339818101604052810190610036919061021a565b33600073ffffffffffffffffffffffffffffffffffffffff168173ffffffffffffffffffffffffffffffffffffffff16036100a95760006040517f1e4fbdf70000000000000000000000000000000000000000000000000000000081526004016100a09190610256565b60405180910390fd5b6100b8816100f360201b60201c565b508073ffffffffffffffffffffffffffffffffffffffff1660808173ffffffffffffffffffffffffffffffffffffffff168152505050610271565b60008060009054906101000a900473ffffffffffffffffffffffffffffffffffffffff169050816000806101000a81548173ffffffffffffffffffffffffffffffffffffffff021916908373ffffffffffffffffffffffffffffffffffffffff1602179055508173ffffffffffffffffffffffffffffffffffffffff168173ffffffffffffffffffffffffffffffffffffffff167f8be0079c531659141344cd1fd0a4f28419497f9722a3daafe3b4186f6b6457e060405160405180910390a35050565b600080fd5b600073ffffffffffffffffffffffffffffffffffffffff82169050919050565b60006101e7826101bc565b9050919050565b6101f7816101dc565b811461020257600080fd5b50565b600081519050610214816101ee565b92915050565b6000602082840312156102305761022f6101b7565b5b600061023e84828501610205565b91505092915050565b610250816101dc565b82525050565b600060208201905061026b6000830184610247565b92915050565b60805161365d6102af6000396000818161089b01528181610a0e01528181610c0501528181611ea80152818161226b0152612572015261365d6000f3fe6080604052600436106101395760003560e01c80638da5cb5b116100ab578063d6ce91441161006f578063d6ce91441461045a578063d709815414610476578063d8bf89741461049f578063ddd70709146104dc578063f2fde38b14610519578063f4a690f61461054257610140565b80638da5cb5b146103715780639aca27921461039c578063a8a3221e146103c7578063ada73020146103f2578063c303b9021461041d57610140565b8063357401f5116100fd578063357401f5146102335780635195d6121461025c578063589f241014610299578063639a66e7146102d6578063715018a61461031357806379141f801461032a57610140565b80630d2cbe13146101455780630d4276531461016e57806311eac8551461019757806322af00fa146101c257806327baedd51461020857610140565b3661014057005b600080fd5b34801561015157600080fd5b5061016c6004803603810190610167919061281a565b610581565b005b34801561017a57600080fd5b506101956004803603810190610190919061281a565b6107a0565b005b3480156101a357600080fd5b506101ac610c03565b6040516101b991906128d9565b60405180910390f35b3480156101ce57600080fd5b506101e960048036038101906101e491906128f4565b610c27565b6040516101ff9a99989796959493929190612a9a565b60405180910390f35b34801561021457600080fd5b5061021d610db2565b60405161022a9190612c02565b60405180910390f35b34801561023f57600080fd5b5061025a600480360381019061025591906128f4565b610e0a565b005b34801561026857600080fd5b50610283600480360381019061027e91906128f4565b610f1c565b6040516102909190612c24565b60405180910390f35b3480156102a557600080fd5b506102c060048036038101906102bb9190612c7d565b610f40565b6040516102cd9190612cbd565b60405180910390f35b3480156102e257600080fd5b506102fd60048036038101906102f89190612e32565b610f6f565b60405161030a9190612c24565b60405180910390f35b34801561031f57600080fd5b506103286110f1565b005b34801561033657600080fd5b50610351600480360381019061034c91906128f4565b611105565b6040516103689b9a99989796959493929190612ed1565b60405180910390f35b34801561037d57600080fd5b506103866112ca565b6040516103939190612f99565b60405180910390f35b3480156103a857600080fd5b506103b16112f3565b6040516103be9190612c24565b60405180910390f35b3480156103d357600080fd5b506103dc6112f9565b6040516103e99190612c24565b60405180910390f35b3480156103fe57600080fd5b506104076112fe565b6040516104149190612c02565b60405180910390f35b34801561042957600080fd5b50610444600480360381019061043f91906128f4565b611356565b6040516104519190612c02565b60405180910390f35b610474600480360381019061046f919061281a565b6113c4565b005b34801561048257600080fd5b5061049d600480360381019061049891906128f4565b611737565b005b3480156104ab57600080fd5b506104c660048036038101906104c191906128f4565b611831565b6040516104d39190612c24565b60405180910390f35b3480156104e857600080fd5b5061050360048036038101906104fe91906128f4565b611851565b6040516105109190612c24565b60405180910390f35b34801561052557600080fd5b50610540600480360381019061053b9190612fb4565b611875565b005b34801561054e57600080fd5b506105696004803603810190610564919061281a565b6118fb565b60405161057893929190612fe1565b60405180910390f35b610589611983565b6000600260008481526020019081526020016000209050600060028111156105b4576105b36129c0565b5b8160060160009054906101000a900460ff1660028111156105d8576105d76129c0565b5b1461060f576040517fe38f163d00000000000000000000000000000000000000000000000000000000815260040160405180910390fd5b81816005018190555060018160060160006101000a81548160ff021916908360028111156106405761063f6129c0565b5b021790555061064e83611a0a565b600583908060018154018082558091505060019003906000526020600020016000909190919091505561068081611acf565b1561072d5760018160090160006101000a81548160ff021916908315150217905550827f53b6ca4744013ba75fef77024c44b5e6774b52578c20619933d321b59f5e6ada83600067ffffffffffffffff8111156106e0576106df612ce2565b5b60405190808252806020026020018201604052801561070e5781602001602082028036833780820191505090505b50600160405161072093929190613018565b60405180910390a261079b565b600061073882611bea565b905080826008019080519060200190610752929190612766565b5061075c82611de0565b837f53b6ca4744013ba75fef77024c44b5e6774b52578c20619933d321b59f5e6ada8483600060405161079193929190613018565b60405180910390a2505b505050565b6000600260008481526020019081526020016000209050600060028111156107cb576107ca6129c0565b5b8160060160009054906101000a900460ff1660028111156107ef576107ee6129c0565b5b14610826576040517fe38f163d00000000000000000000000000000000000000000000000000000000815260040160405180910390fd5b600180811115610839576108386129c0565b5b8160030160009054906101000a900460ff16600181111561085d5761085c6129c0565b5b14610894576040517f164fb6c200000000000000000000000000000000000000000000000000000000815260040160405180910390fd5b80600401547f000000000000000000000000000000000000000000000000000000000000000073ffffffffffffffffffffffffffffffffffffffff1663dd62ed3e33306040518363ffffffff1660e01b81526004016108f4929190613056565b602060405180830381865afa158015610911573d6000803e3d6000fd5b505050506040513d601f19601f820116820180604052508101906109359190613094565b101561096d576040517fe2822ff100000000000000000000000000000000000000000000000000000000815260040160405180910390fd5b6003600084815260200190815260200160002060003373ffffffffffffffffffffffffffffffffffffffff1673ffffffffffffffffffffffffffffffffffffffff16815260200190815260200160002060009054906101000a900460ff1615610a02576040517feb0163a100000000000000000000000000000000000000000000000000000000815260040160405180910390fd5b610a53333083600401547f000000000000000000000000000000000000000000000000000000000000000073ffffffffffffffffffffffffffffffffffffffff16611f2e909392919063ffffffff16565b80600a0160405180606001604052803373ffffffffffffffffffffffffffffffffffffffff16815260200184815260200160001515815250908060018154018082558091505060019003906000526020600020906003020160009091909190915060008201518160000160006101000a81548173ffffffffffffffffffffffffffffffffffffffff021916908373ffffffffffffffffffffffffffffffffffffffff1602179055506020820151816001015560408201518160020160006101000a81548160ff02191690831515021790555050508060040154816007016000828254610b3f91906130f0565b9250508190555060016003600085815260200190815260200160002060003373ffffffffffffffffffffffffffffffffffffffff1673ffffffffffffffffffffffffffffffffffffffff16815260200190815260200160002060006101000a81548160ff0219169083151502179055503373ffffffffffffffffffffffffffffffffffffffff16837fae6e469845072cd465cbe2a8b4f46cff1b0263205ffe97879e063bbbea36bb7c84604051610bf69190612c24565b60405180910390a3505050565b7f000000000000000000000000000000000000000000000000000000000000000081565b6002602052806000526040600020600091509050806000015490806001018054610c5090613153565b80601f0160208091040260200160405190810160405280929190818152602001828054610c7c90613153565b8015610cc95780601f10610c9e57610100808354040283529160200191610cc9565b820191906000526020600020905b815481529060010190602001808311610cac57829003601f168201915b505050505090806002018054610cde90613153565b80601f0160208091040260200160405190810160405280929190818152602001828054610d0a90613153565b8015610d575780601f10610d2c57610100808354040283529160200191610d57565b820191906000526020600020905b815481529060010190602001808311610d3a57829003601f168201915b5050505050908060030160009054906101000a900460ff16908060040154908060050154908060060160009054906101000a900460ff16908060070154908060090160009054906101000a900460ff169080600b015490508a565b60606005805480602002602001604051908101604052809291908181526020018280548015610e0057602002820191906000526020600020905b815481526020019060010190808311610dec575b5050505050905090565b610e12611983565b600060026000838152602001908152602001600020905060006002811115610e3d57610e3c6129c0565b5b8160060160009054906101000a900460ff166002811115610e6157610e606129c0565b5b14610e98576040517fe38f163d00000000000000000000000000000000000000000000000000000000815260040160405180910390fd5b60028160060160006101000a81548160ff02191690836002811115610ec057610ebf6129c0565b5b021790555060018160090160006101000a81548160ff021916908315150217905550610eeb82611a0a565b817fe3906e8d1e2167ef706b023e6e83af697db5cd38f233c71bf5021b26b316c3a260405160405180910390a25050565b60048181548110610f2c57600080fd5b906000526020600020016000915090505481565b60036020528160005260406000206020528060005260406000206000915091509054906101000a900460ff1681565b6000610f79611983565b60008203610fb3576040517f9de3d44100000000000000000000000000000000000000000000000000000000815260040160405180910390fd5b600060016000815480929190610fc890613184565b919050559050600060026000838152602001908152602001600020905081816000018190555086816001019081610fff919061336e565b5085816002019081611011919061336e565b50848160030160006101000a81548160ff02191690836001811115611039576110386129c0565b5b021790555083816004018190555060008160060160006101000a81548160ff0219169083600281111561106f5761106e6129c0565b5b02179055504281600b01819055506004829080600181540180825580915050600190039060005260206000200160009091909190915055817ff7dfcab2992417049cb3e78dcb5d3ac9520e053800daab4885bc264a958f19f8888888886040516110dc9493929190613440565b60405180910390a28192505050949350505050565b6110f9611983565b6111036000611fb0565b565b60006060806000806000806000806000806000600260008e81526020019081526020016000209050806000015481600101826002018360030160009054906101000a900460ff16846004015485600501548660060160009054906101000a900460ff1687600701548860090160009054906101000a900460ff1689600a01805490508a600b015489805461119890613153565b80601f01602080910402602001604051908101604052809291908181526020018280546111c490613153565b80156112115780601f106111e657610100808354040283529160200191611211565b820191906000526020600020905b8154815290600101906020018083116111f457829003601f168201915b5050505050995088805461122490613153565b80601f016020809104026020016040519081016040528092919081815260200182805461125090613153565b801561129d5780601f106112725761010080835404028352916020019161129d565b820191906000526020600020905b81548152906001019060200180831161128057829003601f168201915b505050505098509b509b509b509b509b509b509b509b509b509b509b505091939597999b90929496989a50565b60008060009054906101000a900473ffffffffffffffffffffffffffffffffffffffff16905090565b60015481565b600581565b6060600480548060200260200160405190810160405280929190818152602001828054801561134c57602002820191906000526020600020905b815481526020019060010190808311611338575b5050505050905090565b6060600260008381526020019081526020016000206008018054806020026020016040519081016040528092919081815260200182805480156113b857602002820191906000526020600020905b8154815260200190600101908083116113a4575b50505050509050919050565b6000600260008481526020019081526020016000209050600060028111156113ef576113ee6129c0565b5b8160060160009054906101000a900460ff166002811115611413576114126129c0565b5b1461144a576040517fe38f163d00000000000000000000000000000000000000000000000000000000815260040160405180910390fd5b6000600181111561145e5761145d6129c0565b5b8160030160009054906101000a900460ff166001811115611482576114816129c0565b5b146114b9576040517f164fb6c200000000000000000000000000000000000000000000000000000000815260040160405180910390fd5b806004015434146114f6576040517f9de3d44100000000000000000000000000000000000000000000000000000000815260040160405180910390fd5b6003600084815260200190815260200160002060003373ffffffffffffffffffffffffffffffffffffffff1673ffffffffffffffffffffffffffffffffffffffff16815260200190815260200160002060009054906101000a900460ff161561158b576040517feb0163a100000000000000000000000000000000000000000000000000000000815260040160405180910390fd5b80600a0160405180606001604052803373ffffffffffffffffffffffffffffffffffffffff16815260200184815260200160001515815250908060018154018082558091505060019003906000526020600020906003020160009091909190915060008201518160000160006101000a81548173ffffffffffffffffffffffffffffffffffffffff021916908373ffffffffffffffffffffffffffffffffffffffff1602179055506020820151816001015560408201518160020160006101000a81548160ff02191690831515021790555050503481600701600082825461167391906130f0565b9250508190555060016003600085815260200190815260200160002060003373ffffffffffffffffffffffffffffffffffffffff1673ffffffffffffffffffffffffffffffffffffffff16815260200190815260200160002060006101000a81548160ff0219169083151502179055503373ffffffffffffffffffffffffffffffffffffffff16837fae6e469845072cd465cbe2a8b4f46cff1b0263205ffe97879e063bbbea36bb7c8460405161172a9190612c24565b60405180910390a3505050565b600060026000838152602001908152602001600020905060006002811115611762576117616129c0565b5b8160060160009054906101000a900460ff166002811115611786576117856129c0565b5b036117bd576040517f616e4dc100000000000000000000000000000000000000000000000000000000815260040160405180910390fd5b8060090160009054906101000a900460ff168061180e57506002808111156117e8576117e76129c0565b5b8160060160009054906101000a900460ff16600281111561180c5761180b6129c0565b5b145b156118225761181d8183612074565b61182d565b61182c8183612304565b5b5050565b600060026000838152602001908152602001600020600701549050919050565b6005818154811061186157600080fd5b906000526020600020016000915090505481565b61187d611983565b600073ffffffffffffffffffffffffffffffffffffffff168173ffffffffffffffffffffffffffffffffffffffff16036118ef5760006040517f1e4fbdf70000000000000000000000000000000000000000000000000000000081526004016118e69190612f99565b60405180910390fd5b6118f881611fb0565b50565b60008060008060026000878152602001908152602001600020600a01858154811061192957611928613493565b5b906000526020600020906003020190508060000160009054906101000a900473ffffffffffffffffffffffffffffffffffffffff1681600101548260020160009054906101000a900460ff16935093509350509250925092565b61198b61260e565b73ffffffffffffffffffffffffffffffffffffffff166119a96112ca565b73ffffffffffffffffffffffffffffffffffffffff1614611a08576119cc61260e565b6040517f118cdaa70000000000000000000000000000000000000000000000000000000081526004016119ff9190612f99565b60405180910390fd5b565b60005b600480549050811015611acb578160048281548110611a2f57611a2e613493565b5b906000526020600020015403611abe5760046001600480549050611a5391906134c2565b81548110611a6457611a63613493565b5b906000526020600020015460048281548110611a8357611a82613493565b5b90600052602060002001819055506004805480611aa357611aa26134f6565b5b60019003818190600052602060002001600090559055611acb565b8080600101915050611a0d565b5050565b6000600182600a018054905011611ae95760019050611be5565b600082600a01600081548110611b0257611b01613493565b5b906000526020600020906003020160000160009054906101000a900473ffffffffffffffffffffffffffffffffffffffff1690506000600190505b83600a0180549050811015611bde578173ffffffffffffffffffffffffffffffffffffffff1684600a018281548110611b7957611b78613493565b5b906000526020600020906003020160000160009054906101000a900473ffffffffffffffffffffffffffffffffffffffff1673ffffffffffffffffffffffffffffffffffffffff1614611bd157600092505050611be5565b8080600101915050611b3d565b5060019150505b919050565b6060600082600a018054905003611c4c57600067ffffffffffffffff811115611c1657611c15612ce2565b5b604051908082528060200260200182016040528015611c445781602001602082028036833780820191505090505b509050611ddb565b60007fffffffffffffffffffffffffffffffffffffffffffffffffffffffffffffffff90506000805b84600a0180549050811015611cf6576000611cbb86600a018381548110611c9f57611c9e613493565b5b9060005260206000209060030201600101548760050154612616565b905083811015611cd15780935060019250611ce8565b838103611ce7578280611ce390613184565b9350505b5b508080600101915050611c75565b5060008167ffffffffffffffff811115611d1357611d12612ce2565b5b604051908082528060200260200182016040528015611d415781602001602082028036833780820191505090505b5090506000805b86600a0180549050811015611dd2576000611d8e88600a018381548110611d7257611d71613493565b5b9060005260206000209060030201600101548960050154612616565b9050858103611dc45781848480611da490613184565b955081518110611db757611db6613493565b5b6020026020010181815250505b508080600101915050611d48565b50819450505050505b919050565b6000606460058360070154611df59190613525565b611dff9190613596565b90506000811115611f2a5760006001811115611e1e57611e1d6129c0565b5b8260030160009054906101000a900460ff166001811115611e4257611e416129c0565b5b03611e9a57611e4f6112ca565b73ffffffffffffffffffffffffffffffffffffffff166108fc829081150290604051600060405180830381858888f19350505050158015611e94573d6000803e3d6000fd5b50611eed565b611eec611ea56112ca565b827f000000000000000000000000000000000000000000000000000000000000000073ffffffffffffffffffffffffffffffffffffffff166126459092919063ffffffff16565b5b81600001547f68944df5e29d9545d24c647f50529fdbcdaf2b667b84ef6ba77deedde37e6acf82604051611f219190612c24565b60405180910390a25b5050565b611faa848573ffffffffffffffffffffffffffffffffffffffff166323b872dd868686604051602401611f63939291906135c7565b604051602081830303815290604052915060e01b6020820180517bffffffffffffffffffffffffffffffffffffffffffffffffffffffff83818316178352505050506126c4565b50505050565b60008060009054906101000a900473ffffffffffffffffffffffffffffffffffffffff169050816000806101000a81548173ffffffffffffffffffffffffffffffffffffffff021916908373ffffffffffffffffffffffffffffffffffffffff1602179055508173ffffffffffffffffffffffffffffffffffffffff168173ffffffffffffffffffffffffffffffffffffffff167f8be0079c531659141344cd1fd0a4f28419497f9722a3daafe3b4186f6b6457e060405160405180910390a35050565b6000805b83600a01805490508110156121a0573373ffffffffffffffffffffffffffffffffffffffff1684600a0182815481106120b4576120b3613493565b5b906000526020600020906003020160000160009054906101000a900473ffffffffffffffffffffffffffffffffffffffff1673ffffffffffffffffffffffffffffffffffffffff1614801561213b575083600a01818154811061211a57612119613493565b5b906000526020600020906003020160020160009054906101000a900460ff16155b1561219357600184600a01828154811061215857612157613493565b5b906000526020600020906003020160020160006101000a81548160ff02191690831515021790555083600401548261219091906130f0565b91505b8080600101915050612078565b50600081036121db576040517fe49c14cb00000000000000000000000000000000000000000000000000000000815260040160405180910390fd5b600060018111156121ef576121ee6129c0565b5b8360030160009054906101000a900460ff166001811115612213576122126129c0565b5b03612264573373ffffffffffffffffffffffffffffffffffffffff166108fc829081150290604051600060405180830381858888f1935050505015801561225e573d6000803e3d6000fd5b506122b0565b6122af33827f000000000000000000000000000000000000000000000000000000000000000073ffffffffffffffffffffffffffffffffffffffff166126459092919063ffffffff16565b5b3373ffffffffffffffffffffffffffffffffffffffff16827f7ca5472b7ea78c2c0141c5a12ee6d170cf4ce8ed06be3d22c8252ddfc7a6a2c4836040516122f79190612c24565b60405180910390a3505050565b60008060005b846008018054905081101561245857600085600801828154811061233157612330613493565b5b906000526020600020015490503373ffffffffffffffffffffffffffffffffffffffff1686600a01828154811061236b5761236a613493565b5b906000526020600020906003020160000160009054906101000a900473ffffffffffffffffffffffffffffffffffffffff1673ffffffffffffffffffffffffffffffffffffffff161480156123f2575085600a0181815481106123d1576123d0613493565b5b906000526020600020906003020160020160009054906101000a900460ff16155b1561244a57600186600a01828154811061240f5761240e613493565b5b906000526020600020906003020160020160006101000a81548160ff021916908315150217905550838061244290613184565b945050600192505b50808060010191505061230a565b5080612490576040517f62d67f1200000000000000000000000000000000000000000000000000000000815260040160405180910390fd5b60006064600586600701546124a59190613525565b6124af9190613596565b85600701546124be91906134c2565b90506000856008018054905082856124d69190613525565b6124e09190613596565b9050600060018111156124f6576124f56129c0565b5b8660030160009054906101000a900460ff16600181111561251a576125196129c0565b5b0361256b573373ffffffffffffffffffffffffffffffffffffffff166108fc829081150290604051600060405180830381858888f19350505050158015612565573d6000803e3d6000fd5b506125b7565b6125b633827f000000000000000000000000000000000000000000000000000000000000000073ffffffffffffffffffffffffffffffffffffffff166126459092919063ffffffff16565b5b3373ffffffffffffffffffffffffffffffffffffffff16857f4aa95f981a8337cb337de335b965507da0879c3b49f799d20058e913f5ad2c26836040516125fe9190612c24565b60405180910390a3505050505050565b600033905090565b600081831161263057828261262b91906134c2565b61263d565b818361263c91906134c2565b5b905092915050565b6126bf838473ffffffffffffffffffffffffffffffffffffffff1663a9059cbb85856040516024016126789291906135fe565b604051602081830303815290604052915060e01b6020820180517bffffffffffffffffffffffffffffffffffffffffffffffffffffffff83818316178352505050506126c4565b505050565b600080602060008451602086016000885af1806126e7576040513d6000823e3d81fd5b3d92506000519150506000821461270257600181141561271e565b60008473ffffffffffffffffffffffffffffffffffffffff163b145b1561276057836040517f5274afe70000000000000000000000000000000000000000000000000000000081526004016127579190612f99565b60405180910390fd5b50505050565b8280548282559060005260206000209081019282156127a2579160200282015b828111156127a1578251825591602001919060010190612786565b5b5090506127af91906127b3565b5090565b5b808211156127cc5760008160009055506001016127b4565b5090565b6000604051905090565b600080fd5b600080fd5b6000819050919050565b6127f7816127e4565b811461280257600080fd5b50565b600081359050612814816127ee565b92915050565b60008060408385031215612831576128306127da565b5b600061283f85828601612805565b925050602061285085828601612805565b9150509250929050565b600073ffffffffffffffffffffffffffffffffffffffff82169050919050565b6000819050919050565b600061289f61289a6128958461285a565b61287a565b61285a565b9050919050565b60006128b182612884565b9050919050565b60006128c3826128a6565b9050919050565b6128d3816128b8565b82525050565b60006020820190506128ee60008301846128ca565b92915050565b60006020828403121561290a576129096127da565b5b600061291884828501612805565b91505092915050565b61292a816127e4565b82525050565b600081519050919050565b600082825260208201905092915050565b60005b8381101561296a57808201518184015260208101905061294f565b60008484015250505050565b6000601f19601f8301169050919050565b600061299282612930565b61299c818561293b565b93506129ac81856020860161294c565b6129b581612976565b840191505092915050565b7f4e487b7100000000000000000000000000000000000000000000000000000000600052602160045260246000fd5b60028110612a00576129ff6129c0565b5b50565b6000819050612a11826129ef565b919050565b6000612a2182612a03565b9050919050565b612a3181612a16565b82525050565b60038110612a4857612a476129c0565b5b50565b6000819050612a5982612a37565b919050565b6000612a6982612a4b565b9050919050565b612a7981612a5e565b82525050565b60008115159050919050565b612a9481612a7f565b82525050565b600061014082019050612ab0600083018d612921565b8181036020830152612ac2818c612987565b90508181036040830152612ad6818b612987565b9050612ae5606083018a612a28565b612af26080830189612921565b612aff60a0830188612921565b612b0c60c0830187612a70565b612b1960e0830186612921565b612b27610100830185612a8b565b612b35610120830184612921565b9b9a5050505050505050505050565b600081519050919050565b600082825260208201905092915050565b6000819050602082019050919050565b612b79816127e4565b82525050565b6000612b8b8383612b70565b60208301905092915050565b6000602082019050919050565b6000612baf82612b44565b612bb98185612b4f565b9350612bc483612b60565b8060005b83811015612bf5578151612bdc8882612b7f565b9750612be783612b97565b925050600181019050612bc8565b5085935050505092915050565b60006020820190508181036000830152612c1c8184612ba4565b905092915050565b6000602082019050612c396000830184612921565b92915050565b6000612c4a8261285a565b9050919050565b612c5a81612c3f565b8114612c6557600080fd5b50565b600081359050612c7781612c51565b92915050565b60008060408385031215612c9457612c936127da565b5b6000612ca285828601612805565b9250506020612cb385828601612c68565b9150509250929050565b6000602082019050612cd26000830184612a8b565b92915050565b600080fd5b600080fd5b7f4e487b7100000000000000000000000000000000000000000000000000000000600052604160045260246000fd5b612d1a82612976565b810181811067ffffffffffffffff82111715612d3957612d38612ce2565b5b80604052505050565b6000612d4c6127d0565b9050612d588282612d11565b919050565b600067ffffffffffffffff821115612d7857612d77612ce2565b5b612d8182612976565b9050602081019050919050565b82818337600083830152505050565b6000612db0612dab84612d5d565b612d42565b905082815260208101848484011115612dcc57612dcb612cdd565b5b612dd7848285612d8e565b509392505050565b600082601f830112612df457612df3612cd8565b5b8135612e04848260208601612d9d565b91505092915050565b60028110612e1a57600080fd5b50565b600081359050612e2c81612e0d565b92915050565b60008060008060808587031215612e4c57612e4b6127da565b5b600085013567ffffffffffffffff811115612e6a57612e696127df565b5b612e7687828801612ddf565b945050602085013567ffffffffffffffff811115612e9757612e966127df565b5b612ea387828801612ddf565b9350506040612eb487828801612e1d565b9250506060612ec587828801612805565b91505092959194509250565b600061016082019050612ee7600083018e612921565b8181036020830152612ef9818d612987565b90508181036040830152612f0d818c612987565b9050612f1c606083018b612a28565b612f29608083018a612921565b612f3660a0830189612921565b612f4360c0830188612a70565b612f5060e0830187612921565b612f5e610100830186612a8b565b612f6c610120830185612921565b612f7a610140830184612921565b9c9b505050505050505050505050565b612f9381612c3f565b82525050565b6000602082019050612fae6000830184612f8a565b92915050565b600060208284031215612fca57612fc96127da565b5b6000612fd884828501612c68565b91505092915050565b6000606082019050612ff66000830186612f8a565b6130036020830185612921565b6130106040830184612a8b565b949350505050565b600060608201905061302d6000830186612921565b818103602083015261303f8185612ba4565b905061304e6040830184612a8b565b949350505050565b600060408201905061306b6000830185612f8a565b6130786020830184612f8a565b9392505050565b60008151905061308e816127ee565b92915050565b6000602082840312156130aa576130a96127da565b5b60006130b88482850161307f565b91505092915050565b7f4e487b7100000000000000000000000000000000000000000000000000000000600052601160045260246000fd5b60006130fb826127e4565b9150613106836127e4565b925082820190508082111561311e5761311d6130c1565b5b92915050565b7f4e487b7100000000000000000000000000000000000000000000000000000000600052602260045260246000fd5b6000600282049050600182168061316b57607f821691505b60208210810361317e5761317d613124565b5b50919050565b600061318f826127e4565b91507fffffffffffffffffffffffffffffffffffffffffffffffffffffffffffffffff82036131c1576131c06130c1565b5b600182019050919050565b60008190508160005260206000209050919050565b60006020601f8301049050919050565b600082821b905092915050565b60006008830261322e7fffffffffffffffffffffffffffffffffffffffffffffffffffffffffffffffff826131f1565b61323886836131f1565b95508019841693508086168417925050509392505050565b600061326b613266613261846127e4565b61287a565b6127e4565b9050919050565b6000819050919050565b61328583613250565b61329961329182613272565b8484546131fe565b825550505050565b600090565b6132ae6132a1565b6132b981848461327c565b505050565b5b818110156132dd576132d26000826132a6565b6001810190506132bf565b5050565b601f821115613322576132f3816131cc565b6132fc846131e1565b8101602085101561330b578190505b61331f613317856131e1565b8301826132be565b50505b505050565b600082821c905092915050565b600061334560001984600802613327565b1980831691505092915050565b600061335e8383613334565b9150826002028217905092915050565b61337782612930565b67ffffffffffffffff8111156133905761338f612ce2565b5b61339a8254613153565b6133a58282856132e1565b600060209050601f8311600181146133d857600084156133c6578287015190505b6133d08582613352565b865550613438565b601f1984166133e6866131cc565b60005b8281101561340e578489015182556001820191506020850194506020810190506133e9565b8683101561342b5784890151613427601f891682613334565b8355505b6001600288020188555050505b505050505050565b6000608082019050818103600083015261345a8187612987565b9050818103602083015261346e8186612987565b905061347d6040830185612a28565b61348a6060830184612921565b95945050505050565b7f4e487b7100000000000000000000000000000000000000000000000000000000600052603260045260246000fd5b60006134cd826127e4565b91506134d8836127e4565b92508282039050818111156134f0576134ef6130c1565b5b92915050565b7f4e487b7100000000000000000000000000000000000000000000000000000000600052603160045260246000fd5b6000613530826127e4565b915061353b836127e4565b9250828202613549816127e4565b915082820484148315176135605761355f6130c1565b5b5092915050565b7f4e487b7100000000000000000000000000000000000000000000000000000000600052601260045260246000fd5b60006135a1826127e4565b91506135ac836127e4565b9250826135bc576135bb613567565b5b828204905092915050565b60006060820190506135dc6000830186612f8a565b6135e96020830185612f8a565b6135f66040830184612921565b949350505050565b60006040820190506136136000830185612f8a565b6136206020830184612921565b939250505056fea26469706673582212207773ca6760550b1cf56aaf70bf8c5c80d243ef6bcfd913b1b6806bddca6461e364736f6c634300081c0033",
          "opcodes": "PUSH1 0xA0 PUSH1 0x40 MSTORE PUSH1 0x1 DUP1 SSTORE CALLVALUE DUP1 ISZERO PUSH2 0x14 JUMPI PUSH1 0x0 DUP1 REVERT JUMPDEST POP PUSH1 0x40 MLOAD PUSH2 0x390C CODESIZE SUB DUP1 PUSH2 0x390C DUP4 CODECOPY DUP2 DUP2 ADD PUSH1 0x40 MSTORE DUP2 ADD SWAP1 PUSH2 0x36 SWAP2 SWAP1 PUSH2 0x21A JUMP JUMPDEST CALLER PUSH1 0x0 PUSH20 0xFFFFFFFFFFFFFFFFFFFFFFFFFFFFFFFFFFFFFFFF AND DUP2 PUSH20 0xFFFFFFFFFFFFFFFFFFFFFFFFFFFFFFFFFFFFFFFF AND SUB PUSH2 0xA9 JUMPI PUSH1 0x0 PUSH1 0x40 MLOAD PUSH32 0x1E4FBDF700000000000000000000000000000000000000000000000000000000 DUP2 MSTORE PUSH1 0x4 ADD PUSH2 0xA0 SWAP2 SWAP1 PUSH2 0x256 JUMP JUMPDEST PUSH1 0x40 MLOAD DUP1 SWAP2 SUB SWAP1 REVERT JUMPDEST PUSH2 0xB8 DUP2 PUSH2 0xF3 PUSH1 0x20 SHL PUSH1 0x20 SHR JUMP JUMPDEST POP DUP1 PUSH20 0xFFFFFFFFFFFFFFFFFFFFFFFFFFFFFFFFFFFFFFFF AND PUSH1 0x80 DUP2 PUSH20 0xFFFFFFFFFFFFFFFFFFFFFFFFFFFFFFFFFFFFFFFF AND DUP2 MSTORE POP POP POP PUSH2 0x271 JUMP JUMPDEST PUSH1 0x0 DUP1 PUSH1 0x0 SWAP1 SLOAD SWAP1 PUSH2 0x100 EXP SWAP1 DIV PUSH20 0xFFFFFFFFFFFFFFFFFFFFFFFFFFFFFFFFFFFFFFFF AND SWAP1 POP DUP2 PUSH1 0x0 DUP1 PUSH2 0x100 EXP DUP2 SLOAD DUP2 PUSH20 0xFFFFFFFFFFFFFFFFFFFFFFFFFFFFFFFFFFFFFFFF MUL NOT AND SWAP1 DUP4 PUSH20 0xFFFFFFFFFFFFFFFFFFFFFFFFFFFFFFFFFFFFFFFF AND MUL OR SWAP1 SSTORE POP DUP2 PUSH20 0xFFFFFFFFFFFFFFFFFFFFFFFFFFFFFFFFFFFFFFFF AND DUP2 PUSH20 0xFFFFFFFFFFFFFFFFFFFFFFFFFFFFFFFFFFFFFFFF AND PUSH32 0x8BE0079C531659141344CD1FD0A4F28419497F9722A3DAAFE3B4186F6B6457E0 PUSH1 0x40 MLOAD PUSH1 0x40 MLOAD DUP1 SWAP2 SUB SWAP1 LOG3 POP POP JUMP JUMPDEST PUSH1 0x0 DUP1 REVERT JUMPDEST PUSH1 0x0 PUSH20 0xFFFFFFFFFFFFFFFFFFFFFFFFFFFFFFFFFFFFFFFF DUP3 AND SWAP1 POP SWAP2 SWAP1 POP JUMP JUMPDEST PUSH1 0x0 PUSH2 0x1E7 DUP3 PUSH2 0x1BC JUMP JUMPDEST SWAP1 POP SWAP2 SWAP1 POP JUMP JUMPDEST PUSH2 0x1F7 DUP2 PUSH2 0x1DC JUMP JUMPDEST DUP2 EQ PUSH2 0x202 JUMPI PUSH1 0x0 DUP1 REVERT JUMPDEST POP JUMP JUMPDEST PUSH1 0x0 DUP2 MLOAD SWAP1 POP PUSH2 0x214 DUP2 PUSH2 0x1EE JUMP JUMPDEST SWAP3 SWAP2 POP POP JUMP JUMPDEST PUSH1 0x0 PUSH1 0x20 DUP3 DUP5 SUB SLT ISZERO PUSH2 0x230 JUMPI PUSH2 0x22F PUSH2 0x1B7 JUMP JUMPDEST JUMPDEST PUSH1 0x0 PUSH2 0x23E DUP5 DUP3 DUP6 ADD PUSH2 0x205 JUMP JUMPDEST SWAP2 POP POP SWAP3 SWAP2 POP POP JUMP JUMPDEST PUSH2 0x250 DUP2 PUSH2 0x1DC JUMP JUMPDEST DUP3 MSTORE POP POP JUMP JUMPDEST PUSH1 0x0 PUSH1 0x20 DUP3 ADD SWAP1 POP PUSH2 0x26B PUSH1 0x0 DUP4 ADD DUP5 PUSH2 0x247 JUMP JUMPDEST SWAP3 SWAP2 POP POP JUMP JUMPDEST PUSH1 0x80 MLOAD PUSH2 0x365D PUSH2 0x2AF PUSH1 0x0 CODECOPY PUSH1 0x0 DUP2 DUP2 PUSH2 0x89B ADD MSTORE DUP2 DUP2 PUSH2 0xA0E ADD MSTORE DUP2 DUP2 PUSH2 0xC05 ADD MSTORE DUP2 DUP2 PUSH2 0x1EA8 ADD MSTORE DUP2 DUP2 PUSH2 0x226B ADD MSTORE PUSH2 0x2572 ADD MSTORE PUSH2 0x365D PUSH1 0x0 RETURN INVALID PUSH1 0x80 PUSH1 0x40 MSTORE PUSH1 0x4 CALLDATASIZE LT PUSH2 0x139 JUMPI PUSH1 0x0 CALLDATALOAD PUSH1 0xE0 SHR DUP1 PUSH4 0x8DA5CB5B GT PUSH2 0xAB JUMPI DUP1 PUSH4 0xD6CE9144 GT PUSH2 0x6F JUMPI DUP1 PUSH4 0xD6CE9144 EQ PUSH2 0x45A JUMPI DUP1 PUSH4 0xD7098154 EQ PUSH2 0x476 JUMPI DUP1 PUSH4 0xD8BF8974 EQ PUSH2 0x49F JUMPI DUP1 PUSH4 0xDDD70709 EQ PUSH2 0x4DC JUMPI DUP1 PUSH4 0xF2FDE38B EQ PUSH2 0x519 JUMPI DUP1 PUSH4 0xF4A690F6 EQ PUSH2 0x542 JUMPI PUSH2 0x140 JUMP JUMPDEST DUP1 PUSH4 0x8DA5CB5B EQ PUSH2 0x371 JUMPI DUP1 PUSH4 0x9ACA2792 EQ PUSH2 0x39C JUMPI DUP1 PUSH4 0xA8A3221E EQ PUSH2 0x3C7 JUMPI DUP1 PUSH4 0xADA73020 EQ PUSH2 0x3F2 JUMPI DUP1 PUSH4 0xC303B902 EQ PUSH2 0x41D JUMPI PUSH2 0x140 JUMP JUMPDEST DUP1 PUSH4 0x357401F5 GT PUSH2 0xFD JUMPI DUP1 PUSH4 0x357401F5 EQ PUSH2 0x233 JUMPI DUP1 PUSH4 0x5195D612 EQ PUSH2 0x25C JUMPI DUP1 PUSH4 0x589F2410 EQ PUSH2 0x299 JUMPI DUP1 PUSH4 0x639A66E7 EQ PUSH2 0x2D6 JUMPI DUP1 PUSH4 0x715018A6 EQ PUSH2 0x313 JUMPI DUP1 PUSH4 0x79141F80 EQ PUSH2 0x32A JUMPI PUSH2 0x140 JUMP JUMPDEST DUP1 PUSH4 0xD2CBE13 EQ PUSH2 0x145 JUMPI DUP1 PUSH4 0xD427653 EQ PUSH2 0x16E JUMPI DUP1 PUSH4 0x11EAC855 EQ PUSH2 0x197 JUMPI DUP1 PUSH4 0x22AF00FA EQ PUSH2 0x1C2 JUMPI DUP1 PUSH4 0x27BAEDD5 EQ PUSH2 0x208 JUMPI PUSH2 0x140 JUMP JUMPDEST CALLDATASIZE PUSH2 0x140 JUMPI STOP JUMPDEST PUSH1 0x0 DUP1 REVERT JUMPDEST CALLVALUE DUP1 ISZERO PUSH2 0x151 JUMPI PUSH1 0x0 DUP1 REVERT JUMPDEST POP PUSH2 0x16C PUSH1 0x4 DUP1 CALLDATASIZE SUB DUP2 ADD SWAP1 PUSH2 0x167 SWAP2 SWAP1 PUSH2 0x281A JUMP JUMPDEST PUSH2 0x581 JUMP JUMPDEST STOP JUMPDEST CALLVALUE DUP1 ISZERO PUSH2 0x17A JUMPI PUSH1 0x0 DUP1 REVERT JUMPDEST POP PUSH2 0x195 PUSH1 0x4 DUP1 CALLDATASIZE SUB DUP2 ADD SWAP1 PUSH2 0x190 SWAP2 SWAP1 PUSH2 0x281A JUMP JUMPDEST PUSH2 0x7A0 JUMP JUMPDEST STOP JUMPDEST CALLVALUE DUP1 ISZERO PUSH2 0x1A3 JUMPI PUSH1 0x0 DUP1 REVERT JUMPDEST POP PUSH2 0x1AC PUSH2 0xC03 JUMP JUMPDEST PUSH1 0x40 MLOAD PUSH2 0x1B9 SWAP2 SWAP1 PUSH2 0x28D9 JUMP JUMPDEST PUSH1 0x40 MLOAD DUP1 SWAP2 SUB SWAP1 RETURN JUMPDEST CALLVALUE DUP1 ISZERO PUSH2 0x1CE JUMPI PUSH1 0x0 DUP1 REVERT JUMPDEST POP PUSH2 0x1E9 PUSH1 0x4 DUP1 CALLDATASIZE SUB DUP2 ADD SWAP1 PUSH2 0x1E4 SWAP2 SWAP1 PUSH2 0x28F4 JUMP JUMPDEST PUSH2 0xC27 JUMP JUMPDEST PUSH1 0x40 MLOAD PUSH2 0x1FF SWAP11 SWAP10 SWAP9 SWAP8 SWAP7 SWAP6 SWAP5 SWAP4 SWAP3 SWAP2 SWAP1 PUSH2 0x2A9A JUMP JUMPDEST PUSH1 0x40 MLOAD DUP1 SWAP2 SUB SWAP1 RETURN JUMPDEST CALLVALUE DUP1 ISZERO PUSH2 0x214 JUMPI PUSH1 0x0 DUP1 REVERT JUMPDEST POP PUSH2 0x21D PUSH2 0xDB2 JUMP JUMPDEST PUSH1 0x40 MLOAD PUSH2 0x22A SWAP2 SWAP1 PUSH2 0x2C02 JUMP JUMPDEST PUSH1 0x40 MLOAD DUP1 SWAP2 SUB SWAP1 RETURN JUMPDEST CALLVALUE DUP1 ISZERO PUSH2 0x23F JUMPI PUSH1 0x0 DUP1 REVERT JUMPDEST POP PUSH2 0x25A PUSH1 0x4 DUP1 CALLDATASIZE SUB DUP2 ADD SWAP1 PUSH2 0x255 SWAP2 SWAP1 PUSH2 0x28F4 JUMP JUMPDEST PUSH2 0xE0A JUMP JUMPDEST STOP JUMPDEST CALLVALUE DUP1 ISZERO PUSH2 0x268 JUMPI PUSH1 0x0 DUP1 REVERT JUMPDEST POP PUSH2 0x283 PUSH1 0x4 DUP1 CALLDATASIZE SUB DUP2 ADD SWAP1 PUSH2 0x27E SWAP2 SWAP1 PUSH2 0x28F4 JUMP JUMPDEST PUSH2 0xF1C JUMP JUMPDEST PUSH1 0x40 MLOAD PUSH2 0x290 SWAP2 SWAP1 PUSH2 0x2C24 JUMP JUMPDEST PUSH1 0x40 MLOAD DUP1 SWAP2 SUB SWAP1 RETURN JUMPDEST CALLVALUE DUP1 ISZERO PUSH2 0x2A5 JUMPI PUSH1 0x0 DUP1 REVERT JUMPDEST POP PUSH2 0x2C0 PUSH1 0x4 DUP1 CALLDATASIZE SUB DUP2 ADD SWAP1 PUSH2 0x2BB SWAP2 SWAP1 PUSH2 0x2C7D JUMP JUMPDEST PUSH2 0xF40 JUMP JUMPDEST PUSH1 0x40 MLOAD PUSH2 0x2CD SWAP2 SWAP1 PUSH2 0x2CBD JUMP JUMPDEST PUSH1 0x40 MLOAD DUP1 SWAP2 SUB SWAP1 RETURN JUMPDEST CALLVALUE DUP1 ISZERO PUSH2 0x2E2 JUMPI PUSH1 0x0 DUP1 REVERT JUMPDEST POP PUSH2 0x2FD PUSH1 0x4 DUP1 CALLDATASIZE SUB DUP2 ADD SWAP1 PUSH2 0x2F8 SWAP2 SWAP1 PUSH2 0x2E32 JUMP JUMPDEST PUSH2 0xF6F JUMP JUMPDEST PUSH1 0x40 MLOAD PUSH2 0x30A SWAP2 SWAP1 PUSH2 0x2C24 JUMP JUMPDEST PUSH1 0x40 MLOAD DUP1 SWAP2 SUB SWAP1 RETURN JUMPDEST CALLVALUE DUP1 ISZERO PUSH2 0x31F JUMPI PUSH1 0x0 DUP1 REVERT JUMPDEST POP PUSH2 0x328 PUSH2 0x10F1 JUMP JUMPDEST STOP JUMPDEST CALLVALUE DUP1 ISZERO PUSH2 0x336 JUMPI PUSH1 0x0 DUP1 REVERT JUMPDEST POP PUSH2 0x351 PUSH1 0x4 DUP1 CALLDATASIZE SUB DUP2 ADD SWAP1 PUSH2 0x34C SWAP2 SWAP1 PUSH2 0x28F4 JUMP JUMPDEST PUSH2 0x1105 JUMP JUMPDEST PUSH1 0x40 MLOAD PUSH2 0x368 SWAP12 SWAP11 SWAP10 SWAP9 SWAP8 SWAP7 SWAP6 SWAP5 SWAP4 SWAP3 SWAP2 SWAP1 PUSH2 0x2ED1 JUMP JUMPDEST PUSH1 0x40 MLOAD DUP1 SWAP2 SUB SWAP1 RETURN JUMPDEST CALLVALUE DUP1 ISZERO PUSH2 0x37D JUMPI PUSH1 0x0 DUP1 REVERT JUMPDEST POP PUSH2 0x386 PUSH2 0x12CA JUMP JUMPDEST PUSH1 0x40 MLOAD PUSH2 0x393 SWAP2 SWAP1 PUSH2 0x2F99 JUMP JUMPDEST PUSH1 0x40 MLOAD DUP1 SWAP2 SUB SWAP1 RETURN JUMPDEST CALLVALUE DUP1 ISZERO PUSH2 0x3A8 JUMPI PUSH1 0x0 DUP1 REVERT JUMPDEST POP PUSH2 0x3B1 PUSH2 0x12F3 JUMP JUMPDEST PUSH1 0x40 MLOAD PUSH2 0x3BE SWAP2 SWAP1 PUSH2 0x2C24 JUMP JUMPDEST PUSH1 0x40 MLOAD DUP1 SWAP2 SUB SWAP1 RETURN JUMPDEST CALLVALUE DUP1 ISZERO PUSH2 0x3D3 JUMPI PUSH1 0x0 DUP1 REVERT JUMPDEST POP PUSH2 0x3DC PUSH2 0x12F9 JUMP JUMPDEST PUSH1 0x40 MLOAD PUSH2 0x3E9 SWAP2 SWAP1 PUSH2 0x2C24 JUMP JUMPDEST PUSH1 0x40 MLOAD DUP1 SWAP2 SUB SWAP1 RETURN JUMPDEST CALLVALUE DUP1 ISZERO PUSH2 0x3FE JUMPI PUSH1 0x0 DUP1 REVERT JUMPDEST POP PUSH2 0x407 PUSH2 0x12FE JUMP JUMPDEST PUSH1 0x40 MLOAD PUSH2 0x414 SWAP2 SWAP1 PUSH2 0x2C02 JUMP JUMPDEST PUSH1 0x40 MLOAD DUP1 SWAP2 SUB SWAP1 RETURN JUMPDEST CALLVALUE DUP1 ISZERO PUSH2 0x429 JUMPI PUSH1 0x0 DUP1 REVERT JUMPDEST POP PUSH2 0x444 PUSH1 0x4 DUP1 CALLDATASIZE SUB DUP2 ADD SWAP1 PUSH2 0x43F SWAP2 SWAP1 PUSH2 0x28F4 JUMP JUMPDEST PUSH2 0x1356 JUMP JUMPDEST PUSH1 0x40 MLOAD PUSH2 0x451 SWAP2 SWAP1 PUSH2 0x2C02 JUMP JUMPDEST PUSH1 0x40 MLOAD DUP1 SWAP2 SUB SWAP1 RETURN JUMPDEST PUSH2 0x474 PUSH1 0x4 DUP1 CALLDATASIZE SUB DUP2 ADD SWAP1 PUSH2 0x46F SWAP2 SWAP1 PUSH2 0x281A JUMP JUMPDEST PUSH2 0x13C4 JUMP JUMPDEST STOP JUMPDEST CALLVALUE DUP1 ISZERO PUSH2 0x482 JUMPI PUSH1 0x0 DUP1 REVERT JUMPDEST POP PUSH2 0x49D PUSH1 0x4 DUP1 CALLDATASIZE SUB DUP2 ADD SWAP1 PUSH2 0x498 SWAP2 SWAP1 PUSH2 0x28F4 JUMP JUMPDEST PUSH2 0x1737 JUMP JUMPDEST STOP JUMPDEST CALLVALUE DUP1 ISZERO PUSH2 0x4AB JUMPI PUSH1 0x0 DUP1 REVERT JUMPDEST POP PUSH2 0x4C6 PUSH1 0x4 DUP1 CALLDATASIZE SUB DUP2 ADD SWAP1 PUSH2 0x4C1 SWAP2 SWAP1 PUSH2 0x28F4 JUMP JUMPDEST PUSH2 0x1831 JUMP JUMPDEST PUSH1 0x40 MLOAD PUSH2 0x4D3 SWAP2 SWAP1 PUSH2 0x2C24 JUMP JUMPDEST PUSH1 0x40 MLOAD DUP1 SWAP2 SUB SWAP1 RETURN JUMPDEST CALLVALUE DUP1 ISZERO PUSH2 0x4E8 JUMPI PUSH1 0x0 DUP1 REVERT JUMPDEST POP PUSH2 0x503 PUSH1 0x4 DUP1 CALLDATASIZE SUB DUP2 ADD SWAP1 PUSH2 0x4FE SWAP2 SWAP1 PUSH2 0x28F4 JUMP JUMPDEST PUSH2 0x1851 JUMP JUMPDEST PUSH1 0x40 MLOAD PUSH2 0x510 SWAP2 SWAP1 PUSH2 0x2C24 JUMP JUMPDEST PUSH1 0x40 MLOAD DUP1 SWAP2 SUB SWAP1 RETURN JUMPDEST CALLVALUE DUP1 ISZERO PUSH2 0x525 JUMPI PUSH1 0x0 DUP1 REVERT JUMPDEST POP PUSH2 0x540 PUSH1 0x4 DUP1 CALLDATASIZE SUB DUP2 ADD SWAP1 PUSH2 0x53B SWAP2 SWAP1 PUSH2 0x2FB4 JUMP JUMPDEST PUSH2 0x1875 JUMP JUMPDEST STOP JUMPDEST CALLVALUE DUP1 ISZERO PUSH2 0x54E JUMPI PUSH1 0x0 DUP1 REVERT JUMPDEST POP PUSH2 0x569 PUSH1 0x4 DUP1 CALLDATASIZE SUB DUP2 ADD SWAP1 PUSH2 0x564 SWAP2 SWAP1 PUSH2 0x281A JUMP JUMPDEST PUSH2 0x18FB JUMP JUMPDEST PUSH1 0x40 MLOAD PUSH2 0x578 SWAP4 SWAP3 SWAP2 SWAP1 PUSH2 0x2FE1 JUMP JUMPDEST PUSH1 0x40 MLOAD DUP1 SWAP2 SUB SWAP1 RETURN JUMPDEST PUSH2 0x589 PUSH2 0x1983 JUMP JUMPDEST PUSH1 0x0 PUSH1 0x2 PUSH1 0x0 DUP5 DUP2 MSTORE PUSH1 0x20 ADD SWAP1 DUP2 MSTORE PUSH1 0x20 ADD PUSH1 0x0 KECCAK256 SWAP1 POP PUSH1 0x0 PUSH1 0x2 DUP2 GT ISZERO PUSH2 0x5B4 JUMPI PUSH2 0x5B3 PUSH2 0x29C0 JUMP JUMPDEST JUMPDEST DUP2 PUSH1 0x6 ADD PUSH1 0x0 SWAP1 SLOAD SWAP1 PUSH2 0x100 EXP SWAP1 DIV PUSH1 0xFF AND PUSH1 0x2 DUP2 GT ISZERO PUSH2 0x5D8 JUMPI PUSH2 0x5D7 PUSH2 0x29C0 JUMP JUMPDEST JUMPDEST EQ PUSH2 0x60F JUMPI PUSH1 0x40 MLOAD PUSH32 0xE38F163D00000000000000000000000000000000000000000000000000000000 DUP2 MSTORE PUSH1 0x4 ADD PUSH1 0x40 MLOAD DUP1 SWAP2 SUB SWAP1 REVERT JUMPDEST DUP2 DUP2 PUSH1 0x5 ADD DUP2 SWAP1 SSTORE POP PUSH1 0x1 DUP2 PUSH1 0x6 ADD PUSH1 0x0 PUSH2 0x100 EXP DUP2 SLOAD DUP2 PUSH1 0xFF MUL NOT AND SWAP1 DUP4 PUSH1 0x2 DUP2 GT ISZERO PUSH2 0x640 JUMPI PUSH2 0x63F PUSH2 0x29C0 JUMP JUMPDEST JUMPDEST MUL OR SWAP1 SSTORE POP PUSH2 0x64E DUP4 PUSH2 0x1A0A JUMP JUMPDEST PUSH1 0x5 DUP4 SWAP1 DUP1 PUSH1 0x1 DUP2 SLOAD ADD DUP1 DUP3 SSTORE DUP1 SWAP2 POP POP PUSH1 0x1 SWAP1 SUB SWAP1 PUSH1 0x0 MSTORE PUSH1 0x20 PUSH1 0x0 KECCAK256 ADD PUSH1 0x0 SWAP1 SWAP2 SWAP1 SWAP2 SWAP1 SWAP2 POP SSTORE PUSH2 0x680 DUP2 PUSH2 0x1ACF JUMP JUMPDEST ISZERO PUSH2 0x72D JUMPI PUSH1 0x1 DUP2 PUSH1 0x9 ADD PUSH1 0x0 PUSH2 0x100 EXP DUP2 SLOAD DUP2 PUSH1 0xFF MUL NOT AND SWAP1 DUP4 ISZERO ISZERO MUL OR SWAP1 SSTORE POP DUP3 PUSH32 0x53B6CA4744013BA75FEF77024C44B5E6774B52578C20619933D321B59F5E6ADA DUP4 PUSH1 0x0 PUSH8 0xFFFFFFFFFFFFFFFF DUP2 GT ISZERO PUSH2 0x6E0 JUMPI PUSH2 0x6DF PUSH2 0x2CE2 JUMP JUMPDEST JUMPDEST PUSH1 0x40 MLOAD SWAP1 DUP1 DUP3 MSTORE DUP1 PUSH1 0x20 MUL PUSH1 0x20 ADD DUP3 ADD PUSH1 0x40 MSTORE DUP1 ISZERO PUSH2 0x70E JUMPI DUP2 PUSH1 0x20 ADD PUSH1 0x20 DUP3 MUL DUP1 CALLDATASIZE DUP4 CALLDATACOPY DUP1 DUP3 ADD SWAP2 POP POP SWAP1 POP JUMPDEST POP PUSH1 0x1 PUSH1 0x40 MLOAD PUSH2 0x720 SWAP4 SWAP3 SWAP2 SWAP1 PUSH2 0x3018 JUMP JUMPDEST PUSH1 0x40 MLOAD DUP1 SWAP2 SUB SWAP1 LOG2 PUSH2 0x79B JUMP JUMPDEST PUSH1 0x0 PUSH2 0x738 DUP3 PUSH2 0x1BEA JUMP JUMPDEST SWAP1 POP DUP1 DUP3 PUSH1 0x8 ADD SWAP1 DUP1 MLOAD SWAP1 PUSH1 0x20 ADD SWAP1 PUSH2 0x752 SWAP3 SWAP2 SWAP1 PUSH2 0x2766 JUMP JUMPDEST POP PUSH2 0x75C DUP3 PUSH2 0x1DE0 JUMP JUMPDEST DUP4 PUSH32 0x53B6CA4744013BA75FEF77024C44B5E6774B52578C20619933D321B59F5E6ADA DUP5 DUP4 PUSH1 0x0 PUSH1 0x40 MLOAD PUSH2 0x791 SWAP4 SWAP3 SWAP2 SWAP1 PUSH2 0x3018 JUMP JUMPDEST PUSH1 0x40 MLOAD DUP1 SWAP2 SUB SWAP1 LOG2 POP JUMPDEST POP POP POP JUMP JUMPDEST PUSH1 0x0 PUSH1 0x2 PUSH1 0x0 DUP5 DUP2 MSTORE PUSH1 0x20 ADD SWAP1 DUP2 MSTORE PUSH1 0x20 ADD PUSH1 0x0 KECCAK256 SWAP1 POP PUSH1 0x0 PUSH1 0x2 DUP2 GT ISZERO PUSH2 0x7CB JUMPI PUSH2 0x7CA PUSH2 0x29C0 JUMP JUMPDEST JUMPDEST DUP2 PUSH1 0x6 ADD PUSH1 0x0 SWAP1 SLOAD SWAP1 PUSH2 0x100 EXP SWAP1 DIV PUSH1 0xFF AND PUSH1 0x2 DUP2 GT ISZERO PUSH2 0x7EF JUMPI PUSH2 0x7EE PUSH2 0x29C0 JUMP JUMPDEST JUMPDEST EQ PUSH2 0x826 JUMPI PUSH1 0x40 MLOAD PUSH32 0xE38F163D00000000000000000000000000000000000000000000000000000000 DUP2 MSTORE PUSH1 0x4 ADD PUSH1 0x40 MLOAD DUP1 SWAP2 SUB SWAP1 REVERT JUMPDEST PUSH1 0x1 DUP1 DUP2 GT ISZERO PUSH2 0x839 JUMPI PUSH2 0x838 PUSH2 0x29C0 JUMP JUMPDEST JUMPDEST DUP2 PUSH1 0x3 ADD PUSH1 0x0 SWAP1 SLOAD SWAP1 PUSH2 0x100 EXP SWAP1 DIV PUSH1 0xFF AND PUSH1 0x1 DUP2 GT ISZERO PUSH2 0x85D JUMPI PUSH2 0x85C PUSH2 0x29C0 JUMP JUMPDEST JUMPDEST EQ PUSH2 0x894 JUMPI PUSH1 0x40 MLOAD PUSH32 0x164FB6C200000000000000000000000000000000000000000000000000000000 DUP2 MSTORE PUSH1 0x4 ADD PUSH1 0x40 MLOAD DUP1 SWAP2 SUB SWAP1 REVERT JUMPDEST DUP1 PUSH1 0x4 ADD SLOAD PUSH32 0x0 PUSH20 0xFFFFFFFFFFFFFFFFFFFFFFFFFFFFFFFFFFFFFFFF AND PUSH4 0xDD62ED3E CALLER ADDRESS PUSH1 0x40 MLOAD DUP4 PUSH4 0xFFFFFFFF AND PUSH1 0xE0 SHL DUP2 MSTORE PUSH1 0x4 ADD PUSH2 0x8F4 SWAP3 SWAP2 SWAP1 PUSH2 0x3056 JUMP JUMPDEST PUSH1 0x20 PUSH1 0x40 MLOAD DUP1 DUP4 SUB DUP2 DUP7 GAS STATICCALL ISZERO DUP1 ISZERO PUSH2 0x911 JUMPI RETURNDATASIZE PUSH1 0x0 DUP1 RETURNDATACOPY RETURNDATASIZE PUSH1 0x0 REVERT JUMPDEST POP POP POP POP PUSH1 0x40 MLOAD RETURNDATASIZE PUSH1 0x1F NOT PUSH1 0x1F DUP3 ADD AND DUP3 ADD DUP1 PUSH1 0x40 MSTORE POP DUP2 ADD SWAP1 PUSH2 0x935 SWAP2 SWAP1 PUSH2 0x3094 JUMP JUMPDEST LT ISZERO PUSH2 0x96D JUMPI PUSH1 0x40 MLOAD PUSH32 0xE2822FF100000000000000000000000000000000000000000000000000000000 DUP2 MSTORE PUSH1 0x4 ADD PUSH1 0x40 MLOAD DUP1 SWAP2 SUB SWAP1 REVERT JUMPDEST PUSH1 0x3 PUSH1 0x0 DUP5 DUP2 MSTORE PUSH1 0x20 ADD SWAP1 DUP2 MSTORE PUSH1 0x20 ADD PUSH1 0x0 KECCAK256 PUSH1 0x0 CALLER PUSH20 0xFFFFFFFFFFFFFFFFFFFFFFFFFFFFFFFFFFFFFFFF AND PUSH20 0xFFFFFFFFFFFFFFFFFFFFFFFFFFFFFFFFFFFFFFFF AND DUP2 MSTORE PUSH1 0x20 ADD SWAP1 DUP2 MSTORE PUSH1 0x20 ADD PUSH1 0x0 KECCAK256 PUSH1 0x0 SWAP1 SLOAD SWAP1 PUSH2 0x100 EXP SWAP1 DIV PUSH1 0xFF AND ISZERO PUSH2 0xA02 JUMPI PUSH1 0x40 MLOAD PUSH32 0xEB0163A100000000000000000000000000000000000000000000000000000000 DUP2 MSTORE PUSH1 0x4 ADD PUSH1 0x40 MLOAD DUP1 SWAP2 SUB SWAP1 REVERT JUMPDEST PUSH2 0xA53 CALLER ADDRESS DUP4 PUSH1 0x4 ADD SLOAD PUSH32 0x0 PUSH20 0xFFFFFFFFFFFFFFFFFFFFFFFFFFFFFFFFFFFFFFFF AND PUSH2 0x1F2E SWAP1 SWAP4 SWAP3 SWAP2 SWAP1 PUSH4 0xFFFFFFFF AND JUMP JUMPDEST DUP1 PUSH1 0xA ADD PUSH1 0x40 MLOAD DUP1 PUSH1 0x60 ADD PUSH1 0x40 MSTORE DUP1 CALLER PUSH20 0xFFFFFFFFFFFFFFFFFFFFFFFFFFFFFFFFFFFFFFFF AND DUP2 MSTORE PUSH1 0x20 ADD DUP5 DUP2 MSTORE PUSH1 0x20 ADD PUSH1 0x0 ISZERO ISZERO DUP2 MSTORE POP SWAP1 DUP1 PUSH1 0x1 DUP2 SLOAD ADD DUP1 DUP3 SSTORE DUP1 SWAP2 POP POP PUSH1 0x1 SWAP1 SUB SWAP1 PUSH1 0x0 MSTORE PUSH1 0x20 PUSH1 0x0 KECCAK256 SWAP1 PUSH1 0x3 MUL ADD PUSH1 0x0 SWAP1 SWAP2 SWAP1 SWAP2 SWAP1 SWAP2 POP PUSH1 0x0 DUP3 ADD MLOAD DUP2 PUSH1 0x0 ADD PUSH1 0x0 PUSH2 0x100 EXP DUP2 SLOAD DUP2 PUSH20 0xFFFFFFFFFFFFFFFFFFFFFFFFFFFFFFFFFFFFFFFF MUL NOT AND SWAP1 DUP4 PUSH20 0xFFFFFFFFFFFFFFFFFFFFFFFFFFFFFFFFFFFFFFFF AND MUL OR SWAP1 SSTORE POP PUSH1 0x20 DUP3 ADD MLOAD DUP2 PUSH1 0x1 ADD SSTORE PUSH1 0x40 DUP3 ADD MLOAD DUP2 PUSH1 0x2 ADD PUSH1 0x0 PUSH2 0x100 EXP DUP2 SLOAD DUP2 PUSH1 0xFF MUL NOT AND SWAP1 DUP4 ISZERO ISZERO MUL OR SWAP1 SSTORE POP POP POP DUP1 PUSH1 0x4 ADD SLOAD DUP2 PUSH1 0x7 ADD PUSH1 0x0 DUP3 DUP3 SLOAD PUSH2 0xB3F SWAP2 SWAP1 PUSH2 0x30F0 JUMP JUMPDEST SWAP3 POP POP DUP2 SWAP1 SSTORE POP PUSH1 0x1 PUSH1 0x3 PUSH1 0x0 DUP6 DUP2 MSTORE PUSH1 0x20 ADD SWAP1 DUP2 MSTORE PUSH1 0x20 ADD PUSH1 0x0 KECCAK256 PUSH1 0x0 CALLER PUSH20 0xFFFFFFFFFFFFFFFFFFFFFFFFFFFFFFFFFFFFFFFF AND PUSH20 0xFFFFFFFFFFFFFFFFFFFFFFFFFFFFFFFFFFFFFFFF AND DUP2 MSTORE PUSH1 0x20 ADD SWAP1 DUP2 MSTORE PUSH1 0x20 ADD PUSH1 0x0 KECCAK256 PUSH1 0x0 PUSH2 0x100 EXP DUP2 SLOAD DUP2 PUSH1 0xFF MUL NOT AND SWAP1 DUP4 ISZERO ISZERO MUL OR SWAP1 SSTORE POP CALLER PUSH20 0xFFFFFFFFFFFFFFFFFFFFFFFFFFFFFFFFFFFFFFFF AND DUP4 PUSH32 0xAE6E469845072CD465CBE2A8B4F46CFF1B0263205FFE97879E063BBBEA36BB7C DUP5 PUSH1 0x40 MLOAD PUSH2 0xBF6 SWAP2 SWAP1 PUSH2 0x2C24 JUMP JUMPDEST PUSH1 0x40 MLOAD DUP1 SWAP2 SUB SWAP1 LOG3 POP POP POP JUMP JUMPDEST PUSH32 0x0 DUP2 JUMP JUMPDEST PUSH1 0x2 PUSH1 0x20 MSTORE DUP1 PUSH1 0x0 MSTORE PUSH1 0x40 PUSH1 0x0 KECCAK256 PUSH1 0x0 SWAP2 POP SWAP1 POP DUP1 PUSH1 0x0 ADD SLOAD SWAP1 DUP1 PUSH1 0x1 ADD DUP1 SLOAD PUSH2 0xC50 SWAP1 PUSH2 0x3153 JUMP JUMPDEST DUP1 PUSH1 0x1F ADD PUSH1 0x20 DUP1 SWAP2 DIV MUL PUSH1 0x20 ADD PUSH1 0x40 MLOAD SWAP1 DUP2 ADD PUSH1 0x40 MSTORE DUP1 SWAP3 SWAP2 SWAP1 DUP2 DUP2 MSTORE PUSH1 0x20 ADD DUP3 DUP1 SLOAD PUSH2 0xC7C SWAP1 PUSH2 0x3153 JUMP JUMPDEST DUP1 ISZERO PUSH2 0xCC9 JUMPI DUP1 PUSH1 0x1F LT PUSH2 0xC9E JUMPI PUSH2 0x100 DUP1 DUP4 SLOAD DIV MUL DUP4 MSTORE SWAP2 PUSH1 0x20 ADD SWAP2 PUSH2 0xCC9 JUMP JUMPDEST DUP3 ADD SWAP2 SWAP1 PUSH1 0x0 MSTORE PUSH1 0x20 PUSH1 0x0 KECCAK256 SWAP1 JUMPDEST DUP2 SLOAD DUP2 MSTORE SWAP1 PUSH1 0x1 ADD SWAP1 PUSH1 0x20 ADD DUP1 DUP4 GT PUSH2 0xCAC JUMPI DUP3 SWAP1 SUB PUSH1 0x1F AND DUP3 ADD SWAP2 JUMPDEST POP POP POP POP POP SWAP1 DUP1 PUSH1 0x2 ADD DUP1 SLOAD PUSH2 0xCDE SWAP1 PUSH2 0x3153 JUMP JUMPDEST DUP1 PUSH1 0x1F ADD PUSH1 0x20 DUP1 SWAP2 DIV MUL PUSH1 0x20 ADD PUSH1 0x40 MLOAD SWAP1 DUP2 ADD PUSH1 0x40 MSTORE DUP1 SWAP3 SWAP2 SWAP1 DUP2 DUP2 MSTORE PUSH1 0x20 ADD DUP3 DUP1 SLOAD PUSH2 0xD0A SWAP1 PUSH2 0x3153 JUMP JUMPDEST DUP1 ISZERO PUSH2 0xD57 JUMPI DUP1 PUSH1 0x1F LT PUSH2 0xD2C JUMPI PUSH2 0x100 DUP1 DUP4 SLOAD DIV MUL DUP4 MSTORE SWAP2 PUSH1 0x20 ADD SWAP2 PUSH2 0xD57 JUMP JUMPDEST DUP3 ADD SWAP2 SWAP1 PUSH1 0x0 MSTORE PUSH1 0x20 PUSH1 0x0 KECCAK256 SWAP1 JUMPDEST DUP2 SLOAD DUP2 MSTORE SWAP1 PUSH1 0x1 ADD SWAP1 PUSH1 0x20 ADD DUP1 DUP4 GT PUSH2 0xD3A JUMPI DUP3 SWAP1 SUB PUSH1 0x1F AND DUP3 ADD SWAP2 JUMPDEST POP POP POP POP POP SWAP1 DUP1 PUSH1 0x3 ADD PUSH1 0x0 SWAP1 SLOAD SWAP1 PUSH2 0x100 EXP SWAP1 DIV PUSH1 0xFF AND SWAP1 DUP1 PUSH1 0x4 ADD SLOAD SWAP1 DUP1 PUSH1 0x5 ADD SLOAD SWAP1 DUP1 PUSH1 0x6 ADD PUSH1 0x0 SWAP1 SLOAD SWAP1 PUSH2 0x100 EXP SWAP1 DIV PUSH1 0xFF AND SWAP1 DUP1 PUSH1 0x7 ADD SLOAD SWAP1 DUP1 PUSH1 0x9 ADD PUSH1 0x0 SWAP1 SLOAD SWAP1 PUSH2 0x100 EXP SWAP1 DIV PUSH1 0xFF AND SWAP1 DUP1 PUSH1 0xB ADD SLOAD SWAP1 POP DUP11 JUMP JUMPDEST PUSH1 0x60 PUSH1 0x5 DUP1 SLOAD DUP1 PUSH1 0x20 MUL PUSH1 0x20 ADD PUSH1 0x40 MLOAD SWAP1 DUP2 ADD PUSH1 0x40 MSTORE DUP1 SWAP3 SWAP2 SWAP1 DUP2 DUP2 MSTORE PUSH1 0x20 ADD DUP3 DUP1 SLOAD DUP1 ISZERO PUSH2 0xE00 JUMPI PUSH1 0x20 MUL DUP3 ADD SWAP2 SWAP1 PUSH1 0x0 MSTORE PUSH1 0x20 PUSH1 0x0 KECCAK256 SWAP1 JUMPDEST DUP2 SLOAD DUP2 MSTORE PUSH1 0x20 ADD SWAP1 PUSH1 0x1 ADD SWAP1 DUP1 DUP4 GT PUSH2 0xDEC JUMPI JUMPDEST POP POP POP POP POP SWAP1 POP SWAP1 JUMP JUMPDEST PUSH2 0xE12 PUSH2 0x1983 JUMP JUMPDEST PUSH1 0x0 PUSH1 0x2 PUSH1 0x0 DUP4 DUP2 MSTORE PUSH1 0x20 ADD SWAP1 DUP2 MSTORE PUSH1 0x20 ADD PUSH1 0x0 KECCAK256 SWAP1 POP PUSH1 0x0 PUSH1 0x2 DUP2 GT ISZERO PUSH2 0xE3D JUMPI PUSH2 0xE3C PUSH2 0x29C0 JUMP JUMPDEST JUMPDEST DUP2 PUSH1 0x6 ADD PUSH1 0x0 SWAP1 SLOAD SWAP1 PUSH2 0x100 EXP SWAP1 DIV PUSH1 0xFF AND PUSH1 0x2 DUP2 GT ISZERO PUSH2 0xE61 JUMPI PUSH2 0xE60 PUSH2 0x29C0 JUMP JUMPDEST JUMPDEST EQ PUSH2 0xE98 JUMPI PUSH1 0x40 MLOAD PUSH32 0xE38F163D00000000000000000000000000000000000000000000000000000000 DUP2 MSTORE PUSH1 0x4 ADD PUSH1 0x40 MLOAD DUP1 SWAP2 SUB SWAP1 REVERT JUMPDEST PUSH1 0x2 DUP2 PUSH1 0x6 ADD PUSH1 0x0 PUSH2 0x100 EXP DUP2 SLOAD DUP2 PUSH1 0xFF MUL NOT AND SWAP1 DUP4 PUSH1 0x2 DUP2 GT ISZERO PUSH2 0xEC0 JUMPI PUSH2 0xEBF PUSH2 0x29C0 JUMP JUMPDEST JUMPDEST MUL OR SWAP1 SSTORE POP PUSH1 0x1 DUP2 PUSH1 0x9 ADD PUSH1 0x0 PUSH2 0x100 EXP DUP2 SLOAD DUP2 PUSH1 0xFF MUL NOT AND SWAP1 DUP4 ISZERO ISZERO MUL OR SWAP1 SSTORE POP PUSH2 0xEEB DUP3 PUSH2 0x1A0A JUMP JUMPDEST DUP2 PUSH32 0xE3906E8D1E2167EF706B023E6E83AF697DB5CD38F233C71BF5021B26B316C3A2 PUSH1 0x40 MLOAD PUSH1 0x40 MLOAD DUP1 SWAP2 SUB SWAP1 LOG2 POP POP JUMP JUMPDEST PUSH1 0x4 DUP2 DUP2 SLOAD DUP2 LT PUSH2 0xF2C JUMPI PUSH1 0x0 DUP1 REVERT JUMPDEST SWAP1 PUSH1 0x0 MSTORE PUSH1 0x20 PUSH1 0x0 KECCAK256 ADD PUSH1 0x0 SWAP2 POP SWAP1 POP SLOAD DUP2 JUMP JUMPDEST PUSH1 0x3 PUSH1 0x20 MSTORE DUP2 PUSH1 0x0 MSTORE PUSH1 0x40 PUSH1 0x0 KECCAK256 PUSH1 0x20 MSTORE DUP1 PUSH1 0x0 MSTORE PUSH1 0x40 PUSH1 0x0 KECCAK256 PUSH1 0x0 SWAP2 POP SWAP2 POP SWAP1 SLOAD SWAP1 PUSH2 0x100 EXP SWAP1 DIV PUSH1 0xFF AND DUP2 JUMP JUMPDEST PUSH1 0x0 PUSH2 0xF79 PUSH2 0x1983 JUMP JUMPDEST PUSH1 0x0 DUP3 SUB PUSH2 0xFB3 JUMPI PUSH1 0x40 MLOAD PUSH32 0x9DE3D44100000000000000000000000000000000000000000000000000000000 DUP2 MSTORE PUSH1 0x4 ADD PUSH1 0x40 MLOAD DUP1 SWAP2 SUB SWAP1 REVERT JUMPDEST PUSH1 0x0 PUSH1 0x1 PUSH1 0x0 DUP2 SLOAD DUP1 SWAP3 SWAP2 SWAP1 PUSH2 0xFC8 SWAP1 PUSH2 0x3184 JUMP JUMPDEST SWAP2 SWAP1 POP SSTORE SWAP1 POP PUSH1 0x0 PUSH1 0x2 PUSH1 0x0 DUP4 DUP2 MSTORE PUSH1 0x20 ADD SWAP1 DUP2 MSTORE PUSH1 0x20 ADD PUSH1 0x0 KECCAK256 SWAP1 POP DUP2 DUP2 PUSH1 0x0 ADD DUP2 SWAP1 SSTORE POP DUP7 DUP2 PUSH1 0x1 ADD SWAP1 DUP2 PUSH2 0xFFF SWAP2 SWAP1 PUSH2 0x336E JUMP JUMPDEST POP DUP6 DUP2 PUSH1 0x2 ADD SWAP1 DUP2 PUSH2 0x1011 SWAP2 SWAP1 PUSH2 0x336E JUMP JUMPDEST POP DUP5 DUP2 PUSH1 0x3 ADD PUSH1 0x0 PUSH2 0x100 EXP DUP2 SLOAD DUP2 PUSH1 0xFF MUL NOT AND SWAP1 DUP4 PUSH1 0x1 DUP2 GT ISZERO PUSH2 0x1039 JUMPI PUSH2 0x1038 PUSH2 0x29C0 JUMP JUMPDEST JUMPDEST MUL OR SWAP1 SSTORE POP DUP4 DUP2 PUSH1 0x4 ADD DUP2 SWAP1 SSTORE POP PUSH1 0x0 DUP2 PUSH1 0x6 ADD PUSH1 0x0 PUSH2 0x100 EXP DUP2 SLOAD DUP2 PUSH1 0xFF MUL NOT AND SWAP1 DUP4 PUSH1 0x2 DUP2 GT ISZERO PUSH2 0x106F JUMPI PUSH2 0x106E PUSH2 0x29C0 JUMP JUMPDEST JUMPDEST MUL OR SWAP1 SSTORE POP TIMESTAMP DUP2 PUSH1 0xB ADD DUP2 SWAP1 SSTORE POP PUSH1 0x4 DUP3 SWAP1 DUP1 PUSH1 0x1 DUP2 SLOAD ADD DUP1 DUP3 SSTORE DUP1 SWAP2 POP POP PUSH1 0x1 SWAP1 SUB SWAP1 PUSH1 0x0 MSTORE PUSH1 0x20 PUSH1 0x0 KECCAK256 ADD PUSH1 0x0 SWAP1 SWAP2 SWAP1 SWAP2 SWAP1 SWAP2 POP SSTORE DUP2 PUSH32 0xF7DFCAB2992417049CB3E78DCB5D3AC9520E053800DAAB4885BC264A958F19F8 DUP9 DUP9 DUP9 DUP9 PUSH1 0x40 MLOAD PUSH2 0x10DC SWAP5 SWAP4 SWAP3 SWAP2 SWAP1 PUSH2 0x3440 JUMP JUMPDEST PUSH1 0x40 MLOAD DUP1 SWAP2 SUB SWAP1 LOG2 DUP2 SWAP3 POP POP POP SWAP5 SWAP4 POP POP POP POP JUMP JUMPDEST PUSH2 0x10F9 PUSH2 0x1983 JUMP JUMPDEST PUSH2 0x1103 PUSH1 0x0 PUSH2 0x1FB0 JUMP JUMPDEST JUMP JUMPDEST PUSH1 0x0 PUSH1 0x60 DUP1 PUSH1 0x0 DUP1 PUSH1 0x0 DUP1 PUSH1 0x0 DUP1 PUSH1 0x0 DUP1 PUSH1 0x0 PUSH1 0x2 PUSH1 0x0 DUP15 DUP2 MSTORE PUSH1 0x20 ADD SWAP1 DUP2 MSTORE PUSH1 0x20 ADD PUSH1 0x0 KECCAK256 SWAP1 POP DUP1 PUSH1 0x0 ADD SLOAD DUP2 PUSH1 0x1 ADD DUP3 PUSH1 0x2 ADD DUP4 PUSH1 0x3 ADD PUSH1 0x0 SWAP1 SLOAD SWAP1 PUSH2 0x100 EXP SWAP1 DIV PUSH1 0xFF AND DUP5 PUSH1 0x4 ADD SLOAD DUP6 PUSH1 0x5 ADD SLOAD DUP7 PUSH1 0x6 ADD PUSH1 0x0 SWAP1 SLOAD SWAP1 PUSH2 0x100 EXP SWAP1 DIV PUSH1 0xFF AND DUP8 PUSH1 0x7 ADD SLOAD DUP9 PUSH1 0x9 ADD PUSH1 0x0 SWAP1 SLOAD SWAP1 PUSH2 0x100 EXP SWAP1 DIV PUSH1 0xFF AND DUP10 PUSH1 0xA ADD DUP1 SLOAD SWAP1 POP DUP11 PUSH1 0xB ADD SLOAD DUP10 DUP1 SLOAD PUSH2 0x1198 SWAP1 PUSH2 0x3153 JUMP JUMPDEST DUP1 PUSH1 0x1F ADD PUSH1 0x20 DUP1 SWAP2 DIV MUL PUSH1 0x20 ADD PUSH1 0x40 MLOAD SWAP1 DUP2 ADD PUSH1 0x40 MSTORE DUP1 SWAP3 SWAP2 SWAP1 DUP2 DUP2 MSTORE PUSH1 0x20 ADD DUP3 DUP1 SLOAD PUSH2 0x11C4 SWAP1 PUSH2 0x3153 JUMP JUMPDEST DUP1 ISZERO PUSH2 0x1211 JUMPI DUP1 PUSH1 0x1F LT PUSH2 0x11E6 JUMPI PUSH2 0x100 DUP1 DUP4 SLOAD DIV MUL DUP4 MSTORE SWAP2 PUSH1 0x20 ADD SWAP2 PUSH2 0x1211 JUMP JUMPDEST DUP3 ADD SWAP2 SWAP1 PUSH1 0x0 MSTORE PUSH1 0x20 PUSH1 0x0 KECCAK256 SWAP1 JUMPDEST DUP2 SLOAD DUP2 MSTORE SWAP1 PUSH1 0x1 ADD SWAP1 PUSH1 0x20 ADD DUP1 DUP4 GT PUSH2 0x11F4 JUMPI DUP3 SWAP1 SUB PUSH1 0x1F AND DUP3 ADD SWAP2 JUMPDEST POP POP POP POP POP SWAP10 POP DUP9 DUP1 SLOAD PUSH2 0x1224 SWAP1 PUSH2 0x3153 JUMP JUMPDEST DUP1 PUSH1 0x1F ADD PUSH1 0x20 DUP1 SWAP2 DIV MUL PUSH1 0x20 ADD PUSH1 0x40 MLOAD SWAP1 DUP2 ADD PUSH1 0x40 MSTORE DUP1 SWAP3 SWAP2 SWAP1 DUP2 DUP2 MSTORE PUSH1 0x20 ADD DUP3 DUP1 SLOAD PUSH2 0x1250 SWAP1 PUSH2 0x3153 JUMP JUMPDEST DUP1 ISZERO PUSH2 0x129D JUMPI DUP1 PUSH1 0x1F LT PUSH2 0x1272 JUMPI PUSH2 0x100 DUP1 DUP4 SLOAD DIV MUL DUP4 MSTORE SWAP2 PUSH1 0x20 ADD SWAP2 PUSH2 0x129D JUMP JUMPDEST DUP3 ADD SWAP2 SWAP1 PUSH1 0x0 MSTORE PUSH1 0x20 PUSH1 0x0 KECCAK256 SWAP1 JUMPDEST DUP2 SLOAD DUP2 MSTORE SWAP1 PUSH1 0x1 ADD SWAP1 PUSH1 0x20 ADD DUP1 DUP4 GT PUSH2 0x1280 JUMPI DUP3 SWAP1 SUB PUSH1 0x1F AND DUP3 ADD SWAP2 JUMPDEST POP POP POP POP POP SWAP9 POP SWAP12 POP SWAP12 POP SWAP12 POP SWAP12 POP SWAP12 POP SWAP12 POP SWAP12 POP SWAP12 POP SWAP12 POP SWAP12 POP SWAP12 POP POP SWAP2 SWAP4 SWAP6 SWAP8 SWAP10 SWAP12 SWAP1 SWAP3 SWAP5 SWAP7 SWAP9 SWAP11 POP JUMP JUMPDEST PUSH1 0x0 DUP1 PUSH1 0x0 SWAP1 SLOAD SWAP1 PUSH2 0x100 EXP SWAP1 DIV PUSH20 0xFFFFFFFFFFFFFFFFFFFFFFFFFFFFFFFFFFFFFFFF AND SWAP1 POP SWAP1 JUMP JUMPDEST PUSH1 0x1 SLOAD DUP2 JUMP JUMPDEST PUSH1 0x5 DUP2 JUMP JUMPDEST PUSH1 0x60 PUSH1 0x4 DUP1 SLOAD DUP1 PUSH1 0x20 MUL PUSH1 0x20 ADD PUSH1 0x40 MLOAD SWAP1 DUP2 ADD PUSH1 0x40 MSTORE DUP1 SWAP3 SWAP2 SWAP1 DUP2 DUP2 MSTORE PUSH1 0x20 ADD DUP3 DUP1 SLOAD DUP1 ISZERO PUSH2 0x134C JUMPI PUSH1 0x20 MUL DUP3 ADD SWAP2 SWAP1 PUSH1 0x0 MSTORE PUSH1 0x20 PUSH1 0x0 KECCAK256 SWAP1 JUMPDEST DUP2 SLOAD DUP2 MSTORE PUSH1 0x20 ADD SWAP1 PUSH1 0x1 ADD SWAP1 DUP1 DUP4 GT PUSH2 0x1338 JUMPI JUMPDEST POP POP POP POP POP SWAP1 POP SWAP1 JUMP JUMPDEST PUSH1 0x60 PUSH1 0x2 PUSH1 0x0 DUP4 DUP2 MSTORE PUSH1 0x20 ADD SWAP1 DUP2 MSTORE PUSH1 0x20 ADD PUSH1 0x0 KECCAK256 PUSH1 0x8 ADD DUP1 SLOAD DUP1 PUSH1 0x20 MUL PUSH1 0x20 ADD PUSH1 0x40 MLOAD SWAP1 DUP2 ADD PUSH1 0x40 MSTORE DUP1 SWAP3 SWAP2 SWAP1 DUP2 DUP2 MSTORE PUSH1 0x20 ADD DUP3 DUP1 SLOAD DUP1 ISZERO PUSH2 0x13B8 JUMPI PUSH1 0x20 MUL DUP3 ADD SWAP2 SWAP1 PUSH1 0x0 MSTORE PUSH1 0x20 PUSH1 0x0 KECCAK256 SWAP1 JUMPDEST DUP2 SLOAD DUP2 MSTORE PUSH1 0x20 ADD SWAP1 PUSH1 0x1 ADD SWAP1 DUP1 DUP4 GT PUSH2 0x13A4 JUMPI JUMPDEST POP POP POP POP POP SWAP1 POP SWAP2 SWAP1 POP JUMP JUMPDEST PUSH1 0x0 PUSH1 0x2 PUSH1 0x0 DUP5 DUP2 MSTORE PUSH1 0x20 ADD SWAP1 DUP2 MSTORE PUSH1 0x20 ADD PUSH1 0x0 KECCAK256 SWAP1 POP PUSH1 0x0 PUSH1 0x2 DUP2 GT ISZERO PUSH2 0x13EF JUMPI PUSH2 0x13EE PUSH2 0x29C0 JUMP JUMPDEST JUMPDEST DUP2 PUSH1 0x6 ADD PUSH1 0x0 SWAP1 SLOAD SWAP1 PUSH2 0x100 EXP SWAP1 DIV PUSH1 0xFF AND PUSH1 0x2 DUP2 GT ISZERO PUSH2 0x1413 JUMPI PUSH2 0x1412 PUSH2 0x29C0 JUMP JUMPDEST JUMPDEST EQ PUSH2 0x144A JUMPI PUSH1 0x40 MLOAD PUSH32 0xE38F163D00000000000000000000000000000000000000000000000000000000 DUP2 MSTORE PUSH1 0x4 ADD PUSH1 0x40 MLOAD DUP1 SWAP2 SUB SWAP1 REVERT JUMPDEST PUSH1 0x0 PUSH1 0x1 DUP2 GT ISZERO PUSH2 0x145E JUMPI PUSH2 0x145D PUSH2 0x29C0 JUMP JUMPDEST JUMPDEST DUP2 PUSH1 0x3 ADD PUSH1 0x0 SWAP1 SLOAD SWAP1 PUSH2 0x100 EXP SWAP1 DIV PUSH1 0xFF AND PUSH1 0x1 DUP2 GT ISZERO PUSH2 0x1482 JUMPI PUSH2 0x1481 PUSH2 0x29C0 JUMP JUMPDEST JUMPDEST EQ PUSH2 0x14B9 JUMPI PUSH1 0x40 MLOAD PUSH32 0x164FB6C200000000000000000000000000000000000000000000000000000000 DUP2 MSTORE PUSH1 0x4 ADD PUSH1 0x40 MLOAD DUP1 SWAP2 SUB SWAP1 REVERT JUMPDEST DUP1 PUSH1 0x4 ADD SLOAD CALLVALUE EQ PUSH2 0x14F6 JUMPI PUSH1 0x40 MLOAD PUSH32 0x9DE3D44100000000000000000000000000000000000000000000000000000000 DUP2 MSTORE PUSH1 0x4 ADD PUSH1 0x40 MLOAD DUP1 SWAP2 SUB SWAP1 REVERT JUMPDEST PUSH1 0x3 PUSH1 0x0 DUP5 DUP2 MSTORE PUSH1 0x20 ADD SWAP1 DUP2 MSTORE PUSH1 0x20 ADD PUSH1 0x0 KECCAK256 PUSH1 0x0 CALLER PUSH20 0xFFFFFFFFFFFFFFFFFFFFFFFFFFFFFFFFFFFFFFFF AND PUSH20 0xFFFFFFFFFFFFFFFFFFFFFFFFFFFFFFFFFFFFFFFF AND DUP2 MSTORE PUSH1 0x20 ADD SWAP1 DUP2 MSTORE PUSH1 0x20 ADD PUSH1 0x0 KECCAK256 PUSH1 0x0 SWAP1 SLOAD SWAP1 PUSH2 0x100 EXP SWAP1 DIV PUSH1 0xFF AND ISZERO PUSH2 0x158B JUMPI PUSH1 0x40 MLOAD PUSH32 0xEB0163A100000000000000000000000000000000000000000000000000000000 DUP2 MSTORE PUSH1 0x4 ADD PUSH1 0x40 MLOAD DUP1 SWAP2 SUB SWAP1 REVERT JUMPDEST DUP1 PUSH1 0xA ADD PUSH1 0x40 MLOAD DUP1 PUSH1 0x60 ADD PUSH1 0x40 MSTORE DUP1 CALLER PUSH20 0xFFFFFFFFFFFFFFFFFFFFFFFFFFFFFFFFFFFFFFFF AND DUP2 MSTORE PUSH1 0x20 ADD DUP5 DUP2 MSTORE PUSH1 0x20 ADD PUSH1 0x0 ISZERO ISZERO DUP2 MSTORE POP SWAP1 DUP1 PUSH1 0x1 DUP2 SLOAD ADD DUP1 DUP3 SSTORE DUP1 SWAP2 POP POP PUSH1 0x1 SWAP1 SUB SWAP1 PUSH1 0x0 MSTORE PUSH1 0x20 PUSH1 0x0 KECCAK256 SWAP1 PUSH1 0x3 MUL ADD PUSH1 0x0 SWAP1 SWAP2 SWAP1 SWAP2 SWAP1 SWAP2 POP PUSH1 0x0 DUP3 ADD MLOAD DUP2 PUSH1 0x0 ADD PUSH1 0x0 PUSH2 0x100 EXP DUP2 SLOAD DUP2 PUSH20 0xFFFFFFFFFFFFFFFFFFFFFFFFFFFFFFFFFFFFFFFF MUL NOT AND SWAP1 DUP4 PUSH20 0xFFFFFFFFFFFFFFFFFFFFFFFFFFFFFFFFFFFFFFFF AND MUL OR SWAP1 SSTORE POP PUSH1 0x20 DUP3 ADD MLOAD DUP2 PUSH1 0x1 ADD SSTORE PUSH1 0x40 DUP3 ADD MLOAD DUP2 PUSH1 0x2 ADD PUSH1 0x0 PUSH2 0x100 EXP DUP2 SLOAD DUP2 PUSH1 0xFF MUL NOT AND SWAP1 DUP4 ISZERO ISZERO MUL OR SWAP1 SSTORE POP POP POP CALLVALUE DUP2 PUSH1 0x7 ADD PUSH1 0x0 DUP3 DUP3 SLOAD PUSH2 0x1673 SWAP2 SWAP1 PUSH2 0x30F0 JUMP JUMPDEST SWAP3 POP POP DUP2 SWAP1 SSTORE POP PUSH1 0x1 PUSH1 0x3 PUSH1 0x0 DUP6 DUP2 MSTORE PUSH1 0x20 ADD SWAP1 DUP2 MSTORE PUSH1 0x20 ADD PUSH1 0x0 KECCAK256 PUSH1 0x0 CALLER PUSH20 0xFFFFFFFFFFFFFFFFFFFFFFFFFFFFFFFFFFFFFFFF AND PUSH20 0xFFFFFFFFFFFFFFFFFFFFFFFFFFFFFFFFFFFFFFFF AND DUP2 MSTORE PUSH1 0x20 ADD SWAP1 DUP2 MSTORE PUSH1 0x20 ADD PUSH1 0x0 KECCAK256 PUSH1 0x0 PUSH2 0x100 EXP DUP2 SLOAD DUP2 PUSH1 0xFF MUL NOT AND SWAP1 DUP4 ISZERO ISZERO MUL OR SWAP1 SSTORE POP CALLER PUSH20 0xFFFFFFFFFFFFFFFFFFFFFFFFFFFFFFFFFFFFFFFF AND DUP4 PUSH32 0xAE6E469845072CD465CBE2A8B4F46CFF1B0263205FFE97879E063BBBEA36BB7C DUP5 PUSH1 0x40 MLOAD PUSH2 0x172A SWAP2 SWAP1 PUSH2 0x2C24 JUMP JUMPDEST PUSH1 0x40 MLOAD DUP1 SWAP2 SUB SWAP1 LOG3 POP POP POP JUMP JUMPDEST PUSH1 0x0 PUSH1 0x2 PUSH1 0x0 DUP4 DUP2 MSTORE PUSH1 0x20 ADD SWAP1 DUP2 MSTORE PUSH1 0x20 ADD PUSH1 0x0 KECCAK256 SWAP1 POP PUSH1 0x0 PUSH1 0x2 DUP2 GT ISZERO PUSH2 0x1762 JUMPI PUSH2 0x1761 PUSH2 0x29C0 JUMP JUMPDEST JUMPDEST DUP2 PUSH1 0x6 ADD PUSH1 0x0 SWAP1 SLOAD SWAP1 PUSH2 0x100 EXP SWAP1 DIV PUSH1 0xFF AND PUSH1 0x2 DUP2 GT ISZERO PUSH2 0x1786 JUMPI PUSH2 0x1785 PUSH2 0x29C0 JUMP JUMPDEST JUMPDEST SUB PUSH2 0x17BD JUMPI PUSH1 0x40 MLOAD PUSH32 0x616E4DC100000000000000000000000000000000000000000000000000000000 DUP2 MSTORE PUSH1 0x4 ADD PUSH1 0x40 MLOAD DUP1 SWAP2 SUB SWAP1 REVERT JUMPDEST DUP1 PUSH1 0x9 ADD PUSH1 0x0 SWAP1 SLOAD SWAP1 PUSH2 0x100 EXP SWAP1 DIV PUSH1 0xFF AND DUP1 PUSH2 0x180E JUMPI POP PUSH1 0x2 DUP1 DUP2 GT ISZERO PUSH2 0x17E8 JUMPI PUSH2 0x17E7 PUSH2 0x29C0 JUMP JUMPDEST JUMPDEST DUP2 PUSH1 0x6 ADD PUSH1 0x0 SWAP1 SLOAD SWAP1 PUSH2 0x100 EXP SWAP1 DIV PUSH1 0xFF AND PUSH1 0x2 DUP2 GT ISZERO PUSH2 0x180C JUMPI PUSH2 0x180B PUSH2 0x29C0 JUMP JUMPDEST JUMPDEST EQ JUMPDEST ISZERO PUSH2 0x1822 JUMPI PUSH2 0x181D DUP2 DUP4 PUSH2 0x2074 JUMP JUMPDEST PUSH2 0x182D JUMP JUMPDEST PUSH2 0x182C DUP2 DUP4 PUSH2 0x2304 JUMP JUMPDEST JUMPDEST POP POP JUMP JUMPDEST PUSH1 0x0 PUSH1 0x2 PUSH1 0x0 DUP4 DUP2 MSTORE PUSH1 0x20 ADD SWAP1 DUP2 MSTORE PUSH1 0x20 ADD PUSH1 0x0 KECCAK256 PUSH1 0x7 ADD SLOAD SWAP1 POP SWAP2 SWAP1 POP JUMP JUMPDEST PUSH1 0x5 DUP2 DUP2 SLOAD DUP2 LT PUSH2 0x1861 JUMPI PUSH1 0x0 DUP1 REVERT JUMPDEST SWAP1 PUSH1 0x0 MSTORE PUSH1 0x20 PUSH1 0x0 KECCAK256 ADD PUSH1 0x0 SWAP2 POP SWAP1 POP SLOAD DUP2 JUMP JUMPDEST PUSH2 0x187D PUSH2 0x1983 JUMP JUMPDEST PUSH1 0x0 PUSH20 0xFFFFFFFFFFFFFFFFFFFFFFFFFFFFFFFFFFFFFFFF AND DUP2 PUSH20 0xFFFFFFFFFFFFFFFFFFFFFFFFFFFFFFFFFFFFFFFF AND SUB PUSH2 0x18EF JUMPI PUSH1 0x0 PUSH1 0x40 MLOAD PUSH32 0x1E4FBDF700000000000000000000000000000000000000000000000000000000 DUP2 MSTORE PUSH1 0x4 ADD PUSH2 0x18E6 SWAP2 SWAP1 PUSH2 0x2F99 JUMP JUMPDEST PUSH1 0x40 MLOAD DUP1 SWAP2 SUB SWAP1 REVERT JUMPDEST PUSH2 0x18F8 DUP2 PUSH2 0x1FB0 JUMP JUMPDEST POP JUMP JUMPDEST PUSH1 0x0 DUP1 PUSH1 0x0 DUP1 PUSH1 0x2 PUSH1 0x0 DUP8 DUP2 MSTORE PUSH1 0x20 ADD SWAP1 DUP2 MSTORE PUSH1 0x20 ADD PUSH1 0x0 KECCAK256 PUSH1 0xA ADD DUP6 DUP2 SLOAD DUP2 LT PUSH2 0x1929 JUMPI PUSH2 0x1928 PUSH2 0x3493 JUMP JUMPDEST JUMPDEST SWAP1 PUSH1 0x0 MSTORE PUSH1 0x20 PUSH1 0x0 KECCAK256 SWAP1 PUSH1 0x3 MUL ADD SWAP1 POP DUP1 PUSH1 0x0 ADD PUSH1 0x0 SWAP1 SLOAD SWAP1 PUSH2 0x100 EXP SWAP1 DIV PUSH20 0xFFFFFFFFFFFFFFFFFFFFFFFFFFFFFFFFFFFFFFFF AND DUP2 PUSH1 0x1 ADD SLOAD DUP3 PUSH1 0x2 ADD PUSH1 0x0 SWAP1 SLOAD SWAP1 PUSH2 0x100 EXP SWAP1 DIV PUSH1 0xFF AND SWAP4 POP SWAP4 POP SWAP4 POP POP SWAP3 POP SWAP3 POP SWAP3 JUMP JUMPDEST PUSH2 0x198B PUSH2 0x260E JUMP JUMPDEST PUSH20 0xFFFFFFFFFFFFFFFFFFFFFFFFFFFFFFFFFFFFFFFF AND PUSH2 0x19A9 PUSH2 0x12CA JUMP JUMPDEST PUSH20 0xFFFFFFFFFFFFFFFFFFFFFFFFFFFFFFFFFFFFFFFF AND EQ PUSH2 0x1A08 JUMPI PUSH2 0x19CC PUSH2 0x260E JUMP JUMPDEST PUSH1 0x40 MLOAD PUSH32 0x118CDAA700000000000000000000000000000000000000000000000000000000 DUP2 MSTORE PUSH1 0x4 ADD PUSH2 0x19FF SWAP2 SWAP1 PUSH2 0x2F99 JUMP JUMPDEST PUSH1 0x40 MLOAD DUP1 SWAP2 SUB SWAP1 REVERT JUMPDEST JUMP JUMPDEST PUSH1 0x0 JUMPDEST PUSH1 0x4 DUP1 SLOAD SWAP1 POP DUP2 LT ISZERO PUSH2 0x1ACB JUMPI DUP2 PUSH1 0x4 DUP3 DUP2 SLOAD DUP2 LT PUSH2 0x1A2F JUMPI PUSH2 0x1A2E PUSH2 0x3493 JUMP JUMPDEST JUMPDEST SWAP1 PUSH1 0x0 MSTORE PUSH1 0x20 PUSH1 0x0 KECCAK256 ADD SLOAD SUB PUSH2 0x1ABE JUMPI PUSH1 0x4 PUSH1 0x1 PUSH1 0x4 DUP1 SLOAD SWAP1 POP PUSH2 0x1A53 SWAP2 SWAP1 PUSH2 0x34C2 JUMP JUMPDEST DUP2 SLOAD DUP2 LT PUSH2 0x1A64 JUMPI PUSH2 0x1A63 PUSH2 0x3493 JUMP JUMPDEST JUMPDEST SWAP1 PUSH1 0x0 MSTORE PUSH1 0x20 PUSH1 0x0 KECCAK256 ADD SLOAD PUSH1 0x4 DUP3 DUP2 SLOAD DUP2 LT PUSH2 0x1A83 JUMPI PUSH2 0x1A82 PUSH2 0x3493 JUMP JUMPDEST JUMPDEST SWAP1 PUSH1 0x0 MSTORE PUSH1 0x20 PUSH1 0x0 KECCAK256 ADD DUP2 SWAP1 SSTORE POP PUSH1 0x4 DUP1 SLOAD DUP1 PUSH2 0x1AA3 JUMPI PUSH2 0x1AA2 PUSH2 0x34F6 JUMP JUMPDEST JUMPDEST PUSH1 0x1 SWAP1 SUB DUP2 DUP2 SWAP1 PUSH1 0x0 MSTORE PUSH1 0x20 PUSH1 0x0 KECCAK256 ADD PUSH1 0x0 SWAP1 SSTORE SWAP1 SSTORE PUSH2 0x1ACB JUMP JUMPDEST DUP1 DUP1 PUSH1 0x1 ADD SWAP2 POP POP PUSH2 0x1A0D JUMP JUMPDEST POP POP JUMP JUMPDEST PUSH1 0x0 PUSH1 0x1 DUP3 PUSH1 0xA ADD DUP1 SLOAD SWAP1 POP GT PUSH2 0x1AE9 JUMPI PUSH1 0x1 SWAP1 POP PUSH2 0x1BE5 JUMP JUMPDEST PUSH1 0x0 DUP3 PUSH1 0xA ADD PUSH1 0x0 DUP2 SLOAD DUP2 LT PUSH2 0x1B02 JUMPI PUSH2 0x1B01 PUSH2 0x3493 JUMP JUMPDEST JUMPDEST SWAP1 PUSH1 0x0 MSTORE PUSH1 0x20 PUSH1 0x0 KECCAK256 SWAP1 PUSH1 0x3 MUL ADD PUSH1 0x0 ADD PUSH1 0x0 SWAP1 SLOAD SWAP1 PUSH2 0x100 EXP SWAP1 DIV PUSH20 0xFFFFFFFFFFFFFFFFFFFFFFFFFFFFFFFFFFFFFFFF AND SWAP1 POP PUSH1 0x0 PUSH1 0x1 SWAP1 POP JUMPDEST DUP4 PUSH1 0xA ADD DUP1 SLOAD SWAP1 POP DUP2 LT ISZERO PUSH2 0x1BDE JUMPI DUP2 PUSH20 0xFFFFFFFFFFFFFFFFFFFFFFFFFFFFFFFFFFFFFFFF AND DUP5 PUSH1 0xA ADD DUP3 DUP2 SLOAD DUP2 LT PUSH2 0x1B79 JUMPI PUSH2 0x1B78 PUSH2 0x3493 JUMP JUMPDEST JUMPDEST SWAP1 PUSH1 0x0 MSTORE PUSH1 0x20 PUSH1 0x0 KECCAK256 SWAP1 PUSH1 0x3 MUL ADD PUSH1 0x0 ADD PUSH1 0x0 SWAP1 SLOAD SWAP1 PUSH2 0x100 EXP SWAP1 DIV PUSH20 0xFFFFFFFFFFFFFFFFFFFFFFFFFFFFFFFFFFFFFFFF AND PUSH20 0xFFFFFFFFFFFFFFFFFFFFFFFFFFFFFFFFFFFFFFFF AND EQ PUSH2 0x1BD1 JUMPI PUSH1 0x0 SWAP3 POP POP POP PUSH2 0x1BE5 JUMP JUMPDEST DUP1 DUP1 PUSH1 0x1 ADD SWAP2 POP POP PUSH2 0x1B3D JUMP JUMPDEST POP PUSH1 0x1 SWAP2 POP POP JUMPDEST SWAP2 SWAP1 POP JUMP JUMPDEST PUSH1 0x60 PUSH1 0x0 DUP3 PUSH1 0xA ADD DUP1 SLOAD SWAP1 POP SUB PUSH2 0x1C4C JUMPI PUSH1 0x0 PUSH8 0xFFFFFFFFFFFFFFFF DUP2 GT ISZERO PUSH2 0x1C16 JUMPI PUSH2 0x1C15 PUSH2 0x2CE2 JUMP JUMPDEST JUMPDEST PUSH1 0x40 MLOAD SWAP1 DUP1 DUP3 MSTORE DUP1 PUSH1 0x20 MUL PUSH1 0x20 ADD DUP3 ADD PUSH1 0x40 MSTORE DUP1 ISZERO PUSH2 0x1C44 JUMPI DUP2 PUSH1 0x20 ADD PUSH1 0x20 DUP3 MUL DUP1 CALLDATASIZE DUP4 CALLDATACOPY DUP1 DUP3 ADD SWAP2 POP POP SWAP1 POP JUMPDEST POP SWAP1 POP PUSH2 0x1DDB JUMP JUMPDEST PUSH1 0x0 PUSH32 0xFFFFFFFFFFFFFFFFFFFFFFFFFFFFFFFFFFFFFFFFFFFFFFFFFFFFFFFFFFFFFFFF SWAP1 POP PUSH1 0x0 DUP1 JUMPDEST DUP5 PUSH1 0xA ADD DUP1 SLOAD SWAP1 POP DUP2 LT ISZERO PUSH2 0x1CF6 JUMPI PUSH1 0x0 PUSH2 0x1CBB DUP7 PUSH1 0xA ADD DUP4 DUP2 SLOAD DUP2 LT PUSH2 0x1C9F JUMPI PUSH2 0x1C9E PUSH2 0x3493 JUMP JUMPDEST JUMPDEST SWAP1 PUSH1 0x0 MSTORE PUSH1 0x20 PUSH1 0x0 KECCAK256 SWAP1 PUSH1 0x3 MUL ADD PUSH1 0x1 ADD SLOAD DUP8 PUSH1 0x5 ADD SLOAD PUSH2 0x2616 JUMP JUMPDEST SWAP1 POP DUP4 DUP2 LT ISZERO PUSH2 0x1CD1 JUMPI DUP1 SWAP4 POP PUSH1 0x1 SWAP3 POP PUSH2 0x1CE8 JUMP JUMPDEST DUP4 DUP2 SUB PUSH2 0x1CE7 JUMPI DUP3 DUP1 PUSH2 0x1CE3 SWAP1 PUSH2 0x3184 JUMP JUMPDEST SWAP4 POP POP JUMPDEST JUMPDEST POP DUP1 DUP1 PUSH1 0x1 ADD SWAP2 POP POP PUSH2 0x1C75 JUMP JUMPDEST POP PUSH1 0x0 DUP2 PUSH8 0xFFFFFFFFFFFFFFFF DUP2 GT ISZERO PUSH2 0x1D13 JUMPI PUSH2 0x1D12 PUSH2 0x2CE2 JUMP JUMPDEST JUMPDEST PUSH1 0x40 MLOAD SWAP1 DUP1 DUP3 MSTORE DUP1 PUSH1 0x20 MUL PUSH1 0x20 ADD DUP3 ADD PUSH1 0x40 MSTORE DUP1 ISZERO PUSH2 0x1D41 JUMPI DUP2 PUSH1 0x20 ADD PUSH1 0x20 DUP3 MUL DUP1 CALLDATASIZE DUP4 CALLDATACOPY DUP1 DUP3 ADD SWAP2 POP POP SWAP1 POP JUMPDEST POP SWAP1 POP PUSH1 0x0 DUP1 JUMPDEST DUP7 PUSH1 0xA ADD DUP1 SLOAD SWAP1 POP DUP2 LT ISZERO PUSH2 0x1DD2 JUMPI PUSH1 0x0 PUSH2 0x1D8E DUP9 PUSH1 0xA ADD DUP4 DUP2 SLOAD DUP2 LT PUSH2 0x1D72 JUMPI PUSH2 0x1D71 PUSH2 0x3493 JUMP JUMPDEST JUMPDEST SWAP1 PUSH1 0x0 MSTORE PUSH1 0x20 PUSH1 0x0 KECCAK256 SWAP1 PUSH1 0x3 MUL ADD PUSH1 0x1 ADD SLOAD DUP10 PUSH1 0x5 ADD SLOAD PUSH2 0x2616 JUMP JUMPDEST SWAP1 POP DUP6 DUP2 SUB PUSH2 0x1DC4 JUMPI DUP2 DUP5 DUP5 DUP1 PUSH2 0x1DA4 SWAP1 PUSH2 0x3184 JUMP JUMPDEST SWAP6 POP DUP2 MLOAD DUP2 LT PUSH2 0x1DB7 JUMPI PUSH2 0x1DB6 PUSH2 0x3493 JUMP JUMPDEST JUMPDEST PUSH1 0x20 MUL PUSH1 0x20 ADD ADD DUP2 DUP2 MSTORE POP POP JUMPDEST POP DUP1 DUP1 PUSH1 0x1 ADD SWAP2 POP POP PUSH2 0x1D48 JUMP JUMPDEST POP DUP2 SWAP5 POP POP POP POP POP JUMPDEST SWAP2 SWAP1 POP JUMP JUMPDEST PUSH1 0x0 PUSH1 0x64 PUSH1 0x5 DUP4 PUSH1 0x7 ADD SLOAD PUSH2 0x1DF5 SWAP2 SWAP1 PUSH2 0x3525 JUMP JUMPDEST PUSH2 0x1DFF SWAP2 SWAP1 PUSH2 0x3596 JUMP JUMPDEST SWAP1 POP PUSH1 0x0 DUP2 GT ISZERO PUSH2 0x1F2A JUMPI PUSH1 0x0 PUSH1 0x1 DUP2 GT ISZERO PUSH2 0x1E1E JUMPI PUSH2 0x1E1D PUSH2 0x29C0 JUMP JUMPDEST JUMPDEST DUP3 PUSH1 0x3 ADD PUSH1 0x0 SWAP1 SLOAD SWAP1 PUSH2 0x100 EXP SWAP1 DIV PUSH1 0xFF AND PUSH1 0x1 DUP2 GT ISZERO PUSH2 0x1E42 JUMPI PUSH2 0x1E41 PUSH2 0x29C0 JUMP JUMPDEST JUMPDEST SUB PUSH2 0x1E9A JUMPI PUSH2 0x1E4F PUSH2 0x12CA JUMP JUMPDEST PUSH20 0xFFFFFFFFFFFFFFFFFFFFFFFFFFFFFFFFFFFFFFFF AND PUSH2 0x8FC DUP3 SWAP1 DUP2 ISZERO MUL SWAP1 PUSH1 0x40 MLOAD PUSH1 0x0 PUSH1 0x40 MLOAD DUP1 DUP4 SUB DUP2 DUP6 DUP9 DUP9 CALL SWAP4 POP POP POP POP ISZERO DUP1 ISZERO PUSH2 0x1E94 JUMPI RETURNDATASIZE PUSH1 0x0 DUP1 RETURNDATACOPY RETURNDATASIZE PUSH1 0x0 REVERT JUMPDEST POP PUSH2 0x1EED JUMP JUMPDEST PUSH2 0x1EEC PUSH2 0x1EA5 PUSH2 0x12CA JUMP JUMPDEST DUP3 PUSH32 0x0 PUSH20 0xFFFFFFFFFFFFFFFFFFFFFFFFFFFFFFFFFFFFFFFF AND PUSH2 0x2645 SWAP1 SWAP3 SWAP2 SWAP1 PUSH4 0xFFFFFFFF AND JUMP JUMPDEST JUMPDEST DUP2 PUSH1 0x0 ADD SLOAD PUSH32 0x68944DF5E29D9545D24C647F50529FDBCDAF2B667B84EF6BA77DEEDDE37E6ACF DUP3 PUSH1 0x40 MLOAD PUSH2 0x1F21 SWAP2 SWAP1 PUSH2 0x2C24 JUMP JUMPDEST PUSH1 0x40 MLOAD DUP1 SWAP2 SUB SWAP1 LOG2 JUMPDEST POP POP JUMP JUMPDEST PUSH2 0x1FAA DUP5 DUP6 PUSH20 0xFFFFFFFFFFFFFFFFFFFFFFFFFFFFFFFFFFFFFFFF AND PUSH4 0x23B872DD DUP7 DUP7 DUP7 PUSH1 0x40 MLOAD PUSH1 0x24 ADD PUSH2 0x1F63 SWAP4 SWAP3 SWAP2 SWAP1 PUSH2 0x35C7 JUMP JUMPDEST PUSH1 0x40 MLOAD PUSH1 0x20 DUP2 DUP4 SUB SUB DUP2 MSTORE SWAP1 PUSH1 0x40 MSTORE SWAP2 POP PUSH1 0xE0 SHL PUSH1 0x20 DUP3 ADD DUP1 MLOAD PUSH28 0xFFFFFFFFFFFFFFFFFFFFFFFFFFFFFFFFFFFFFFFFFFFFFFFFFFFFFFFF DUP4 DUP2 DUP4 AND OR DUP4 MSTORE POP POP POP POP PUSH2 0x26C4 JUMP JUMPDEST POP POP POP POP JUMP JUMPDEST PUSH1 0x0 DUP1 PUSH1 0x0 SWAP1 SLOAD SWAP1 PUSH2 0x100 EXP SWAP1 DIV PUSH20 0xFFFFFFFFFFFFFFFFFFFFFFFFFFFFFFFFFFFFFFFF AND SWAP1 POP DUP2 PUSH1 0x0 DUP1 PUSH2 0x100 EXP DUP2 SLOAD DUP2 PUSH20 0xFFFFFFFFFFFFFFFFFFFFFFFFFFFFFFFFFFFFFFFF MUL NOT AND SWAP1 DUP4 PUSH20 0xFFFFFFFFFFFFFFFFFFFFFFFFFFFFFFFFFFFFFFFF AND MUL OR SWAP1 SSTORE POP DUP2 PUSH20 0xFFFFFFFFFFFFFFFFFFFFFFFFFFFFFFFFFFFFFFFF AND DUP2 PUSH20 0xFFFFFFFFFFFFFFFFFFFFFFFFFFFFFFFFFFFFFFFF AND PUSH32 0x8BE0079C531659141344CD1FD0A4F28419497F9722A3DAAFE3B4186F6B6457E0 PUSH1 0x40 MLOAD PUSH1 0x40 MLOAD DUP1 SWAP2 SUB SWAP1 LOG3 POP POP JUMP JUMPDEST PUSH1 0x0 DUP1 JUMPDEST DUP4 PUSH1 0xA ADD DUP1 SLOAD SWAP1 POP DUP2 LT ISZERO PUSH2 0x21A0 JUMPI CALLER PUSH20 0xFFFFFFFFFFFFFFFFFFFFFFFFFFFFFFFFFFFFFFFF AND DUP5 PUSH1 0xA ADD DUP3 DUP2 SLOAD DUP2 LT PUSH2 0x20B4 JUMPI PUSH2 0x20B3 PUSH2 0x3493 JUMP JUMPDEST JUMPDEST SWAP1 PUSH1 0x0 MSTORE PUSH1 0x20 PUSH1 0x0 KECCAK256 SWAP1 PUSH1 0x3 MUL ADD PUSH1 0x0 ADD PUSH1 0x0 SWAP1 SLOAD SWAP1 PUSH2 0x100 EXP SWAP1 DIV PUSH20 0xFFFFFFFFFFFFFFFFFFFFFFFFFFFFFFFFFFFFFFFF AND PUSH20 0xFFFFFFFFFFFFFFFFFFFFFFFFFFFFFFFFFFFFFFFF AND EQ DUP1 ISZERO PUSH2 0x213B JUMPI POP DUP4 PUSH1 0xA ADD DUP2 DUP2 SLOAD DUP2 LT PUSH2 0x211A JUMPI PUSH2 0x2119 PUSH2 0x3493 JUMP JUMPDEST JUMPDEST SWAP1 PUSH1 0x0 MSTORE PUSH1 0x20 PUSH1 0x0 KECCAK256 SWAP1 PUSH1 0x3 MUL ADD PUSH1 0x2 ADD PUSH1 0x0 SWAP1 SLOAD SWAP1 PUSH2 0x100 EXP SWAP1 DIV PUSH1 0xFF AND ISZERO JUMPDEST ISZERO PUSH2 0x2193 JUMPI PUSH1 0x1 DUP5 PUSH1 0xA ADD DUP3 DUP2 SLOAD DUP2 LT PUSH2 0x2158 JUMPI PUSH2 0x2157 PUSH2 0x3493 JUMP JUMPDEST JUMPDEST SWAP1 PUSH1 0x0 MSTORE PUSH1 0x20 PUSH1 0x0 KECCAK256 SWAP1 PUSH1 0x3 MUL ADD PUSH1 0x2 ADD PUSH1 0x0 PUSH2 0x100 EXP DUP2 SLOAD DUP2 PUSH1 0xFF MUL NOT AND SWAP1 DUP4 ISZERO ISZERO MUL OR SWAP1 SSTORE POP DUP4 PUSH1 0x4 ADD SLOAD DUP3 PUSH2 0x2190 SWAP2 SWAP1 PUSH2 0x30F0 JUMP JUMPDEST SWAP2 POP JUMPDEST DUP1 DUP1 PUSH1 0x1 ADD SWAP2 POP POP PUSH2 0x2078 JUMP JUMPDEST POP PUSH1 0x0 DUP2 SUB PUSH2 0x21DB JUMPI PUSH1 0x40 MLOAD PUSH32 0xE49C14CB00000000000000000000000000000000000000000000000000000000 DUP2 MSTORE PUSH1 0x4 ADD PUSH1 0x40 MLOAD DUP1 SWAP2 SUB SWAP1 REVERT JUMPDEST PUSH1 0x0 PUSH1 0x1 DUP2 GT ISZERO PUSH2 0x21EF JUMPI PUSH2 0x21EE PUSH2 0x29C0 JUMP JUMPDEST JUMPDEST DUP4 PUSH1 0x3 ADD PUSH1 0x0 SWAP1 SLOAD SWAP1 PUSH2 0x100 EXP SWAP1 DIV PUSH1 0xFF AND PUSH1 0x1 DUP2 GT ISZERO PUSH2 0x2213 JUMPI PUSH2 0x2212 PUSH2 0x29C0 JUMP JUMPDEST JUMPDEST SUB PUSH2 0x2264 JUMPI CALLER PUSH20 0xFFFFFFFFFFFFFFFFFFFFFFFFFFFFFFFFFFFFFFFF AND PUSH2 0x8FC DUP3 SWAP1 DUP2 ISZERO MUL SWAP1 PUSH1 0x40 MLOAD PUSH1 0x0 PUSH1 0x40 MLOAD DUP1 DUP4 SUB DUP2 DUP6 DUP9 DUP9 CALL SWAP4 POP POP POP POP ISZERO DUP1 ISZERO PUSH2 0x225E JUMPI RETURNDATASIZE PUSH1 0x0 DUP1 RETURNDATACOPY RETURNDATASIZE PUSH1 0x0 REVERT JUMPDEST POP PUSH2 0x22B0 JUMP JUMPDEST PUSH2 0x22AF CALLER DUP3 PUSH32 0x0 PUSH20 0xFFFFFFFFFFFFFFFFFFFFFFFFFFFFFFFFFFFFFFFF AND PUSH2 0x2645 SWAP1 SWAP3 SWAP2 SWAP1 PUSH4 0xFFFFFFFF AND JUMP JUMPDEST JUMPDEST CALLER PUSH20 0xFFFFFFFFFFFFFFFFFFFFFFFFFFFFFFFFFFFFFFFF AND DUP3 PUSH32 0x7CA5472B7EA78C2C0141C5A12EE6D170CF4CE8ED06BE3D22C8252DDFC7A6A2C4 DUP4 PUSH1 0x40 MLOAD PUSH2 0x22F7 SWAP2 SWAP1 PUSH2 0x2C24 JUMP JUMPDEST PUSH1 0x40 MLOAD DUP1 SWAP2 SUB SWAP1 LOG3 POP POP POP JUMP JUMPDEST PUSH1 0x0 DUP1 PUSH1 0x0 JUMPDEST DUP5 PUSH1 0x8 ADD DUP1 SLOAD SWAP1 POP DUP2 LT ISZERO PUSH2 0x2458 JUMPI PUSH1 0x0 DUP6 PUSH1 0x8 ADD DUP3 DUP2 SLOAD DUP2 LT PUSH2 0x2331 JUMPI PUSH2 0x2330 PUSH2 0x3493 JUMP JUMPDEST JUMPDEST SWAP1 PUSH1 0x0 MSTORE PUSH1 0x20 PUSH1 0x0 KECCAK256 ADD SLOAD SWAP1 POP CALLER PUSH20 0xFFFFFFFFFFFFFFFFFFFFFFFFFFFFFFFFFFFFFFFF AND DUP7 PUSH1 0xA ADD DUP3 DUP2 SLOAD DUP2 LT PUSH2 0x236B JUMPI PUSH2 0x236A PUSH2 0x3493 JUMP JUMPDEST JUMPDEST SWAP1 PUSH1 0x0 MSTORE PUSH1 0x20 PUSH1 0x0 KECCAK256 SWAP1 PUSH1 0x3 MUL ADD PUSH1 0x0 ADD PUSH1 0x0 SWAP1 SLOAD SWAP1 PUSH2 0x100 EXP SWAP1 DIV PUSH20 0xFFFFFFFFFFFFFFFFFFFFFFFFFFFFFFFFFFFFFFFF AND PUSH20 0xFFFFFFFFFFFFFFFFFFFFFFFFFFFFFFFFFFFFFFFF AND EQ DUP1 ISZERO PUSH2 0x23F2 JUMPI POP DUP6 PUSH1 0xA ADD DUP2 DUP2 SLOAD DUP2 LT PUSH2 0x23D1 JUMPI PUSH2 0x23D0 PUSH2 0x3493 JUMP JUMPDEST JUMPDEST SWAP1 PUSH1 0x0 MSTORE PUSH1 0x20 PUSH1 0x0 KECCAK256 SWAP1 PUSH1 0x3 MUL ADD PUSH1 0x2 ADD PUSH1 0x0 SWAP1 SLOAD SWAP1 PUSH2 0x100 EXP SWAP1 DIV PUSH1 0xFF AND ISZERO JUMPDEST ISZERO PUSH2 0x244A JUMPI PUSH1 0x1 DUP7 PUSH1 0xA ADD DUP3 DUP2 SLOAD DUP2 LT PUSH2 0x240F JUMPI PUSH2 0x240E PUSH2 0x3493 JUMP JUMPDEST JUMPDEST SWAP1 PUSH1 0x0 MSTORE PUSH1 0x20 PUSH1 0x0 KECCAK256 SWAP1 PUSH1 0x3 MUL ADD PUSH1 0x2 ADD PUSH1 0x0 PUSH2 0x100 EXP DUP2 SLOAD DUP2 PUSH1 0xFF MUL NOT AND SWAP1 DUP4 ISZERO ISZERO MUL OR SWAP1 SSTORE POP DUP4 DUP1 PUSH2 0x2442 SWAP1 PUSH2 0x3184 JUMP JUMPDEST SWAP5 POP POP PUSH1 0x1 SWAP3 POP JUMPDEST POP DUP1 DUP1 PUSH1 0x1 ADD SWAP2 POP POP PUSH2 0x230A JUMP JUMPDEST POP DUP1 PUSH2 0x2490 JUMPI PUSH1 0x40 MLOAD PUSH32 0x62D67F1200000000000000000000000000000000000000000000000000000000 DUP2 MSTORE PUSH1 0x4 ADD PUSH1 0x40 MLOAD DUP1 SWAP2 SUB SWAP1 REVERT JUMPDEST PUSH1 0x0 PUSH1 0x64 PUSH1 0x5 DUP7 PUSH1 0x7 ADD SLOAD PUSH2 0x24A5 SWAP2 SWAP1 PUSH2 0x3525 JUMP JUMPDEST PUSH2 0x24AF SWAP2 SWAP1 PUSH2 0x3596 JUMP JUMPDEST DUP6 PUSH1 0x7 ADD SLOAD PUSH2 0x24BE SWAP2 SWAP1 PUSH2 0x34C2 JUMP JUMPDEST SWAP1 POP PUSH1 0x0 DUP6 PUSH1 0x8 ADD DUP1 SLOAD SWAP1 POP DUP3 DUP6 PUSH2 0x24D6 SWAP2 SWAP1 PUSH2 0x3525 JUMP JUMPDEST PUSH2 0x24E0 SWAP2 SWAP1 PUSH2 0x3596 JUMP JUMPDEST SWAP1 POP PUSH1 0x0 PUSH1 0x1 DUP2 GT ISZERO PUSH2 0x24F6 JUMPI PUSH2 0x24F5 PUSH2 0x29C0 JUMP JUMPDEST JUMPDEST DUP7 PUSH1 0x3 ADD PUSH1 0x0 SWAP1 SLOAD SWAP1 PUSH2 0x100 EXP SWAP1 DIV PUSH1 0xFF AND PUSH1 0x1 DUP2 GT ISZERO PUSH2 0x251A JUMPI PUSH2 0x2519 PUSH2 0x29C0 JUMP JUMPDEST JUMPDEST SUB PUSH2 0x256B JUMPI CALLER PUSH20 0xFFFFFFFFFFFFFFFFFFFFFFFFFFFFFFFFFFFFFFFF AND PUSH2 0x8FC DUP3 SWAP1 DUP2 ISZERO MUL SWAP1 PUSH1 0x40 MLOAD PUSH1 0x0 PUSH1 0x40 MLOAD DUP1 DUP4 SUB DUP2 DUP6 DUP9 DUP9 CALL SWAP4 POP POP POP POP ISZERO DUP1 ISZERO PUSH2 0x2565 JUMPI RETURNDATASIZE PUSH1 0x0 DUP1 RETURNDATACOPY RETURNDATASIZE PUSH1 0x0 REVERT JUMPDEST POP PUSH2 0x25B7 JUMP JUMPDEST PUSH2 0x25B6 CALLER DUP3 PUSH32 0x0 PUSH20 0xFFFFFFFFFFFFFFFFFFFFFFFFFFFFFFFFFFFFFFFF AND PUSH2 0x2645 SWAP1 SWAP3 SWAP2 SWAP1 PUSH4 0xFFFFFFFF AND JUMP JUMPDEST JUMPDEST CALLER PUSH20 0xFFFFFFFFFFFFFFFFFFFFFFFFFFFFFFFFFFFFFFFF AND DUP6 PUSH32 0x4AA95F981A8337CB337DE335B965507DA0879C3B49F799D20058E913F5AD2C26 DUP4 PUSH1 0x40 MLOAD PUSH2 0x25FE SWAP2 SWAP1 PUSH2 0x2C24 JUMP JUMPDEST PUSH1 0x40 MLOAD DUP1 SWAP2 SUB SWAP1 LOG3 POP POP POP POP POP POP JUMP JUMPDEST PUSH1 0x0 CALLER SWAP1 POP SWAP1 JUMP JUMPDEST PUSH1 0x0 DUP2 DUP4 GT PUSH2 0x2630 JUMPI DUP3 DUP3 PUSH2 0x262B SWAP2 SWAP1 PUSH2 0x34C2 JUMP JUMPDEST PUSH2 0x263D JUMP JUMPDEST DUP2 DUP4 PUSH2 0x263C SWAP2 SWAP1 PUSH2 0x34C2 JUMP JUMPDEST JUMPDEST SWAP1 POP SWAP3 SWAP2 POP POP JUMP JUMPDEST PUSH2 0x26BF DUP4 DUP5 PUSH20 0xFFFFFFFFFFFFFFFFFFFFFFFFFFFFFFFFFFFFFFFF AND PUSH4 0xA9059CBB DUP6 DUP6 PUSH1 0x40 MLOAD PUSH1 0x24 ADD PUSH2 0x2678 SWAP3 SWAP2 SWAP1 PUSH2 0x35FE JUMP JUMPDEST PUSH1 0x40 MLOAD PUSH1 0x20 DUP2 DUP4 SUB SUB DUP2 MSTORE SWAP1 PUSH1 0x40 MSTORE SWAP2 POP PUSH1 0xE0 SHL PUSH1 0x20 DUP3 ADD DUP1 MLOAD PUSH28 0xFFFFFFFFFFFFFFFFFFFFFFFFFFFFFFFFFFFFFFFFFFFFFFFFFFFFFFFF DUP4 DUP2 DUP4 AND OR DUP4 MSTORE POP POP POP POP PUSH2 0x26C4 JUMP JUMPDEST POP POP POP JUMP JUMPDEST PUSH1 0x0 DUP1 PUSH1 0x20 PUSH1 0x0 DUP5 MLOAD PUSH1 0x20 DUP7 ADD PUSH1 0x0 DUP9 GAS CALL DUP1 PUSH2 0x26E7 JUMPI PUSH1 0x40 MLOAD RETURNDATASIZE PUSH1 0x0 DUP3 RETURNDATACOPY RETURNDATASIZE DUP2 REVERT JUMPDEST RETURNDATASIZE SWAP3 POP PUSH1 0x0 MLOAD SWAP2 POP POP PUSH1 0x0 DUP3 EQ PUSH2 0x2702 JUMPI PUSH1 0x1 DUP2 EQ ISZERO PUSH2 0x271E JUMP JUMPDEST PUSH1 0x0 DUP5 PUSH20 0xFFFFFFFFFFFFFFFFFFFFFFFFFFFFFFFFFFFFFFFF AND EXTCODESIZE EQ JUMPDEST ISZERO PUSH2 0x2760 JUMPI DUP4 PUSH1 0x40 MLOAD PUSH32 0x5274AFE700000000000000000000000000000000000000000000000000000000 DUP2 MSTORE PUSH1 0x4 ADD PUSH2 0x2757 SWAP2 SWAP1 PUSH2 0x2F99 JUMP JUMPDEST PUSH1 0x40 MLOAD DUP1 SWAP2 SUB SWAP1 REVERT JUMPDEST POP POP POP POP JUMP JUMPDEST DUP3 DUP1 SLOAD DUP3 DUP3 SSTORE SWAP1 PUSH1 0x0 MSTORE PUSH1 0x20 PUSH1 0x0 KECCAK256 SWAP1 DUP2 ADD SWAP3 DUP3 ISZERO PUSH2 0x27A2 JUMPI SWAP2 PUSH1 0x20 MUL DUP3 ADD JUMPDEST DUP3 DUP2 GT ISZERO PUSH2 0x27A1 JUMPI DUP3 MLOAD DUP3 SSTORE SWAP2 PUSH1 0x20 ADD SWAP2 SWAP1 PUSH1 0x1 ADD SWAP1 PUSH2 0x2786 JUMP JUMPDEST JUMPDEST POP SWAP1 POP PUSH2 0x27AF SWAP2 SWAP1 PUSH2 0x27B3 JUMP JUMPDEST POP SWAP1 JUMP JUMPDEST JUMPDEST DUP1 DUP3 GT ISZERO PUSH2 0x27CC JUMPI PUSH1 0x0 DUP2 PUSH1 0x0 SWAP1 SSTORE POP PUSH1 0x1 ADD PUSH2 0x27B4 JUMP JUMPDEST POP SWAP1 JUMP JUMPDEST PUSH1 0x0 PUSH1 0x40 MLOAD SWAP1 POP SWAP1 JUMP JUMPDEST PUSH1 0x0 DUP1 REVERT JUMPDEST PUSH1 0x0 DUP1 REVERT JUMPDEST PUSH1 0x0 DUP2 SWAP1 POP SWAP2 SWAP1 POP JUMP JUMPDEST PUSH2 0x27F7 DUP2 PUSH2 0x27E4 JUMP JUMPDEST DUP2 EQ PUSH2 0x2802 JUMPI PUSH1 0x0 DUP1 REVERT JUMPDEST POP JUMP JUMPDEST PUSH1 0x0 DUP2 CALLDATALOAD SWAP1 POP PUSH2 0x2814 DUP2 PUSH2 0x27EE JUMP JUMPDEST SWAP3 SWAP2 POP POP JUMP JUMPDEST PUSH1 0x0 DUP1 PUSH1 0x40 DUP4 DUP6 SUB SLT ISZERO PUSH2 0x2831 JUMPI PUSH2 0x2830 PUSH2 0x27DA JUMP JUMPDEST JUMPDEST PUSH1 0x0 PUSH2 0x283F DUP6 DUP3 DUP7 ADD PUSH2 0x2805 JUMP JUMPDEST SWAP3 POP POP PUSH1 0x20 PUSH2 0x2850 DUP6 DUP3 DUP7 ADD PUSH2 0x2805 JUMP JUMPDEST SWAP2 POP POP SWAP3 POP SWAP3 SWAP1 POP JUMP JUMPDEST PUSH1 0x0 PUSH20 0xFFFFFFFFFFFFFFFFFFFFFFFFFFFFFFFFFFFFFFFF DUP3 AND SWAP1 POP SWAP2 SWAP1 POP JUMP JUMPDEST PUSH1 0x0 DUP2 SWAP1 POP SWAP2 SWAP1 POP JUMP JUMPDEST PUSH1 0x0 PUSH2 0x289F PUSH2 0x289A PUSH2 0x2895 DUP5 PUSH2 0x285A JUMP JUMPDEST PUSH2 0x287A JUMP JUMPDEST PUSH2 0x285A JUMP JUMPDEST SWAP1 POP SWAP2 SWAP1 POP JUMP JUMPDEST PUSH1 0x0 PUSH2 0x28B1 DUP3 PUSH2 0x2884 JUMP JUMPDEST SWAP1 POP SWAP2 SWAP1 POP JUMP JUMPDEST PUSH1 0x0 PUSH2 0x28C3 DUP3 PUSH2 0x28A6 JUMP JUMPDEST SWAP1 POP SWAP2 SWAP1 POP JUMP JUMPDEST PUSH2 0x28D3 DUP2 PUSH2 0x28B8 JUMP JUMPDEST DUP3 MSTORE POP POP JUMP JUMPDEST PUSH1 0x0 PUSH1 0x20 DUP3 ADD SWAP1 POP PUSH2 0x28EE PUSH1 0x0 DUP4 ADD DUP5 PUSH2 0x28CA JUMP JUMPDEST SWAP3 SWAP2 POP POP JUMP JUMPDEST PUSH1 0x0 PUSH1 0x20 DUP3 DUP5 SUB SLT ISZERO PUSH2 0x290A JUMPI PUSH2 0x2909 PUSH2 0x27DA JUMP JUMPDEST JUMPDEST PUSH1 0x0 PUSH2 0x2918 DUP5 DUP3 DUP6 ADD PUSH2 0x2805 JUMP JUMPDEST SWAP2 POP POP SWAP3 SWAP2 POP POP JUMP JUMPDEST PUSH2 0x292A DUP2 PUSH2 0x27E4 JUMP JUMPDEST DUP3 MSTORE POP POP JUMP JUMPDEST PUSH1 0x0 DUP2 MLOAD SWAP1 POP SWAP2 SWAP1 POP JUMP JUMPDEST PUSH1 0x0 DUP3 DUP3 MSTORE PUSH1 0x20 DUP3 ADD SWAP1 POP SWAP3 SWAP2 POP POP JUMP JUMPDEST PUSH1 0x0 JUMPDEST DUP4 DUP2 LT ISZERO PUSH2 0x296A JUMPI DUP1 DUP3 ADD MLOAD DUP2 DUP5 ADD MSTORE PUSH1 0x20 DUP2 ADD SWAP1 POP PUSH2 0x294F JUMP JUMPDEST PUSH1 0x0 DUP5 DUP5 ADD MSTORE POP POP POP POP JUMP JUMPDEST PUSH1 0x0 PUSH1 0x1F NOT PUSH1 0x1F DUP4 ADD AND SWAP1 POP SWAP2 SWAP1 POP JUMP JUMPDEST PUSH1 0x0 PUSH2 0x2992 DUP3 PUSH2 0x2930 JUMP JUMPDEST PUSH2 0x299C DUP2 DUP6 PUSH2 0x293B JUMP JUMPDEST SWAP4 POP PUSH2 0x29AC DUP2 DUP6 PUSH1 0x20 DUP7 ADD PUSH2 0x294C JUMP JUMPDEST PUSH2 0x29B5 DUP2 PUSH2 0x2976 JUMP JUMPDEST DUP5 ADD SWAP2 POP POP SWAP3 SWAP2 POP POP JUMP JUMPDEST PUSH32 0x4E487B7100000000000000000000000000000000000000000000000000000000 PUSH1 0x0 MSTORE PUSH1 0x21 PUSH1 0x4 MSTORE PUSH1 0x24 PUSH1 0x0 REVERT JUMPDEST PUSH1 0x2 DUP2 LT PUSH2 0x2A00 JUMPI PUSH2 0x29FF PUSH2 0x29C0 JUMP JUMPDEST JUMPDEST POP JUMP JUMPDEST PUSH1 0x0 DUP2 SWAP1 POP PUSH2 0x2A11 DUP3 PUSH2 0x29EF JUMP JUMPDEST SWAP2 SWAP1 POP JUMP JUMPDEST PUSH1 0x0 PUSH2 0x2A21 DUP3 PUSH2 0x2A03 JUMP JUMPDEST SWAP1 POP SWAP2 SWAP1 POP JUMP JUMPDEST PUSH2 0x2A31 DUP2 PUSH2 0x2A16 JUMP JUMPDEST DUP3 MSTORE POP POP JUMP JUMPDEST PUSH1 0x3 DUP2 LT PUSH2 0x2A48 JUMPI PUSH2 0x2A47 PUSH2 0x29C0 JUMP JUMPDEST JUMPDEST POP JUMP JUMPDEST PUSH1 0x0 DUP2 SWAP1 POP PUSH2 0x2A59 DUP3 PUSH2 0x2A37 JUMP JUMPDEST SWAP2 SWAP1 POP JUMP JUMPDEST PUSH1 0x0 PUSH2 0x2A69 DUP3 PUSH2 0x2A4B JUMP JUMPDEST SWAP1 POP SWAP2 SWAP1 POP JUMP JUMPDEST PUSH2 0x2A79 DUP2 PUSH2 0x2A5E JUMP JUMPDEST DUP3 MSTORE POP POP JUMP JUMPDEST PUSH1 0x0 DUP2 ISZERO ISZERO SWAP1 POP SWAP2 SWAP1 POP JUMP JUMPDEST PUSH2 0x2A94 DUP2 PUSH2 0x2A7F JUMP JUMPDEST DUP3 MSTORE POP POP JUMP JUMPDEST PUSH1 0x0 PUSH2 0x140 DUP3 ADD SWAP1 POP PUSH2 0x2AB0 PUSH1 0x0 DUP4 ADD DUP14 PUSH2 0x2921 JUMP JUMPDEST DUP2 DUP2 SUB PUSH1 0x20 DUP4 ADD MSTORE PUSH2 0x2AC2 DUP2 DUP13 PUSH2 0x2987 JUMP JUMPDEST SWAP1 POP DUP2 DUP2 SUB PUSH1 0x40 DUP4 ADD MSTORE PUSH2 0x2AD6 DUP2 DUP12 PUSH2 0x2987 JUMP JUMPDEST SWAP1 POP PUSH2 0x2AE5 PUSH1 0x60 DUP4 ADD DUP11 PUSH2 0x2A28 JUMP JUMPDEST PUSH2 0x2AF2 PUSH1 0x80 DUP4 ADD DUP10 PUSH2 0x2921 JUMP JUMPDEST PUSH2 0x2AFF PUSH1 0xA0 DUP4 ADD DUP9 PUSH2 0x2921 JUMP JUMPDEST PUSH2 0x2B0C PUSH1 0xC0 DUP4 ADD DUP8 PUSH2 0x2A70 JUMP JUMPDEST PUSH2 0x2B19 PUSH1 0xE0 DUP4 ADD DUP7 PUSH2 0x2921 JUMP JUMPDEST PUSH2 0x2B27 PUSH2 0x100 DUP4 ADD DUP6 PUSH2 0x2A8B JUMP JUMPDEST PUSH2 0x2B35 PUSH2 0x120 DUP4 ADD DUP5 PUSH2 0x2921 JUMP JUMPDEST SWAP12 SWAP11 POP POP POP POP POP POP POP POP POP POP POP JUMP JUMPDEST PUSH1 0x0 DUP2 MLOAD SWAP1 POP SWAP2 SWAP1 POP JUMP JUMPDEST PUSH1 0x0 DUP3 DUP3 MSTORE PUSH1 0x20 DUP3 ADD SWAP1 POP SWAP3 SWAP2 POP POP JUMP JUMPDEST PUSH1 0x0 DUP2 SWAP1 POP PUSH1 0x20 DUP3 ADD SWAP1 POP SWAP2 SWAP1 POP JUMP JUMPDEST PUSH2 0x2B79 DUP2 PUSH2 0x27E4 JUMP JUMPDEST DUP3 MSTORE POP POP JUMP JUMPDEST PUSH1 0x0 PUSH2 0x2B8B DUP4 DUP4 PUSH2 0x2B70 JUMP JUMPDEST PUSH1 0x20 DUP4 ADD SWAP1 POP SWAP3 SWAP2 POP POP JUMP JUMPDEST PUSH1 0x0 PUSH1 0x20 DUP3 ADD SWAP1 POP SWAP2 SWAP1 POP JUMP JUMPDEST PUSH1 0x0 PUSH2 0x2BAF DUP3 PUSH2 0x2B44 JUMP JUMPDEST PUSH2 0x2BB9 DUP2 DUP6 PUSH2 0x2B4F JUMP JUMPDEST SWAP4 POP PUSH2 0x2BC4 DUP4 PUSH2 0x2B60 JUMP JUMPDEST DUP1 PUSH1 0x0 JUMPDEST DUP4 DUP2 LT ISZERO PUSH2 0x2BF5 JUMPI DUP2 MLOAD PUSH2 0x2BDC DUP9 DUP3 PUSH2 0x2B7F JUMP JUMPDEST SWAP8 POP PUSH2 0x2BE7 DUP4 PUSH2 0x2B97 JUMP JUMPDEST SWAP3 POP POP PUSH1 0x1 DUP2 ADD SWAP1 POP PUSH2 0x2BC8 JUMP JUMPDEST POP DUP6 SWAP4 POP POP POP POP SWAP3 SWAP2 POP POP JUMP JUMPDEST PUSH1 0x0 PUSH1 0x20 DUP3 ADD SWAP1 POP DUP2 DUP2 SUB PUSH1 0x0 DUP4 ADD MSTORE PUSH2 0x2C1C DUP2 DUP5 PUSH2 0x2BA4 JUMP JUMPDEST SWAP1 POP SWAP3 SWAP2 POP POP JUMP JUMPDEST PUSH1 0x0 PUSH1 0x20 DUP3 ADD SWAP1 POP PUSH2 0x2C39 PUSH1 0x0 DUP4 ADD DUP5 PUSH2 0x2921 JUMP JUMPDEST SWAP3 SWAP2 POP POP JUMP JUMPDEST PUSH1 0x0 PUSH2 0x2C4A DUP3 PUSH2 0x285A JUMP JUMPDEST SWAP1 POP SWAP2 SWAP1 POP JUMP JUMPDEST PUSH2 0x2C5A DUP2 PUSH2 0x2C3F JUMP JUMPDEST DUP2 EQ PUSH2 0x2C65 JUMPI PUSH1 0x0 DUP1 REVERT JUMPDEST POP JUMP JUMPDEST PUSH1 0x0 DUP2 CALLDATALOAD SWAP1 POP PUSH2 0x2C77 DUP2 PUSH2 0x2C51 JUMP JUMPDEST SWAP3 SWAP2 POP POP JUMP JUMPDEST PUSH1 0x0 DUP1 PUSH1 0x40 DUP4 DUP6 SUB SLT ISZERO PUSH2 0x2C94 JUMPI PUSH2 0x2C93 PUSH2 0x27DA JUMP JUMPDEST JUMPDEST PUSH1 0x0 PUSH2 0x2CA2 DUP6 DUP3 DUP7 ADD PUSH2 0x2805 JUMP JUMPDEST SWAP3 POP POP PUSH1 0x20 PUSH2 0x2CB3 DUP6 DUP3 DUP7 ADD PUSH2 0x2C68 JUMP JUMPDEST SWAP2 POP POP SWAP3 POP SWAP3 SWAP1 POP JUMP JUMPDEST PUSH1 0x0 PUSH1 0x20 DUP3 ADD SWAP1 POP PUSH2 0x2CD2 PUSH1 0x0 DUP4 ADD DUP5 PUSH2 0x2A8B JUMP JUMPDEST SWAP3 SWAP2 POP POP JUMP JUMPDEST PUSH1 0x0 DUP1 REVERT JUMPDEST PUSH1 0x0 DUP1 REVERT JUMPDEST PUSH32 0x4E487B7100000000000000000000000000000000000000000000000000000000 PUSH1 0x0 MSTORE PUSH1 0x41 PUSH1 0x4 MSTORE PUSH1 0x24 PUSH1 0x0 REVERT JUMPDEST PUSH2 0x2D1A DUP3 PUSH2 0x2976 JUMP JUMPDEST DUP2 ADD DUP2 DUP2 LT PUSH8 0xFFFFFFFFFFFFFFFF DUP3 GT OR ISZERO PUSH2 0x2D39 JUMPI PUSH2 0x2D38 PUSH2 0x2CE2 JUMP JUMPDEST JUMPDEST DUP1 PUSH1 0x40 MSTORE POP POP POP JUMP JUMPDEST PUSH1 0x0 PUSH2 0x2D4C PUSH2 0x27D0 JUMP JUMPDEST SWAP1 POP PUSH2 0x2D58 DUP3 DUP3 PUSH2 0x2D11 JUMP JUMPDEST SWAP2 SWAP1 POP JUMP JUMPDEST PUSH1 0x0 PUSH8 0xFFFFFFFFFFFFFFFF DUP3 GT ISZERO PUSH2 0x2D78 JUMPI PUSH2 0x2D77 PUSH2 0x2CE2 JUMP JUMPDEST JUMPDEST PUSH2 0x2D81 DUP3 PUSH2 0x2976 JUMP JUMPDEST SWAP1 POP PUSH1 0x20 DUP2 ADD SWAP1 POP SWAP2 SWAP1 POP JUMP JUMPDEST DUP3 DUP2 DUP4 CALLDATACOPY PUSH1 0x0 DUP4 DUP4 ADD MSTORE POP POP POP JUMP JUMPDEST PUSH1 0x0 PUSH2 0x2DB0 PUSH2 0x2DAB DUP5 PUSH2 0x2D5D JUMP JUMPDEST PUSH2 0x2D42 JUMP JUMPDEST SWAP1 POP DUP3 DUP2 MSTORE PUSH1 0x20 DUP2 ADD DUP5 DUP5 DUP5 ADD GT ISZERO PUSH2 0x2DCC JUMPI PUSH2 0x2DCB PUSH2 0x2CDD JUMP JUMPDEST JUMPDEST PUSH2 0x2DD7 DUP5 DUP3 DUP6 PUSH2 0x2D8E JUMP JUMPDEST POP SWAP4 SWAP3 POP POP POP JUMP JUMPDEST PUSH1 0x0 DUP3 PUSH1 0x1F DUP4 ADD SLT PUSH2 0x2DF4 JUMPI PUSH2 0x2DF3 PUSH2 0x2CD8 JUMP JUMPDEST JUMPDEST DUP2 CALLDATALOAD PUSH2 0x2E04 DUP5 DUP3 PUSH1 0x20 DUP7 ADD PUSH2 0x2D9D JUMP JUMPDEST SWAP2 POP POP SWAP3 SWAP2 POP POP JUMP JUMPDEST PUSH1 0x2 DUP2 LT PUSH2 0x2E1A JUMPI PUSH1 0x0 DUP1 REVERT JUMPDEST POP JUMP JUMPDEST PUSH1 0x0 DUP2 CALLDATALOAD SWAP1 POP PUSH2 0x2E2C DUP2 PUSH2 0x2E0D JUMP JUMPDEST SWAP3 SWAP2 POP POP JUMP JUMPDEST PUSH1 0x0 DUP1 PUSH1 0x0 DUP1 PUSH1 0x80 DUP6 DUP8 SUB SLT ISZERO PUSH2 0x2E4C JUMPI PUSH2 0x2E4B PUSH2 0x27DA JUMP JUMPDEST JUMPDEST PUSH1 0x0 DUP6 ADD CALLDATALOAD PUSH8 0xFFFFFFFFFFFFFFFF DUP2 GT ISZERO PUSH2 0x2E6A JUMPI PUSH2 0x2E69 PUSH2 0x27DF JUMP JUMPDEST JUMPDEST PUSH2 0x2E76 DUP8 DUP3 DUP9 ADD PUSH2 0x2DDF JUMP JUMPDEST SWAP5 POP POP PUSH1 0x20 DUP6 ADD CALLDATALOAD PUSH8 0xFFFFFFFFFFFFFFFF DUP2 GT ISZERO PUSH2 0x2E97 JUMPI PUSH2 0x2E96 PUSH2 0x27DF JUMP JUMPDEST JUMPDEST PUSH2 0x2EA3 DUP8 DUP3 DUP9 ADD PUSH2 0x2DDF JUMP JUMPDEST SWAP4 POP POP PUSH1 0x40 PUSH2 0x2EB4 DUP8 DUP3 DUP9 ADD PUSH2 0x2E1D JUMP JUMPDEST SWAP3 POP POP PUSH1 0x60 PUSH2 0x2EC5 DUP8 DUP3 DUP9 ADD PUSH2 0x2805 JUMP JUMPDEST SWAP2 POP POP SWAP3 SWAP6 SWAP2 SWAP5 POP SWAP3 POP JUMP JUMPDEST PUSH1 0x0 PUSH2 0x160 DUP3 ADD SWAP1 POP PUSH2 0x2EE7 PUSH1 0x0 DUP4 ADD DUP15 PUSH2 0x2921 JUMP JUMPDEST DUP2 DUP2 SUB PUSH1 0x20 DUP4 ADD MSTORE PUSH2 0x2EF9 DUP2 DUP14 PUSH2 0x2987 JUMP JUMPDEST SWAP1 POP DUP2 DUP2 SUB PUSH1 0x40 DUP4 ADD MSTORE PUSH2 0x2F0D DUP2 DUP13 PUSH2 0x2987 JUMP JUMPDEST SWAP1 POP PUSH2 0x2F1C PUSH1 0x60 DUP4 ADD DUP12 PUSH2 0x2A28 JUMP JUMPDEST PUSH2 0x2F29 PUSH1 0x80 DUP4 ADD DUP11 PUSH2 0x2921 JUMP JUMPDEST PUSH2 0x2F36 PUSH1 0xA0 DUP4 ADD DUP10 PUSH2 0x2921 JUMP JUMPDEST PUSH2 0x2F43 PUSH1 0xC0 DUP4 ADD DUP9 PUSH2 0x2A70 JUMP JUMPDEST PUSH2 0x2F50 PUSH1 0xE0 DUP4 ADD DUP8 PUSH2 0x2921 JUMP JUMPDEST PUSH2 0x2F5E PUSH2 0x100 DUP4 ADD DUP7 PUSH2 0x2A8B JUMP JUMPDEST PUSH2 0x2F6C PUSH2 0x120 DUP4 ADD DUP6 PUSH2 0x2921 JUMP JUMPDEST PUSH2 0x2F7A PUSH2 0x140 DUP4 ADD DUP5 PUSH2 0x2921 JUMP JUMPDEST SWAP13 SWAP12 POP POP POP POP POP POP POP POP POP POP POP POP JUMP JUMPDEST PUSH2 0x2F93 DUP2 PUSH2 0x2C3F JUMP JUMPDEST DUP3 MSTORE POP POP JUMP JUMPDEST PUSH1 0x0 PUSH1 0x20 DUP3 ADD SWAP1 POP PUSH2 0x2FAE PUSH1 0x0 DUP4 ADD DUP5 PUSH2 0x2F8A JUMP JUMPDEST SWAP3 SWAP2 POP POP JUMP JUMPDEST PUSH1 0x0 PUSH1 0x20 DUP3 DUP5 SUB SLT ISZERO PUSH2 0x2FCA JUMPI PUSH2 0x2FC9 PUSH2 0x27DA JUMP JUMPDEST JUMPDEST PUSH1 0x0 PUSH2 0x2FD8 DUP5 DUP3 DUP6 ADD PUSH2 0x2C68 JUMP JUMPDEST SWAP2 POP POP SWAP3 SWAP2 POP POP JUMP JUMPDEST PUSH1 0x0 PUSH1 0x60 DUP3 ADD SWAP1 POP PUSH2 0x2FF6 PUSH1 0x0 DUP4 ADD DUP7 PUSH2 0x2F8A JUMP JUMPDEST PUSH2 0x3003 PUSH1 0x20 DUP4 ADD DUP6 PUSH2 0x2921 JUMP JUMPDEST PUSH2 0x3010 PUSH1 0x40 DUP4 ADD DUP5 PUSH2 0x2A8B JUMP JUMPDEST SWAP5 SWAP4 POP POP POP POP JUMP JUMPDEST PUSH1 0x0 PUSH1 0x60 DUP3 ADD SWAP1 POP PUSH2 0x302D PUSH1 0x0 DUP4 ADD DUP7 PUSH2 0x2921 JUMP JUMPDEST DUP2 DUP2 SUB PUSH1 0x20 DUP4 ADD MSTORE PUSH2 0x303F DUP2 DUP6 PUSH2 0x2BA4 JUMP JUMPDEST SWAP1 POP PUSH2 0x304E PUSH1 0x40 DUP4 ADD DUP5 PUSH2 0x2A8B JUMP JUMPDEST SWAP5 SWAP4 POP POP POP POP JUMP JUMPDEST PUSH1 0x0 PUSH1 0x40 DUP3 ADD SWAP1 POP PUSH2 0x306B PUSH1 0x0 DUP4 ADD DUP6 PUSH2 0x2F8A JUMP JUMPDEST PUSH2 0x3078 PUSH1 0x20 DUP4 ADD DUP5 PUSH2 0x2F8A JUMP JUMPDEST SWAP4 SWAP3 POP POP POP JUMP JUMPDEST PUSH1 0x0 DUP2 MLOAD SWAP1 POP PUSH2 0x308E DUP2 PUSH2 0x27EE JUMP JUMPDEST SWAP3 SWAP2 POP POP JUMP JUMPDEST PUSH1 0x0 PUSH1 0x20 DUP3 DUP5 SUB SLT ISZERO PUSH2 0x30AA JUMPI PUSH2 0x30A9 PUSH2 0x27DA JUMP JUMPDEST JUMPDEST PUSH1 0x0 PUSH2 0x30B8 DUP5 DUP3 DUP6 ADD PUSH2 0x307F JUMP JUMPDEST SWAP2 POP POP SWAP3 SWAP2 POP POP JUMP JUMPDEST PUSH32 0x4E487B7100000000000000000000000000000000000000000000000000000000 PUSH1 0x0 MSTORE PUSH1 0x11 PUSH1 0x4 MSTORE PUSH1 0x24 PUSH1 0x0 REVERT JUMPDEST PUSH1 0x0 PUSH2 0x30FB DUP3 PUSH2 0x27E4 JUMP JUMPDEST SWAP2 POP PUSH2 0x3106 DUP4 PUSH2 0x27E4 JUMP JUMPDEST SWAP3 POP DUP3 DUP3 ADD SWAP1 POP DUP1 DUP3 GT ISZERO PUSH2 0x311E JUMPI PUSH2 0x311D PUSH2 0x30C1 JUMP JUMPDEST JUMPDEST SWAP3 SWAP2 POP POP JUMP JUMPDEST PUSH32 0x4E487B7100000000000000000000000000000000000000000000000000000000 PUSH1 0x0 MSTORE PUSH1 0x22 PUSH1 0x4 MSTORE PUSH1 0x24 PUSH1 0x0 REVERT JUMPDEST PUSH1 0x0 PUSH1 0x2 DUP3 DIV SWAP1 POP PUSH1 0x1 DUP3 AND DUP1 PUSH2 0x316B JUMPI PUSH1 0x7F DUP3 AND SWAP2 POP JUMPDEST PUSH1 0x20 DUP3 LT DUP2 SUB PUSH2 0x317E JUMPI PUSH2 0x317D PUSH2 0x3124 JUMP JUMPDEST JUMPDEST POP SWAP2 SWAP1 POP JUMP JUMPDEST PUSH1 0x0 PUSH2 0x318F DUP3 PUSH2 0x27E4 JUMP JUMPDEST SWAP2 POP PUSH32 0xFFFFFFFFFFFFFFFFFFFFFFFFFFFFFFFFFFFFFFFFFFFFFFFFFFFFFFFFFFFFFFFF DUP3 SUB PUSH2 0x31C1 JUMPI PUSH2 0x31C0 PUSH2 0x30C1 JUMP JUMPDEST JUMPDEST PUSH1 0x1 DUP3 ADD SWAP1 POP SWAP2 SWAP1 POP JUMP JUMPDEST PUSH1 0x0 DUP2 SWAP1 POP DUP2 PUSH1 0x0 MSTORE PUSH1 0x20 PUSH1 0x0 KECCAK256 SWAP1 POP SWAP2 SWAP1 POP JUMP JUMPDEST PUSH1 0x0 PUSH1 0x20 PUSH1 0x1F DUP4 ADD DIV SWAP1 POP SWAP2 SWAP1 POP JUMP JUMPDEST PUSH1 0x0 DUP3 DUP3 SHL SWAP1 POP SWAP3 SWAP2 POP POP JUMP JUMPDEST PUSH1 0x0 PUSH1 0x8 DUP4 MUL PUSH2 0x322E PUSH32 0xFFFFFFFFFFFFFFFFFFFFFFFFFFFFFFFFFFFFFFFFFFFFFFFFFFFFFFFFFFFFFFFF DUP3 PUSH2 0x31F1 JUMP JUMPDEST PUSH2 0x3238 DUP7 DUP4 PUSH2 0x31F1 JUMP JUMPDEST SWAP6 POP DUP1 NOT DUP5 AND SWAP4 POP DUP1 DUP7 AND DUP5 OR SWAP3 POP POP POP SWAP4 SWAP3 POP POP POP JUMP JUMPDEST PUSH1 0x0 PUSH2 0x326B PUSH2 0x3266 PUSH2 0x3261 DUP5 PUSH2 0x27E4 JUMP JUMPDEST PUSH2 0x287A JUMP JUMPDEST PUSH2 0x27E4 JUMP JUMPDEST SWAP1 POP SWAP2 SWAP1 POP JUMP JUMPDEST PUSH1 0x0 DUP2 SWAP1 POP SWAP2 SWAP1 POP JUMP JUMPDEST PUSH2 0x3285 DUP4 PUSH2 0x3250 JUMP JUMPDEST PUSH2 0x3299 PUSH2 0x3291 DUP3 PUSH2 0x3272 JUMP JUMPDEST DUP5 DUP5 SLOAD PUSH2 0x31FE JUMP JUMPDEST DUP3 SSTORE POP POP POP POP JUMP JUMPDEST PUSH1 0x0 SWAP1 JUMP JUMPDEST PUSH2 0x32AE PUSH2 0x32A1 JUMP JUMPDEST PUSH2 0x32B9 DUP2 DUP5 DUP5 PUSH2 0x327C JUMP JUMPDEST POP POP POP JUMP JUMPDEST JUMPDEST DUP2 DUP2 LT ISZERO PUSH2 0x32DD JUMPI PUSH2 0x32D2 PUSH1 0x0 DUP3 PUSH2 0x32A6 JUMP JUMPDEST PUSH1 0x1 DUP2 ADD SWAP1 POP PUSH2 0x32BF JUMP JUMPDEST POP POP JUMP JUMPDEST PUSH1 0x1F DUP3 GT ISZERO PUSH2 0x3322 JUMPI PUSH2 0x32F3 DUP2 PUSH2 0x31CC JUMP JUMPDEST PUSH2 0x32FC DUP5 PUSH2 0x31E1 JUMP JUMPDEST DUP2 ADD PUSH1 0x20 DUP6 LT ISZERO PUSH2 0x330B JUMPI DUP2 SWAP1 POP JUMPDEST PUSH2 0x331F PUSH2 0x3317 DUP6 PUSH2 0x31E1 JUMP JUMPDEST DUP4 ADD DUP3 PUSH2 0x32BE JUMP JUMPDEST POP POP JUMPDEST POP POP POP JUMP JUMPDEST PUSH1 0x0 DUP3 DUP3 SHR SWAP1 POP SWAP3 SWAP2 POP POP JUMP JUMPDEST PUSH1 0x0 PUSH2 0x3345 PUSH1 0x0 NOT DUP5 PUSH1 0x8 MUL PUSH2 0x3327 JUMP JUMPDEST NOT DUP1 DUP4 AND SWAP2 POP POP SWAP3 SWAP2 POP POP JUMP JUMPDEST PUSH1 0x0 PUSH2 0x335E DUP4 DUP4 PUSH2 0x3334 JUMP JUMPDEST SWAP2 POP DUP3 PUSH1 0x2 MUL DUP3 OR SWAP1 POP SWAP3 SWAP2 POP POP JUMP JUMPDEST PUSH2 0x3377 DUP3 PUSH2 0x2930 JUMP JUMPDEST PUSH8 0xFFFFFFFFFFFFFFFF DUP2 GT ISZERO PUSH2 0x3390 JUMPI PUSH2 0x338F PUSH2 0x2CE2 JUMP JUMPDEST JUMPDEST PUSH2 0x339A DUP3 SLOAD PUSH2 0x3153 JUMP JUMPDEST PUSH2 0x33A5 DUP3 DUP3 DUP6 PUSH2 0x32E1 JUMP JUMPDEST PUSH1 0x0 PUSH1 0x20 SWAP1 POP PUSH1 0x1F DUP4 GT PUSH1 0x1 DUP2 EQ PUSH2 0x33D8 JUMPI PUSH1 0x0 DUP5 ISZERO PUSH2 0x33C6 JUMPI DUP3 DUP8 ADD MLOAD SWAP1 POP JUMPDEST PUSH2 0x33D0 DUP6 DUP3 PUSH2 0x3352 JUMP JUMPDEST DUP7 SSTORE POP PUSH2 0x3438 JUMP JUMPDEST PUSH1 0x1F NOT DUP5 AND PUSH2 0x33E6 DUP7 PUSH2 0x31CC JUMP JUMPDEST PUSH1 0x0 JUMPDEST DUP3 DUP2 LT ISZERO PUSH2 0x340E JUMPI DUP5 DUP10 ADD MLOAD DUP3 SSTORE PUSH1 0x1 DUP3 ADD SWAP2 POP PUSH1 0x20 DUP6 ADD SWAP5 POP PUSH1 0x20 DUP2 ADD SWAP1 POP PUSH2 0x33E9 JUMP JUMPDEST DUP7 DUP4 LT ISZERO PUSH2 0x342B JUMPI DUP5 DUP10 ADD MLOAD PUSH2 0x3427 PUSH1 0x1F DUP10 AND DUP3 PUSH2 0x3334 JUMP JUMPDEST DUP4 SSTORE POP JUMPDEST PUSH1 0x1 PUSH1 0x2 DUP9 MUL ADD DUP9 SSTORE POP POP POP JUMPDEST POP POP POP POP POP POP JUMP JUMPDEST PUSH1 0x0 PUSH1 0x80 DUP3 ADD SWAP1 POP DUP2 DUP2 SUB PUSH1 0x0 DUP4 ADD MSTORE PUSH2 0x345A DUP2 DUP8 PUSH2 0x2987 JUMP JUMPDEST SWAP1 POP DUP2 DUP2 SUB PUSH1 0x20 DUP4 ADD MSTORE PUSH2 0x346E DUP2 DUP7 PUSH2 0x2987 JUMP JUMPDEST SWAP1 POP PUSH2 0x347D PUSH1 0x40 DUP4 ADD DUP6 PUSH2 0x2A28 JUMP JUMPDEST PUSH2 0x348A PUSH1 0x60 DUP4 ADD DUP5 PUSH2 0x2921 JUMP JUMPDEST SWAP6 SWAP5 POP POP POP POP POP JUMP JUMPDEST PUSH32 0x4E487B7100000000000000000000000000000000000000000000000000000000 PUSH1 0x0 MSTORE PUSH1 0x32 PUSH1 0x4 MSTORE PUSH1 0x24 PUSH1 0x0 REVERT JUMPDEST PUSH1 0x0 PUSH2 0x34CD DUP3 PUSH2 0x27E4 JUMP JUMPDEST SWAP2 POP PUSH2 0x34D8 DUP4 PUSH2 0x27E4 JUMP JUMPDEST SWAP3 POP DUP3 DUP3 SUB SWAP1 POP DUP2 DUP2 GT ISZERO PUSH2 0x34F0 JUMPI PUSH2 0x34EF PUSH2 0x30C1 JUMP JUMPDEST JUMPDEST SWAP3 SWAP2 POP POP JUMP JUMPDEST PUSH32 0x4E487B7100000000000000000000000000000000000000000000000000000000 PUSH1 0x0 MSTORE PUSH1 0x31 PUSH1 0x4 MSTORE PUSH1 0x24 PUSH1 0x0 REVERT JUMPDEST PUSH1 0x0 PUSH2 0x3530 DUP3 PUSH2 0x27E4 JUMP JUMPDEST SWAP2 POP PUSH2 0x353B DUP4 PUSH2 0x27E4 JUMP JUMPDEST SWAP3 POP DUP3 DUP3 MUL PUSH2 0x3549 DUP2 PUSH2 0x27E4 JUMP JUMPDEST SWAP2 POP DUP3 DUP3 DIV DUP5 EQ DUP4 ISZERO OR PUSH2 0x3560 JUMPI PUSH2 0x355F PUSH2 0x30C1 JUMP JUMPDEST JUMPDEST POP SWAP3 SWAP2 POP POP JUMP JUMPDEST PUSH32 0x4E487B7100000000000000000000000000000000000000000000000000000000 PUSH1 0x0 MSTORE PUSH1 0x12 PUSH1 0x4 MSTORE PUSH1 0x24 PUSH1 0x0 REVERT JUMPDEST PUSH1 0x0 PUSH2 0x35A1 DUP3 PUSH2 0x27E4 JUMP JUMPDEST SWAP2 POP PUSH2 0x35AC DUP4 PUSH2 0x27E4 JUMP JUMPDEST SWAP3 POP DUP3 PUSH2 0x35BC JUMPI PUSH2 0x35BB PUSH2 0x3567 JUMP JUMPDEST JUMPDEST DUP3 DUP3 DIV SWAP1 POP SWAP3 SWAP2 POP POP JUMP JUMPDEST PUSH1 0x0 PUSH1 0x60 DUP3 ADD SWAP1 POP PUSH2 0x35DC PUSH1 0x0 DUP4 ADD DUP7 PUSH2 0x2F8A JUMP JUMPDEST PUSH2 0x35E9 PUSH1 0x20 DUP4 ADD DUP6 PUSH2 0x2F8A JUMP JUMPDEST PUSH2 0x35F6 PUSH1 0x40 DUP4 ADD DUP5 PUSH2 0x2921 JUMP JUMPDEST SWAP5 SWAP4 POP POP POP POP JUMP JUMPDEST PUSH1 0x0 PUSH1 0x40 DUP3 ADD SWAP1 POP PUSH2 0x3613 PUSH1 0x0 DUP4 ADD DUP6 PUSH2 0x2F8A JUMP JUMPDEST PUSH2 0x3620 PUSH1 0x20 DUP4 ADD DUP5 PUSH2 0x2921 JUMP JUMPDEST SWAP4 SWAP3 POP POP POP JUMP INVALID LOG2 PUSH5 0x6970667358 0x22 SLT KECCAK256 PUSH24 0x73CA6760550B1CF56AAF70BF8C5C80D243EF6BCFD913B1B6 DUP1 PUSH12 0xDDCA6461E364736F6C634300 ADDMOD SHR STOP CALLER "
        },
        "methodIdentifiers": {
          "OWNER_FEE_PERCENT()": "a8a3221e",
          "activeBetIds(uint256)": "5195d612",
          "bets(uint256)": "22af00fa",
          "cancelBet(uint256)": "357401f5",
          "claimPrize(uint256)": "d7098154",
          "createBet(string,string,uint8,uint256)": "639a66e7",
          "getActiveBets()": "ada73020",
          "getBetInfo(uint256)": "79141f80",
          "getBetPot(uint256)": "d8bf8974",
          "getBetWinnerIndices(uint256)": "c303b902",
          "getPlayerBet(uint256,uint256)": "f4a690f6",
          "getSettledBets()": "27baedd5",
          "hasPlayerBet(uint256,address)": "589f2410",
          "nextBetId()": "9aca2792",
          "owner()": "8da5cb5b",
          "placeBetNative(uint256,uint256)": "d6ce9144",
          "placeBetUSDC(uint256,uint256)": "0d427653",
          "renounceOwnership()": "715018a6",
          "settleBet(uint256,uint256)": "0d2cbe13",
          "settledBetIds(uint256)": "ddd70709",
          "transferOwnership(address)": "f2fde38b",
          "usdcToken()": "11eac855"
        }
      }
    }
  }
}