{
  "contracts/ChainChaos.sol": {
    "ChainChaos": {
      "abi": [
        {
          "inputs": [
            {
              "internalType": "address",
              "name": "_usdcToken",
              "type": "address"
            }
          ],
          "stateMutability": "nonpayable",
          "type": "constructor"
        },
        {
          "inputs": [],
          "name": "BetAlreadySettled",
          "type": "error"
        },
        {
          "inputs": [],
          "name": "BetNotActive",
          "type": "error"
        },
        {
          "inputs": [],
          "name": "BetNotSettled",
          "type": "error"
        },
        {
          "inputs": [],
          "name": "BetTooLarge",
          "type": "error"
        },
        {
          "inputs": [],
          "name": "BetTooSmall",
          "type": "error"
        },
        {
          "inputs": [],
          "name": "BettingCutoffPeriod",
          "type": "error"
        },
        {
          "inputs": [],
          "name": "InsufficientUSDCAllowance",
          "type": "error"
        },
        {
          "inputs": [],
          "name": "InvalidBetAmount",
          "type": "error"
        },
        {
          "inputs": [],
          "name": "InvalidBetId",
          "type": "error"
        },
        {
          "inputs": [],
          "name": "InvalidWinnerIndices",
          "type": "error"
        },
        {
          "inputs": [],
          "name": "NoRefundAvailable",
          "type": "error"
        },
        {
          "inputs": [],
          "name": "NoWinnersProvided",
          "type": "error"
        },
        {
          "inputs": [],
          "name": "NotWinnerOrAlreadyClaimed",
          "type": "error"
        },
        {
          "inputs": [
            {
              "internalType": "address",
              "name": "owner",
              "type": "address"
            }
          ],
          "name": "OwnableInvalidOwner",
          "type": "error"
        },
        {
          "inputs": [
            {
              "internalType": "address",
              "name": "account",
              "type": "address"
            }
          ],
          "name": "OwnableUnauthorizedAccount",
          "type": "error"
        },
        {
          "inputs": [],
          "name": "PlayerAlreadyBet",
          "type": "error"
        },
        {
          "inputs": [
            {
              "internalType": "address",
              "name": "token",
              "type": "address"
            }
          ],
          "name": "SafeERC20FailedOperation",
          "type": "error"
        },
        {
          "inputs": [],
          "name": "WrongCurrency",
          "type": "error"
        },
        {
          "anonymous": false,
          "inputs": [
            {
              "indexed": true,
              "internalType": "uint256",
              "name": "betId",
              "type": "uint256"
            }
          ],
          "name": "BetCancelled",
          "type": "event"
        },
        {
          "anonymous": false,
          "inputs": [
            {
              "indexed": true,
              "internalType": "uint256",
              "name": "betId",
              "type": "uint256"
            },
            {
              "indexed": false,
              "internalType": "string",
              "name": "category",
              "type": "string"
            },
            {
              "indexed": false,
              "internalType": "string",
              "name": "description",
              "type": "string"
            },
            {
              "indexed": false,
              "internalType": "enum ChainChaos.CurrencyType",
              "name": "currencyType",
              "type": "uint8"
            },
            {
              "indexed": false,
              "internalType": "uint256",
              "name": "betAmount",
              "type": "uint256"
            }
          ],
          "name": "BetCreated",
          "type": "event"
        },
        {
          "anonymous": false,
          "inputs": [
            {
              "indexed": true,
              "internalType": "uint256",
              "name": "betId",
              "type": "uint256"
            },
            {
              "indexed": false,
              "internalType": "uint256",
              "name": "actualValue",
              "type": "uint256"
            },
            {
              "indexed": false,
              "internalType": "uint256[]",
              "name": "winnerIndices",
              "type": "uint256[]"
            },
            {
              "indexed": false,
              "internalType": "uint256",
              "name": "totalPayout",
              "type": "uint256"
            }
          ],
          "name": "BetSettled",
          "type": "event"
        },
        {
          "anonymous": false,
          "inputs": [
            {
              "indexed": true,
              "internalType": "address",
              "name": "previousOwner",
              "type": "address"
            },
            {
              "indexed": true,
              "internalType": "address",
              "name": "newOwner",
              "type": "address"
            }
          ],
          "name": "OwnershipTransferred",
          "type": "event"
        },
        {
          "anonymous": false,
          "inputs": [
            {
              "indexed": true,
              "internalType": "uint256",
              "name": "betId",
              "type": "uint256"
            },
            {
              "indexed": true,
              "internalType": "address",
              "name": "player",
              "type": "address"
            },
            {
              "indexed": false,
              "internalType": "uint256",
              "name": "guess",
              "type": "uint256"
            }
          ],
          "name": "PlayerBetPlaced",
          "type": "event"
        },
        {
          "anonymous": false,
          "inputs": [
            {
              "indexed": true,
              "internalType": "uint256",
              "name": "betId",
              "type": "uint256"
            },
            {
              "indexed": true,
              "internalType": "address",
              "name": "player",
              "type": "address"
            },
            {
              "indexed": false,
              "internalType": "uint256",
              "name": "amount",
              "type": "uint256"
            }
          ],
          "name": "PrizeClaimed",
          "type": "event"
        },
        {
          "anonymous": false,
          "inputs": [
            {
              "indexed": true,
              "internalType": "uint256",
              "name": "betId",
              "type": "uint256"
            },
            {
              "indexed": true,
              "internalType": "address",
              "name": "player",
              "type": "address"
            },
            {
              "indexed": false,
              "internalType": "uint256",
              "name": "amount",
              "type": "uint256"
            }
          ],
          "name": "RefundClaimed",
          "type": "event"
        },
        {
          "inputs": [],
          "name": "BETTING_CUTOFF_PERIOD",
          "outputs": [
            {
              "internalType": "uint256",
              "name": "",
              "type": "uint256"
            }
          ],
          "stateMutability": "view",
          "type": "function"
        },
        {
          "inputs": [],
          "name": "BET_DURATION",
          "outputs": [
            {
              "internalType": "uint256",
              "name": "",
              "type": "uint256"
            }
          ],
          "stateMutability": "view",
          "type": "function"
        },
        {
          "inputs": [],
          "name": "OWNER_FEE_PERCENT",
          "outputs": [
            {
              "internalType": "uint256",
              "name": "",
              "type": "uint256"
            }
          ],
          "stateMutability": "view",
          "type": "function"
        },
        {
          "inputs": [
            {
              "internalType": "uint256",
              "name": "",
              "type": "uint256"
            }
          ],
          "name": "activeBetIds",
          "outputs": [
            {
              "internalType": "uint256",
              "name": "",
              "type": "uint256"
            }
          ],
          "stateMutability": "view",
          "type": "function"
        },
        {
          "inputs": [
            {
              "internalType": "uint256",
              "name": "",
              "type": "uint256"
            }
          ],
          "name": "bets",
          "outputs": [
            {
              "internalType": "uint256",
              "name": "id",
              "type": "uint256"
            },
            {
              "internalType": "string",
              "name": "category",
              "type": "string"
            },
            {
              "internalType": "string",
              "name": "description",
              "type": "string"
            },
            {
              "internalType": "enum ChainChaos.CurrencyType",
              "name": "currencyType",
              "type": "uint8"
            },
            {
              "internalType": "uint256",
              "name": "betAmount",
              "type": "uint256"
            },
            {
              "internalType": "uint256",
              "name": "actualValue",
              "type": "uint256"
            },
            {
              "internalType": "enum ChainChaos.BetStatus",
              "name": "status",
              "type": "uint8"
            },
            {
              "internalType": "uint256",
              "name": "totalPot",
              "type": "uint256"
            },
            {
              "internalType": "bool",
              "name": "refundMode",
              "type": "bool"
            },
            {
              "internalType": "uint256",
              "name": "createdAt",
              "type": "uint256"
            },
            {
              "internalType": "uint256",
              "name": "startTime",
              "type": "uint256"
            },
            {
              "internalType": "uint256",
              "name": "endTime",
              "type": "uint256"
            }
          ],
          "stateMutability": "view",
          "type": "function"
        },
        {
          "inputs": [
            {
              "internalType": "uint256",
              "name": "betId",
              "type": "uint256"
            }
          ],
          "name": "cancelBet",
          "outputs": [],
          "stateMutability": "nonpayable",
          "type": "function"
        },
        {
          "inputs": [
            {
              "internalType": "uint256",
              "name": "betId",
              "type": "uint256"
            }
          ],
          "name": "claimPrize",
          "outputs": [],
          "stateMutability": "nonpayable",
          "type": "function"
        },
        {
          "inputs": [
            {
              "internalType": "string",
              "name": "category",
              "type": "string"
            },
            {
              "internalType": "string",
              "name": "description",
              "type": "string"
            },
            {
              "internalType": "enum ChainChaos.CurrencyType",
              "name": "currencyType",
              "type": "uint8"
            },
            {
              "internalType": "uint256",
              "name": "betAmount",
              "type": "uint256"
            },
            {
              "internalType": "uint256",
              "name": "startTime",
              "type": "uint256"
            },
            {
              "internalType": "uint256",
              "name": "endTime",
              "type": "uint256"
            }
          ],
          "name": "createBet",
          "outputs": [
            {
              "internalType": "uint256",
              "name": "",
              "type": "uint256"
            }
          ],
          "stateMutability": "nonpayable",
          "type": "function"
        },
        {
          "inputs": [],
          "name": "getActiveBets",
          "outputs": [
            {
              "internalType": "uint256[]",
              "name": "",
              "type": "uint256[]"
            }
          ],
          "stateMutability": "view",
          "type": "function"
        },
        {
          "inputs": [
            {
              "internalType": "uint256",
              "name": "betId",
              "type": "uint256"
            }
          ],
          "name": "getBetInfo",
          "outputs": [
            {
              "internalType": "uint256",
              "name": "id",
              "type": "uint256"
            },
            {
              "internalType": "string",
              "name": "category",
              "type": "string"
            },
            {
              "internalType": "string",
              "name": "description",
              "type": "string"
            },
            {
              "internalType": "enum ChainChaos.CurrencyType",
              "name": "currencyType",
              "type": "uint8"
            },
            {
              "internalType": "uint256",
              "name": "betAmount",
              "type": "uint256"
            },
            {
              "internalType": "uint256",
              "name": "actualValue",
              "type": "uint256"
            },
            {
              "internalType": "enum ChainChaos.BetStatus",
              "name": "status",
              "type": "uint8"
            },
            {
              "internalType": "uint256",
              "name": "totalPot",
              "type": "uint256"
            },
            {
              "internalType": "bool",
              "name": "refundMode",
              "type": "bool"
            },
            {
              "internalType": "uint256",
              "name": "playerBetCount",
              "type": "uint256"
            },
            {
              "internalType": "uint256",
              "name": "createdAt",
              "type": "uint256"
            },
            {
              "internalType": "uint256",
              "name": "startTime",
              "type": "uint256"
            },
            {
              "internalType": "uint256",
              "name": "endTime",
              "type": "uint256"
            }
          ],
          "stateMutability": "view",
          "type": "function"
        },
        {
          "inputs": [
            {
              "internalType": "uint256",
              "name": "betId",
              "type": "uint256"
            }
          ],
          "name": "getBetPlayerGuesses",
          "outputs": [
            {
              "internalType": "uint256[]",
              "name": "guesses",
              "type": "uint256[]"
            }
          ],
          "stateMutability": "view",
          "type": "function"
        },
        {
          "inputs": [
            {
              "internalType": "uint256",
              "name": "betId",
              "type": "uint256"
            }
          ],
          "name": "getBetPlayers",
          "outputs": [
            {
              "internalType": "address[]",
              "name": "players",
              "type": "address[]"
            }
          ],
          "stateMutability": "view",
          "type": "function"
        },
        {
          "inputs": [
            {
              "internalType": "uint256",
              "name": "betId",
              "type": "uint256"
            }
          ],
          "name": "getBetPot",
          "outputs": [
            {
              "internalType": "uint256",
              "name": "",
              "type": "uint256"
            }
          ],
          "stateMutability": "view",
          "type": "function"
        },
        {
          "inputs": [
            {
              "internalType": "uint256",
              "name": "betId",
              "type": "uint256"
            }
          ],
          "name": "getBetWinnerIndices",
          "outputs": [
            {
              "internalType": "uint256[]",
              "name": "",
              "type": "uint256[]"
            }
          ],
          "stateMutability": "view",
          "type": "function"
        },
        {
          "inputs": [
            {
              "internalType": "uint256",
              "name": "betId",
              "type": "uint256"
            },
            {
              "internalType": "address",
              "name": "player",
              "type": "address"
            }
          ],
          "name": "getPlayerBet",
          "outputs": [
            {
              "internalType": "uint256",
              "name": "guess",
              "type": "uint256"
            },
            {
              "internalType": "bool",
              "name": "claimed",
              "type": "bool"
            }
          ],
          "stateMutability": "view",
          "type": "function"
        },
        {
          "inputs": [],
          "name": "getSettledBets",
          "outputs": [
            {
              "internalType": "uint256[]",
              "name": "",
              "type": "uint256[]"
            }
          ],
          "stateMutability": "view",
          "type": "function"
        },
        {
          "inputs": [
            {
              "internalType": "uint256",
              "name": "",
              "type": "uint256"
            },
            {
              "internalType": "address",
              "name": "",
              "type": "address"
            }
          ],
          "name": "hasPlayerBet",
          "outputs": [
            {
              "internalType": "bool",
              "name": "",
              "type": "bool"
            }
          ],
          "stateMutability": "view",
          "type": "function"
        },
        {
          "inputs": [
            {
              "internalType": "uint256",
              "name": "betId",
              "type": "uint256"
            }
          ],
          "name": "isBettingActive",
          "outputs": [
            {
              "internalType": "bool",
              "name": "isActive",
              "type": "bool"
            }
          ],
          "stateMutability": "view",
          "type": "function"
        },
        {
          "inputs": [],
          "name": "nextBetId",
          "outputs": [
            {
              "internalType": "uint256",
              "name": "",
              "type": "uint256"
            }
          ],
          "stateMutability": "view",
          "type": "function"
        },
        {
          "inputs": [],
          "name": "owner",
          "outputs": [
            {
              "internalType": "address",
              "name": "",
              "type": "address"
            }
          ],
          "stateMutability": "view",
          "type": "function"
        },
        {
          "inputs": [
            {
              "internalType": "uint256",
              "name": "betId",
              "type": "uint256"
            },
            {
              "internalType": "uint256",
              "name": "guess",
              "type": "uint256"
            }
          ],
          "name": "placeBet",
          "outputs": [],
          "stateMutability": "payable",
          "type": "function"
        },
        {
          "inputs": [],
          "name": "renounceOwnership",
          "outputs": [],
          "stateMutability": "nonpayable",
          "type": "function"
        },
        {
          "inputs": [
            {
              "internalType": "uint256",
              "name": "betId",
              "type": "uint256"
            },
            {
              "internalType": "uint256",
              "name": "actualValue",
              "type": "uint256"
            }
          ],
          "name": "settleBet",
          "outputs": [],
          "stateMutability": "nonpayable",
          "type": "function"
        },
        {
          "inputs": [
            {
              "internalType": "uint256",
              "name": "",
              "type": "uint256"
            }
          ],
          "name": "settledBetIds",
          "outputs": [
            {
              "internalType": "uint256",
              "name": "",
              "type": "uint256"
            }
          ],
          "stateMutability": "view",
          "type": "function"
        },
        {
          "inputs": [
            {
              "internalType": "address",
              "name": "newOwner",
              "type": "address"
            }
          ],
          "name": "transferOwnership",
          "outputs": [],
          "stateMutability": "nonpayable",
          "type": "function"
        },
        {
          "inputs": [],
          "name": "usdcToken",
          "outputs": [
            {
              "internalType": "contract IERC20",
              "name": "",
              "type": "address"
            }
          ],
          "stateMutability": "view",
          "type": "function"
        },
        {
          "inputs": [],
          "name": "withdrawFees",
          "outputs": [],
          "stateMutability": "nonpayable",
          "type": "function"
        }
      ],
      "evm": {
        "bytecode": {
          "linkReferences": {},
          "object": "60a0346100ee57601f611e8d38819003918201601f19168301916001600160401b038311848410176100f3578084926020946040528339810103126100ee57516001600160a01b038116908190036100ee5733156100d85760008054336001600160a01b0319821681178355604051939290916001600160a01b0316907f8be0079c531659141344cd1fd0a4f28419497f9722a3daafe3b4186f6b6457e09080a360018055608052611d83908161010a8239608051818181610c7901528181610e2b01528181611197015281816117d601526119600152f35b631e4fbdf760e01b600052600060045260246000fd5b600080fd5b634e487b7160e01b600052604160045260246000fdfe6080604052600436101561001257600080fd5b60003560e01c80630d2cbe13146111c657806311eac855146111815780631ca206d21461110f57806322af00fa1461101f57806327baedd514610fc5578063357401f514610f20578063476343ee14610ddb5780634afe62b514610abd5780635195d61214610a94578063589f241014610a47578063715018a6146109ee57806379141f80146108f45780638da5cb5b146108cb5780639aca2792146108ad578063a4cd5c4314610885578063a8a3221e14610869578063ada730201461080f578063c2f48eff14610423578063c303b902146103a0578063ca8bcf39146102c9578063cae4ffbb146102ad578063d70981541461028f578063d8bf897414610260578063dd99717d1461022c578063ddd70709146101f4578063e53d4c2d146101d75763f2fde38b1461014557600080fd5b346101d25760203660031901126101d2576004356001600160a01b038116908190036101d257610173611ab4565b80156101bc57600080546001600160a01b03198116831782556001600160a01b0316907f8be0079c531659141344cd1fd0a4f28419497f9722a3daafe3b4186f6b6457e09080a3005b631e4fbdf760e01b600052600060045260246000fd5b600080fd5b346101d25760003660031901126101d257602060405161012c8152f35b346101d25760203660031901126101d2576004356005548110156101d25761021d6020916114c0565b90549060031b1c604051908152f35b346101d25760403660031901126101d257604061025261024a611524565b6004356119fd565b825191825215156020820152f35b346101d25760203660031901126101d25760043560005260026020526020600760406000200154604051908152f35b346101d25760203660031901126101d2576102ab6004356116a5565b005b346101d25760003660031901126101d2576020604051603c8152f35b346101d25760203660031901126101d2576004356000526002602052600a6040600020018054906102f982611591565b91610307604051938461139f565b80835261031381611591565b602084019290601f190136843760005b8281106103785783856040519182916020830190602084525180915260408301919060005b818110610356575050500390f35b82516001600160a01b0316845285945060209384019390920191600101610348565b80610385600192846115db565b50828060a01b0390541661039982886115f7565b5201610323565b346101d25760203660031901126101d25760043560005260026020526008604060002001604051908054808352602083019160005260206000209060005b81811061040d57610409856103f58187038261139f565b604051918291602083526020830190611331565b0390f35b82548452602090930192600192830192016103de565b346101d25760c03660031901126101d25760043567ffffffffffffffff81116101d25761045490369060040161153a565b60243567ffffffffffffffff81116101d25761047490369060040161153a565b60443560028110156101d2576064356084359260a43593610493611ab4565b82156107fe57600154946104a686611bca565b60015585600052600260205260406000209086825560018201885167ffffffffffffffff8111610746576104da8254611365565b601f81116107cc575b50806020601f82116001146107675760009161075c575b508160011b916000199060031b1c19161790555b60028201845167ffffffffffffffff81116107465761052d8254611365565b601f8111610709575b50806020601f82116001146106a65760009161069b575b508160011b916000199060031b1c19161790555b600382019260009360ff1981541660ff89161790558560048401556006830160ff19815416905542600b84015580156000146106965750425b600c8301558061068d575061012c420180421161067957600d90915b015560045490600160401b82101561066557509484937ff7dfcab2992417049cb3e78dcb5d3ac9520e053800daab4885bc264a958f19f89361065561064a61063d95610629896106108d600160209f01600455600461150c565b90919082549060031b91821b91600019901b1916179055565b604051968796608088526080880190611465565b908682038c880152611465565b9260408501906114a6565b60608301520390a2604051908152f35b634e487b7160e01b81526041600452602490fd5b634e487b7160e01b83526011600452602483fd5b600d90916105b6565b61059a565b90508601518b61054d565b60008481528181209250601f198416905b8181106106f1575090836001949392106106d8575b5050811b019055610561565b88015160001960f88460031b161c191690558b806106cc565b9192602060018192868d0151815501940192016106b7565b61073690836000526020600020601f840160051c8101916020851061073c575b601f0160051c0190611add565b8a610536565b9091508190610729565b634e487b7160e01b600052604160045260246000fd5b90508a01518b6104fa565b60008481528181209250601f198416905b8d8282106107b4575050908360019493921061079b575b5050811b01905561050e565b8c015160001960f88460031b161c191690558b8061078f565b60018495602093958493015181550194019201610778565b6107f890836000526020600020601f840160051c8101916020851061073c57601f0160051c0190611add565b8a6104e3565b639de3d44160e01b60005260046000fd5b346101d25760003660031901126101d2576040516004548082526020820190600460005260206000209060005b81811061085357610409856103f58187038261139f565b825484526020909301926001928301920161083c565b346101d25760003660031901126101d257602060405160058152f35b346101d25760203660031901126101d25760206108a360043561164a565b6040519015158152f35b346101d25760003660031901126101d2576020600154604051908152f35b346101d25760003660031901126101d2576000546040516001600160a01b039091168152602090f35b346101d25760203660031901126101d257600435600052600260205260406000208054600382015460ff1660048301546005840154600685015460ff166007860154600987015460ff16600a88015491600b89015493600c8a015495600d8b01549760018c01610963906113c1565b9b600201610970906113c1565b6040519c8d9c8d5260208d016101a090526101a08d0161098f91611465565b8c810360408e01526109a091611465565b9960608c016109ae916114a6565b60808b015260a08a015260c089016109c5916114b3565b60e088015215156101008701526101208601526101408501526101608401526101808301520390f35b346101d25760003660031901126101d257610a07611ab4565b600080546001600160a01b0319811682556001600160a01b03167f8be0079c531659141344cd1fd0a4f28419497f9722a3daafe3b4186f6b6457e08280a3005b346101d25760403660031901126101d257610a60611524565b600435600052600360205260406000209060018060a01b0316600052602052602060ff604060002054166040519015158152f35b346101d25760203660031901126101d2576004356004548110156101d25761021d6020916114f1565b610ac63661131b565b90806000526002602052604060002060ff6006820154166003811015610d6657610dca57600d8101548015159081610d9e575b50610d8d57600082815260036020908152604080832033845290915290205460ff16610d7c5760ff6003820154166002811015610d6657610c5957600481015434036107fe575b600a81016040516060810181811067ffffffffffffffff82111761074657604052338152602081018581526040820192600084528054600160401b81101561074657610b91916001820181556115db565b919091610c435760029260018060a01b039051166bffffffffffffffffffffffff60a01b835416178255516001820155019051151560ff80198354169116179055610be6600760048301549201918254611630565b9055806000526003602052604060002060018060a01b0333166000526020526040600020600160ff198254161790556040519182527fae6e469845072cd465cbe2a8b4f46cff1b0263205ffe97879e063bbbea36bb7c60203393a3005b634e487b7160e01b600052600060045260246000fd5b34610d5557604051636eb1769f60e11b81523360048201523060248201527f0000000000000000000000000000000000000000000000000000000000000000906020816044816001600160a01b0386165afa908115610d4957600091610d17575b506004830154809110610d0657610d0191604051916323b872dd60e01b6020840152336024840152306044840152606483015260648252610cfc60848361139f565b611cd4565b610b40565b63e2822ff160e01b60005260046000fd5b90506020813d602011610d41575b81610d326020938361139f565b810103126101d2575185610cba565b3d9150610d25565b6040513d6000823e3d90fd5b630b27db6160e11b60005260046000fd5b634e487b7160e01b600052602160045260246000fd5b63eb0163a160e01b60005260046000fd5b635742b83560e01b60005260046000fd5b603b19810191508111610db45742101584610af9565b634e487b7160e01b600052601160045260246000fd5b63e38f163d60e01b60005260046000fd5b346101d25760003660031901126101d257610df4611ab4565b60008080600554905b818110610e7e57505080158015610e4f575b505080610e1857005b6000546102ab91906001600160a01b03167f0000000000000000000000000000000000000000000000000000000000000000611b8f565b6000808093819360018060a01b03835416908390610e75575bf115610d49578180610e0f565b506108fc610e68565b610e87816114c0565b90549060031b1c6000526002602052604060002060ff6009820154161580610f13575b610eb8575b50600101610dfd565b90926007820154600581029080820460051490151715610db4576003606460ff9204930154166002811015610d6657610eff57600191610ef791611630565b925b90610eaf565b9293600191610f0d91611630565b93610ef9565b5060078101541515610eaa565b346101d25760203660031901126101d257600435610f3c611ab4565b8060005260026020526040600020600681019060ff8254166003811015610d6657610fb457600991600260ff1982541617905501600160ff19825416179055610f8481611af4565b610f8d8161160b565b7fe3906e8d1e2167ef706b023e6e83af697db5cd38f233c71bf5021b26b316c3a2600080a2005b6305d09e5f60e01b60005260046000fd5b346101d25760003660031901126101d2576040516005548082526020820190600560005260206000209060005b81811061100957610409856103f58187038261139f565b8254845260209093019260019283019201610ff2565b346101d25760203660031901126101d2576004356000526002602052604060002080546001820161104f906113c1565b9161105c600282016113c1565b600382015460ff169160048101546005820154600683015460ff16600784015490600985015460ff1692600b86015494600c87015496600d0154976040519b8c9b8c5260208c0161018090526101808c016110b691611465565b8b810360408d01526110c791611465565b9860608b016110d5916114a6565b60808a015260a089015260c088016110ec916114b3565b60e087015215156101008601526101208501526101408401526101608301520390f35b346101d25760203660031901126101d2576004356000526002602052600a604060002001805461113e816115a9565b9160005b82811061115f576040516020808252819061040990820187611331565b80600161116d8193856115db565b50015461117a82876115f7565b5201611142565b346101d25760003660031901126101d2576040517f00000000000000000000000000000000000000000000000000000000000000006001600160a01b03168152602090f35b346101d2576111d43661131b565b906111dd611ab4565b8060005260026020526040600020916006830160ff8154166003811015610d6657610fb457816005850155600160ff1982541617905561121c82611af4565b6112258261160b565b61122f8183611bd9565b906008840193825167ffffffffffffffff811161074657600160401b81116107465785548187558082106112fd575b50602084019560005260206000209560005b8281106112e957867fdf87c3dd2376d585c2b92555576f9851cb972fea40376668e9eb8e7cec82e6f187876007886001600a82015411156112d5575b01546112ca6040519384938452606060208501526060840190611331565b9060408301520390a2005b60098101805460ff191660011790556112ac565b60019060208351930192818a015501611270565b61131590876000528260206000209182019101611add565b8661125e565b60409060031901126101d2576004359060243590565b906020808351928381520192019060005b81811061134f5750505090565b8251845260209384019390920191600101611342565b90600182811c92168015611395575b602083101461137f57565b634e487b7160e01b600052602260045260246000fd5b91607f1691611374565b90601f8019910116810190811067ffffffffffffffff82111761074657604052565b90604051918260008254926113d584611365565b808452936001811690811561144357506001146113fc575b506113fa9250038361139f565b565b90506000929192526020600020906000915b8183106114275750509060206113fa92820101386113ed565b602091935080600191548385890101520191019091849261140e565b9050602092506113fa94915060ff191682840152151560051b820101386113ed565b919082519283825260005b848110611491575050826000602080949584010152601f8019910116010190565b80602080928401015182828601015201611470565b906002821015610d665752565b906003821015610d665752565b6005548110156114db57600560005260206000200190600090565b634e487b7160e01b600052603260045260246000fd5b6004548110156114db57600460005260206000200190600090565b80548210156114db5760005260206000200190600090565b602435906001600160a01b03821682036101d257565b81601f820112156101d25780359067ffffffffffffffff8211610746576040519261156f601f8401601f19166020018561139f565b828452602083830101116101d257816000926020809301838601378301015290565b67ffffffffffffffff81116107465760051b60200190565b906115b382611591565b6115c0604051918261139f565b82815280926115d1601f1991611591565b0190602036910137565b80548210156114db576000526003602060002091020190600090565b80518210156114db5760209160051b010190565b60055490600160401b821015610746576106108260016113fa9401600555600561150c565b91908201809211610db457565b91908203918211610db457565b6000526002602052604060002060ff6006820154166003811015610d665761169f57600d01548015159081611689575b5061168457600190565b600090565b603b19810191508111610db4574210153861167a565b50600090565b80600052600260205260406000209060ff6006830154166003811015610d6657600181141590816119f1575b506119e05760ff600983015416611895576000806000600a8501908154905b818110611867575b505060009260088601938454905b81811061183c575b5050158015611824575b61181357600291611728916115db565b5001600160ff198254161790556007830154600581029080820460051481151715610db457606461175a92049061163d565b905490600082156117ff575060ff9160039104930154166002811015610d66576117cf5781600081156117c6575b600080809381933390f115610d49575b6040519182527f4aa95f981a8337cb337de335b965507da0879c3b49f799d20058e913f5ad2c2660203393a3565b506108fc611788565b6117fa82337f0000000000000000000000000000000000000000000000000000000000000000611b8f565b611798565b634e487b7160e01b81526012600452602490fd5b63316b3f8960e11b60005260046000fd5b5060ff600261183384846115db565b50015416611718565b84611847828861150c565b90549060031b1c1461185b57600101611706565b5050506001388061170e565b61187181846115db565b50546001600160a01b0316331461188a576001016116f0565b9250389050806116f8565b809150600052600260205260406000206000196000600a8301908154905b8181106119b2575b50506000198214801561199a575b611989576002916118d9916115db565b5001805460ff19166001179055600381015460ff166002811015610d6657611953576000808080600485015481811561194a575b3390f115610d49576004905b0154906040519182527ff3f402280ef0a7905e124aa621b65eaeb2725c343e8b36d398ed78c29daf285c60203393a3565b506108fc61190d565b80611984600480930154337f0000000000000000000000000000000000000000000000000000000000000000611b8f565b611919565b63e49c14cb60e01b60005260046000fd5b5060ff60026119a984846115db565b500154166118c9565b6119bc81846115db565b50546001600160a01b031633146119d5576001016118b3565b9250389050806118bb565b63616e4dc160e01b60005260046000fd5b600291501415386116d1565b9190916000526002602052604060002090600a60009201928354925b838110611a655760405162461bcd60e51b815260206004820152601f60248201527f506c6179657220686173206e6f7420626574206f6e20746869732067616d65006044820152606490fd5b611a6f81866115db565b50546001600160a01b03838116911614611a8b57600101611a19565b60ff92935060029150806001611aa4611aad93886115db565b500154956115db565b5001541690565b6000546001600160a01b03163303611ac857565b63118cdaa760e01b6000523360045260246000fd5b818110611ae8575050565b60008155600101611add565b60005b60045480821015611b8a5782611b0c836114f1565b90549060031b1c14611b215750600101611af7565b600019810192508211610db457610610611b3d611b4a936114f1565b90549060031b1c916114f1565b6004548015611b745760001901611b60816114f1565b8154906000199060031b1b19169055600455565b634e487b7160e01b600052603160045260246000fd5b505050565b60405163a9059cbb60e01b60208201526001600160a01b0390921660248301526044808301939093529181526113fa91610cfc60648361139f565b6000198114610db45760010190565b6000526002602052600a6040600020018054908115611cb7576000196000805b848110611c685750611c0a906115a9565b9360009260005b858110611c215750505050505090565b83611c3a846001611c3285876115db565b500154611d2f565b14611c48575b600101611c11565b93611c608186611c5a6001948b6115f7565b52611bca565b949050611c40565b91611c79866001611c3286886115db565b9181831015611c9057505090600180915b01611bf9565b919080939114611ca3575b600190611c8a565b90611caf600191611bca565b919050611c9b565b505050604051611cc860208261139f565b60008152600036813790565b906000602091828151910182855af115610d49576000513d611d2657506001600160a01b0381163b155b611d055750565b635274afe760e01b60009081526001600160a01b0391909116600452602490fd5b60011415611cfe565b81811115611d445790611d419161163d565b90565b611d419161163d56fea2646970667358221220a7acc0c04722500e21f01cc7d7841c5874d0c0182bd93ace1934f369943c1b4364736f6c634300081c0033",
          "opcodes": "PUSH1 0xA0 CALLVALUE PUSH2 0xEE JUMPI PUSH1 0x1F PUSH2 0x1E8D CODESIZE DUP2 SWAP1 SUB SWAP2 DUP3 ADD PUSH1 0x1F NOT AND DUP4 ADD SWAP2 PUSH1 0x1 PUSH1 0x1 PUSH1 0x40 SHL SUB DUP4 GT DUP5 DUP5 LT OR PUSH2 0xF3 JUMPI DUP1 DUP5 SWAP3 PUSH1 0x20 SWAP5 PUSH1 0x40 MSTORE DUP4 CODECOPY DUP2 ADD SUB SLT PUSH2 0xEE JUMPI MLOAD PUSH1 0x1 PUSH1 0x1 PUSH1 0xA0 SHL SUB DUP2 AND SWAP1 DUP2 SWAP1 SUB PUSH2 0xEE JUMPI CALLER ISZERO PUSH2 0xD8 JUMPI PUSH1 0x0 DUP1 SLOAD CALLER PUSH1 0x1 PUSH1 0x1 PUSH1 0xA0 SHL SUB NOT DUP3 AND DUP2 OR DUP4 SSTORE PUSH1 0x40 MLOAD SWAP4 SWAP3 SWAP1 SWAP2 PUSH1 0x1 PUSH1 0x1 PUSH1 0xA0 SHL SUB AND SWAP1 PUSH32 0x8BE0079C531659141344CD1FD0A4F28419497F9722A3DAAFE3B4186F6B6457E0 SWAP1 DUP1 LOG3 PUSH1 0x1 DUP1 SSTORE PUSH1 0x80 MSTORE PUSH2 0x1D83 SWAP1 DUP2 PUSH2 0x10A DUP3 CODECOPY PUSH1 0x80 MLOAD DUP2 DUP2 DUP2 PUSH2 0xC79 ADD MSTORE DUP2 DUP2 PUSH2 0xE2B ADD MSTORE DUP2 DUP2 PUSH2 0x1197 ADD MSTORE DUP2 DUP2 PUSH2 0x17D6 ADD MSTORE PUSH2 0x1960 ADD MSTORE RETURN JUMPDEST PUSH4 0x1E4FBDF7 PUSH1 0xE0 SHL PUSH1 0x0 MSTORE PUSH1 0x0 PUSH1 0x4 MSTORE PUSH1 0x24 PUSH1 0x0 REVERT JUMPDEST PUSH1 0x0 DUP1 REVERT JUMPDEST PUSH4 0x4E487B71 PUSH1 0xE0 SHL PUSH1 0x0 MSTORE PUSH1 0x41 PUSH1 0x4 MSTORE PUSH1 0x24 PUSH1 0x0 REVERT INVALID PUSH1 0x80 PUSH1 0x40 MSTORE PUSH1 0x4 CALLDATASIZE LT ISZERO PUSH2 0x12 JUMPI PUSH1 0x0 DUP1 REVERT JUMPDEST PUSH1 0x0 CALLDATALOAD PUSH1 0xE0 SHR DUP1 PUSH4 0xD2CBE13 EQ PUSH2 0x11C6 JUMPI DUP1 PUSH4 0x11EAC855 EQ PUSH2 0x1181 JUMPI DUP1 PUSH4 0x1CA206D2 EQ PUSH2 0x110F JUMPI DUP1 PUSH4 0x22AF00FA EQ PUSH2 0x101F JUMPI DUP1 PUSH4 0x27BAEDD5 EQ PUSH2 0xFC5 JUMPI DUP1 PUSH4 0x357401F5 EQ PUSH2 0xF20 JUMPI DUP1 PUSH4 0x476343EE EQ PUSH2 0xDDB JUMPI DUP1 PUSH4 0x4AFE62B5 EQ PUSH2 0xABD JUMPI DUP1 PUSH4 0x5195D612 EQ PUSH2 0xA94 JUMPI DUP1 PUSH4 0x589F2410 EQ PUSH2 0xA47 JUMPI DUP1 PUSH4 0x715018A6 EQ PUSH2 0x9EE JUMPI DUP1 PUSH4 0x79141F80 EQ PUSH2 0x8F4 JUMPI DUP1 PUSH4 0x8DA5CB5B EQ PUSH2 0x8CB JUMPI DUP1 PUSH4 0x9ACA2792 EQ PUSH2 0x8AD JUMPI DUP1 PUSH4 0xA4CD5C43 EQ PUSH2 0x885 JUMPI DUP1 PUSH4 0xA8A3221E EQ PUSH2 0x869 JUMPI DUP1 PUSH4 0xADA73020 EQ PUSH2 0x80F JUMPI DUP1 PUSH4 0xC2F48EFF EQ PUSH2 0x423 JUMPI DUP1 PUSH4 0xC303B902 EQ PUSH2 0x3A0 JUMPI DUP1 PUSH4 0xCA8BCF39 EQ PUSH2 0x2C9 JUMPI DUP1 PUSH4 0xCAE4FFBB EQ PUSH2 0x2AD JUMPI DUP1 PUSH4 0xD7098154 EQ PUSH2 0x28F JUMPI DUP1 PUSH4 0xD8BF8974 EQ PUSH2 0x260 JUMPI DUP1 PUSH4 0xDD99717D EQ PUSH2 0x22C JUMPI DUP1 PUSH4 0xDDD70709 EQ PUSH2 0x1F4 JUMPI DUP1 PUSH4 0xE53D4C2D EQ PUSH2 0x1D7 JUMPI PUSH4 0xF2FDE38B EQ PUSH2 0x145 JUMPI PUSH1 0x0 DUP1 REVERT JUMPDEST CALLVALUE PUSH2 0x1D2 JUMPI PUSH1 0x20 CALLDATASIZE PUSH1 0x3 NOT ADD SLT PUSH2 0x1D2 JUMPI PUSH1 0x4 CALLDATALOAD PUSH1 0x1 PUSH1 0x1 PUSH1 0xA0 SHL SUB DUP2 AND SWAP1 DUP2 SWAP1 SUB PUSH2 0x1D2 JUMPI PUSH2 0x173 PUSH2 0x1AB4 JUMP JUMPDEST DUP1 ISZERO PUSH2 0x1BC JUMPI PUSH1 0x0 DUP1 SLOAD PUSH1 0x1 PUSH1 0x1 PUSH1 0xA0 SHL SUB NOT DUP2 AND DUP4 OR DUP3 SSTORE PUSH1 0x1 PUSH1 0x1 PUSH1 0xA0 SHL SUB AND SWAP1 PUSH32 0x8BE0079C531659141344CD1FD0A4F28419497F9722A3DAAFE3B4186F6B6457E0 SWAP1 DUP1 LOG3 STOP JUMPDEST PUSH4 0x1E4FBDF7 PUSH1 0xE0 SHL PUSH1 0x0 MSTORE PUSH1 0x0 PUSH1 0x4 MSTORE PUSH1 0x24 PUSH1 0x0 REVERT JUMPDEST PUSH1 0x0 DUP1 REVERT JUMPDEST CALLVALUE PUSH2 0x1D2 JUMPI PUSH1 0x0 CALLDATASIZE PUSH1 0x3 NOT ADD SLT PUSH2 0x1D2 JUMPI PUSH1 0x20 PUSH1 0x40 MLOAD PUSH2 0x12C DUP2 MSTORE RETURN JUMPDEST CALLVALUE PUSH2 0x1D2 JUMPI PUSH1 0x20 CALLDATASIZE PUSH1 0x3 NOT ADD SLT PUSH2 0x1D2 JUMPI PUSH1 0x4 CALLDATALOAD PUSH1 0x5 SLOAD DUP2 LT ISZERO PUSH2 0x1D2 JUMPI PUSH2 0x21D PUSH1 0x20 SWAP2 PUSH2 0x14C0 JUMP JUMPDEST SWAP1 SLOAD SWAP1 PUSH1 0x3 SHL SHR PUSH1 0x40 MLOAD SWAP1 DUP2 MSTORE RETURN JUMPDEST CALLVALUE PUSH2 0x1D2 JUMPI PUSH1 0x40 CALLDATASIZE PUSH1 0x3 NOT ADD SLT PUSH2 0x1D2 JUMPI PUSH1 0x40 PUSH2 0x252 PUSH2 0x24A PUSH2 0x1524 JUMP JUMPDEST PUSH1 0x4 CALLDATALOAD PUSH2 0x19FD JUMP JUMPDEST DUP3 MLOAD SWAP2 DUP3 MSTORE ISZERO ISZERO PUSH1 0x20 DUP3 ADD MSTORE RETURN JUMPDEST CALLVALUE PUSH2 0x1D2 JUMPI PUSH1 0x20 CALLDATASIZE PUSH1 0x3 NOT ADD SLT PUSH2 0x1D2 JUMPI PUSH1 0x4 CALLDATALOAD PUSH1 0x0 MSTORE PUSH1 0x2 PUSH1 0x20 MSTORE PUSH1 0x20 PUSH1 0x7 PUSH1 0x40 PUSH1 0x0 KECCAK256 ADD SLOAD PUSH1 0x40 MLOAD SWAP1 DUP2 MSTORE RETURN JUMPDEST CALLVALUE PUSH2 0x1D2 JUMPI PUSH1 0x20 CALLDATASIZE PUSH1 0x3 NOT ADD SLT PUSH2 0x1D2 JUMPI PUSH2 0x2AB PUSH1 0x4 CALLDATALOAD PUSH2 0x16A5 JUMP JUMPDEST STOP JUMPDEST CALLVALUE PUSH2 0x1D2 JUMPI PUSH1 0x0 CALLDATASIZE PUSH1 0x3 NOT ADD SLT PUSH2 0x1D2 JUMPI PUSH1 0x20 PUSH1 0x40 MLOAD PUSH1 0x3C DUP2 MSTORE RETURN JUMPDEST CALLVALUE PUSH2 0x1D2 JUMPI PUSH1 0x20 CALLDATASIZE PUSH1 0x3 NOT ADD SLT PUSH2 0x1D2 JUMPI PUSH1 0x4 CALLDATALOAD PUSH1 0x0 MSTORE PUSH1 0x2 PUSH1 0x20 MSTORE PUSH1 0xA PUSH1 0x40 PUSH1 0x0 KECCAK256 ADD DUP1 SLOAD SWAP1 PUSH2 0x2F9 DUP3 PUSH2 0x1591 JUMP JUMPDEST SWAP2 PUSH2 0x307 PUSH1 0x40 MLOAD SWAP4 DUP5 PUSH2 0x139F JUMP JUMPDEST DUP1 DUP4 MSTORE PUSH2 0x313 DUP2 PUSH2 0x1591 JUMP JUMPDEST PUSH1 0x20 DUP5 ADD SWAP3 SWAP1 PUSH1 0x1F NOT ADD CALLDATASIZE DUP5 CALLDATACOPY PUSH1 0x0 JUMPDEST DUP3 DUP2 LT PUSH2 0x378 JUMPI DUP4 DUP6 PUSH1 0x40 MLOAD SWAP2 DUP3 SWAP2 PUSH1 0x20 DUP4 ADD SWAP1 PUSH1 0x20 DUP5 MSTORE MLOAD DUP1 SWAP2 MSTORE PUSH1 0x40 DUP4 ADD SWAP2 SWAP1 PUSH1 0x0 JUMPDEST DUP2 DUP2 LT PUSH2 0x356 JUMPI POP POP POP SUB SWAP1 RETURN JUMPDEST DUP3 MLOAD PUSH1 0x1 PUSH1 0x1 PUSH1 0xA0 SHL SUB AND DUP5 MSTORE DUP6 SWAP5 POP PUSH1 0x20 SWAP4 DUP5 ADD SWAP4 SWAP1 SWAP3 ADD SWAP2 PUSH1 0x1 ADD PUSH2 0x348 JUMP JUMPDEST DUP1 PUSH2 0x385 PUSH1 0x1 SWAP3 DUP5 PUSH2 0x15DB JUMP JUMPDEST POP DUP3 DUP1 PUSH1 0xA0 SHL SUB SWAP1 SLOAD AND PUSH2 0x399 DUP3 DUP9 PUSH2 0x15F7 JUMP JUMPDEST MSTORE ADD PUSH2 0x323 JUMP JUMPDEST CALLVALUE PUSH2 0x1D2 JUMPI PUSH1 0x20 CALLDATASIZE PUSH1 0x3 NOT ADD SLT PUSH2 0x1D2 JUMPI PUSH1 0x4 CALLDATALOAD PUSH1 0x0 MSTORE PUSH1 0x2 PUSH1 0x20 MSTORE PUSH1 0x8 PUSH1 0x40 PUSH1 0x0 KECCAK256 ADD PUSH1 0x40 MLOAD SWAP1 DUP1 SLOAD DUP1 DUP4 MSTORE PUSH1 0x20 DUP4 ADD SWAP2 PUSH1 0x0 MSTORE PUSH1 0x20 PUSH1 0x0 KECCAK256 SWAP1 PUSH1 0x0 JUMPDEST DUP2 DUP2 LT PUSH2 0x40D JUMPI PUSH2 0x409 DUP6 PUSH2 0x3F5 DUP2 DUP8 SUB DUP3 PUSH2 0x139F JUMP JUMPDEST PUSH1 0x40 MLOAD SWAP2 DUP3 SWAP2 PUSH1 0x20 DUP4 MSTORE PUSH1 0x20 DUP4 ADD SWAP1 PUSH2 0x1331 JUMP JUMPDEST SUB SWAP1 RETURN JUMPDEST DUP3 SLOAD DUP5 MSTORE PUSH1 0x20 SWAP1 SWAP4 ADD SWAP3 PUSH1 0x1 SWAP3 DUP4 ADD SWAP3 ADD PUSH2 0x3DE JUMP JUMPDEST CALLVALUE PUSH2 0x1D2 JUMPI PUSH1 0xC0 CALLDATASIZE PUSH1 0x3 NOT ADD SLT PUSH2 0x1D2 JUMPI PUSH1 0x4 CALLDATALOAD PUSH8 0xFFFFFFFFFFFFFFFF DUP2 GT PUSH2 0x1D2 JUMPI PUSH2 0x454 SWAP1 CALLDATASIZE SWAP1 PUSH1 0x4 ADD PUSH2 0x153A JUMP JUMPDEST PUSH1 0x24 CALLDATALOAD PUSH8 0xFFFFFFFFFFFFFFFF DUP2 GT PUSH2 0x1D2 JUMPI PUSH2 0x474 SWAP1 CALLDATASIZE SWAP1 PUSH1 0x4 ADD PUSH2 0x153A JUMP JUMPDEST PUSH1 0x44 CALLDATALOAD PUSH1 0x2 DUP2 LT ISZERO PUSH2 0x1D2 JUMPI PUSH1 0x64 CALLDATALOAD PUSH1 0x84 CALLDATALOAD SWAP3 PUSH1 0xA4 CALLDATALOAD SWAP4 PUSH2 0x493 PUSH2 0x1AB4 JUMP JUMPDEST DUP3 ISZERO PUSH2 0x7FE JUMPI PUSH1 0x1 SLOAD SWAP5 PUSH2 0x4A6 DUP7 PUSH2 0x1BCA JUMP JUMPDEST PUSH1 0x1 SSTORE DUP6 PUSH1 0x0 MSTORE PUSH1 0x2 PUSH1 0x20 MSTORE PUSH1 0x40 PUSH1 0x0 KECCAK256 SWAP1 DUP7 DUP3 SSTORE PUSH1 0x1 DUP3 ADD DUP9 MLOAD PUSH8 0xFFFFFFFFFFFFFFFF DUP2 GT PUSH2 0x746 JUMPI PUSH2 0x4DA DUP3 SLOAD PUSH2 0x1365 JUMP JUMPDEST PUSH1 0x1F DUP2 GT PUSH2 0x7CC JUMPI JUMPDEST POP DUP1 PUSH1 0x20 PUSH1 0x1F DUP3 GT PUSH1 0x1 EQ PUSH2 0x767 JUMPI PUSH1 0x0 SWAP2 PUSH2 0x75C JUMPI JUMPDEST POP DUP2 PUSH1 0x1 SHL SWAP2 PUSH1 0x0 NOT SWAP1 PUSH1 0x3 SHL SHR NOT AND OR SWAP1 SSTORE JUMPDEST PUSH1 0x2 DUP3 ADD DUP5 MLOAD PUSH8 0xFFFFFFFFFFFFFFFF DUP2 GT PUSH2 0x746 JUMPI PUSH2 0x52D DUP3 SLOAD PUSH2 0x1365 JUMP JUMPDEST PUSH1 0x1F DUP2 GT PUSH2 0x709 JUMPI JUMPDEST POP DUP1 PUSH1 0x20 PUSH1 0x1F DUP3 GT PUSH1 0x1 EQ PUSH2 0x6A6 JUMPI PUSH1 0x0 SWAP2 PUSH2 0x69B JUMPI JUMPDEST POP DUP2 PUSH1 0x1 SHL SWAP2 PUSH1 0x0 NOT SWAP1 PUSH1 0x3 SHL SHR NOT AND OR SWAP1 SSTORE JUMPDEST PUSH1 0x3 DUP3 ADD SWAP3 PUSH1 0x0 SWAP4 PUSH1 0xFF NOT DUP2 SLOAD AND PUSH1 0xFF DUP10 AND OR SWAP1 SSTORE DUP6 PUSH1 0x4 DUP5 ADD SSTORE PUSH1 0x6 DUP4 ADD PUSH1 0xFF NOT DUP2 SLOAD AND SWAP1 SSTORE TIMESTAMP PUSH1 0xB DUP5 ADD SSTORE DUP1 ISZERO PUSH1 0x0 EQ PUSH2 0x696 JUMPI POP TIMESTAMP JUMPDEST PUSH1 0xC DUP4 ADD SSTORE DUP1 PUSH2 0x68D JUMPI POP PUSH2 0x12C TIMESTAMP ADD DUP1 TIMESTAMP GT PUSH2 0x679 JUMPI PUSH1 0xD SWAP1 SWAP2 JUMPDEST ADD SSTORE PUSH1 0x4 SLOAD SWAP1 PUSH1 0x1 PUSH1 0x40 SHL DUP3 LT ISZERO PUSH2 0x665 JUMPI POP SWAP5 DUP5 SWAP4 PUSH32 0xF7DFCAB2992417049CB3E78DCB5D3AC9520E053800DAAB4885BC264A958F19F8 SWAP4 PUSH2 0x655 PUSH2 0x64A PUSH2 0x63D SWAP6 PUSH2 0x629 DUP10 PUSH2 0x610 DUP14 PUSH1 0x1 PUSH1 0x20 SWAP16 ADD PUSH1 0x4 SSTORE PUSH1 0x4 PUSH2 0x150C JUMP JUMPDEST SWAP1 SWAP2 SWAP1 DUP3 SLOAD SWAP1 PUSH1 0x3 SHL SWAP2 DUP3 SHL SWAP2 PUSH1 0x0 NOT SWAP1 SHL NOT AND OR SWAP1 SSTORE JUMP JUMPDEST PUSH1 0x40 MLOAD SWAP7 DUP8 SWAP7 PUSH1 0x80 DUP9 MSTORE PUSH1 0x80 DUP9 ADD SWAP1 PUSH2 0x1465 JUMP JUMPDEST SWAP1 DUP7 DUP3 SUB DUP13 DUP9 ADD MSTORE PUSH2 0x1465 JUMP JUMPDEST SWAP3 PUSH1 0x40 DUP6 ADD SWAP1 PUSH2 0x14A6 JUMP JUMPDEST PUSH1 0x60 DUP4 ADD MSTORE SUB SWAP1 LOG2 PUSH1 0x40 MLOAD SWAP1 DUP2 MSTORE RETURN JUMPDEST PUSH4 0x4E487B71 PUSH1 0xE0 SHL DUP2 MSTORE PUSH1 0x41 PUSH1 0x4 MSTORE PUSH1 0x24 SWAP1 REVERT JUMPDEST PUSH4 0x4E487B71 PUSH1 0xE0 SHL DUP4 MSTORE PUSH1 0x11 PUSH1 0x4 MSTORE PUSH1 0x24 DUP4 REVERT JUMPDEST PUSH1 0xD SWAP1 SWAP2 PUSH2 0x5B6 JUMP JUMPDEST PUSH2 0x59A JUMP JUMPDEST SWAP1 POP DUP7 ADD MLOAD DUP12 PUSH2 0x54D JUMP JUMPDEST PUSH1 0x0 DUP5 DUP2 MSTORE DUP2 DUP2 KECCAK256 SWAP3 POP PUSH1 0x1F NOT DUP5 AND SWAP1 JUMPDEST DUP2 DUP2 LT PUSH2 0x6F1 JUMPI POP SWAP1 DUP4 PUSH1 0x1 SWAP5 SWAP4 SWAP3 LT PUSH2 0x6D8 JUMPI JUMPDEST POP POP DUP2 SHL ADD SWAP1 SSTORE PUSH2 0x561 JUMP JUMPDEST DUP9 ADD MLOAD PUSH1 0x0 NOT PUSH1 0xF8 DUP5 PUSH1 0x3 SHL AND SHR NOT AND SWAP1 SSTORE DUP12 DUP1 PUSH2 0x6CC JUMP JUMPDEST SWAP2 SWAP3 PUSH1 0x20 PUSH1 0x1 DUP2 SWAP3 DUP7 DUP14 ADD MLOAD DUP2 SSTORE ADD SWAP5 ADD SWAP3 ADD PUSH2 0x6B7 JUMP JUMPDEST PUSH2 0x736 SWAP1 DUP4 PUSH1 0x0 MSTORE PUSH1 0x20 PUSH1 0x0 KECCAK256 PUSH1 0x1F DUP5 ADD PUSH1 0x5 SHR DUP2 ADD SWAP2 PUSH1 0x20 DUP6 LT PUSH2 0x73C JUMPI JUMPDEST PUSH1 0x1F ADD PUSH1 0x5 SHR ADD SWAP1 PUSH2 0x1ADD JUMP JUMPDEST DUP11 PUSH2 0x536 JUMP JUMPDEST SWAP1 SWAP2 POP DUP2 SWAP1 PUSH2 0x729 JUMP JUMPDEST PUSH4 0x4E487B71 PUSH1 0xE0 SHL PUSH1 0x0 MSTORE PUSH1 0x41 PUSH1 0x4 MSTORE PUSH1 0x24 PUSH1 0x0 REVERT JUMPDEST SWAP1 POP DUP11 ADD MLOAD DUP12 PUSH2 0x4FA JUMP JUMPDEST PUSH1 0x0 DUP5 DUP2 MSTORE DUP2 DUP2 KECCAK256 SWAP3 POP PUSH1 0x1F NOT DUP5 AND SWAP1 JUMPDEST DUP14 DUP3 DUP3 LT PUSH2 0x7B4 JUMPI POP POP SWAP1 DUP4 PUSH1 0x1 SWAP5 SWAP4 SWAP3 LT PUSH2 0x79B JUMPI JUMPDEST POP POP DUP2 SHL ADD SWAP1 SSTORE PUSH2 0x50E JUMP JUMPDEST DUP13 ADD MLOAD PUSH1 0x0 NOT PUSH1 0xF8 DUP5 PUSH1 0x3 SHL AND SHR NOT AND SWAP1 SSTORE DUP12 DUP1 PUSH2 0x78F JUMP JUMPDEST PUSH1 0x1 DUP5 SWAP6 PUSH1 0x20 SWAP4 SWAP6 DUP5 SWAP4 ADD MLOAD DUP2 SSTORE ADD SWAP5 ADD SWAP3 ADD PUSH2 0x778 JUMP JUMPDEST PUSH2 0x7F8 SWAP1 DUP4 PUSH1 0x0 MSTORE PUSH1 0x20 PUSH1 0x0 KECCAK256 PUSH1 0x1F DUP5 ADD PUSH1 0x5 SHR DUP2 ADD SWAP2 PUSH1 0x20 DUP6 LT PUSH2 0x73C JUMPI PUSH1 0x1F ADD PUSH1 0x5 SHR ADD SWAP1 PUSH2 0x1ADD JUMP JUMPDEST DUP11 PUSH2 0x4E3 JUMP JUMPDEST PUSH4 0x9DE3D441 PUSH1 0xE0 SHL PUSH1 0x0 MSTORE PUSH1 0x4 PUSH1 0x0 REVERT JUMPDEST CALLVALUE PUSH2 0x1D2 JUMPI PUSH1 0x0 CALLDATASIZE PUSH1 0x3 NOT ADD SLT PUSH2 0x1D2 JUMPI PUSH1 0x40 MLOAD PUSH1 0x4 SLOAD DUP1 DUP3 MSTORE PUSH1 0x20 DUP3 ADD SWAP1 PUSH1 0x4 PUSH1 0x0 MSTORE PUSH1 0x20 PUSH1 0x0 KECCAK256 SWAP1 PUSH1 0x0 JUMPDEST DUP2 DUP2 LT PUSH2 0x853 JUMPI PUSH2 0x409 DUP6 PUSH2 0x3F5 DUP2 DUP8 SUB DUP3 PUSH2 0x139F JUMP JUMPDEST DUP3 SLOAD DUP5 MSTORE PUSH1 0x20 SWAP1 SWAP4 ADD SWAP3 PUSH1 0x1 SWAP3 DUP4 ADD SWAP3 ADD PUSH2 0x83C JUMP JUMPDEST CALLVALUE PUSH2 0x1D2 JUMPI PUSH1 0x0 CALLDATASIZE PUSH1 0x3 NOT ADD SLT PUSH2 0x1D2 JUMPI PUSH1 0x20 PUSH1 0x40 MLOAD PUSH1 0x5 DUP2 MSTORE RETURN JUMPDEST CALLVALUE PUSH2 0x1D2 JUMPI PUSH1 0x20 CALLDATASIZE PUSH1 0x3 NOT ADD SLT PUSH2 0x1D2 JUMPI PUSH1 0x20 PUSH2 0x8A3 PUSH1 0x4 CALLDATALOAD PUSH2 0x164A JUMP JUMPDEST PUSH1 0x40 MLOAD SWAP1 ISZERO ISZERO DUP2 MSTORE RETURN JUMPDEST CALLVALUE PUSH2 0x1D2 JUMPI PUSH1 0x0 CALLDATASIZE PUSH1 0x3 NOT ADD SLT PUSH2 0x1D2 JUMPI PUSH1 0x20 PUSH1 0x1 SLOAD PUSH1 0x40 MLOAD SWAP1 DUP2 MSTORE RETURN JUMPDEST CALLVALUE PUSH2 0x1D2 JUMPI PUSH1 0x0 CALLDATASIZE PUSH1 0x3 NOT ADD SLT PUSH2 0x1D2 JUMPI PUSH1 0x0 SLOAD PUSH1 0x40 MLOAD PUSH1 0x1 PUSH1 0x1 PUSH1 0xA0 SHL SUB SWAP1 SWAP2 AND DUP2 MSTORE PUSH1 0x20 SWAP1 RETURN JUMPDEST CALLVALUE PUSH2 0x1D2 JUMPI PUSH1 0x20 CALLDATASIZE PUSH1 0x3 NOT ADD SLT PUSH2 0x1D2 JUMPI PUSH1 0x4 CALLDATALOAD PUSH1 0x0 MSTORE PUSH1 0x2 PUSH1 0x20 MSTORE PUSH1 0x40 PUSH1 0x0 KECCAK256 DUP1 SLOAD PUSH1 0x3 DUP3 ADD SLOAD PUSH1 0xFF AND PUSH1 0x4 DUP4 ADD SLOAD PUSH1 0x5 DUP5 ADD SLOAD PUSH1 0x6 DUP6 ADD SLOAD PUSH1 0xFF AND PUSH1 0x7 DUP7 ADD SLOAD PUSH1 0x9 DUP8 ADD SLOAD PUSH1 0xFF AND PUSH1 0xA DUP9 ADD SLOAD SWAP2 PUSH1 0xB DUP10 ADD SLOAD SWAP4 PUSH1 0xC DUP11 ADD SLOAD SWAP6 PUSH1 0xD DUP12 ADD SLOAD SWAP8 PUSH1 0x1 DUP13 ADD PUSH2 0x963 SWAP1 PUSH2 0x13C1 JUMP JUMPDEST SWAP12 PUSH1 0x2 ADD PUSH2 0x970 SWAP1 PUSH2 0x13C1 JUMP JUMPDEST PUSH1 0x40 MLOAD SWAP13 DUP14 SWAP13 DUP14 MSTORE PUSH1 0x20 DUP14 ADD PUSH2 0x1A0 SWAP1 MSTORE PUSH2 0x1A0 DUP14 ADD PUSH2 0x98F SWAP2 PUSH2 0x1465 JUMP JUMPDEST DUP13 DUP2 SUB PUSH1 0x40 DUP15 ADD MSTORE PUSH2 0x9A0 SWAP2 PUSH2 0x1465 JUMP JUMPDEST SWAP10 PUSH1 0x60 DUP13 ADD PUSH2 0x9AE SWAP2 PUSH2 0x14A6 JUMP JUMPDEST PUSH1 0x80 DUP12 ADD MSTORE PUSH1 0xA0 DUP11 ADD MSTORE PUSH1 0xC0 DUP10 ADD PUSH2 0x9C5 SWAP2 PUSH2 0x14B3 JUMP JUMPDEST PUSH1 0xE0 DUP9 ADD MSTORE ISZERO ISZERO PUSH2 0x100 DUP8 ADD MSTORE PUSH2 0x120 DUP7 ADD MSTORE PUSH2 0x140 DUP6 ADD MSTORE PUSH2 0x160 DUP5 ADD MSTORE PUSH2 0x180 DUP4 ADD MSTORE SUB SWAP1 RETURN JUMPDEST CALLVALUE PUSH2 0x1D2 JUMPI PUSH1 0x0 CALLDATASIZE PUSH1 0x3 NOT ADD SLT PUSH2 0x1D2 JUMPI PUSH2 0xA07 PUSH2 0x1AB4 JUMP JUMPDEST PUSH1 0x0 DUP1 SLOAD PUSH1 0x1 PUSH1 0x1 PUSH1 0xA0 SHL SUB NOT DUP2 AND DUP3 SSTORE PUSH1 0x1 PUSH1 0x1 PUSH1 0xA0 SHL SUB AND PUSH32 0x8BE0079C531659141344CD1FD0A4F28419497F9722A3DAAFE3B4186F6B6457E0 DUP3 DUP1 LOG3 STOP JUMPDEST CALLVALUE PUSH2 0x1D2 JUMPI PUSH1 0x40 CALLDATASIZE PUSH1 0x3 NOT ADD SLT PUSH2 0x1D2 JUMPI PUSH2 0xA60 PUSH2 0x1524 JUMP JUMPDEST PUSH1 0x4 CALLDATALOAD PUSH1 0x0 MSTORE PUSH1 0x3 PUSH1 0x20 MSTORE PUSH1 0x40 PUSH1 0x0 KECCAK256 SWAP1 PUSH1 0x1 DUP1 PUSH1 0xA0 SHL SUB AND PUSH1 0x0 MSTORE PUSH1 0x20 MSTORE PUSH1 0x20 PUSH1 0xFF PUSH1 0x40 PUSH1 0x0 KECCAK256 SLOAD AND PUSH1 0x40 MLOAD SWAP1 ISZERO ISZERO DUP2 MSTORE RETURN JUMPDEST CALLVALUE PUSH2 0x1D2 JUMPI PUSH1 0x20 CALLDATASIZE PUSH1 0x3 NOT ADD SLT PUSH2 0x1D2 JUMPI PUSH1 0x4 CALLDATALOAD PUSH1 0x4 SLOAD DUP2 LT ISZERO PUSH2 0x1D2 JUMPI PUSH2 0x21D PUSH1 0x20 SWAP2 PUSH2 0x14F1 JUMP JUMPDEST PUSH2 0xAC6 CALLDATASIZE PUSH2 0x131B JUMP JUMPDEST SWAP1 DUP1 PUSH1 0x0 MSTORE PUSH1 0x2 PUSH1 0x20 MSTORE PUSH1 0x40 PUSH1 0x0 KECCAK256 PUSH1 0xFF PUSH1 0x6 DUP3 ADD SLOAD AND PUSH1 0x3 DUP2 LT ISZERO PUSH2 0xD66 JUMPI PUSH2 0xDCA JUMPI PUSH1 0xD DUP2 ADD SLOAD DUP1 ISZERO ISZERO SWAP1 DUP2 PUSH2 0xD9E JUMPI JUMPDEST POP PUSH2 0xD8D JUMPI PUSH1 0x0 DUP3 DUP2 MSTORE PUSH1 0x3 PUSH1 0x20 SWAP1 DUP2 MSTORE PUSH1 0x40 DUP1 DUP4 KECCAK256 CALLER DUP5 MSTORE SWAP1 SWAP2 MSTORE SWAP1 KECCAK256 SLOAD PUSH1 0xFF AND PUSH2 0xD7C JUMPI PUSH1 0xFF PUSH1 0x3 DUP3 ADD SLOAD AND PUSH1 0x2 DUP2 LT ISZERO PUSH2 0xD66 JUMPI PUSH2 0xC59 JUMPI PUSH1 0x4 DUP2 ADD SLOAD CALLVALUE SUB PUSH2 0x7FE JUMPI JUMPDEST PUSH1 0xA DUP2 ADD PUSH1 0x40 MLOAD PUSH1 0x60 DUP2 ADD DUP2 DUP2 LT PUSH8 0xFFFFFFFFFFFFFFFF DUP3 GT OR PUSH2 0x746 JUMPI PUSH1 0x40 MSTORE CALLER DUP2 MSTORE PUSH1 0x20 DUP2 ADD DUP6 DUP2 MSTORE PUSH1 0x40 DUP3 ADD SWAP3 PUSH1 0x0 DUP5 MSTORE DUP1 SLOAD PUSH1 0x1 PUSH1 0x40 SHL DUP2 LT ISZERO PUSH2 0x746 JUMPI PUSH2 0xB91 SWAP2 PUSH1 0x1 DUP3 ADD DUP2 SSTORE PUSH2 0x15DB JUMP JUMPDEST SWAP2 SWAP1 SWAP2 PUSH2 0xC43 JUMPI PUSH1 0x2 SWAP3 PUSH1 0x1 DUP1 PUSH1 0xA0 SHL SUB SWAP1 MLOAD AND PUSH12 0xFFFFFFFFFFFFFFFFFFFFFFFF PUSH1 0xA0 SHL DUP4 SLOAD AND OR DUP3 SSTORE MLOAD PUSH1 0x1 DUP3 ADD SSTORE ADD SWAP1 MLOAD ISZERO ISZERO PUSH1 0xFF DUP1 NOT DUP4 SLOAD AND SWAP2 AND OR SWAP1 SSTORE PUSH2 0xBE6 PUSH1 0x7 PUSH1 0x4 DUP4 ADD SLOAD SWAP3 ADD SWAP2 DUP3 SLOAD PUSH2 0x1630 JUMP JUMPDEST SWAP1 SSTORE DUP1 PUSH1 0x0 MSTORE PUSH1 0x3 PUSH1 0x20 MSTORE PUSH1 0x40 PUSH1 0x0 KECCAK256 PUSH1 0x1 DUP1 PUSH1 0xA0 SHL SUB CALLER AND PUSH1 0x0 MSTORE PUSH1 0x20 MSTORE PUSH1 0x40 PUSH1 0x0 KECCAK256 PUSH1 0x1 PUSH1 0xFF NOT DUP3 SLOAD AND OR SWAP1 SSTORE PUSH1 0x40 MLOAD SWAP2 DUP3 MSTORE PUSH32 0xAE6E469845072CD465CBE2A8B4F46CFF1B0263205FFE97879E063BBBEA36BB7C PUSH1 0x20 CALLER SWAP4 LOG3 STOP JUMPDEST PUSH4 0x4E487B71 PUSH1 0xE0 SHL PUSH1 0x0 MSTORE PUSH1 0x0 PUSH1 0x4 MSTORE PUSH1 0x24 PUSH1 0x0 REVERT JUMPDEST CALLVALUE PUSH2 0xD55 JUMPI PUSH1 0x40 MLOAD PUSH4 0x6EB1769F PUSH1 0xE1 SHL DUP2 MSTORE CALLER PUSH1 0x4 DUP3 ADD MSTORE ADDRESS PUSH1 0x24 DUP3 ADD MSTORE PUSH32 0x0 SWAP1 PUSH1 0x20 DUP2 PUSH1 0x44 DUP2 PUSH1 0x1 PUSH1 0x1 PUSH1 0xA0 SHL SUB DUP7 AND GAS STATICCALL SWAP1 DUP2 ISZERO PUSH2 0xD49 JUMPI PUSH1 0x0 SWAP2 PUSH2 0xD17 JUMPI JUMPDEST POP PUSH1 0x4 DUP4 ADD SLOAD DUP1 SWAP2 LT PUSH2 0xD06 JUMPI PUSH2 0xD01 SWAP2 PUSH1 0x40 MLOAD SWAP2 PUSH4 0x23B872DD PUSH1 0xE0 SHL PUSH1 0x20 DUP5 ADD MSTORE CALLER PUSH1 0x24 DUP5 ADD MSTORE ADDRESS PUSH1 0x44 DUP5 ADD MSTORE PUSH1 0x64 DUP4 ADD MSTORE PUSH1 0x64 DUP3 MSTORE PUSH2 0xCFC PUSH1 0x84 DUP4 PUSH2 0x139F JUMP JUMPDEST PUSH2 0x1CD4 JUMP JUMPDEST PUSH2 0xB40 JUMP JUMPDEST PUSH4 0xE2822FF1 PUSH1 0xE0 SHL PUSH1 0x0 MSTORE PUSH1 0x4 PUSH1 0x0 REVERT JUMPDEST SWAP1 POP PUSH1 0x20 DUP2 RETURNDATASIZE PUSH1 0x20 GT PUSH2 0xD41 JUMPI JUMPDEST DUP2 PUSH2 0xD32 PUSH1 0x20 SWAP4 DUP4 PUSH2 0x139F JUMP JUMPDEST DUP2 ADD SUB SLT PUSH2 0x1D2 JUMPI MLOAD DUP6 PUSH2 0xCBA JUMP JUMPDEST RETURNDATASIZE SWAP2 POP PUSH2 0xD25 JUMP JUMPDEST PUSH1 0x40 MLOAD RETURNDATASIZE PUSH1 0x0 DUP3 RETURNDATACOPY RETURNDATASIZE SWAP1 REVERT JUMPDEST PUSH4 0xB27DB61 PUSH1 0xE1 SHL PUSH1 0x0 MSTORE PUSH1 0x4 PUSH1 0x0 REVERT JUMPDEST PUSH4 0x4E487B71 PUSH1 0xE0 SHL PUSH1 0x0 MSTORE PUSH1 0x21 PUSH1 0x4 MSTORE PUSH1 0x24 PUSH1 0x0 REVERT JUMPDEST PUSH4 0xEB0163A1 PUSH1 0xE0 SHL PUSH1 0x0 MSTORE PUSH1 0x4 PUSH1 0x0 REVERT JUMPDEST PUSH4 0x5742B835 PUSH1 0xE0 SHL PUSH1 0x0 MSTORE PUSH1 0x4 PUSH1 0x0 REVERT JUMPDEST PUSH1 0x3B NOT DUP2 ADD SWAP2 POP DUP2 GT PUSH2 0xDB4 JUMPI TIMESTAMP LT ISZERO DUP5 PUSH2 0xAF9 JUMP JUMPDEST PUSH4 0x4E487B71 PUSH1 0xE0 SHL PUSH1 0x0 MSTORE PUSH1 0x11 PUSH1 0x4 MSTORE PUSH1 0x24 PUSH1 0x0 REVERT JUMPDEST PUSH4 0xE38F163D PUSH1 0xE0 SHL PUSH1 0x0 MSTORE PUSH1 0x4 PUSH1 0x0 REVERT JUMPDEST CALLVALUE PUSH2 0x1D2 JUMPI PUSH1 0x0 CALLDATASIZE PUSH1 0x3 NOT ADD SLT PUSH2 0x1D2 JUMPI PUSH2 0xDF4 PUSH2 0x1AB4 JUMP JUMPDEST PUSH1 0x0 DUP1 DUP1 PUSH1 0x5 SLOAD SWAP1 JUMPDEST DUP2 DUP2 LT PUSH2 0xE7E JUMPI POP POP DUP1 ISZERO DUP1 ISZERO PUSH2 0xE4F JUMPI JUMPDEST POP POP DUP1 PUSH2 0xE18 JUMPI STOP JUMPDEST PUSH1 0x0 SLOAD PUSH2 0x2AB SWAP2 SWAP1 PUSH1 0x1 PUSH1 0x1 PUSH1 0xA0 SHL SUB AND PUSH32 0x0 PUSH2 0x1B8F JUMP JUMPDEST PUSH1 0x0 DUP1 DUP1 SWAP4 DUP2 SWAP4 PUSH1 0x1 DUP1 PUSH1 0xA0 SHL SUB DUP4 SLOAD AND SWAP1 DUP4 SWAP1 PUSH2 0xE75 JUMPI JUMPDEST CALL ISZERO PUSH2 0xD49 JUMPI DUP2 DUP1 PUSH2 0xE0F JUMP JUMPDEST POP PUSH2 0x8FC PUSH2 0xE68 JUMP JUMPDEST PUSH2 0xE87 DUP2 PUSH2 0x14C0 JUMP JUMPDEST SWAP1 SLOAD SWAP1 PUSH1 0x3 SHL SHR PUSH1 0x0 MSTORE PUSH1 0x2 PUSH1 0x20 MSTORE PUSH1 0x40 PUSH1 0x0 KECCAK256 PUSH1 0xFF PUSH1 0x9 DUP3 ADD SLOAD AND ISZERO DUP1 PUSH2 0xF13 JUMPI JUMPDEST PUSH2 0xEB8 JUMPI JUMPDEST POP PUSH1 0x1 ADD PUSH2 0xDFD JUMP JUMPDEST SWAP1 SWAP3 PUSH1 0x7 DUP3 ADD SLOAD PUSH1 0x5 DUP2 MUL SWAP1 DUP1 DUP3 DIV PUSH1 0x5 EQ SWAP1 ISZERO OR ISZERO PUSH2 0xDB4 JUMPI PUSH1 0x3 PUSH1 0x64 PUSH1 0xFF SWAP3 DIV SWAP4 ADD SLOAD AND PUSH1 0x2 DUP2 LT ISZERO PUSH2 0xD66 JUMPI PUSH2 0xEFF JUMPI PUSH1 0x1 SWAP2 PUSH2 0xEF7 SWAP2 PUSH2 0x1630 JUMP JUMPDEST SWAP3 JUMPDEST SWAP1 PUSH2 0xEAF JUMP JUMPDEST SWAP3 SWAP4 PUSH1 0x1 SWAP2 PUSH2 0xF0D SWAP2 PUSH2 0x1630 JUMP JUMPDEST SWAP4 PUSH2 0xEF9 JUMP JUMPDEST POP PUSH1 0x7 DUP2 ADD SLOAD ISZERO ISZERO PUSH2 0xEAA JUMP JUMPDEST CALLVALUE PUSH2 0x1D2 JUMPI PUSH1 0x20 CALLDATASIZE PUSH1 0x3 NOT ADD SLT PUSH2 0x1D2 JUMPI PUSH1 0x4 CALLDATALOAD PUSH2 0xF3C PUSH2 0x1AB4 JUMP JUMPDEST DUP1 PUSH1 0x0 MSTORE PUSH1 0x2 PUSH1 0x20 MSTORE PUSH1 0x40 PUSH1 0x0 KECCAK256 PUSH1 0x6 DUP2 ADD SWAP1 PUSH1 0xFF DUP3 SLOAD AND PUSH1 0x3 DUP2 LT ISZERO PUSH2 0xD66 JUMPI PUSH2 0xFB4 JUMPI PUSH1 0x9 SWAP2 PUSH1 0x2 PUSH1 0xFF NOT DUP3 SLOAD AND OR SWAP1 SSTORE ADD PUSH1 0x1 PUSH1 0xFF NOT DUP3 SLOAD AND OR SWAP1 SSTORE PUSH2 0xF84 DUP2 PUSH2 0x1AF4 JUMP JUMPDEST PUSH2 0xF8D DUP2 PUSH2 0x160B JUMP JUMPDEST PUSH32 0xE3906E8D1E2167EF706B023E6E83AF697DB5CD38F233C71BF5021B26B316C3A2 PUSH1 0x0 DUP1 LOG2 STOP JUMPDEST PUSH4 0x5D09E5F PUSH1 0xE0 SHL PUSH1 0x0 MSTORE PUSH1 0x4 PUSH1 0x0 REVERT JUMPDEST CALLVALUE PUSH2 0x1D2 JUMPI PUSH1 0x0 CALLDATASIZE PUSH1 0x3 NOT ADD SLT PUSH2 0x1D2 JUMPI PUSH1 0x40 MLOAD PUSH1 0x5 SLOAD DUP1 DUP3 MSTORE PUSH1 0x20 DUP3 ADD SWAP1 PUSH1 0x5 PUSH1 0x0 MSTORE PUSH1 0x20 PUSH1 0x0 KECCAK256 SWAP1 PUSH1 0x0 JUMPDEST DUP2 DUP2 LT PUSH2 0x1009 JUMPI PUSH2 0x409 DUP6 PUSH2 0x3F5 DUP2 DUP8 SUB DUP3 PUSH2 0x139F JUMP JUMPDEST DUP3 SLOAD DUP5 MSTORE PUSH1 0x20 SWAP1 SWAP4 ADD SWAP3 PUSH1 0x1 SWAP3 DUP4 ADD SWAP3 ADD PUSH2 0xFF2 JUMP JUMPDEST CALLVALUE PUSH2 0x1D2 JUMPI PUSH1 0x20 CALLDATASIZE PUSH1 0x3 NOT ADD SLT PUSH2 0x1D2 JUMPI PUSH1 0x4 CALLDATALOAD PUSH1 0x0 MSTORE PUSH1 0x2 PUSH1 0x20 MSTORE PUSH1 0x40 PUSH1 0x0 KECCAK256 DUP1 SLOAD PUSH1 0x1 DUP3 ADD PUSH2 0x104F SWAP1 PUSH2 0x13C1 JUMP JUMPDEST SWAP2 PUSH2 0x105C PUSH1 0x2 DUP3 ADD PUSH2 0x13C1 JUMP JUMPDEST PUSH1 0x3 DUP3 ADD SLOAD PUSH1 0xFF AND SWAP2 PUSH1 0x4 DUP2 ADD SLOAD PUSH1 0x5 DUP3 ADD SLOAD PUSH1 0x6 DUP4 ADD SLOAD PUSH1 0xFF AND PUSH1 0x7 DUP5 ADD SLOAD SWAP1 PUSH1 0x9 DUP6 ADD SLOAD PUSH1 0xFF AND SWAP3 PUSH1 0xB DUP7 ADD SLOAD SWAP5 PUSH1 0xC DUP8 ADD SLOAD SWAP7 PUSH1 0xD ADD SLOAD SWAP8 PUSH1 0x40 MLOAD SWAP12 DUP13 SWAP12 DUP13 MSTORE PUSH1 0x20 DUP13 ADD PUSH2 0x180 SWAP1 MSTORE PUSH2 0x180 DUP13 ADD PUSH2 0x10B6 SWAP2 PUSH2 0x1465 JUMP JUMPDEST DUP12 DUP2 SUB PUSH1 0x40 DUP14 ADD MSTORE PUSH2 0x10C7 SWAP2 PUSH2 0x1465 JUMP JUMPDEST SWAP9 PUSH1 0x60 DUP12 ADD PUSH2 0x10D5 SWAP2 PUSH2 0x14A6 JUMP JUMPDEST PUSH1 0x80 DUP11 ADD MSTORE PUSH1 0xA0 DUP10 ADD MSTORE PUSH1 0xC0 DUP9 ADD PUSH2 0x10EC SWAP2 PUSH2 0x14B3 JUMP JUMPDEST PUSH1 0xE0 DUP8 ADD MSTORE ISZERO ISZERO PUSH2 0x100 DUP7 ADD MSTORE PUSH2 0x120 DUP6 ADD MSTORE PUSH2 0x140 DUP5 ADD MSTORE PUSH2 0x160 DUP4 ADD MSTORE SUB SWAP1 RETURN JUMPDEST CALLVALUE PUSH2 0x1D2 JUMPI PUSH1 0x20 CALLDATASIZE PUSH1 0x3 NOT ADD SLT PUSH2 0x1D2 JUMPI PUSH1 0x4 CALLDATALOAD PUSH1 0x0 MSTORE PUSH1 0x2 PUSH1 0x20 MSTORE PUSH1 0xA PUSH1 0x40 PUSH1 0x0 KECCAK256 ADD DUP1 SLOAD PUSH2 0x113E DUP2 PUSH2 0x15A9 JUMP JUMPDEST SWAP2 PUSH1 0x0 JUMPDEST DUP3 DUP2 LT PUSH2 0x115F JUMPI PUSH1 0x40 MLOAD PUSH1 0x20 DUP1 DUP3 MSTORE DUP2 SWAP1 PUSH2 0x409 SWAP1 DUP3 ADD DUP8 PUSH2 0x1331 JUMP JUMPDEST DUP1 PUSH1 0x1 PUSH2 0x116D DUP2 SWAP4 DUP6 PUSH2 0x15DB JUMP JUMPDEST POP ADD SLOAD PUSH2 0x117A DUP3 DUP8 PUSH2 0x15F7 JUMP JUMPDEST MSTORE ADD PUSH2 0x1142 JUMP JUMPDEST CALLVALUE PUSH2 0x1D2 JUMPI PUSH1 0x0 CALLDATASIZE PUSH1 0x3 NOT ADD SLT PUSH2 0x1D2 JUMPI PUSH1 0x40 MLOAD PUSH32 0x0 PUSH1 0x1 PUSH1 0x1 PUSH1 0xA0 SHL SUB AND DUP2 MSTORE PUSH1 0x20 SWAP1 RETURN JUMPDEST CALLVALUE PUSH2 0x1D2 JUMPI PUSH2 0x11D4 CALLDATASIZE PUSH2 0x131B JUMP JUMPDEST SWAP1 PUSH2 0x11DD PUSH2 0x1AB4 JUMP JUMPDEST DUP1 PUSH1 0x0 MSTORE PUSH1 0x2 PUSH1 0x20 MSTORE PUSH1 0x40 PUSH1 0x0 KECCAK256 SWAP2 PUSH1 0x6 DUP4 ADD PUSH1 0xFF DUP2 SLOAD AND PUSH1 0x3 DUP2 LT ISZERO PUSH2 0xD66 JUMPI PUSH2 0xFB4 JUMPI DUP2 PUSH1 0x5 DUP6 ADD SSTORE PUSH1 0x1 PUSH1 0xFF NOT DUP3 SLOAD AND OR SWAP1 SSTORE PUSH2 0x121C DUP3 PUSH2 0x1AF4 JUMP JUMPDEST PUSH2 0x1225 DUP3 PUSH2 0x160B JUMP JUMPDEST PUSH2 0x122F DUP2 DUP4 PUSH2 0x1BD9 JUMP JUMPDEST SWAP1 PUSH1 0x8 DUP5 ADD SWAP4 DUP3 MLOAD PUSH8 0xFFFFFFFFFFFFFFFF DUP2 GT PUSH2 0x746 JUMPI PUSH1 0x1 PUSH1 0x40 SHL DUP2 GT PUSH2 0x746 JUMPI DUP6 SLOAD DUP2 DUP8 SSTORE DUP1 DUP3 LT PUSH2 0x12FD JUMPI JUMPDEST POP PUSH1 0x20 DUP5 ADD SWAP6 PUSH1 0x0 MSTORE PUSH1 0x20 PUSH1 0x0 KECCAK256 SWAP6 PUSH1 0x0 JUMPDEST DUP3 DUP2 LT PUSH2 0x12E9 JUMPI DUP7 PUSH32 0xDF87C3DD2376D585C2B92555576F9851CB972FEA40376668E9EB8E7CEC82E6F1 DUP8 DUP8 PUSH1 0x7 DUP9 PUSH1 0x1 PUSH1 0xA DUP3 ADD SLOAD GT ISZERO PUSH2 0x12D5 JUMPI JUMPDEST ADD SLOAD PUSH2 0x12CA PUSH1 0x40 MLOAD SWAP4 DUP5 SWAP4 DUP5 MSTORE PUSH1 0x60 PUSH1 0x20 DUP6 ADD MSTORE PUSH1 0x60 DUP5 ADD SWAP1 PUSH2 0x1331 JUMP JUMPDEST SWAP1 PUSH1 0x40 DUP4 ADD MSTORE SUB SWAP1 LOG2 STOP JUMPDEST PUSH1 0x9 DUP2 ADD DUP1 SLOAD PUSH1 0xFF NOT AND PUSH1 0x1 OR SWAP1 SSTORE PUSH2 0x12AC JUMP JUMPDEST PUSH1 0x1 SWAP1 PUSH1 0x20 DUP4 MLOAD SWAP4 ADD SWAP3 DUP2 DUP11 ADD SSTORE ADD PUSH2 0x1270 JUMP JUMPDEST PUSH2 0x1315 SWAP1 DUP8 PUSH1 0x0 MSTORE DUP3 PUSH1 0x20 PUSH1 0x0 KECCAK256 SWAP2 DUP3 ADD SWAP2 ADD PUSH2 0x1ADD JUMP JUMPDEST DUP7 PUSH2 0x125E JUMP JUMPDEST PUSH1 0x40 SWAP1 PUSH1 0x3 NOT ADD SLT PUSH2 0x1D2 JUMPI PUSH1 0x4 CALLDATALOAD SWAP1 PUSH1 0x24 CALLDATALOAD SWAP1 JUMP JUMPDEST SWAP1 PUSH1 0x20 DUP1 DUP4 MLOAD SWAP3 DUP4 DUP2 MSTORE ADD SWAP3 ADD SWAP1 PUSH1 0x0 JUMPDEST DUP2 DUP2 LT PUSH2 0x134F JUMPI POP POP POP SWAP1 JUMP JUMPDEST DUP3 MLOAD DUP5 MSTORE PUSH1 0x20 SWAP4 DUP5 ADD SWAP4 SWAP1 SWAP3 ADD SWAP2 PUSH1 0x1 ADD PUSH2 0x1342 JUMP JUMPDEST SWAP1 PUSH1 0x1 DUP3 DUP2 SHR SWAP3 AND DUP1 ISZERO PUSH2 0x1395 JUMPI JUMPDEST PUSH1 0x20 DUP4 LT EQ PUSH2 0x137F JUMPI JUMP JUMPDEST PUSH4 0x4E487B71 PUSH1 0xE0 SHL PUSH1 0x0 MSTORE PUSH1 0x22 PUSH1 0x4 MSTORE PUSH1 0x24 PUSH1 0x0 REVERT JUMPDEST SWAP2 PUSH1 0x7F AND SWAP2 PUSH2 0x1374 JUMP JUMPDEST SWAP1 PUSH1 0x1F DUP1 NOT SWAP2 ADD AND DUP2 ADD SWAP1 DUP2 LT PUSH8 0xFFFFFFFFFFFFFFFF DUP3 GT OR PUSH2 0x746 JUMPI PUSH1 0x40 MSTORE JUMP JUMPDEST SWAP1 PUSH1 0x40 MLOAD SWAP2 DUP3 PUSH1 0x0 DUP3 SLOAD SWAP3 PUSH2 0x13D5 DUP5 PUSH2 0x1365 JUMP JUMPDEST DUP1 DUP5 MSTORE SWAP4 PUSH1 0x1 DUP2 AND SWAP1 DUP2 ISZERO PUSH2 0x1443 JUMPI POP PUSH1 0x1 EQ PUSH2 0x13FC JUMPI JUMPDEST POP PUSH2 0x13FA SWAP3 POP SUB DUP4 PUSH2 0x139F JUMP JUMPDEST JUMP JUMPDEST SWAP1 POP PUSH1 0x0 SWAP3 SWAP2 SWAP3 MSTORE PUSH1 0x20 PUSH1 0x0 KECCAK256 SWAP1 PUSH1 0x0 SWAP2 JUMPDEST DUP2 DUP4 LT PUSH2 0x1427 JUMPI POP POP SWAP1 PUSH1 0x20 PUSH2 0x13FA SWAP3 DUP3 ADD ADD CODESIZE PUSH2 0x13ED JUMP JUMPDEST PUSH1 0x20 SWAP2 SWAP4 POP DUP1 PUSH1 0x1 SWAP2 SLOAD DUP4 DUP6 DUP10 ADD ADD MSTORE ADD SWAP2 ADD SWAP1 SWAP2 DUP5 SWAP3 PUSH2 0x140E JUMP JUMPDEST SWAP1 POP PUSH1 0x20 SWAP3 POP PUSH2 0x13FA SWAP5 SWAP2 POP PUSH1 0xFF NOT AND DUP3 DUP5 ADD MSTORE ISZERO ISZERO PUSH1 0x5 SHL DUP3 ADD ADD CODESIZE PUSH2 0x13ED JUMP JUMPDEST SWAP2 SWAP1 DUP3 MLOAD SWAP3 DUP4 DUP3 MSTORE PUSH1 0x0 JUMPDEST DUP5 DUP2 LT PUSH2 0x1491 JUMPI POP POP DUP3 PUSH1 0x0 PUSH1 0x20 DUP1 SWAP5 SWAP6 DUP5 ADD ADD MSTORE PUSH1 0x1F DUP1 NOT SWAP2 ADD AND ADD ADD SWAP1 JUMP JUMPDEST DUP1 PUSH1 0x20 DUP1 SWAP3 DUP5 ADD ADD MLOAD DUP3 DUP3 DUP7 ADD ADD MSTORE ADD PUSH2 0x1470 JUMP JUMPDEST SWAP1 PUSH1 0x2 DUP3 LT ISZERO PUSH2 0xD66 JUMPI MSTORE JUMP JUMPDEST SWAP1 PUSH1 0x3 DUP3 LT ISZERO PUSH2 0xD66 JUMPI MSTORE JUMP JUMPDEST PUSH1 0x5 SLOAD DUP2 LT ISZERO PUSH2 0x14DB JUMPI PUSH1 0x5 PUSH1 0x0 MSTORE PUSH1 0x20 PUSH1 0x0 KECCAK256 ADD SWAP1 PUSH1 0x0 SWAP1 JUMP JUMPDEST PUSH4 0x4E487B71 PUSH1 0xE0 SHL PUSH1 0x0 MSTORE PUSH1 0x32 PUSH1 0x4 MSTORE PUSH1 0x24 PUSH1 0x0 REVERT JUMPDEST PUSH1 0x4 SLOAD DUP2 LT ISZERO PUSH2 0x14DB JUMPI PUSH1 0x4 PUSH1 0x0 MSTORE PUSH1 0x20 PUSH1 0x0 KECCAK256 ADD SWAP1 PUSH1 0x0 SWAP1 JUMP JUMPDEST DUP1 SLOAD DUP3 LT ISZERO PUSH2 0x14DB JUMPI PUSH1 0x0 MSTORE PUSH1 0x20 PUSH1 0x0 KECCAK256 ADD SWAP1 PUSH1 0x0 SWAP1 JUMP JUMPDEST PUSH1 0x24 CALLDATALOAD SWAP1 PUSH1 0x1 PUSH1 0x1 PUSH1 0xA0 SHL SUB DUP3 AND DUP3 SUB PUSH2 0x1D2 JUMPI JUMP JUMPDEST DUP2 PUSH1 0x1F DUP3 ADD SLT ISZERO PUSH2 0x1D2 JUMPI DUP1 CALLDATALOAD SWAP1 PUSH8 0xFFFFFFFFFFFFFFFF DUP3 GT PUSH2 0x746 JUMPI PUSH1 0x40 MLOAD SWAP3 PUSH2 0x156F PUSH1 0x1F DUP5 ADD PUSH1 0x1F NOT AND PUSH1 0x20 ADD DUP6 PUSH2 0x139F JUMP JUMPDEST DUP3 DUP5 MSTORE PUSH1 0x20 DUP4 DUP4 ADD ADD GT PUSH2 0x1D2 JUMPI DUP2 PUSH1 0x0 SWAP3 PUSH1 0x20 DUP1 SWAP4 ADD DUP4 DUP7 ADD CALLDATACOPY DUP4 ADD ADD MSTORE SWAP1 JUMP JUMPDEST PUSH8 0xFFFFFFFFFFFFFFFF DUP2 GT PUSH2 0x746 JUMPI PUSH1 0x5 SHL PUSH1 0x20 ADD SWAP1 JUMP JUMPDEST SWAP1 PUSH2 0x15B3 DUP3 PUSH2 0x1591 JUMP JUMPDEST PUSH2 0x15C0 PUSH1 0x40 MLOAD SWAP2 DUP3 PUSH2 0x139F JUMP JUMPDEST DUP3 DUP2 MSTORE DUP1 SWAP3 PUSH2 0x15D1 PUSH1 0x1F NOT SWAP2 PUSH2 0x1591 JUMP JUMPDEST ADD SWAP1 PUSH1 0x20 CALLDATASIZE SWAP2 ADD CALLDATACOPY JUMP JUMPDEST DUP1 SLOAD DUP3 LT ISZERO PUSH2 0x14DB JUMPI PUSH1 0x0 MSTORE PUSH1 0x3 PUSH1 0x20 PUSH1 0x0 KECCAK256 SWAP2 MUL ADD SWAP1 PUSH1 0x0 SWAP1 JUMP JUMPDEST DUP1 MLOAD DUP3 LT ISZERO PUSH2 0x14DB JUMPI PUSH1 0x20 SWAP2 PUSH1 0x5 SHL ADD ADD SWAP1 JUMP JUMPDEST PUSH1 0x5 SLOAD SWAP1 PUSH1 0x1 PUSH1 0x40 SHL DUP3 LT ISZERO PUSH2 0x746 JUMPI PUSH2 0x610 DUP3 PUSH1 0x1 PUSH2 0x13FA SWAP5 ADD PUSH1 0x5 SSTORE PUSH1 0x5 PUSH2 0x150C JUMP JUMPDEST SWAP2 SWAP1 DUP3 ADD DUP1 SWAP3 GT PUSH2 0xDB4 JUMPI JUMP JUMPDEST SWAP2 SWAP1 DUP3 SUB SWAP2 DUP3 GT PUSH2 0xDB4 JUMPI JUMP JUMPDEST PUSH1 0x0 MSTORE PUSH1 0x2 PUSH1 0x20 MSTORE PUSH1 0x40 PUSH1 0x0 KECCAK256 PUSH1 0xFF PUSH1 0x6 DUP3 ADD SLOAD AND PUSH1 0x3 DUP2 LT ISZERO PUSH2 0xD66 JUMPI PUSH2 0x169F JUMPI PUSH1 0xD ADD SLOAD DUP1 ISZERO ISZERO SWAP1 DUP2 PUSH2 0x1689 JUMPI JUMPDEST POP PUSH2 0x1684 JUMPI PUSH1 0x1 SWAP1 JUMP JUMPDEST PUSH1 0x0 SWAP1 JUMP JUMPDEST PUSH1 0x3B NOT DUP2 ADD SWAP2 POP DUP2 GT PUSH2 0xDB4 JUMPI TIMESTAMP LT ISZERO CODESIZE PUSH2 0x167A JUMP JUMPDEST POP PUSH1 0x0 SWAP1 JUMP JUMPDEST DUP1 PUSH1 0x0 MSTORE PUSH1 0x2 PUSH1 0x20 MSTORE PUSH1 0x40 PUSH1 0x0 KECCAK256 SWAP1 PUSH1 0xFF PUSH1 0x6 DUP4 ADD SLOAD AND PUSH1 0x3 DUP2 LT ISZERO PUSH2 0xD66 JUMPI PUSH1 0x1 DUP2 EQ ISZERO SWAP1 DUP2 PUSH2 0x19F1 JUMPI JUMPDEST POP PUSH2 0x19E0 JUMPI PUSH1 0xFF PUSH1 0x9 DUP4 ADD SLOAD AND PUSH2 0x1895 JUMPI PUSH1 0x0 DUP1 PUSH1 0x0 PUSH1 0xA DUP6 ADD SWAP1 DUP2 SLOAD SWAP1 JUMPDEST DUP2 DUP2 LT PUSH2 0x1867 JUMPI JUMPDEST POP POP PUSH1 0x0 SWAP3 PUSH1 0x8 DUP7 ADD SWAP4 DUP5 SLOAD SWAP1 JUMPDEST DUP2 DUP2 LT PUSH2 0x183C JUMPI JUMPDEST POP POP ISZERO DUP1 ISZERO PUSH2 0x1824 JUMPI JUMPDEST PUSH2 0x1813 JUMPI PUSH1 0x2 SWAP2 PUSH2 0x1728 SWAP2 PUSH2 0x15DB JUMP JUMPDEST POP ADD PUSH1 0x1 PUSH1 0xFF NOT DUP3 SLOAD AND OR SWAP1 SSTORE PUSH1 0x7 DUP4 ADD SLOAD PUSH1 0x5 DUP2 MUL SWAP1 DUP1 DUP3 DIV PUSH1 0x5 EQ DUP2 ISZERO OR ISZERO PUSH2 0xDB4 JUMPI PUSH1 0x64 PUSH2 0x175A SWAP3 DIV SWAP1 PUSH2 0x163D JUMP JUMPDEST SWAP1 SLOAD SWAP1 PUSH1 0x0 DUP3 ISZERO PUSH2 0x17FF JUMPI POP PUSH1 0xFF SWAP2 PUSH1 0x3 SWAP2 DIV SWAP4 ADD SLOAD AND PUSH1 0x2 DUP2 LT ISZERO PUSH2 0xD66 JUMPI PUSH2 0x17CF JUMPI DUP2 PUSH1 0x0 DUP2 ISZERO PUSH2 0x17C6 JUMPI JUMPDEST PUSH1 0x0 DUP1 DUP1 SWAP4 DUP2 SWAP4 CALLER SWAP1 CALL ISZERO PUSH2 0xD49 JUMPI JUMPDEST PUSH1 0x40 MLOAD SWAP2 DUP3 MSTORE PUSH32 0x4AA95F981A8337CB337DE335B965507DA0879C3B49F799D20058E913F5AD2C26 PUSH1 0x20 CALLER SWAP4 LOG3 JUMP JUMPDEST POP PUSH2 0x8FC PUSH2 0x1788 JUMP JUMPDEST PUSH2 0x17FA DUP3 CALLER PUSH32 0x0 PUSH2 0x1B8F JUMP JUMPDEST PUSH2 0x1798 JUMP JUMPDEST PUSH4 0x4E487B71 PUSH1 0xE0 SHL DUP2 MSTORE PUSH1 0x12 PUSH1 0x4 MSTORE PUSH1 0x24 SWAP1 REVERT JUMPDEST PUSH4 0x316B3F89 PUSH1 0xE1 SHL PUSH1 0x0 MSTORE PUSH1 0x4 PUSH1 0x0 REVERT JUMPDEST POP PUSH1 0xFF PUSH1 0x2 PUSH2 0x1833 DUP5 DUP5 PUSH2 0x15DB JUMP JUMPDEST POP ADD SLOAD AND PUSH2 0x1718 JUMP JUMPDEST DUP5 PUSH2 0x1847 DUP3 DUP9 PUSH2 0x150C JUMP JUMPDEST SWAP1 SLOAD SWAP1 PUSH1 0x3 SHL SHR EQ PUSH2 0x185B JUMPI PUSH1 0x1 ADD PUSH2 0x1706 JUMP JUMPDEST POP POP POP PUSH1 0x1 CODESIZE DUP1 PUSH2 0x170E JUMP JUMPDEST PUSH2 0x1871 DUP2 DUP5 PUSH2 0x15DB JUMP JUMPDEST POP SLOAD PUSH1 0x1 PUSH1 0x1 PUSH1 0xA0 SHL SUB AND CALLER EQ PUSH2 0x188A JUMPI PUSH1 0x1 ADD PUSH2 0x16F0 JUMP JUMPDEST SWAP3 POP CODESIZE SWAP1 POP DUP1 PUSH2 0x16F8 JUMP JUMPDEST DUP1 SWAP2 POP PUSH1 0x0 MSTORE PUSH1 0x2 PUSH1 0x20 MSTORE PUSH1 0x40 PUSH1 0x0 KECCAK256 PUSH1 0x0 NOT PUSH1 0x0 PUSH1 0xA DUP4 ADD SWAP1 DUP2 SLOAD SWAP1 JUMPDEST DUP2 DUP2 LT PUSH2 0x19B2 JUMPI JUMPDEST POP POP PUSH1 0x0 NOT DUP3 EQ DUP1 ISZERO PUSH2 0x199A JUMPI JUMPDEST PUSH2 0x1989 JUMPI PUSH1 0x2 SWAP2 PUSH2 0x18D9 SWAP2 PUSH2 0x15DB JUMP JUMPDEST POP ADD DUP1 SLOAD PUSH1 0xFF NOT AND PUSH1 0x1 OR SWAP1 SSTORE PUSH1 0x3 DUP2 ADD SLOAD PUSH1 0xFF AND PUSH1 0x2 DUP2 LT ISZERO PUSH2 0xD66 JUMPI PUSH2 0x1953 JUMPI PUSH1 0x0 DUP1 DUP1 DUP1 PUSH1 0x4 DUP6 ADD SLOAD DUP2 DUP2 ISZERO PUSH2 0x194A JUMPI JUMPDEST CALLER SWAP1 CALL ISZERO PUSH2 0xD49 JUMPI PUSH1 0x4 SWAP1 JUMPDEST ADD SLOAD SWAP1 PUSH1 0x40 MLOAD SWAP2 DUP3 MSTORE PUSH32 0xF3F402280EF0A7905E124AA621B65EAEB2725C343E8B36D398ED78C29DAF285C PUSH1 0x20 CALLER SWAP4 LOG3 JUMP JUMPDEST POP PUSH2 0x8FC PUSH2 0x190D JUMP JUMPDEST DUP1 PUSH2 0x1984 PUSH1 0x4 DUP1 SWAP4 ADD SLOAD CALLER PUSH32 0x0 PUSH2 0x1B8F JUMP JUMPDEST PUSH2 0x1919 JUMP JUMPDEST PUSH4 0xE49C14CB PUSH1 0xE0 SHL PUSH1 0x0 MSTORE PUSH1 0x4 PUSH1 0x0 REVERT JUMPDEST POP PUSH1 0xFF PUSH1 0x2 PUSH2 0x19A9 DUP5 DUP5 PUSH2 0x15DB JUMP JUMPDEST POP ADD SLOAD AND PUSH2 0x18C9 JUMP JUMPDEST PUSH2 0x19BC DUP2 DUP5 PUSH2 0x15DB JUMP JUMPDEST POP SLOAD PUSH1 0x1 PUSH1 0x1 PUSH1 0xA0 SHL SUB AND CALLER EQ PUSH2 0x19D5 JUMPI PUSH1 0x1 ADD PUSH2 0x18B3 JUMP JUMPDEST SWAP3 POP CODESIZE SWAP1 POP DUP1 PUSH2 0x18BB JUMP JUMPDEST PUSH4 0x616E4DC1 PUSH1 0xE0 SHL PUSH1 0x0 MSTORE PUSH1 0x4 PUSH1 0x0 REVERT JUMPDEST PUSH1 0x2 SWAP2 POP EQ ISZERO CODESIZE PUSH2 0x16D1 JUMP JUMPDEST SWAP2 SWAP1 SWAP2 PUSH1 0x0 MSTORE PUSH1 0x2 PUSH1 0x20 MSTORE PUSH1 0x40 PUSH1 0x0 KECCAK256 SWAP1 PUSH1 0xA PUSH1 0x0 SWAP3 ADD SWAP3 DUP4 SLOAD SWAP3 JUMPDEST DUP4 DUP2 LT PUSH2 0x1A65 JUMPI PUSH1 0x40 MLOAD PUSH3 0x461BCD PUSH1 0xE5 SHL DUP2 MSTORE PUSH1 0x20 PUSH1 0x4 DUP3 ADD MSTORE PUSH1 0x1F PUSH1 0x24 DUP3 ADD MSTORE PUSH32 0x506C6179657220686173206E6F7420626574206F6E20746869732067616D6500 PUSH1 0x44 DUP3 ADD MSTORE PUSH1 0x64 SWAP1 REVERT JUMPDEST PUSH2 0x1A6F DUP2 DUP7 PUSH2 0x15DB JUMP JUMPDEST POP SLOAD PUSH1 0x1 PUSH1 0x1 PUSH1 0xA0 SHL SUB DUP4 DUP2 AND SWAP2 AND EQ PUSH2 0x1A8B JUMPI PUSH1 0x1 ADD PUSH2 0x1A19 JUMP JUMPDEST PUSH1 0xFF SWAP3 SWAP4 POP PUSH1 0x2 SWAP2 POP DUP1 PUSH1 0x1 PUSH2 0x1AA4 PUSH2 0x1AAD SWAP4 DUP9 PUSH2 0x15DB JUMP JUMPDEST POP ADD SLOAD SWAP6 PUSH2 0x15DB JUMP JUMPDEST POP ADD SLOAD AND SWAP1 JUMP JUMPDEST PUSH1 0x0 SLOAD PUSH1 0x1 PUSH1 0x1 PUSH1 0xA0 SHL SUB AND CALLER SUB PUSH2 0x1AC8 JUMPI JUMP JUMPDEST PUSH4 0x118CDAA7 PUSH1 0xE0 SHL PUSH1 0x0 MSTORE CALLER PUSH1 0x4 MSTORE PUSH1 0x24 PUSH1 0x0 REVERT JUMPDEST DUP2 DUP2 LT PUSH2 0x1AE8 JUMPI POP POP JUMP JUMPDEST PUSH1 0x0 DUP2 SSTORE PUSH1 0x1 ADD PUSH2 0x1ADD JUMP JUMPDEST PUSH1 0x0 JUMPDEST PUSH1 0x4 SLOAD DUP1 DUP3 LT ISZERO PUSH2 0x1B8A JUMPI DUP3 PUSH2 0x1B0C DUP4 PUSH2 0x14F1 JUMP JUMPDEST SWAP1 SLOAD SWAP1 PUSH1 0x3 SHL SHR EQ PUSH2 0x1B21 JUMPI POP PUSH1 0x1 ADD PUSH2 0x1AF7 JUMP JUMPDEST PUSH1 0x0 NOT DUP2 ADD SWAP3 POP DUP3 GT PUSH2 0xDB4 JUMPI PUSH2 0x610 PUSH2 0x1B3D PUSH2 0x1B4A SWAP4 PUSH2 0x14F1 JUMP JUMPDEST SWAP1 SLOAD SWAP1 PUSH1 0x3 SHL SHR SWAP2 PUSH2 0x14F1 JUMP JUMPDEST PUSH1 0x4 SLOAD DUP1 ISZERO PUSH2 0x1B74 JUMPI PUSH1 0x0 NOT ADD PUSH2 0x1B60 DUP2 PUSH2 0x14F1 JUMP JUMPDEST DUP2 SLOAD SWAP1 PUSH1 0x0 NOT SWAP1 PUSH1 0x3 SHL SHL NOT AND SWAP1 SSTORE PUSH1 0x4 SSTORE JUMP JUMPDEST PUSH4 0x4E487B71 PUSH1 0xE0 SHL PUSH1 0x0 MSTORE PUSH1 0x31 PUSH1 0x4 MSTORE PUSH1 0x24 PUSH1 0x0 REVERT JUMPDEST POP POP POP JUMP JUMPDEST PUSH1 0x40 MLOAD PUSH4 0xA9059CBB PUSH1 0xE0 SHL PUSH1 0x20 DUP3 ADD MSTORE PUSH1 0x1 PUSH1 0x1 PUSH1 0xA0 SHL SUB SWAP1 SWAP3 AND PUSH1 0x24 DUP4 ADD MSTORE PUSH1 0x44 DUP1 DUP4 ADD SWAP4 SWAP1 SWAP4 MSTORE SWAP2 DUP2 MSTORE PUSH2 0x13FA SWAP2 PUSH2 0xCFC PUSH1 0x64 DUP4 PUSH2 0x139F JUMP JUMPDEST PUSH1 0x0 NOT DUP2 EQ PUSH2 0xDB4 JUMPI PUSH1 0x1 ADD SWAP1 JUMP JUMPDEST PUSH1 0x0 MSTORE PUSH1 0x2 PUSH1 0x20 MSTORE PUSH1 0xA PUSH1 0x40 PUSH1 0x0 KECCAK256 ADD DUP1 SLOAD SWAP1 DUP2 ISZERO PUSH2 0x1CB7 JUMPI PUSH1 0x0 NOT PUSH1 0x0 DUP1 JUMPDEST DUP5 DUP2 LT PUSH2 0x1C68 JUMPI POP PUSH2 0x1C0A SWAP1 PUSH2 0x15A9 JUMP JUMPDEST SWAP4 PUSH1 0x0 SWAP3 PUSH1 0x0 JUMPDEST DUP6 DUP2 LT PUSH2 0x1C21 JUMPI POP POP POP POP POP POP SWAP1 JUMP JUMPDEST DUP4 PUSH2 0x1C3A DUP5 PUSH1 0x1 PUSH2 0x1C32 DUP6 DUP8 PUSH2 0x15DB JUMP JUMPDEST POP ADD SLOAD PUSH2 0x1D2F JUMP JUMPDEST EQ PUSH2 0x1C48 JUMPI JUMPDEST PUSH1 0x1 ADD PUSH2 0x1C11 JUMP JUMPDEST SWAP4 PUSH2 0x1C60 DUP2 DUP7 PUSH2 0x1C5A PUSH1 0x1 SWAP5 DUP12 PUSH2 0x15F7 JUMP JUMPDEST MSTORE PUSH2 0x1BCA JUMP JUMPDEST SWAP5 SWAP1 POP PUSH2 0x1C40 JUMP JUMPDEST SWAP2 PUSH2 0x1C79 DUP7 PUSH1 0x1 PUSH2 0x1C32 DUP7 DUP9 PUSH2 0x15DB JUMP JUMPDEST SWAP2 DUP2 DUP4 LT ISZERO PUSH2 0x1C90 JUMPI POP POP SWAP1 PUSH1 0x1 DUP1 SWAP2 JUMPDEST ADD PUSH2 0x1BF9 JUMP JUMPDEST SWAP2 SWAP1 DUP1 SWAP4 SWAP2 EQ PUSH2 0x1CA3 JUMPI JUMPDEST PUSH1 0x1 SWAP1 PUSH2 0x1C8A JUMP JUMPDEST SWAP1 PUSH2 0x1CAF PUSH1 0x1 SWAP2 PUSH2 0x1BCA JUMP JUMPDEST SWAP2 SWAP1 POP PUSH2 0x1C9B JUMP JUMPDEST POP POP POP PUSH1 0x40 MLOAD PUSH2 0x1CC8 PUSH1 0x20 DUP3 PUSH2 0x139F JUMP JUMPDEST PUSH1 0x0 DUP2 MSTORE PUSH1 0x0 CALLDATASIZE DUP2 CALLDATACOPY SWAP1 JUMP JUMPDEST SWAP1 PUSH1 0x0 PUSH1 0x20 SWAP2 DUP3 DUP2 MLOAD SWAP2 ADD DUP3 DUP6 GAS CALL ISZERO PUSH2 0xD49 JUMPI PUSH1 0x0 MLOAD RETURNDATASIZE PUSH2 0x1D26 JUMPI POP PUSH1 0x1 PUSH1 0x1 PUSH1 0xA0 SHL SUB DUP2 AND EXTCODESIZE ISZERO JUMPDEST PUSH2 0x1D05 JUMPI POP JUMP JUMPDEST PUSH4 0x5274AFE7 PUSH1 0xE0 SHL PUSH1 0x0 SWAP1 DUP2 MSTORE PUSH1 0x1 PUSH1 0x1 PUSH1 0xA0 SHL SUB SWAP2 SWAP1 SWAP2 AND PUSH1 0x4 MSTORE PUSH1 0x24 SWAP1 REVERT JUMPDEST PUSH1 0x1 EQ ISZERO PUSH2 0x1CFE JUMP JUMPDEST DUP2 DUP2 GT ISZERO PUSH2 0x1D44 JUMPI SWAP1 PUSH2 0x1D41 SWAP2 PUSH2 0x163D JUMP JUMPDEST SWAP1 JUMP JUMPDEST PUSH2 0x1D41 SWAP2 PUSH2 0x163D JUMP INVALID LOG2 PUSH5 0x6970667358 0x22 SLT KECCAK256 0xA7 0xAC 0xC0 0xC0 SELFBALANCE 0x22 POP 0xE 0x21 CREATE SHR 0xC7 0xD7 DUP5 SHR PC PUSH21 0xD0C0182BD93ACE1934F369943C1B4364736F6C6343 STOP ADDMOD SHR STOP CALLER "
        },
        "methodIdentifiers": {
          "BETTING_CUTOFF_PERIOD()": "cae4ffbb",
          "BET_DURATION()": "e53d4c2d",
          "OWNER_FEE_PERCENT()": "a8a3221e",
          "activeBetIds(uint256)": "5195d612",
          "bets(uint256)": "22af00fa",
          "cancelBet(uint256)": "357401f5",
          "claimPrize(uint256)": "d7098154",
          "createBet(string,string,uint8,uint256,uint256,uint256)": "c2f48eff",
          "getActiveBets()": "ada73020",
          "getBetInfo(uint256)": "79141f80",
          "getBetPlayerGuesses(uint256)": "1ca206d2",
          "getBetPlayers(uint256)": "ca8bcf39",
          "getBetPot(uint256)": "d8bf8974",
          "getBetWinnerIndices(uint256)": "c303b902",
          "getPlayerBet(uint256,address)": "dd99717d",
          "getSettledBets()": "27baedd5",
          "hasPlayerBet(uint256,address)": "589f2410",
          "isBettingActive(uint256)": "a4cd5c43",
          "nextBetId()": "9aca2792",
          "owner()": "8da5cb5b",
          "placeBet(uint256,uint256)": "4afe62b5",
          "renounceOwnership()": "715018a6",
          "settleBet(uint256,uint256)": "0d2cbe13",
          "settledBetIds(uint256)": "ddd70709",
          "transferOwnership(address)": "f2fde38b",
          "usdcToken()": "11eac855",
          "withdrawFees()": "476343ee"
        }
      }
    }
  }
}