{
  "contracts/ChainChaos.sol": {
    "ChainChaos": {
      "abi": [
        {
          "inputs": [
            {
              "internalType": "address",
              "name": "_usdcToken",
              "type": "address"
            }
          ],
          "stateMutability": "nonpayable",
          "type": "constructor"
        },
        {
          "inputs": [],
          "name": "BetAlreadySettled",
          "type": "error"
        },
        {
          "inputs": [],
          "name": "BetNotActive",
          "type": "error"
        },
        {
          "inputs": [],
          "name": "BetNotSettled",
          "type": "error"
        },
        {
          "inputs": [],
          "name": "BetTooLarge",
          "type": "error"
        },
        {
          "inputs": [],
          "name": "BetTooSmall",
          "type": "error"
        },
        {
          "inputs": [],
          "name": "BettingCutoffPeriod",
          "type": "error"
        },
        {
          "inputs": [],
          "name": "InsufficientUSDCAllowance",
          "type": "error"
        },
        {
          "inputs": [],
          "name": "InvalidBetAmount",
          "type": "error"
        },
        {
          "inputs": [],
          "name": "InvalidBetId",
          "type": "error"
        },
        {
          "inputs": [],
          "name": "InvalidWinnerIndices",
          "type": "error"
        },
        {
          "inputs": [],
          "name": "NoRefundAvailable",
          "type": "error"
        },
        {
          "inputs": [],
          "name": "NoWinnersProvided",
          "type": "error"
        },
        {
          "inputs": [],
          "name": "NotWinnerOrAlreadyClaimed",
          "type": "error"
        },
        {
          "inputs": [
            {
              "internalType": "address",
              "name": "owner",
              "type": "address"
            }
          ],
          "name": "OwnableInvalidOwner",
          "type": "error"
        },
        {
          "inputs": [
            {
              "internalType": "address",
              "name": "account",
              "type": "address"
            }
          ],
          "name": "OwnableUnauthorizedAccount",
          "type": "error"
        },
        {
          "inputs": [],
          "name": "PlayerAlreadyBet",
          "type": "error"
        },
        {
          "inputs": [
            {
              "internalType": "address",
              "name": "token",
              "type": "address"
            }
          ],
          "name": "SafeERC20FailedOperation",
          "type": "error"
        },
        {
          "inputs": [],
          "name": "WrongCurrency",
          "type": "error"
        },
        {
          "anonymous": false,
          "inputs": [
            {
              "indexed": true,
              "internalType": "uint256",
              "name": "betId",
              "type": "uint256"
            }
          ],
          "name": "BetCancelled",
          "type": "event"
        },
        {
          "anonymous": false,
          "inputs": [
            {
              "indexed": true,
              "internalType": "uint256",
              "name": "betId",
              "type": "uint256"
            },
            {
              "indexed": false,
              "internalType": "string",
              "name": "category",
              "type": "string"
            },
            {
              "indexed": false,
              "internalType": "string",
              "name": "description",
              "type": "string"
            },
            {
              "indexed": false,
              "internalType": "enum ChainChaos.CurrencyType",
              "name": "currencyType",
              "type": "uint8"
            },
            {
              "indexed": false,
              "internalType": "uint256",
              "name": "betAmount",
              "type": "uint256"
            }
          ],
          "name": "BetCreated",
          "type": "event"
        },
        {
          "anonymous": false,
          "inputs": [
            {
              "indexed": true,
              "internalType": "uint256",
              "name": "betId",
              "type": "uint256"
            },
            {
              "indexed": false,
              "internalType": "uint256",
              "name": "actualValue",
              "type": "uint256"
            },
            {
              "indexed": false,
              "internalType": "uint256[]",
              "name": "winnerIndices",
              "type": "uint256[]"
            },
            {
              "indexed": false,
              "internalType": "uint256",
              "name": "totalPayout",
              "type": "uint256"
            }
          ],
          "name": "BetSettled",
          "type": "event"
        },
        {
          "anonymous": false,
          "inputs": [
            {
              "indexed": true,
              "internalType": "address",
              "name": "previousOwner",
              "type": "address"
            },
            {
              "indexed": true,
              "internalType": "address",
              "name": "newOwner",
              "type": "address"
            }
          ],
          "name": "OwnershipTransferred",
          "type": "event"
        },
        {
          "anonymous": false,
          "inputs": [
            {
              "indexed": true,
              "internalType": "uint256",
              "name": "betId",
              "type": "uint256"
            },
            {
              "indexed": true,
              "internalType": "address",
              "name": "player",
              "type": "address"
            },
            {
              "indexed": false,
              "internalType": "uint256",
              "name": "guess",
              "type": "uint256"
            }
          ],
          "name": "PlayerBetPlaced",
          "type": "event"
        },
        {
          "anonymous": false,
          "inputs": [
            {
              "indexed": true,
              "internalType": "uint256",
              "name": "betId",
              "type": "uint256"
            },
            {
              "indexed": true,
              "internalType": "address",
              "name": "player",
              "type": "address"
            },
            {
              "indexed": false,
              "internalType": "uint256",
              "name": "amount",
              "type": "uint256"
            }
          ],
          "name": "PrizeClaimed",
          "type": "event"
        },
        {
          "anonymous": false,
          "inputs": [
            {
              "indexed": true,
              "internalType": "uint256",
              "name": "betId",
              "type": "uint256"
            },
            {
              "indexed": true,
              "internalType": "address",
              "name": "player",
              "type": "address"
            },
            {
              "indexed": false,
              "internalType": "uint256",
              "name": "amount",
              "type": "uint256"
            }
          ],
          "name": "RefundClaimed",
          "type": "event"
        },
        {
          "inputs": [],
          "name": "BETTING_CUTOFF_PERIOD",
          "outputs": [
            {
              "internalType": "uint256",
              "name": "",
              "type": "uint256"
            }
          ],
          "stateMutability": "view",
          "type": "function"
        },
        {
          "inputs": [],
          "name": "BET_DURATION",
          "outputs": [
            {
              "internalType": "uint256",
              "name": "",
              "type": "uint256"
            }
          ],
          "stateMutability": "view",
          "type": "function"
        },
        {
          "inputs": [],
          "name": "OWNER_FEE_PERCENT",
          "outputs": [
            {
              "internalType": "uint256",
              "name": "",
              "type": "uint256"
            }
          ],
          "stateMutability": "view",
          "type": "function"
        },
        {
          "inputs": [
            {
              "internalType": "uint256",
              "name": "",
              "type": "uint256"
            }
          ],
          "name": "activeBetIds",
          "outputs": [
            {
              "internalType": "uint256",
              "name": "",
              "type": "uint256"
            }
          ],
          "stateMutability": "view",
          "type": "function"
        },
        {
          "inputs": [
            {
              "internalType": "uint256",
              "name": "",
              "type": "uint256"
            }
          ],
          "name": "bets",
          "outputs": [
            {
              "internalType": "uint256",
              "name": "id",
              "type": "uint256"
            },
            {
              "internalType": "string",
              "name": "category",
              "type": "string"
            },
            {
              "internalType": "string",
              "name": "description",
              "type": "string"
            },
            {
              "internalType": "enum ChainChaos.CurrencyType",
              "name": "currencyType",
              "type": "uint8"
            },
            {
              "internalType": "uint256",
              "name": "betAmount",
              "type": "uint256"
            },
            {
              "internalType": "uint256",
              "name": "actualValue",
              "type": "uint256"
            },
            {
              "internalType": "enum ChainChaos.BetStatus",
              "name": "status",
              "type": "uint8"
            },
            {
              "internalType": "uint256",
              "name": "totalPot",
              "type": "uint256"
            },
            {
              "internalType": "bool",
              "name": "refundMode",
              "type": "bool"
            },
            {
              "internalType": "uint256",
              "name": "createdAt",
              "type": "uint256"
            },
            {
              "internalType": "uint256",
              "name": "startTime",
              "type": "uint256"
            },
            {
              "internalType": "uint256",
              "name": "endTime",
              "type": "uint256"
            },
            {
              "internalType": "uint256",
              "name": "startBlockHeight",
              "type": "uint256"
            },
            {
              "internalType": "uint256",
              "name": "endBlockHeight",
              "type": "uint256"
            },
            {
              "internalType": "string",
              "name": "calculationMethod",
              "type": "string"
            },
            {
              "internalType": "bool",
              "name": "isAutomated",
              "type": "bool"
            }
          ],
          "stateMutability": "view",
          "type": "function"
        },
        {
          "inputs": [
            {
              "internalType": "uint256",
              "name": "betId",
              "type": "uint256"
            }
          ],
          "name": "cancelBet",
          "outputs": [],
          "stateMutability": "nonpayable",
          "type": "function"
        },
        {
          "inputs": [
            {
              "internalType": "uint256",
              "name": "betId",
              "type": "uint256"
            }
          ],
          "name": "claimPrize",
          "outputs": [],
          "stateMutability": "nonpayable",
          "type": "function"
        },
        {
          "inputs": [
            {
              "internalType": "string",
              "name": "category",
              "type": "string"
            },
            {
              "internalType": "string",
              "name": "description",
              "type": "string"
            },
            {
              "internalType": "enum ChainChaos.CurrencyType",
              "name": "currencyType",
              "type": "uint8"
            },
            {
              "internalType": "uint256",
              "name": "betAmount",
              "type": "uint256"
            },
            {
              "internalType": "uint256",
              "name": "startTime",
              "type": "uint256"
            },
            {
              "internalType": "uint256",
              "name": "endTime",
              "type": "uint256"
            },
            {
              "internalType": "uint256",
              "name": "startBlockHeight",
              "type": "uint256"
            },
            {
              "internalType": "string",
              "name": "calculationMethod",
              "type": "string"
            }
          ],
          "name": "createAutomatedBet",
          "outputs": [
            {
              "internalType": "uint256",
              "name": "",
              "type": "uint256"
            }
          ],
          "stateMutability": "nonpayable",
          "type": "function"
        },
        {
          "inputs": [
            {
              "internalType": "string",
              "name": "category",
              "type": "string"
            },
            {
              "internalType": "string",
              "name": "description",
              "type": "string"
            },
            {
              "internalType": "enum ChainChaos.CurrencyType",
              "name": "currencyType",
              "type": "uint8"
            },
            {
              "internalType": "uint256",
              "name": "betAmount",
              "type": "uint256"
            },
            {
              "internalType": "uint256",
              "name": "startTime",
              "type": "uint256"
            },
            {
              "internalType": "uint256",
              "name": "endTime",
              "type": "uint256"
            }
          ],
          "name": "createBet",
          "outputs": [
            {
              "internalType": "uint256",
              "name": "",
              "type": "uint256"
            }
          ],
          "stateMutability": "nonpayable",
          "type": "function"
        },
        {
          "inputs": [],
          "name": "getActiveBets",
          "outputs": [
            {
              "internalType": "uint256[]",
              "name": "",
              "type": "uint256[]"
            }
          ],
          "stateMutability": "view",
          "type": "function"
        },
        {
          "inputs": [
            {
              "internalType": "uint256",
              "name": "betId",
              "type": "uint256"
            }
          ],
          "name": "getBetAutomationData",
          "outputs": [
            {
              "internalType": "uint256",
              "name": "startBlockHeight",
              "type": "uint256"
            },
            {
              "internalType": "uint256",
              "name": "endBlockHeight",
              "type": "uint256"
            },
            {
              "internalType": "uint256[]",
              "name": "sampledBlocks",
              "type": "uint256[]"
            },
            {
              "internalType": "string",
              "name": "calculationMethod",
              "type": "string"
            },
            {
              "internalType": "bool",
              "name": "isAutomated",
              "type": "bool"
            }
          ],
          "stateMutability": "view",
          "type": "function"
        },
        {
          "inputs": [
            {
              "internalType": "uint256",
              "name": "betId",
              "type": "uint256"
            }
          ],
          "name": "getBetInfo",
          "outputs": [
            {
              "internalType": "uint256",
              "name": "id",
              "type": "uint256"
            },
            {
              "internalType": "string",
              "name": "category",
              "type": "string"
            },
            {
              "internalType": "string",
              "name": "description",
              "type": "string"
            },
            {
              "internalType": "enum ChainChaos.CurrencyType",
              "name": "currencyType",
              "type": "uint8"
            },
            {
              "internalType": "uint256",
              "name": "betAmount",
              "type": "uint256"
            },
            {
              "internalType": "uint256",
              "name": "actualValue",
              "type": "uint256"
            },
            {
              "internalType": "enum ChainChaos.BetStatus",
              "name": "status",
              "type": "uint8"
            },
            {
              "internalType": "uint256",
              "name": "totalPot",
              "type": "uint256"
            },
            {
              "internalType": "bool",
              "name": "refundMode",
              "type": "bool"
            },
            {
              "internalType": "uint256",
              "name": "playerBetCount",
              "type": "uint256"
            },
            {
              "internalType": "uint256",
              "name": "createdAt",
              "type": "uint256"
            },
            {
              "internalType": "uint256",
              "name": "startTime",
              "type": "uint256"
            },
            {
              "internalType": "uint256",
              "name": "endTime",
              "type": "uint256"
            }
          ],
          "stateMutability": "view",
          "type": "function"
        },
        {
          "inputs": [
            {
              "internalType": "uint256",
              "name": "betId",
              "type": "uint256"
            }
          ],
          "name": "getBetPlayerBets",
          "outputs": [
            {
              "components": [
                {
                  "internalType": "address",
                  "name": "player",
                  "type": "address"
                },
                {
                  "internalType": "uint256",
                  "name": "guess",
                  "type": "uint256"
                },
                {
                  "internalType": "bool",
                  "name": "claimed",
                  "type": "bool"
                }
              ],
              "internalType": "struct ChainChaos.PlayerBet[]",
              "name": "",
              "type": "tuple[]"
            }
          ],
          "stateMutability": "view",
          "type": "function"
        },
        {
          "inputs": [
            {
              "internalType": "uint256",
              "name": "betId",
              "type": "uint256"
            }
          ],
          "name": "getBetPlayerGuesses",
          "outputs": [
            {
              "internalType": "uint256[]",
              "name": "guesses",
              "type": "uint256[]"
            }
          ],
          "stateMutability": "view",
          "type": "function"
        },
        {
          "inputs": [
            {
              "internalType": "uint256",
              "name": "betId",
              "type": "uint256"
            }
          ],
          "name": "getBetPlayers",
          "outputs": [
            {
              "internalType": "address[]",
              "name": "players",
              "type": "address[]"
            }
          ],
          "stateMutability": "view",
          "type": "function"
        },
        {
          "inputs": [
            {
              "internalType": "uint256",
              "name": "betId",
              "type": "uint256"
            }
          ],
          "name": "getBetPot",
          "outputs": [
            {
              "internalType": "uint256",
              "name": "",
              "type": "uint256"
            }
          ],
          "stateMutability": "view",
          "type": "function"
        },
        {
          "inputs": [
            {
              "internalType": "uint256",
              "name": "betId",
              "type": "uint256"
            }
          ],
          "name": "getBetSampledBlocks",
          "outputs": [
            {
              "internalType": "uint256[]",
              "name": "",
              "type": "uint256[]"
            }
          ],
          "stateMutability": "view",
          "type": "function"
        },
        {
          "inputs": [
            {
              "internalType": "uint256",
              "name": "betId",
              "type": "uint256"
            }
          ],
          "name": "getBetWinnerIndices",
          "outputs": [
            {
              "internalType": "uint256[]",
              "name": "",
              "type": "uint256[]"
            }
          ],
          "stateMutability": "view",
          "type": "function"
        },
        {
          "inputs": [
            {
              "internalType": "uint256",
              "name": "betId",
              "type": "uint256"
            },
            {
              "internalType": "address",
              "name": "player",
              "type": "address"
            }
          ],
          "name": "getPlayerBet",
          "outputs": [
            {
              "internalType": "uint256",
              "name": "guess",
              "type": "uint256"
            },
            {
              "internalType": "bool",
              "name": "claimed",
              "type": "bool"
            }
          ],
          "stateMutability": "view",
          "type": "function"
        },
        {
          "inputs": [],
          "name": "getSettledBets",
          "outputs": [
            {
              "internalType": "uint256[]",
              "name": "",
              "type": "uint256[]"
            }
          ],
          "stateMutability": "view",
          "type": "function"
        },
        {
          "inputs": [
            {
              "internalType": "uint256",
              "name": "",
              "type": "uint256"
            },
            {
              "internalType": "address",
              "name": "",
              "type": "address"
            }
          ],
          "name": "hasPlayerBet",
          "outputs": [
            {
              "internalType": "bool",
              "name": "",
              "type": "bool"
            }
          ],
          "stateMutability": "view",
          "type": "function"
        },
        {
          "inputs": [
            {
              "internalType": "uint256",
              "name": "betId",
              "type": "uint256"
            }
          ],
          "name": "isBettingActive",
          "outputs": [
            {
              "internalType": "bool",
              "name": "",
              "type": "bool"
            }
          ],
          "stateMutability": "view",
          "type": "function"
        },
        {
          "inputs": [],
          "name": "nextBetId",
          "outputs": [
            {
              "internalType": "uint256",
              "name": "",
              "type": "uint256"
            }
          ],
          "stateMutability": "view",
          "type": "function"
        },
        {
          "inputs": [],
          "name": "owner",
          "outputs": [
            {
              "internalType": "address",
              "name": "",
              "type": "address"
            }
          ],
          "stateMutability": "view",
          "type": "function"
        },
        {
          "inputs": [
            {
              "internalType": "uint256",
              "name": "betId",
              "type": "uint256"
            },
            {
              "internalType": "uint256",
              "name": "guess",
              "type": "uint256"
            }
          ],
          "name": "placeBet",
          "outputs": [],
          "stateMutability": "payable",
          "type": "function"
        },
        {
          "inputs": [],
          "name": "renounceOwnership",
          "outputs": [],
          "stateMutability": "nonpayable",
          "type": "function"
        },
        {
          "inputs": [
            {
              "internalType": "uint256",
              "name": "betId",
              "type": "uint256"
            },
            {
              "internalType": "uint256",
              "name": "actualValue",
              "type": "uint256"
            },
            {
              "internalType": "uint256",
              "name": "endBlockHeight",
              "type": "uint256"
            },
            {
              "internalType": "uint256[]",
              "name": "sampledBlocks",
              "type": "uint256[]"
            },
            {
              "internalType": "string",
              "name": "calculationDetails",
              "type": "string"
            }
          ],
          "name": "settleAutomatedBet",
          "outputs": [],
          "stateMutability": "nonpayable",
          "type": "function"
        },
        {
          "inputs": [
            {
              "internalType": "uint256",
              "name": "betId",
              "type": "uint256"
            },
            {
              "internalType": "uint256",
              "name": "actualValue",
              "type": "uint256"
            }
          ],
          "name": "settleBet",
          "outputs": [],
          "stateMutability": "nonpayable",
          "type": "function"
        },
        {
          "inputs": [
            {
              "internalType": "uint256",
              "name": "",
              "type": "uint256"
            }
          ],
          "name": "settledBetIds",
          "outputs": [
            {
              "internalType": "uint256",
              "name": "",
              "type": "uint256"
            }
          ],
          "stateMutability": "view",
          "type": "function"
        },
        {
          "inputs": [
            {
              "internalType": "address",
              "name": "newOwner",
              "type": "address"
            }
          ],
          "name": "transferOwnership",
          "outputs": [],
          "stateMutability": "nonpayable",
          "type": "function"
        },
        {
          "inputs": [],
          "name": "usdcToken",
          "outputs": [
            {
              "internalType": "contract IERC20",
              "name": "",
              "type": "address"
            }
          ],
          "stateMutability": "view",
          "type": "function"
        },
        {
          "inputs": [],
          "name": "withdrawFees",
          "outputs": [],
          "stateMutability": "nonpayable",
          "type": "function"
        }
      ],
      "evm": {
        "bytecode": {
          "linkReferences": {},
          "object": "60a0346100ee57601f61250338819003918201601f19168301916001600160401b038311848410176100f3578084926020946040528339810103126100ee57516001600160a01b038116908190036100ee5733156100d85760008054336001600160a01b0319821681178355604051939290916001600160a01b0316907f8be0079c531659141344cd1fd0a4f28419497f9722a3daafe3b4186f6b6457e09080a3600180556080526123f9908161010a8239608051818181610b6e01528181610d200152818161145f01528181611a190152611ba30152f35b631e4fbdf760e01b600052600060045260246000fd5b600080fd5b634e487b7160e01b600052604160045260246000fdfe60a0604052600436101561001257600080fd5b60003560e01c80630d2cbe13146114bd5780631175c8151461148e57806311eac855146114495780631ca206d2146113d757806322af00fa1461127157806327baedd51461121757806328efa86714611111578063357401f51461107d578063427b3f4414610e15578063476343ee14610cd05780634afe62b5146109b25780635195d61214610989578063589f24101461093c57806367e9043514610766578063715018a61461070d57806379141f80146106135780638da5cb5b146105ea5780639aca2792146105cc578063a4cd5c43146105a4578063a8a3221e14610588578063ada730201461052e578063b37f8c5d146104a2578063c2f48eff1461041e578063c303b902146103d7578063ca8bcf3914610300578063cae4ffbb146102e4578063d7098154146102c6578063d8bf897414610297578063dd99717d14610263578063ddd707091461022b578063e53d4c2d1461020e5763f2fde38b1461017c57600080fd5b34610209576020366003190112610209576004356001600160a01b03811690819003610209576101aa611cf7565b80156101f357600080546001600160a01b03198116831782556001600160a01b0316907f8be0079c531659141344cd1fd0a4f28419497f9722a3daafe3b4186f6b6457e09080a3005b631e4fbdf760e01b600052600060045260246000fd5b600080fd5b3461020957600036600319011261020957602060405161012c8152f35b346102095760203660031901126102095760043560055481101561020957610254602091611708565b90549060031b1c604051908152f35b3461020957604036600319011261020957604061028961028161176c565b600435611c40565b825191825215156020820152f35b346102095760203660031901126102095760043560005260026020526020600760406000200154604051908152f35b34610209576020366003190112610209576102e26004356118e8565b005b34610209576000366003190112610209576020604051603c8152f35b34610209576020366003190112610209576004356000526002602052600a6040600020018054906103308261169b565b9161033e604051938461157b565b80835261034a8161169b565b602084019290601f190136843760005b8281106103af5783856040519182916020830190602084525180915260408301919060005b81811061038d575050500390f35b82516001600160a01b031684528594506020938401939092019160010161037f565b806103bc600192846117ff565b50828060a01b039054166103d0828861181b565b520161035a565b3461020957602036600319011261020957600435600052600260205261041a6104066008604060002001611782565b6040519182916020835260208301906114f2565b0390f35b346102095760c0366003190112610209576004356001600160401b0381116102095761044e9036906004016116b2565b6024356001600160401b0381116102095761046d9036906004016116b2565b9060443560028110156102095760209261049a92610489611cf7565b60a435926084359260643592611f49565b604051908152f35b346102095760203660031901126102095760043560005260026020526040600020600e810154600f8201549161052260ff601283015416916105146104f560116104ee60108501611782565b930161159c565b916040519687968752602087015260a0604087015260a08601906114f2565b908482036060860152611640565b90151560808301520390f35b34610209576000366003190112610209576040516004548082526020820190600460005260206000209060005b8181106105725761041a856104068187038261157b565b825484526020909301926001928301920161055b565b3461020957600036600319011261020957602060405160058152f35b346102095760203660031901126102095760206105c260043561189e565b6040519015158152f35b34610209576000366003190112610209576020600154604051908152f35b34610209576000366003190112610209576000546040516001600160a01b039091168152602090f35b3461020957602036600319011261020957600435600052600260205260406000208054600382015460ff1660048301546005840154600685015460ff166007860154600987015460ff16600a88015491600b89015493600c8a015495600d8b01549760018c016106829061159c565b9b60020161068f9061159c565b6040519c8d9c8d5260208d016101a090526101a08d016106ae91611640565b8c810360408e01526106bf91611640565b9960608c016106cd91611681565b60808b015260a08a015260c089016106e49161168e565b60e088015215156101008701526101208601526101408501526101608401526101808301520390f35b3461020957600036600319011261020957610726611cf7565b600080546001600160a01b0319811682556001600160a01b03167f8be0079c531659141344cd1fd0a4f28419497f9722a3daafe3b4186f6b6457e08280a3005b3461020957610100366003190112610209576004356001600160401b038111610209576107979036906004016116b2565b6024356001600160401b038111610209576107b69036906004016116b2565b60443560028110156102095760e435916001600160401b038311610209576107e56107ee9336906004016116b2565b93610489611cf7565b80600052600260205260406000209060c435600e83015560118201918351926001600160401b038411610926576020946108288254611526565b601f81116108eb575b508590601f86116001146108825794809160129596600092610877575b50508160011b916000199060031b1c19161790555b01805460ff19166001179055604051908152f35b01519050878061084e565b90601f1986169183600052816000209260005b8181106108d457509160019391886012989994106108bb575b505050811b019055610863565b015160001960f88460031b161c191690558780806108ae565b929389600181928786015181550195019301610895565b610916908360005287600020601f880160051c81019189891061091c575b601f0160051c019061186d565b86610831565b9091508190610909565b634e487b7160e01b600052604160045260246000fd5b346102095760403660031901126102095761095561176c565b600435600052600360205260406000209060018060a01b0316600052602052602060ff604060002054166040519015158152f35b346102095760203660031901126102095760043560045481101561020957610254602091611739565b6109bb366114dc565b90806000526002602052604060002060ff6006820154166003811015610c5b57610cbf57600d8101548015159081610c93575b50610c8257600082815260036020908152604080832033845290915290205460ff16610c715760ff6003820154166002811015610c5b57610b4e5760048101543403610b3d575b600a8101604051610a4581611560565b338152602081018581526040820192600084528054600160401b81101561092657610a75916001820181556117ff565b919091610b275760029260018060a01b039051166bffffffffffffffffffffffff60a01b835416178255516001820155019051151560ff80198354169116179055610aca600760048301549201918254611884565b9055806000526003602052604060002060018060a01b0333166000526020526040600020600160ff198254161790556040519182527fae6e469845072cd465cbe2a8b4f46cff1b0263205ffe97879e063bbbea36bb7c60203393a3005b634e487b7160e01b600052600060045260246000fd5b639de3d44160e01b60005260046000fd5b34610c4a57604051636eb1769f60e11b81523360048201523060248201527f0000000000000000000000000000000000000000000000000000000000000000906020816044816001600160a01b0386165afa908115610c3e57600091610c0c575b506004830154809110610bfb57610bf691604051916323b872dd60e01b6020840152336024840152306044840152606483015260648252610bf160848361157b565b61234a565b610a35565b63e2822ff160e01b60005260046000fd5b90506020813d602011610c36575b81610c276020938361157b565b81010312610209575185610baf565b3d9150610c1a565b6040513d6000823e3d90fd5b630b27db6160e11b60005260046000fd5b634e487b7160e01b600052602160045260246000fd5b63eb0163a160e01b60005260046000fd5b635742b83560e01b60005260046000fd5b603b19810191508111610ca957421015846109ee565b634e487b7160e01b600052601160045260246000fd5b63e38f163d60e01b60005260046000fd5b3461020957600036600319011261020957610ce9611cf7565b60008080600554905b818110610d7357505080158015610d44575b505080610d0d57005b6000546102e291906001600160a01b03167f0000000000000000000000000000000000000000000000000000000000000000611eff565b6000808093819360018060a01b03835416908390610d6a575bf115610c3e578180610d04565b506108fc610d5d565b610d7c81611708565b90549060031b1c6000526002602052604060002060ff6009820154161580610e08575b610dad575b50600101610cf2565b90926007820154600581029080820460051490151715610ca9576003606460ff9204930154166002811015610c5b57610df457600191610dec91611884565b925b90610da4565b9293600191610e0291611884565b93610dee565b5060078101541515610d9f565b346102095760a0366003190112610209576064356004356001600160401b038211610209573660238301121561020957816004013591610e548361169b565b90610e62604051928361157b565b838252602082016024819560051b8301019136831161020957602401905b82821061106d575050506084356001600160401b03811161020957610ea99036906004016116b2565b92610eb2611cf7565b82600052600260205260406000209160ff6006840154166003811015610c5b5761105c57604435600f840155601083019051916001600160401b03831161092657600160401b831161092657815483835580841061103e575b5090600052602060002060005b83811061102a5786518660118701896001600160401b03841161092657610f3f8254611526565b601f8111610ff8575b50602090601f8511600114610f8e576102e2949160009183610f83575b50508160011b916000199060031b1c19161790555b60243590611d20565b015190508580610f65565b90601f1985169183600052816000209260005b818110610fe057509160019391876102e2989410610fc7575b505050811b019055610f7a565b015160001960f88460031b161c19169055858080610fba565b92936020600181928786015181550195019301610fa1565b61102490836000526020600020601f870160051c8101916020881061091c57601f0160051c019061186d565b84610f48565b600190602084519401938184015501610f18565b6110569083600052846020600020918201910161186d565b86610f0b565b6305d09e5f60e01b60005260046000fd5b8135815260209182019101610e80565b3461020957602036600319011261020957600435611099611cf7565b8060005260026020526040600020600681019060ff8254166003811015610c5b5761105c57600991600260ff1982541617905501600160ff198254161790556110e181611e64565b6110ea8161182f565b7fe3906e8d1e2167ef706b023e6e83af697db5cd38f233c71bf5021b26b316c3a2600080a2005b34610209576020366003190112610209576004356000526002602052600a6040600020018054906111418261169b565b9161114f604051938461157b565b80835260208301809260005260206000206000915b8383106111d45784866040519182916020830190602084525180915260408301919060005b818110611197575050500390f35b825180516001600160a01b031685526020818101518187015260409182015115159186019190915286955060609094019390920191600101611189565b600360206001926040516111e781611560565b848060a01b038654168152848601548382015260ff60028701541615156040820152815201920192019190611164565b34610209576000366003190112610209576040516005548082526020820190600560005260206000209060005b81811061125b5761041a856104068187038261157b565b8254845260209093019260019283019201611244565b346102095760203660031901126102095760043560005260026020526040600020805490600181016112a29061159c565b816112af6002820161159c565b91600382015460ff169260048301546005840154600685015460ff166007860154600987015460ff1691600b88015493600c89015495600d8a015497600e8b015499600f8c01549b6011016113039061159c565b9d6012015460ff169e6040516080526080515260805160200161020090526080516102000161133191611640565b60805181036080516040015261134691611640565b9a60805160600161135691611681565b6080516080015260805160a0015260805160c0016113739161168e565b60805160e001521515608051610100015260805161012001526080516101400152608051610160015260805161018001526080516101a0015260805181036080516101c001526113c291611640565b9015156080516101e001526080519003608051f35b34610209576020366003190112610209576004356000526002602052600a6040600020018054611406816117cd565b9160005b828110611427576040516020808252819061041a908201876114f2565b8060016114358193856117ff565b500154611442828761181b565b520161140a565b34610209576000366003190112610209576040517f00000000000000000000000000000000000000000000000000000000000000006001600160a01b03168152602090f35b3461020957602036600319011261020957600435600052600260205261041a6104066010604060002001611782565b34610209576102e26114ce366114dc565b906114d7611cf7565b611d20565b6040906003190112610209576004359060243590565b906020808351928381520192019060005b8181106115105750505090565b8251845260209384019390920191600101611503565b90600182811c92168015611556575b602083101461154057565b634e487b7160e01b600052602260045260246000fd5b91607f1691611535565b606081019081106001600160401b0382111761092657604052565b90601f801991011681019081106001600160401b0382111761092657604052565b90604051918260008254926115b084611526565b808452936001811690811561161e57506001146115d7575b506115d59250038361157b565b565b90506000929192526020600020906000915b8183106116025750509060206115d592820101386115c8565b60209193508060019154838589010152019101909184926115e9565b9050602092506115d594915060ff191682840152151560051b820101386115c8565b919082519283825260005b84811061166c575050826000602080949584010152601f8019910116010190565b8060208092840101518282860101520161164b565b906002821015610c5b5752565b906003821015610c5b5752565b6001600160401b0381116109265760051b60200190565b81601f82011215610209578035906001600160401b03821161092657604051926116e6601f8401601f19166020018561157b565b8284526020838301011161020957816000926020809301838601378301015290565b60055481101561172357600560005260206000200190600090565b634e487b7160e01b600052603260045260246000fd5b60045481101561172357600460005260206000200190600090565b80548210156117235760005260206000200190600090565b602435906001600160a01b038216820361020957565b906040519182815491828252602082019060005260206000209260005b8181106117b45750506115d59250038361157b565b845483526001948501948794506020909301920161179f565b906117d78261169b565b6117e4604051918261157b565b82815280926117f5601f199161169b565b0190602036910137565b8054821015611723576000526003602060002091020190600090565b80518210156117235760209160051b010190565b60055490600160401b821015610926576118548260016115d594016005556005611754565b90919082549060031b91821b91600019901b1916179055565b818110611878575050565b6000815560010161186d565b91908201809211610ca957565b91908203918211610ca957565b6000526002602052604060002060ff6006820154166003811015610c5b576118e257600d015480156118dc57603b198101908111610ca95742111590565b50600190565b50600090565b80600052600260205260406000209060ff6006830154166003811015610c5b5760018114159081611c34575b50611c235760ff600983015416611ad8576000806000600a8501908154905b818110611aaa575b505060009260088601938454905b818110611a7f575b5050158015611a67575b611a565760029161196b916117ff565b5001600160ff198254161790556007830154600581029080820460051481151715610ca957606461199d920490611891565b90549060008215611a42575060ff9160039104930154166002811015610c5b57611a12578160008115611a09575b600080809381933390f115610c3e575b6040519182527f4aa95f981a8337cb337de335b965507da0879c3b49f799d20058e913f5ad2c2660203393a3565b506108fc6119cb565b611a3d82337f0000000000000000000000000000000000000000000000000000000000000000611eff565b6119db565b634e487b7160e01b81526012600452602490fd5b63316b3f8960e11b60005260046000fd5b5060ff6002611a7684846117ff565b5001541661195b565b84611a8a8288611754565b90549060031b1c14611a9e57600101611949565b50505060013880611951565b611ab481846117ff565b50546001600160a01b03163314611acd57600101611933565b92503890508061193b565b809150600052600260205260406000206000196000600a8301908154905b818110611bf5575b505060001982148015611bdd575b611bcc57600291611b1c916117ff565b5001805460ff19166001179055600381015460ff166002811015610c5b57611b965760008080806004850154818115611b8d575b3390f115610c3e576004905b0154906040519182527ff3f402280ef0a7905e124aa621b65eaeb2725c343e8b36d398ed78c29daf285c60203393a3565b506108fc611b50565b80611bc7600480930154337f0000000000000000000000000000000000000000000000000000000000000000611eff565b611b5c565b63e49c14cb60e01b60005260046000fd5b5060ff6002611bec84846117ff565b50015416611b0c565b611bff81846117ff565b50546001600160a01b03163314611c1857600101611af6565b925038905080611afe565b63616e4dc160e01b60005260046000fd5b60029150141538611914565b9190916000526002602052604060002090600a60009201928354925b838110611ca85760405162461bcd60e51b815260206004820152601f60248201527f506c6179657220686173206e6f7420626574206f6e20746869732067616d65006044820152606490fd5b611cb281866117ff565b50546001600160a01b03838116911614611cce57600101611c5c565b60ff92935060029150806001611ce7611cf093886117ff565b500154956117ff565b5001541690565b6000546001600160a01b03163303611d0b57565b63118cdaa760e01b6000523360045260246000fd5b9190918060005260026020526040600020926006840160ff8154166003811015610c5b5761105c57816005860155600160ff19825416179055611d6282611e64565b611d6b8261182f565b611d75818361224f565b90600885019482516001600160401b03811161092657600160401b8111610926578654818855808210611e46575b50602084019660005260206000209660005b828110611e32575050507fdf87c3dd2376d585c2b92555576f9851cb972fea40376668e9eb8e7cec82e6f193949550806001600a60079301541115611e1e575b0154611e1360405193849384526060602085015260608401906114f2565b9060408301520390a2565b60098101805460ff19166001179055611df5565b60019060208351930192818b015501611db5565b611e5e9088600052826020600020918201910161186d565b38611da3565b60005b60045480821015611efa5782611e7c83611739565b90549060031b1c14611e915750600101611e67565b600019810192508211610ca957611854611ead611eba93611739565b90549060031b1c91611739565b6004548015611ee45760001901611ed081611739565b8154906000199060031b1b19169055600455565b634e487b7160e01b600052603160045260246000fd5b505050565b60405163a9059cbb60e01b60208201526001600160a01b0390921660248301526044808301939093529181526115d591610bf160648361157b565b6000198114610ca95760010190565b9092938415610b3d5760015495611f5f87611f3a565b6001558660005260026020526040600020918783556001830184516001600160401b03811161092657611f928254611526565b601f811161221d575b50806020601f82116001146121ba576000916121af575b508160011b916000199060031b1c19161790555b6002830186516001600160401b03811161092657611fe48254611526565b601f811161217d575b50806020601f82116001146121185760009161210d575b508160011b916000199060031b1c19161790555b600383016002861015610c5b5760ff1981541660ff87161790558660048401556006830160ff19815416905542600b84015580156000146121085750425b600c830155806120ff575061012c4201804211610ca957600d90915b015560045491600160401b8310156109265785946120f46120e97ff7dfcab2992417049cb3e78dcb5d3ac9520e053800daab4885bc264a958f19f8966120c7896118548960016120db9b016004556004611754565b604051968796608088526080880190611640565b908682036020880152611640565b926040850190611681565b60608301520390a290565b600d9091612072565b612056565b905088015138612004565b60008481528181209250601f198416905b8b828210612165575050908360019493921061214c575b5050811b019055612018565b8a015160001960f88460031b161c191690553880612140565b60018495602093958493015181550194019201612129565b6121a990836000526020600020601f840160051c8101916020851061091c57601f0160051c019061186d565b38611fed565b905086015138611fb2565b60008481528181209250601f198416905b818110612205575090836001949392106121ec575b5050811b019055611fc6565b88015160001960f88460031b161c1916905538806121e0565b9192602060018192868d0151815501940192016121cb565b61224990836000526020600020601f840160051c8101916020851061091c57601f0160051c019061186d565b38611f9b565b6000526002602052600a604060002001805490811561232d576000196000805b8481106122de5750612280906117cd565b9360009260005b8581106122975750505050505090565b836122b08460016122a885876117ff565b5001546123a5565b146122be575b600101612287565b936122d681866122d06001948b61181b565b52611f3a565b9490506122b6565b916122ef8660016122a886886117ff565b918183101561230657505090600180915b0161226f565b919080939114612319575b600190612300565b90612325600191611f3a565b919050612311565b50505060405161233e60208261157b565b60008152600036813790565b906000602091828151910182855af115610c3e576000513d61239c57506001600160a01b0381163b155b61237b5750565b635274afe760e01b60009081526001600160a01b0391909116600452602490fd5b60011415612374565b818111156123ba57906123b791611891565b90565b6123b79161189156fea264697066735822122073fd23e0de274dc0dcd89fe0dc1acda9e565ddf8171ca3e1017596937ddbedd764736f6c634300081c0033",
          "opcodes": "PUSH1 0xA0 CALLVALUE PUSH2 0xEE JUMPI PUSH1 0x1F PUSH2 0x2503 CODESIZE DUP2 SWAP1 SUB SWAP2 DUP3 ADD PUSH1 0x1F NOT AND DUP4 ADD SWAP2 PUSH1 0x1 PUSH1 0x1 PUSH1 0x40 SHL SUB DUP4 GT DUP5 DUP5 LT OR PUSH2 0xF3 JUMPI DUP1 DUP5 SWAP3 PUSH1 0x20 SWAP5 PUSH1 0x40 MSTORE DUP4 CODECOPY DUP2 ADD SUB SLT PUSH2 0xEE JUMPI MLOAD PUSH1 0x1 PUSH1 0x1 PUSH1 0xA0 SHL SUB DUP2 AND SWAP1 DUP2 SWAP1 SUB PUSH2 0xEE JUMPI CALLER ISZERO PUSH2 0xD8 JUMPI PUSH1 0x0 DUP1 SLOAD CALLER PUSH1 0x1 PUSH1 0x1 PUSH1 0xA0 SHL SUB NOT DUP3 AND DUP2 OR DUP4 SSTORE PUSH1 0x40 MLOAD SWAP4 SWAP3 SWAP1 SWAP2 PUSH1 0x1 PUSH1 0x1 PUSH1 0xA0 SHL SUB AND SWAP1 PUSH32 0x8BE0079C531659141344CD1FD0A4F28419497F9722A3DAAFE3B4186F6B6457E0 SWAP1 DUP1 LOG3 PUSH1 0x1 DUP1 SSTORE PUSH1 0x80 MSTORE PUSH2 0x23F9 SWAP1 DUP2 PUSH2 0x10A DUP3 CODECOPY PUSH1 0x80 MLOAD DUP2 DUP2 DUP2 PUSH2 0xB6E ADD MSTORE DUP2 DUP2 PUSH2 0xD20 ADD MSTORE DUP2 DUP2 PUSH2 0x145F ADD MSTORE DUP2 DUP2 PUSH2 0x1A19 ADD MSTORE PUSH2 0x1BA3 ADD MSTORE RETURN JUMPDEST PUSH4 0x1E4FBDF7 PUSH1 0xE0 SHL PUSH1 0x0 MSTORE PUSH1 0x0 PUSH1 0x4 MSTORE PUSH1 0x24 PUSH1 0x0 REVERT JUMPDEST PUSH1 0x0 DUP1 REVERT JUMPDEST PUSH4 0x4E487B71 PUSH1 0xE0 SHL PUSH1 0x0 MSTORE PUSH1 0x41 PUSH1 0x4 MSTORE PUSH1 0x24 PUSH1 0x0 REVERT INVALID PUSH1 0xA0 PUSH1 0x40 MSTORE PUSH1 0x4 CALLDATASIZE LT ISZERO PUSH2 0x12 JUMPI PUSH1 0x0 DUP1 REVERT JUMPDEST PUSH1 0x0 CALLDATALOAD PUSH1 0xE0 SHR DUP1 PUSH4 0xD2CBE13 EQ PUSH2 0x14BD JUMPI DUP1 PUSH4 0x1175C815 EQ PUSH2 0x148E JUMPI DUP1 PUSH4 0x11EAC855 EQ PUSH2 0x1449 JUMPI DUP1 PUSH4 0x1CA206D2 EQ PUSH2 0x13D7 JUMPI DUP1 PUSH4 0x22AF00FA EQ PUSH2 0x1271 JUMPI DUP1 PUSH4 0x27BAEDD5 EQ PUSH2 0x1217 JUMPI DUP1 PUSH4 0x28EFA867 EQ PUSH2 0x1111 JUMPI DUP1 PUSH4 0x357401F5 EQ PUSH2 0x107D JUMPI DUP1 PUSH4 0x427B3F44 EQ PUSH2 0xE15 JUMPI DUP1 PUSH4 0x476343EE EQ PUSH2 0xCD0 JUMPI DUP1 PUSH4 0x4AFE62B5 EQ PUSH2 0x9B2 JUMPI DUP1 PUSH4 0x5195D612 EQ PUSH2 0x989 JUMPI DUP1 PUSH4 0x589F2410 EQ PUSH2 0x93C JUMPI DUP1 PUSH4 0x67E90435 EQ PUSH2 0x766 JUMPI DUP1 PUSH4 0x715018A6 EQ PUSH2 0x70D JUMPI DUP1 PUSH4 0x79141F80 EQ PUSH2 0x613 JUMPI DUP1 PUSH4 0x8DA5CB5B EQ PUSH2 0x5EA JUMPI DUP1 PUSH4 0x9ACA2792 EQ PUSH2 0x5CC JUMPI DUP1 PUSH4 0xA4CD5C43 EQ PUSH2 0x5A4 JUMPI DUP1 PUSH4 0xA8A3221E EQ PUSH2 0x588 JUMPI DUP1 PUSH4 0xADA73020 EQ PUSH2 0x52E JUMPI DUP1 PUSH4 0xB37F8C5D EQ PUSH2 0x4A2 JUMPI DUP1 PUSH4 0xC2F48EFF EQ PUSH2 0x41E JUMPI DUP1 PUSH4 0xC303B902 EQ PUSH2 0x3D7 JUMPI DUP1 PUSH4 0xCA8BCF39 EQ PUSH2 0x300 JUMPI DUP1 PUSH4 0xCAE4FFBB EQ PUSH2 0x2E4 JUMPI DUP1 PUSH4 0xD7098154 EQ PUSH2 0x2C6 JUMPI DUP1 PUSH4 0xD8BF8974 EQ PUSH2 0x297 JUMPI DUP1 PUSH4 0xDD99717D EQ PUSH2 0x263 JUMPI DUP1 PUSH4 0xDDD70709 EQ PUSH2 0x22B JUMPI DUP1 PUSH4 0xE53D4C2D EQ PUSH2 0x20E JUMPI PUSH4 0xF2FDE38B EQ PUSH2 0x17C JUMPI PUSH1 0x0 DUP1 REVERT JUMPDEST CALLVALUE PUSH2 0x209 JUMPI PUSH1 0x20 CALLDATASIZE PUSH1 0x3 NOT ADD SLT PUSH2 0x209 JUMPI PUSH1 0x4 CALLDATALOAD PUSH1 0x1 PUSH1 0x1 PUSH1 0xA0 SHL SUB DUP2 AND SWAP1 DUP2 SWAP1 SUB PUSH2 0x209 JUMPI PUSH2 0x1AA PUSH2 0x1CF7 JUMP JUMPDEST DUP1 ISZERO PUSH2 0x1F3 JUMPI PUSH1 0x0 DUP1 SLOAD PUSH1 0x1 PUSH1 0x1 PUSH1 0xA0 SHL SUB NOT DUP2 AND DUP4 OR DUP3 SSTORE PUSH1 0x1 PUSH1 0x1 PUSH1 0xA0 SHL SUB AND SWAP1 PUSH32 0x8BE0079C531659141344CD1FD0A4F28419497F9722A3DAAFE3B4186F6B6457E0 SWAP1 DUP1 LOG3 STOP JUMPDEST PUSH4 0x1E4FBDF7 PUSH1 0xE0 SHL PUSH1 0x0 MSTORE PUSH1 0x0 PUSH1 0x4 MSTORE PUSH1 0x24 PUSH1 0x0 REVERT JUMPDEST PUSH1 0x0 DUP1 REVERT JUMPDEST CALLVALUE PUSH2 0x209 JUMPI PUSH1 0x0 CALLDATASIZE PUSH1 0x3 NOT ADD SLT PUSH2 0x209 JUMPI PUSH1 0x20 PUSH1 0x40 MLOAD PUSH2 0x12C DUP2 MSTORE RETURN JUMPDEST CALLVALUE PUSH2 0x209 JUMPI PUSH1 0x20 CALLDATASIZE PUSH1 0x3 NOT ADD SLT PUSH2 0x209 JUMPI PUSH1 0x4 CALLDATALOAD PUSH1 0x5 SLOAD DUP2 LT ISZERO PUSH2 0x209 JUMPI PUSH2 0x254 PUSH1 0x20 SWAP2 PUSH2 0x1708 JUMP JUMPDEST SWAP1 SLOAD SWAP1 PUSH1 0x3 SHL SHR PUSH1 0x40 MLOAD SWAP1 DUP2 MSTORE RETURN JUMPDEST CALLVALUE PUSH2 0x209 JUMPI PUSH1 0x40 CALLDATASIZE PUSH1 0x3 NOT ADD SLT PUSH2 0x209 JUMPI PUSH1 0x40 PUSH2 0x289 PUSH2 0x281 PUSH2 0x176C JUMP JUMPDEST PUSH1 0x4 CALLDATALOAD PUSH2 0x1C40 JUMP JUMPDEST DUP3 MLOAD SWAP2 DUP3 MSTORE ISZERO ISZERO PUSH1 0x20 DUP3 ADD MSTORE RETURN JUMPDEST CALLVALUE PUSH2 0x209 JUMPI PUSH1 0x20 CALLDATASIZE PUSH1 0x3 NOT ADD SLT PUSH2 0x209 JUMPI PUSH1 0x4 CALLDATALOAD PUSH1 0x0 MSTORE PUSH1 0x2 PUSH1 0x20 MSTORE PUSH1 0x20 PUSH1 0x7 PUSH1 0x40 PUSH1 0x0 KECCAK256 ADD SLOAD PUSH1 0x40 MLOAD SWAP1 DUP2 MSTORE RETURN JUMPDEST CALLVALUE PUSH2 0x209 JUMPI PUSH1 0x20 CALLDATASIZE PUSH1 0x3 NOT ADD SLT PUSH2 0x209 JUMPI PUSH2 0x2E2 PUSH1 0x4 CALLDATALOAD PUSH2 0x18E8 JUMP JUMPDEST STOP JUMPDEST CALLVALUE PUSH2 0x209 JUMPI PUSH1 0x0 CALLDATASIZE PUSH1 0x3 NOT ADD SLT PUSH2 0x209 JUMPI PUSH1 0x20 PUSH1 0x40 MLOAD PUSH1 0x3C DUP2 MSTORE RETURN JUMPDEST CALLVALUE PUSH2 0x209 JUMPI PUSH1 0x20 CALLDATASIZE PUSH1 0x3 NOT ADD SLT PUSH2 0x209 JUMPI PUSH1 0x4 CALLDATALOAD PUSH1 0x0 MSTORE PUSH1 0x2 PUSH1 0x20 MSTORE PUSH1 0xA PUSH1 0x40 PUSH1 0x0 KECCAK256 ADD DUP1 SLOAD SWAP1 PUSH2 0x330 DUP3 PUSH2 0x169B JUMP JUMPDEST SWAP2 PUSH2 0x33E PUSH1 0x40 MLOAD SWAP4 DUP5 PUSH2 0x157B JUMP JUMPDEST DUP1 DUP4 MSTORE PUSH2 0x34A DUP2 PUSH2 0x169B JUMP JUMPDEST PUSH1 0x20 DUP5 ADD SWAP3 SWAP1 PUSH1 0x1F NOT ADD CALLDATASIZE DUP5 CALLDATACOPY PUSH1 0x0 JUMPDEST DUP3 DUP2 LT PUSH2 0x3AF JUMPI DUP4 DUP6 PUSH1 0x40 MLOAD SWAP2 DUP3 SWAP2 PUSH1 0x20 DUP4 ADD SWAP1 PUSH1 0x20 DUP5 MSTORE MLOAD DUP1 SWAP2 MSTORE PUSH1 0x40 DUP4 ADD SWAP2 SWAP1 PUSH1 0x0 JUMPDEST DUP2 DUP2 LT PUSH2 0x38D JUMPI POP POP POP SUB SWAP1 RETURN JUMPDEST DUP3 MLOAD PUSH1 0x1 PUSH1 0x1 PUSH1 0xA0 SHL SUB AND DUP5 MSTORE DUP6 SWAP5 POP PUSH1 0x20 SWAP4 DUP5 ADD SWAP4 SWAP1 SWAP3 ADD SWAP2 PUSH1 0x1 ADD PUSH2 0x37F JUMP JUMPDEST DUP1 PUSH2 0x3BC PUSH1 0x1 SWAP3 DUP5 PUSH2 0x17FF JUMP JUMPDEST POP DUP3 DUP1 PUSH1 0xA0 SHL SUB SWAP1 SLOAD AND PUSH2 0x3D0 DUP3 DUP9 PUSH2 0x181B JUMP JUMPDEST MSTORE ADD PUSH2 0x35A JUMP JUMPDEST CALLVALUE PUSH2 0x209 JUMPI PUSH1 0x20 CALLDATASIZE PUSH1 0x3 NOT ADD SLT PUSH2 0x209 JUMPI PUSH1 0x4 CALLDATALOAD PUSH1 0x0 MSTORE PUSH1 0x2 PUSH1 0x20 MSTORE PUSH2 0x41A PUSH2 0x406 PUSH1 0x8 PUSH1 0x40 PUSH1 0x0 KECCAK256 ADD PUSH2 0x1782 JUMP JUMPDEST PUSH1 0x40 MLOAD SWAP2 DUP3 SWAP2 PUSH1 0x20 DUP4 MSTORE PUSH1 0x20 DUP4 ADD SWAP1 PUSH2 0x14F2 JUMP JUMPDEST SUB SWAP1 RETURN JUMPDEST CALLVALUE PUSH2 0x209 JUMPI PUSH1 0xC0 CALLDATASIZE PUSH1 0x3 NOT ADD SLT PUSH2 0x209 JUMPI PUSH1 0x4 CALLDATALOAD PUSH1 0x1 PUSH1 0x1 PUSH1 0x40 SHL SUB DUP2 GT PUSH2 0x209 JUMPI PUSH2 0x44E SWAP1 CALLDATASIZE SWAP1 PUSH1 0x4 ADD PUSH2 0x16B2 JUMP JUMPDEST PUSH1 0x24 CALLDATALOAD PUSH1 0x1 PUSH1 0x1 PUSH1 0x40 SHL SUB DUP2 GT PUSH2 0x209 JUMPI PUSH2 0x46D SWAP1 CALLDATASIZE SWAP1 PUSH1 0x4 ADD PUSH2 0x16B2 JUMP JUMPDEST SWAP1 PUSH1 0x44 CALLDATALOAD PUSH1 0x2 DUP2 LT ISZERO PUSH2 0x209 JUMPI PUSH1 0x20 SWAP3 PUSH2 0x49A SWAP3 PUSH2 0x489 PUSH2 0x1CF7 JUMP JUMPDEST PUSH1 0xA4 CALLDATALOAD SWAP3 PUSH1 0x84 CALLDATALOAD SWAP3 PUSH1 0x64 CALLDATALOAD SWAP3 PUSH2 0x1F49 JUMP JUMPDEST PUSH1 0x40 MLOAD SWAP1 DUP2 MSTORE RETURN JUMPDEST CALLVALUE PUSH2 0x209 JUMPI PUSH1 0x20 CALLDATASIZE PUSH1 0x3 NOT ADD SLT PUSH2 0x209 JUMPI PUSH1 0x4 CALLDATALOAD PUSH1 0x0 MSTORE PUSH1 0x2 PUSH1 0x20 MSTORE PUSH1 0x40 PUSH1 0x0 KECCAK256 PUSH1 0xE DUP2 ADD SLOAD PUSH1 0xF DUP3 ADD SLOAD SWAP2 PUSH2 0x522 PUSH1 0xFF PUSH1 0x12 DUP4 ADD SLOAD AND SWAP2 PUSH2 0x514 PUSH2 0x4F5 PUSH1 0x11 PUSH2 0x4EE PUSH1 0x10 DUP6 ADD PUSH2 0x1782 JUMP JUMPDEST SWAP4 ADD PUSH2 0x159C JUMP JUMPDEST SWAP2 PUSH1 0x40 MLOAD SWAP7 DUP8 SWAP7 DUP8 MSTORE PUSH1 0x20 DUP8 ADD MSTORE PUSH1 0xA0 PUSH1 0x40 DUP8 ADD MSTORE PUSH1 0xA0 DUP7 ADD SWAP1 PUSH2 0x14F2 JUMP JUMPDEST SWAP1 DUP5 DUP3 SUB PUSH1 0x60 DUP7 ADD MSTORE PUSH2 0x1640 JUMP JUMPDEST SWAP1 ISZERO ISZERO PUSH1 0x80 DUP4 ADD MSTORE SUB SWAP1 RETURN JUMPDEST CALLVALUE PUSH2 0x209 JUMPI PUSH1 0x0 CALLDATASIZE PUSH1 0x3 NOT ADD SLT PUSH2 0x209 JUMPI PUSH1 0x40 MLOAD PUSH1 0x4 SLOAD DUP1 DUP3 MSTORE PUSH1 0x20 DUP3 ADD SWAP1 PUSH1 0x4 PUSH1 0x0 MSTORE PUSH1 0x20 PUSH1 0x0 KECCAK256 SWAP1 PUSH1 0x0 JUMPDEST DUP2 DUP2 LT PUSH2 0x572 JUMPI PUSH2 0x41A DUP6 PUSH2 0x406 DUP2 DUP8 SUB DUP3 PUSH2 0x157B JUMP JUMPDEST DUP3 SLOAD DUP5 MSTORE PUSH1 0x20 SWAP1 SWAP4 ADD SWAP3 PUSH1 0x1 SWAP3 DUP4 ADD SWAP3 ADD PUSH2 0x55B JUMP JUMPDEST CALLVALUE PUSH2 0x209 JUMPI PUSH1 0x0 CALLDATASIZE PUSH1 0x3 NOT ADD SLT PUSH2 0x209 JUMPI PUSH1 0x20 PUSH1 0x40 MLOAD PUSH1 0x5 DUP2 MSTORE RETURN JUMPDEST CALLVALUE PUSH2 0x209 JUMPI PUSH1 0x20 CALLDATASIZE PUSH1 0x3 NOT ADD SLT PUSH2 0x209 JUMPI PUSH1 0x20 PUSH2 0x5C2 PUSH1 0x4 CALLDATALOAD PUSH2 0x189E JUMP JUMPDEST PUSH1 0x40 MLOAD SWAP1 ISZERO ISZERO DUP2 MSTORE RETURN JUMPDEST CALLVALUE PUSH2 0x209 JUMPI PUSH1 0x0 CALLDATASIZE PUSH1 0x3 NOT ADD SLT PUSH2 0x209 JUMPI PUSH1 0x20 PUSH1 0x1 SLOAD PUSH1 0x40 MLOAD SWAP1 DUP2 MSTORE RETURN JUMPDEST CALLVALUE PUSH2 0x209 JUMPI PUSH1 0x0 CALLDATASIZE PUSH1 0x3 NOT ADD SLT PUSH2 0x209 JUMPI PUSH1 0x0 SLOAD PUSH1 0x40 MLOAD PUSH1 0x1 PUSH1 0x1 PUSH1 0xA0 SHL SUB SWAP1 SWAP2 AND DUP2 MSTORE PUSH1 0x20 SWAP1 RETURN JUMPDEST CALLVALUE PUSH2 0x209 JUMPI PUSH1 0x20 CALLDATASIZE PUSH1 0x3 NOT ADD SLT PUSH2 0x209 JUMPI PUSH1 0x4 CALLDATALOAD PUSH1 0x0 MSTORE PUSH1 0x2 PUSH1 0x20 MSTORE PUSH1 0x40 PUSH1 0x0 KECCAK256 DUP1 SLOAD PUSH1 0x3 DUP3 ADD SLOAD PUSH1 0xFF AND PUSH1 0x4 DUP4 ADD SLOAD PUSH1 0x5 DUP5 ADD SLOAD PUSH1 0x6 DUP6 ADD SLOAD PUSH1 0xFF AND PUSH1 0x7 DUP7 ADD SLOAD PUSH1 0x9 DUP8 ADD SLOAD PUSH1 0xFF AND PUSH1 0xA DUP9 ADD SLOAD SWAP2 PUSH1 0xB DUP10 ADD SLOAD SWAP4 PUSH1 0xC DUP11 ADD SLOAD SWAP6 PUSH1 0xD DUP12 ADD SLOAD SWAP8 PUSH1 0x1 DUP13 ADD PUSH2 0x682 SWAP1 PUSH2 0x159C JUMP JUMPDEST SWAP12 PUSH1 0x2 ADD PUSH2 0x68F SWAP1 PUSH2 0x159C JUMP JUMPDEST PUSH1 0x40 MLOAD SWAP13 DUP14 SWAP13 DUP14 MSTORE PUSH1 0x20 DUP14 ADD PUSH2 0x1A0 SWAP1 MSTORE PUSH2 0x1A0 DUP14 ADD PUSH2 0x6AE SWAP2 PUSH2 0x1640 JUMP JUMPDEST DUP13 DUP2 SUB PUSH1 0x40 DUP15 ADD MSTORE PUSH2 0x6BF SWAP2 PUSH2 0x1640 JUMP JUMPDEST SWAP10 PUSH1 0x60 DUP13 ADD PUSH2 0x6CD SWAP2 PUSH2 0x1681 JUMP JUMPDEST PUSH1 0x80 DUP12 ADD MSTORE PUSH1 0xA0 DUP11 ADD MSTORE PUSH1 0xC0 DUP10 ADD PUSH2 0x6E4 SWAP2 PUSH2 0x168E JUMP JUMPDEST PUSH1 0xE0 DUP9 ADD MSTORE ISZERO ISZERO PUSH2 0x100 DUP8 ADD MSTORE PUSH2 0x120 DUP7 ADD MSTORE PUSH2 0x140 DUP6 ADD MSTORE PUSH2 0x160 DUP5 ADD MSTORE PUSH2 0x180 DUP4 ADD MSTORE SUB SWAP1 RETURN JUMPDEST CALLVALUE PUSH2 0x209 JUMPI PUSH1 0x0 CALLDATASIZE PUSH1 0x3 NOT ADD SLT PUSH2 0x209 JUMPI PUSH2 0x726 PUSH2 0x1CF7 JUMP JUMPDEST PUSH1 0x0 DUP1 SLOAD PUSH1 0x1 PUSH1 0x1 PUSH1 0xA0 SHL SUB NOT DUP2 AND DUP3 SSTORE PUSH1 0x1 PUSH1 0x1 PUSH1 0xA0 SHL SUB AND PUSH32 0x8BE0079C531659141344CD1FD0A4F28419497F9722A3DAAFE3B4186F6B6457E0 DUP3 DUP1 LOG3 STOP JUMPDEST CALLVALUE PUSH2 0x209 JUMPI PUSH2 0x100 CALLDATASIZE PUSH1 0x3 NOT ADD SLT PUSH2 0x209 JUMPI PUSH1 0x4 CALLDATALOAD PUSH1 0x1 PUSH1 0x1 PUSH1 0x40 SHL SUB DUP2 GT PUSH2 0x209 JUMPI PUSH2 0x797 SWAP1 CALLDATASIZE SWAP1 PUSH1 0x4 ADD PUSH2 0x16B2 JUMP JUMPDEST PUSH1 0x24 CALLDATALOAD PUSH1 0x1 PUSH1 0x1 PUSH1 0x40 SHL SUB DUP2 GT PUSH2 0x209 JUMPI PUSH2 0x7B6 SWAP1 CALLDATASIZE SWAP1 PUSH1 0x4 ADD PUSH2 0x16B2 JUMP JUMPDEST PUSH1 0x44 CALLDATALOAD PUSH1 0x2 DUP2 LT ISZERO PUSH2 0x209 JUMPI PUSH1 0xE4 CALLDATALOAD SWAP2 PUSH1 0x1 PUSH1 0x1 PUSH1 0x40 SHL SUB DUP4 GT PUSH2 0x209 JUMPI PUSH2 0x7E5 PUSH2 0x7EE SWAP4 CALLDATASIZE SWAP1 PUSH1 0x4 ADD PUSH2 0x16B2 JUMP JUMPDEST SWAP4 PUSH2 0x489 PUSH2 0x1CF7 JUMP JUMPDEST DUP1 PUSH1 0x0 MSTORE PUSH1 0x2 PUSH1 0x20 MSTORE PUSH1 0x40 PUSH1 0x0 KECCAK256 SWAP1 PUSH1 0xC4 CALLDATALOAD PUSH1 0xE DUP4 ADD SSTORE PUSH1 0x11 DUP3 ADD SWAP2 DUP4 MLOAD SWAP3 PUSH1 0x1 PUSH1 0x1 PUSH1 0x40 SHL SUB DUP5 GT PUSH2 0x926 JUMPI PUSH1 0x20 SWAP5 PUSH2 0x828 DUP3 SLOAD PUSH2 0x1526 JUMP JUMPDEST PUSH1 0x1F DUP2 GT PUSH2 0x8EB JUMPI JUMPDEST POP DUP6 SWAP1 PUSH1 0x1F DUP7 GT PUSH1 0x1 EQ PUSH2 0x882 JUMPI SWAP5 DUP1 SWAP2 PUSH1 0x12 SWAP6 SWAP7 PUSH1 0x0 SWAP3 PUSH2 0x877 JUMPI JUMPDEST POP POP DUP2 PUSH1 0x1 SHL SWAP2 PUSH1 0x0 NOT SWAP1 PUSH1 0x3 SHL SHR NOT AND OR SWAP1 SSTORE JUMPDEST ADD DUP1 SLOAD PUSH1 0xFF NOT AND PUSH1 0x1 OR SWAP1 SSTORE PUSH1 0x40 MLOAD SWAP1 DUP2 MSTORE RETURN JUMPDEST ADD MLOAD SWAP1 POP DUP8 DUP1 PUSH2 0x84E JUMP JUMPDEST SWAP1 PUSH1 0x1F NOT DUP7 AND SWAP2 DUP4 PUSH1 0x0 MSTORE DUP2 PUSH1 0x0 KECCAK256 SWAP3 PUSH1 0x0 JUMPDEST DUP2 DUP2 LT PUSH2 0x8D4 JUMPI POP SWAP2 PUSH1 0x1 SWAP4 SWAP2 DUP9 PUSH1 0x12 SWAP9 SWAP10 SWAP5 LT PUSH2 0x8BB JUMPI JUMPDEST POP POP POP DUP2 SHL ADD SWAP1 SSTORE PUSH2 0x863 JUMP JUMPDEST ADD MLOAD PUSH1 0x0 NOT PUSH1 0xF8 DUP5 PUSH1 0x3 SHL AND SHR NOT AND SWAP1 SSTORE DUP8 DUP1 DUP1 PUSH2 0x8AE JUMP JUMPDEST SWAP3 SWAP4 DUP10 PUSH1 0x1 DUP2 SWAP3 DUP8 DUP7 ADD MLOAD DUP2 SSTORE ADD SWAP6 ADD SWAP4 ADD PUSH2 0x895 JUMP JUMPDEST PUSH2 0x916 SWAP1 DUP4 PUSH1 0x0 MSTORE DUP8 PUSH1 0x0 KECCAK256 PUSH1 0x1F DUP9 ADD PUSH1 0x5 SHR DUP2 ADD SWAP2 DUP10 DUP10 LT PUSH2 0x91C JUMPI JUMPDEST PUSH1 0x1F ADD PUSH1 0x5 SHR ADD SWAP1 PUSH2 0x186D JUMP JUMPDEST DUP7 PUSH2 0x831 JUMP JUMPDEST SWAP1 SWAP2 POP DUP2 SWAP1 PUSH2 0x909 JUMP JUMPDEST PUSH4 0x4E487B71 PUSH1 0xE0 SHL PUSH1 0x0 MSTORE PUSH1 0x41 PUSH1 0x4 MSTORE PUSH1 0x24 PUSH1 0x0 REVERT JUMPDEST CALLVALUE PUSH2 0x209 JUMPI PUSH1 0x40 CALLDATASIZE PUSH1 0x3 NOT ADD SLT PUSH2 0x209 JUMPI PUSH2 0x955 PUSH2 0x176C JUMP JUMPDEST PUSH1 0x4 CALLDATALOAD PUSH1 0x0 MSTORE PUSH1 0x3 PUSH1 0x20 MSTORE PUSH1 0x40 PUSH1 0x0 KECCAK256 SWAP1 PUSH1 0x1 DUP1 PUSH1 0xA0 SHL SUB AND PUSH1 0x0 MSTORE PUSH1 0x20 MSTORE PUSH1 0x20 PUSH1 0xFF PUSH1 0x40 PUSH1 0x0 KECCAK256 SLOAD AND PUSH1 0x40 MLOAD SWAP1 ISZERO ISZERO DUP2 MSTORE RETURN JUMPDEST CALLVALUE PUSH2 0x209 JUMPI PUSH1 0x20 CALLDATASIZE PUSH1 0x3 NOT ADD SLT PUSH2 0x209 JUMPI PUSH1 0x4 CALLDATALOAD PUSH1 0x4 SLOAD DUP2 LT ISZERO PUSH2 0x209 JUMPI PUSH2 0x254 PUSH1 0x20 SWAP2 PUSH2 0x1739 JUMP JUMPDEST PUSH2 0x9BB CALLDATASIZE PUSH2 0x14DC JUMP JUMPDEST SWAP1 DUP1 PUSH1 0x0 MSTORE PUSH1 0x2 PUSH1 0x20 MSTORE PUSH1 0x40 PUSH1 0x0 KECCAK256 PUSH1 0xFF PUSH1 0x6 DUP3 ADD SLOAD AND PUSH1 0x3 DUP2 LT ISZERO PUSH2 0xC5B JUMPI PUSH2 0xCBF JUMPI PUSH1 0xD DUP2 ADD SLOAD DUP1 ISZERO ISZERO SWAP1 DUP2 PUSH2 0xC93 JUMPI JUMPDEST POP PUSH2 0xC82 JUMPI PUSH1 0x0 DUP3 DUP2 MSTORE PUSH1 0x3 PUSH1 0x20 SWAP1 DUP2 MSTORE PUSH1 0x40 DUP1 DUP4 KECCAK256 CALLER DUP5 MSTORE SWAP1 SWAP2 MSTORE SWAP1 KECCAK256 SLOAD PUSH1 0xFF AND PUSH2 0xC71 JUMPI PUSH1 0xFF PUSH1 0x3 DUP3 ADD SLOAD AND PUSH1 0x2 DUP2 LT ISZERO PUSH2 0xC5B JUMPI PUSH2 0xB4E JUMPI PUSH1 0x4 DUP2 ADD SLOAD CALLVALUE SUB PUSH2 0xB3D JUMPI JUMPDEST PUSH1 0xA DUP2 ADD PUSH1 0x40 MLOAD PUSH2 0xA45 DUP2 PUSH2 0x1560 JUMP JUMPDEST CALLER DUP2 MSTORE PUSH1 0x20 DUP2 ADD DUP6 DUP2 MSTORE PUSH1 0x40 DUP3 ADD SWAP3 PUSH1 0x0 DUP5 MSTORE DUP1 SLOAD PUSH1 0x1 PUSH1 0x40 SHL DUP2 LT ISZERO PUSH2 0x926 JUMPI PUSH2 0xA75 SWAP2 PUSH1 0x1 DUP3 ADD DUP2 SSTORE PUSH2 0x17FF JUMP JUMPDEST SWAP2 SWAP1 SWAP2 PUSH2 0xB27 JUMPI PUSH1 0x2 SWAP3 PUSH1 0x1 DUP1 PUSH1 0xA0 SHL SUB SWAP1 MLOAD AND PUSH12 0xFFFFFFFFFFFFFFFFFFFFFFFF PUSH1 0xA0 SHL DUP4 SLOAD AND OR DUP3 SSTORE MLOAD PUSH1 0x1 DUP3 ADD SSTORE ADD SWAP1 MLOAD ISZERO ISZERO PUSH1 0xFF DUP1 NOT DUP4 SLOAD AND SWAP2 AND OR SWAP1 SSTORE PUSH2 0xACA PUSH1 0x7 PUSH1 0x4 DUP4 ADD SLOAD SWAP3 ADD SWAP2 DUP3 SLOAD PUSH2 0x1884 JUMP JUMPDEST SWAP1 SSTORE DUP1 PUSH1 0x0 MSTORE PUSH1 0x3 PUSH1 0x20 MSTORE PUSH1 0x40 PUSH1 0x0 KECCAK256 PUSH1 0x1 DUP1 PUSH1 0xA0 SHL SUB CALLER AND PUSH1 0x0 MSTORE PUSH1 0x20 MSTORE PUSH1 0x40 PUSH1 0x0 KECCAK256 PUSH1 0x1 PUSH1 0xFF NOT DUP3 SLOAD AND OR SWAP1 SSTORE PUSH1 0x40 MLOAD SWAP2 DUP3 MSTORE PUSH32 0xAE6E469845072CD465CBE2A8B4F46CFF1B0263205FFE97879E063BBBEA36BB7C PUSH1 0x20 CALLER SWAP4 LOG3 STOP JUMPDEST PUSH4 0x4E487B71 PUSH1 0xE0 SHL PUSH1 0x0 MSTORE PUSH1 0x0 PUSH1 0x4 MSTORE PUSH1 0x24 PUSH1 0x0 REVERT JUMPDEST PUSH4 0x9DE3D441 PUSH1 0xE0 SHL PUSH1 0x0 MSTORE PUSH1 0x4 PUSH1 0x0 REVERT JUMPDEST CALLVALUE PUSH2 0xC4A JUMPI PUSH1 0x40 MLOAD PUSH4 0x6EB1769F PUSH1 0xE1 SHL DUP2 MSTORE CALLER PUSH1 0x4 DUP3 ADD MSTORE ADDRESS PUSH1 0x24 DUP3 ADD MSTORE PUSH32 0x0 SWAP1 PUSH1 0x20 DUP2 PUSH1 0x44 DUP2 PUSH1 0x1 PUSH1 0x1 PUSH1 0xA0 SHL SUB DUP7 AND GAS STATICCALL SWAP1 DUP2 ISZERO PUSH2 0xC3E JUMPI PUSH1 0x0 SWAP2 PUSH2 0xC0C JUMPI JUMPDEST POP PUSH1 0x4 DUP4 ADD SLOAD DUP1 SWAP2 LT PUSH2 0xBFB JUMPI PUSH2 0xBF6 SWAP2 PUSH1 0x40 MLOAD SWAP2 PUSH4 0x23B872DD PUSH1 0xE0 SHL PUSH1 0x20 DUP5 ADD MSTORE CALLER PUSH1 0x24 DUP5 ADD MSTORE ADDRESS PUSH1 0x44 DUP5 ADD MSTORE PUSH1 0x64 DUP4 ADD MSTORE PUSH1 0x64 DUP3 MSTORE PUSH2 0xBF1 PUSH1 0x84 DUP4 PUSH2 0x157B JUMP JUMPDEST PUSH2 0x234A JUMP JUMPDEST PUSH2 0xA35 JUMP JUMPDEST PUSH4 0xE2822FF1 PUSH1 0xE0 SHL PUSH1 0x0 MSTORE PUSH1 0x4 PUSH1 0x0 REVERT JUMPDEST SWAP1 POP PUSH1 0x20 DUP2 RETURNDATASIZE PUSH1 0x20 GT PUSH2 0xC36 JUMPI JUMPDEST DUP2 PUSH2 0xC27 PUSH1 0x20 SWAP4 DUP4 PUSH2 0x157B JUMP JUMPDEST DUP2 ADD SUB SLT PUSH2 0x209 JUMPI MLOAD DUP6 PUSH2 0xBAF JUMP JUMPDEST RETURNDATASIZE SWAP2 POP PUSH2 0xC1A JUMP JUMPDEST PUSH1 0x40 MLOAD RETURNDATASIZE PUSH1 0x0 DUP3 RETURNDATACOPY RETURNDATASIZE SWAP1 REVERT JUMPDEST PUSH4 0xB27DB61 PUSH1 0xE1 SHL PUSH1 0x0 MSTORE PUSH1 0x4 PUSH1 0x0 REVERT JUMPDEST PUSH4 0x4E487B71 PUSH1 0xE0 SHL PUSH1 0x0 MSTORE PUSH1 0x21 PUSH1 0x4 MSTORE PUSH1 0x24 PUSH1 0x0 REVERT JUMPDEST PUSH4 0xEB0163A1 PUSH1 0xE0 SHL PUSH1 0x0 MSTORE PUSH1 0x4 PUSH1 0x0 REVERT JUMPDEST PUSH4 0x5742B835 PUSH1 0xE0 SHL PUSH1 0x0 MSTORE PUSH1 0x4 PUSH1 0x0 REVERT JUMPDEST PUSH1 0x3B NOT DUP2 ADD SWAP2 POP DUP2 GT PUSH2 0xCA9 JUMPI TIMESTAMP LT ISZERO DUP5 PUSH2 0x9EE JUMP JUMPDEST PUSH4 0x4E487B71 PUSH1 0xE0 SHL PUSH1 0x0 MSTORE PUSH1 0x11 PUSH1 0x4 MSTORE PUSH1 0x24 PUSH1 0x0 REVERT JUMPDEST PUSH4 0xE38F163D PUSH1 0xE0 SHL PUSH1 0x0 MSTORE PUSH1 0x4 PUSH1 0x0 REVERT JUMPDEST CALLVALUE PUSH2 0x209 JUMPI PUSH1 0x0 CALLDATASIZE PUSH1 0x3 NOT ADD SLT PUSH2 0x209 JUMPI PUSH2 0xCE9 PUSH2 0x1CF7 JUMP JUMPDEST PUSH1 0x0 DUP1 DUP1 PUSH1 0x5 SLOAD SWAP1 JUMPDEST DUP2 DUP2 LT PUSH2 0xD73 JUMPI POP POP DUP1 ISZERO DUP1 ISZERO PUSH2 0xD44 JUMPI JUMPDEST POP POP DUP1 PUSH2 0xD0D JUMPI STOP JUMPDEST PUSH1 0x0 SLOAD PUSH2 0x2E2 SWAP2 SWAP1 PUSH1 0x1 PUSH1 0x1 PUSH1 0xA0 SHL SUB AND PUSH32 0x0 PUSH2 0x1EFF JUMP JUMPDEST PUSH1 0x0 DUP1 DUP1 SWAP4 DUP2 SWAP4 PUSH1 0x1 DUP1 PUSH1 0xA0 SHL SUB DUP4 SLOAD AND SWAP1 DUP4 SWAP1 PUSH2 0xD6A JUMPI JUMPDEST CALL ISZERO PUSH2 0xC3E JUMPI DUP2 DUP1 PUSH2 0xD04 JUMP JUMPDEST POP PUSH2 0x8FC PUSH2 0xD5D JUMP JUMPDEST PUSH2 0xD7C DUP2 PUSH2 0x1708 JUMP JUMPDEST SWAP1 SLOAD SWAP1 PUSH1 0x3 SHL SHR PUSH1 0x0 MSTORE PUSH1 0x2 PUSH1 0x20 MSTORE PUSH1 0x40 PUSH1 0x0 KECCAK256 PUSH1 0xFF PUSH1 0x9 DUP3 ADD SLOAD AND ISZERO DUP1 PUSH2 0xE08 JUMPI JUMPDEST PUSH2 0xDAD JUMPI JUMPDEST POP PUSH1 0x1 ADD PUSH2 0xCF2 JUMP JUMPDEST SWAP1 SWAP3 PUSH1 0x7 DUP3 ADD SLOAD PUSH1 0x5 DUP2 MUL SWAP1 DUP1 DUP3 DIV PUSH1 0x5 EQ SWAP1 ISZERO OR ISZERO PUSH2 0xCA9 JUMPI PUSH1 0x3 PUSH1 0x64 PUSH1 0xFF SWAP3 DIV SWAP4 ADD SLOAD AND PUSH1 0x2 DUP2 LT ISZERO PUSH2 0xC5B JUMPI PUSH2 0xDF4 JUMPI PUSH1 0x1 SWAP2 PUSH2 0xDEC SWAP2 PUSH2 0x1884 JUMP JUMPDEST SWAP3 JUMPDEST SWAP1 PUSH2 0xDA4 JUMP JUMPDEST SWAP3 SWAP4 PUSH1 0x1 SWAP2 PUSH2 0xE02 SWAP2 PUSH2 0x1884 JUMP JUMPDEST SWAP4 PUSH2 0xDEE JUMP JUMPDEST POP PUSH1 0x7 DUP2 ADD SLOAD ISZERO ISZERO PUSH2 0xD9F JUMP JUMPDEST CALLVALUE PUSH2 0x209 JUMPI PUSH1 0xA0 CALLDATASIZE PUSH1 0x3 NOT ADD SLT PUSH2 0x209 JUMPI PUSH1 0x64 CALLDATALOAD PUSH1 0x4 CALLDATALOAD PUSH1 0x1 PUSH1 0x1 PUSH1 0x40 SHL SUB DUP3 GT PUSH2 0x209 JUMPI CALLDATASIZE PUSH1 0x23 DUP4 ADD SLT ISZERO PUSH2 0x209 JUMPI DUP2 PUSH1 0x4 ADD CALLDATALOAD SWAP2 PUSH2 0xE54 DUP4 PUSH2 0x169B JUMP JUMPDEST SWAP1 PUSH2 0xE62 PUSH1 0x40 MLOAD SWAP3 DUP4 PUSH2 0x157B JUMP JUMPDEST DUP4 DUP3 MSTORE PUSH1 0x20 DUP3 ADD PUSH1 0x24 DUP2 SWAP6 PUSH1 0x5 SHL DUP4 ADD ADD SWAP2 CALLDATASIZE DUP4 GT PUSH2 0x209 JUMPI PUSH1 0x24 ADD SWAP1 JUMPDEST DUP3 DUP3 LT PUSH2 0x106D JUMPI POP POP POP PUSH1 0x84 CALLDATALOAD PUSH1 0x1 PUSH1 0x1 PUSH1 0x40 SHL SUB DUP2 GT PUSH2 0x209 JUMPI PUSH2 0xEA9 SWAP1 CALLDATASIZE SWAP1 PUSH1 0x4 ADD PUSH2 0x16B2 JUMP JUMPDEST SWAP3 PUSH2 0xEB2 PUSH2 0x1CF7 JUMP JUMPDEST DUP3 PUSH1 0x0 MSTORE PUSH1 0x2 PUSH1 0x20 MSTORE PUSH1 0x40 PUSH1 0x0 KECCAK256 SWAP2 PUSH1 0xFF PUSH1 0x6 DUP5 ADD SLOAD AND PUSH1 0x3 DUP2 LT ISZERO PUSH2 0xC5B JUMPI PUSH2 0x105C JUMPI PUSH1 0x44 CALLDATALOAD PUSH1 0xF DUP5 ADD SSTORE PUSH1 0x10 DUP4 ADD SWAP1 MLOAD SWAP2 PUSH1 0x1 PUSH1 0x1 PUSH1 0x40 SHL SUB DUP4 GT PUSH2 0x926 JUMPI PUSH1 0x1 PUSH1 0x40 SHL DUP4 GT PUSH2 0x926 JUMPI DUP2 SLOAD DUP4 DUP4 SSTORE DUP1 DUP5 LT PUSH2 0x103E JUMPI JUMPDEST POP SWAP1 PUSH1 0x0 MSTORE PUSH1 0x20 PUSH1 0x0 KECCAK256 PUSH1 0x0 JUMPDEST DUP4 DUP2 LT PUSH2 0x102A JUMPI DUP7 MLOAD DUP7 PUSH1 0x11 DUP8 ADD DUP10 PUSH1 0x1 PUSH1 0x1 PUSH1 0x40 SHL SUB DUP5 GT PUSH2 0x926 JUMPI PUSH2 0xF3F DUP3 SLOAD PUSH2 0x1526 JUMP JUMPDEST PUSH1 0x1F DUP2 GT PUSH2 0xFF8 JUMPI JUMPDEST POP PUSH1 0x20 SWAP1 PUSH1 0x1F DUP6 GT PUSH1 0x1 EQ PUSH2 0xF8E JUMPI PUSH2 0x2E2 SWAP5 SWAP2 PUSH1 0x0 SWAP2 DUP4 PUSH2 0xF83 JUMPI JUMPDEST POP POP DUP2 PUSH1 0x1 SHL SWAP2 PUSH1 0x0 NOT SWAP1 PUSH1 0x3 SHL SHR NOT AND OR SWAP1 SSTORE JUMPDEST PUSH1 0x24 CALLDATALOAD SWAP1 PUSH2 0x1D20 JUMP JUMPDEST ADD MLOAD SWAP1 POP DUP6 DUP1 PUSH2 0xF65 JUMP JUMPDEST SWAP1 PUSH1 0x1F NOT DUP6 AND SWAP2 DUP4 PUSH1 0x0 MSTORE DUP2 PUSH1 0x0 KECCAK256 SWAP3 PUSH1 0x0 JUMPDEST DUP2 DUP2 LT PUSH2 0xFE0 JUMPI POP SWAP2 PUSH1 0x1 SWAP4 SWAP2 DUP8 PUSH2 0x2E2 SWAP9 SWAP5 LT PUSH2 0xFC7 JUMPI JUMPDEST POP POP POP DUP2 SHL ADD SWAP1 SSTORE PUSH2 0xF7A JUMP JUMPDEST ADD MLOAD PUSH1 0x0 NOT PUSH1 0xF8 DUP5 PUSH1 0x3 SHL AND SHR NOT AND SWAP1 SSTORE DUP6 DUP1 DUP1 PUSH2 0xFBA JUMP JUMPDEST SWAP3 SWAP4 PUSH1 0x20 PUSH1 0x1 DUP2 SWAP3 DUP8 DUP7 ADD MLOAD DUP2 SSTORE ADD SWAP6 ADD SWAP4 ADD PUSH2 0xFA1 JUMP JUMPDEST PUSH2 0x1024 SWAP1 DUP4 PUSH1 0x0 MSTORE PUSH1 0x20 PUSH1 0x0 KECCAK256 PUSH1 0x1F DUP8 ADD PUSH1 0x5 SHR DUP2 ADD SWAP2 PUSH1 0x20 DUP9 LT PUSH2 0x91C JUMPI PUSH1 0x1F ADD PUSH1 0x5 SHR ADD SWAP1 PUSH2 0x186D JUMP JUMPDEST DUP5 PUSH2 0xF48 JUMP JUMPDEST PUSH1 0x1 SWAP1 PUSH1 0x20 DUP5 MLOAD SWAP5 ADD SWAP4 DUP2 DUP5 ADD SSTORE ADD PUSH2 0xF18 JUMP JUMPDEST PUSH2 0x1056 SWAP1 DUP4 PUSH1 0x0 MSTORE DUP5 PUSH1 0x20 PUSH1 0x0 KECCAK256 SWAP2 DUP3 ADD SWAP2 ADD PUSH2 0x186D JUMP JUMPDEST DUP7 PUSH2 0xF0B JUMP JUMPDEST PUSH4 0x5D09E5F PUSH1 0xE0 SHL PUSH1 0x0 MSTORE PUSH1 0x4 PUSH1 0x0 REVERT JUMPDEST DUP2 CALLDATALOAD DUP2 MSTORE PUSH1 0x20 SWAP2 DUP3 ADD SWAP2 ADD PUSH2 0xE80 JUMP JUMPDEST CALLVALUE PUSH2 0x209 JUMPI PUSH1 0x20 CALLDATASIZE PUSH1 0x3 NOT ADD SLT PUSH2 0x209 JUMPI PUSH1 0x4 CALLDATALOAD PUSH2 0x1099 PUSH2 0x1CF7 JUMP JUMPDEST DUP1 PUSH1 0x0 MSTORE PUSH1 0x2 PUSH1 0x20 MSTORE PUSH1 0x40 PUSH1 0x0 KECCAK256 PUSH1 0x6 DUP2 ADD SWAP1 PUSH1 0xFF DUP3 SLOAD AND PUSH1 0x3 DUP2 LT ISZERO PUSH2 0xC5B JUMPI PUSH2 0x105C JUMPI PUSH1 0x9 SWAP2 PUSH1 0x2 PUSH1 0xFF NOT DUP3 SLOAD AND OR SWAP1 SSTORE ADD PUSH1 0x1 PUSH1 0xFF NOT DUP3 SLOAD AND OR SWAP1 SSTORE PUSH2 0x10E1 DUP2 PUSH2 0x1E64 JUMP JUMPDEST PUSH2 0x10EA DUP2 PUSH2 0x182F JUMP JUMPDEST PUSH32 0xE3906E8D1E2167EF706B023E6E83AF697DB5CD38F233C71BF5021B26B316C3A2 PUSH1 0x0 DUP1 LOG2 STOP JUMPDEST CALLVALUE PUSH2 0x209 JUMPI PUSH1 0x20 CALLDATASIZE PUSH1 0x3 NOT ADD SLT PUSH2 0x209 JUMPI PUSH1 0x4 CALLDATALOAD PUSH1 0x0 MSTORE PUSH1 0x2 PUSH1 0x20 MSTORE PUSH1 0xA PUSH1 0x40 PUSH1 0x0 KECCAK256 ADD DUP1 SLOAD SWAP1 PUSH2 0x1141 DUP3 PUSH2 0x169B JUMP JUMPDEST SWAP2 PUSH2 0x114F PUSH1 0x40 MLOAD SWAP4 DUP5 PUSH2 0x157B JUMP JUMPDEST DUP1 DUP4 MSTORE PUSH1 0x20 DUP4 ADD DUP1 SWAP3 PUSH1 0x0 MSTORE PUSH1 0x20 PUSH1 0x0 KECCAK256 PUSH1 0x0 SWAP2 JUMPDEST DUP4 DUP4 LT PUSH2 0x11D4 JUMPI DUP5 DUP7 PUSH1 0x40 MLOAD SWAP2 DUP3 SWAP2 PUSH1 0x20 DUP4 ADD SWAP1 PUSH1 0x20 DUP5 MSTORE MLOAD DUP1 SWAP2 MSTORE PUSH1 0x40 DUP4 ADD SWAP2 SWAP1 PUSH1 0x0 JUMPDEST DUP2 DUP2 LT PUSH2 0x1197 JUMPI POP POP POP SUB SWAP1 RETURN JUMPDEST DUP3 MLOAD DUP1 MLOAD PUSH1 0x1 PUSH1 0x1 PUSH1 0xA0 SHL SUB AND DUP6 MSTORE PUSH1 0x20 DUP2 DUP2 ADD MLOAD DUP2 DUP8 ADD MSTORE PUSH1 0x40 SWAP2 DUP3 ADD MLOAD ISZERO ISZERO SWAP2 DUP7 ADD SWAP2 SWAP1 SWAP2 MSTORE DUP7 SWAP6 POP PUSH1 0x60 SWAP1 SWAP5 ADD SWAP4 SWAP1 SWAP3 ADD SWAP2 PUSH1 0x1 ADD PUSH2 0x1189 JUMP JUMPDEST PUSH1 0x3 PUSH1 0x20 PUSH1 0x1 SWAP3 PUSH1 0x40 MLOAD PUSH2 0x11E7 DUP2 PUSH2 0x1560 JUMP JUMPDEST DUP5 DUP1 PUSH1 0xA0 SHL SUB DUP7 SLOAD AND DUP2 MSTORE DUP5 DUP7 ADD SLOAD DUP4 DUP3 ADD MSTORE PUSH1 0xFF PUSH1 0x2 DUP8 ADD SLOAD AND ISZERO ISZERO PUSH1 0x40 DUP3 ADD MSTORE DUP2 MSTORE ADD SWAP3 ADD SWAP3 ADD SWAP2 SWAP1 PUSH2 0x1164 JUMP JUMPDEST CALLVALUE PUSH2 0x209 JUMPI PUSH1 0x0 CALLDATASIZE PUSH1 0x3 NOT ADD SLT PUSH2 0x209 JUMPI PUSH1 0x40 MLOAD PUSH1 0x5 SLOAD DUP1 DUP3 MSTORE PUSH1 0x20 DUP3 ADD SWAP1 PUSH1 0x5 PUSH1 0x0 MSTORE PUSH1 0x20 PUSH1 0x0 KECCAK256 SWAP1 PUSH1 0x0 JUMPDEST DUP2 DUP2 LT PUSH2 0x125B JUMPI PUSH2 0x41A DUP6 PUSH2 0x406 DUP2 DUP8 SUB DUP3 PUSH2 0x157B JUMP JUMPDEST DUP3 SLOAD DUP5 MSTORE PUSH1 0x20 SWAP1 SWAP4 ADD SWAP3 PUSH1 0x1 SWAP3 DUP4 ADD SWAP3 ADD PUSH2 0x1244 JUMP JUMPDEST CALLVALUE PUSH2 0x209 JUMPI PUSH1 0x20 CALLDATASIZE PUSH1 0x3 NOT ADD SLT PUSH2 0x209 JUMPI PUSH1 0x4 CALLDATALOAD PUSH1 0x0 MSTORE PUSH1 0x2 PUSH1 0x20 MSTORE PUSH1 0x40 PUSH1 0x0 KECCAK256 DUP1 SLOAD SWAP1 PUSH1 0x1 DUP2 ADD PUSH2 0x12A2 SWAP1 PUSH2 0x159C JUMP JUMPDEST DUP2 PUSH2 0x12AF PUSH1 0x2 DUP3 ADD PUSH2 0x159C JUMP JUMPDEST SWAP2 PUSH1 0x3 DUP3 ADD SLOAD PUSH1 0xFF AND SWAP3 PUSH1 0x4 DUP4 ADD SLOAD PUSH1 0x5 DUP5 ADD SLOAD PUSH1 0x6 DUP6 ADD SLOAD PUSH1 0xFF AND PUSH1 0x7 DUP7 ADD SLOAD PUSH1 0x9 DUP8 ADD SLOAD PUSH1 0xFF AND SWAP2 PUSH1 0xB DUP9 ADD SLOAD SWAP4 PUSH1 0xC DUP10 ADD SLOAD SWAP6 PUSH1 0xD DUP11 ADD SLOAD SWAP8 PUSH1 0xE DUP12 ADD SLOAD SWAP10 PUSH1 0xF DUP13 ADD SLOAD SWAP12 PUSH1 0x11 ADD PUSH2 0x1303 SWAP1 PUSH2 0x159C JUMP JUMPDEST SWAP14 PUSH1 0x12 ADD SLOAD PUSH1 0xFF AND SWAP15 PUSH1 0x40 MLOAD PUSH1 0x80 MSTORE PUSH1 0x80 MLOAD MSTORE PUSH1 0x80 MLOAD PUSH1 0x20 ADD PUSH2 0x200 SWAP1 MSTORE PUSH1 0x80 MLOAD PUSH2 0x200 ADD PUSH2 0x1331 SWAP2 PUSH2 0x1640 JUMP JUMPDEST PUSH1 0x80 MLOAD DUP2 SUB PUSH1 0x80 MLOAD PUSH1 0x40 ADD MSTORE PUSH2 0x1346 SWAP2 PUSH2 0x1640 JUMP JUMPDEST SWAP11 PUSH1 0x80 MLOAD PUSH1 0x60 ADD PUSH2 0x1356 SWAP2 PUSH2 0x1681 JUMP JUMPDEST PUSH1 0x80 MLOAD PUSH1 0x80 ADD MSTORE PUSH1 0x80 MLOAD PUSH1 0xA0 ADD MSTORE PUSH1 0x80 MLOAD PUSH1 0xC0 ADD PUSH2 0x1373 SWAP2 PUSH2 0x168E JUMP JUMPDEST PUSH1 0x80 MLOAD PUSH1 0xE0 ADD MSTORE ISZERO ISZERO PUSH1 0x80 MLOAD PUSH2 0x100 ADD MSTORE PUSH1 0x80 MLOAD PUSH2 0x120 ADD MSTORE PUSH1 0x80 MLOAD PUSH2 0x140 ADD MSTORE PUSH1 0x80 MLOAD PUSH2 0x160 ADD MSTORE PUSH1 0x80 MLOAD PUSH2 0x180 ADD MSTORE PUSH1 0x80 MLOAD PUSH2 0x1A0 ADD MSTORE PUSH1 0x80 MLOAD DUP2 SUB PUSH1 0x80 MLOAD PUSH2 0x1C0 ADD MSTORE PUSH2 0x13C2 SWAP2 PUSH2 0x1640 JUMP JUMPDEST SWAP1 ISZERO ISZERO PUSH1 0x80 MLOAD PUSH2 0x1E0 ADD MSTORE PUSH1 0x80 MLOAD SWAP1 SUB PUSH1 0x80 MLOAD RETURN JUMPDEST CALLVALUE PUSH2 0x209 JUMPI PUSH1 0x20 CALLDATASIZE PUSH1 0x3 NOT ADD SLT PUSH2 0x209 JUMPI PUSH1 0x4 CALLDATALOAD PUSH1 0x0 MSTORE PUSH1 0x2 PUSH1 0x20 MSTORE PUSH1 0xA PUSH1 0x40 PUSH1 0x0 KECCAK256 ADD DUP1 SLOAD PUSH2 0x1406 DUP2 PUSH2 0x17CD JUMP JUMPDEST SWAP2 PUSH1 0x0 JUMPDEST DUP3 DUP2 LT PUSH2 0x1427 JUMPI PUSH1 0x40 MLOAD PUSH1 0x20 DUP1 DUP3 MSTORE DUP2 SWAP1 PUSH2 0x41A SWAP1 DUP3 ADD DUP8 PUSH2 0x14F2 JUMP JUMPDEST DUP1 PUSH1 0x1 PUSH2 0x1435 DUP2 SWAP4 DUP6 PUSH2 0x17FF JUMP JUMPDEST POP ADD SLOAD PUSH2 0x1442 DUP3 DUP8 PUSH2 0x181B JUMP JUMPDEST MSTORE ADD PUSH2 0x140A JUMP JUMPDEST CALLVALUE PUSH2 0x209 JUMPI PUSH1 0x0 CALLDATASIZE PUSH1 0x3 NOT ADD SLT PUSH2 0x209 JUMPI PUSH1 0x40 MLOAD PUSH32 0x0 PUSH1 0x1 PUSH1 0x1 PUSH1 0xA0 SHL SUB AND DUP2 MSTORE PUSH1 0x20 SWAP1 RETURN JUMPDEST CALLVALUE PUSH2 0x209 JUMPI PUSH1 0x20 CALLDATASIZE PUSH1 0x3 NOT ADD SLT PUSH2 0x209 JUMPI PUSH1 0x4 CALLDATALOAD PUSH1 0x0 MSTORE PUSH1 0x2 PUSH1 0x20 MSTORE PUSH2 0x41A PUSH2 0x406 PUSH1 0x10 PUSH1 0x40 PUSH1 0x0 KECCAK256 ADD PUSH2 0x1782 JUMP JUMPDEST CALLVALUE PUSH2 0x209 JUMPI PUSH2 0x2E2 PUSH2 0x14CE CALLDATASIZE PUSH2 0x14DC JUMP JUMPDEST SWAP1 PUSH2 0x14D7 PUSH2 0x1CF7 JUMP JUMPDEST PUSH2 0x1D20 JUMP JUMPDEST PUSH1 0x40 SWAP1 PUSH1 0x3 NOT ADD SLT PUSH2 0x209 JUMPI PUSH1 0x4 CALLDATALOAD SWAP1 PUSH1 0x24 CALLDATALOAD SWAP1 JUMP JUMPDEST SWAP1 PUSH1 0x20 DUP1 DUP4 MLOAD SWAP3 DUP4 DUP2 MSTORE ADD SWAP3 ADD SWAP1 PUSH1 0x0 JUMPDEST DUP2 DUP2 LT PUSH2 0x1510 JUMPI POP POP POP SWAP1 JUMP JUMPDEST DUP3 MLOAD DUP5 MSTORE PUSH1 0x20 SWAP4 DUP5 ADD SWAP4 SWAP1 SWAP3 ADD SWAP2 PUSH1 0x1 ADD PUSH2 0x1503 JUMP JUMPDEST SWAP1 PUSH1 0x1 DUP3 DUP2 SHR SWAP3 AND DUP1 ISZERO PUSH2 0x1556 JUMPI JUMPDEST PUSH1 0x20 DUP4 LT EQ PUSH2 0x1540 JUMPI JUMP JUMPDEST PUSH4 0x4E487B71 PUSH1 0xE0 SHL PUSH1 0x0 MSTORE PUSH1 0x22 PUSH1 0x4 MSTORE PUSH1 0x24 PUSH1 0x0 REVERT JUMPDEST SWAP2 PUSH1 0x7F AND SWAP2 PUSH2 0x1535 JUMP JUMPDEST PUSH1 0x60 DUP2 ADD SWAP1 DUP2 LT PUSH1 0x1 PUSH1 0x1 PUSH1 0x40 SHL SUB DUP3 GT OR PUSH2 0x926 JUMPI PUSH1 0x40 MSTORE JUMP JUMPDEST SWAP1 PUSH1 0x1F DUP1 NOT SWAP2 ADD AND DUP2 ADD SWAP1 DUP2 LT PUSH1 0x1 PUSH1 0x1 PUSH1 0x40 SHL SUB DUP3 GT OR PUSH2 0x926 JUMPI PUSH1 0x40 MSTORE JUMP JUMPDEST SWAP1 PUSH1 0x40 MLOAD SWAP2 DUP3 PUSH1 0x0 DUP3 SLOAD SWAP3 PUSH2 0x15B0 DUP5 PUSH2 0x1526 JUMP JUMPDEST DUP1 DUP5 MSTORE SWAP4 PUSH1 0x1 DUP2 AND SWAP1 DUP2 ISZERO PUSH2 0x161E JUMPI POP PUSH1 0x1 EQ PUSH2 0x15D7 JUMPI JUMPDEST POP PUSH2 0x15D5 SWAP3 POP SUB DUP4 PUSH2 0x157B JUMP JUMPDEST JUMP JUMPDEST SWAP1 POP PUSH1 0x0 SWAP3 SWAP2 SWAP3 MSTORE PUSH1 0x20 PUSH1 0x0 KECCAK256 SWAP1 PUSH1 0x0 SWAP2 JUMPDEST DUP2 DUP4 LT PUSH2 0x1602 JUMPI POP POP SWAP1 PUSH1 0x20 PUSH2 0x15D5 SWAP3 DUP3 ADD ADD CODESIZE PUSH2 0x15C8 JUMP JUMPDEST PUSH1 0x20 SWAP2 SWAP4 POP DUP1 PUSH1 0x1 SWAP2 SLOAD DUP4 DUP6 DUP10 ADD ADD MSTORE ADD SWAP2 ADD SWAP1 SWAP2 DUP5 SWAP3 PUSH2 0x15E9 JUMP JUMPDEST SWAP1 POP PUSH1 0x20 SWAP3 POP PUSH2 0x15D5 SWAP5 SWAP2 POP PUSH1 0xFF NOT AND DUP3 DUP5 ADD MSTORE ISZERO ISZERO PUSH1 0x5 SHL DUP3 ADD ADD CODESIZE PUSH2 0x15C8 JUMP JUMPDEST SWAP2 SWAP1 DUP3 MLOAD SWAP3 DUP4 DUP3 MSTORE PUSH1 0x0 JUMPDEST DUP5 DUP2 LT PUSH2 0x166C JUMPI POP POP DUP3 PUSH1 0x0 PUSH1 0x20 DUP1 SWAP5 SWAP6 DUP5 ADD ADD MSTORE PUSH1 0x1F DUP1 NOT SWAP2 ADD AND ADD ADD SWAP1 JUMP JUMPDEST DUP1 PUSH1 0x20 DUP1 SWAP3 DUP5 ADD ADD MLOAD DUP3 DUP3 DUP7 ADD ADD MSTORE ADD PUSH2 0x164B JUMP JUMPDEST SWAP1 PUSH1 0x2 DUP3 LT ISZERO PUSH2 0xC5B JUMPI MSTORE JUMP JUMPDEST SWAP1 PUSH1 0x3 DUP3 LT ISZERO PUSH2 0xC5B JUMPI MSTORE JUMP JUMPDEST PUSH1 0x1 PUSH1 0x1 PUSH1 0x40 SHL SUB DUP2 GT PUSH2 0x926 JUMPI PUSH1 0x5 SHL PUSH1 0x20 ADD SWAP1 JUMP JUMPDEST DUP2 PUSH1 0x1F DUP3 ADD SLT ISZERO PUSH2 0x209 JUMPI DUP1 CALLDATALOAD SWAP1 PUSH1 0x1 PUSH1 0x1 PUSH1 0x40 SHL SUB DUP3 GT PUSH2 0x926 JUMPI PUSH1 0x40 MLOAD SWAP3 PUSH2 0x16E6 PUSH1 0x1F DUP5 ADD PUSH1 0x1F NOT AND PUSH1 0x20 ADD DUP6 PUSH2 0x157B JUMP JUMPDEST DUP3 DUP5 MSTORE PUSH1 0x20 DUP4 DUP4 ADD ADD GT PUSH2 0x209 JUMPI DUP2 PUSH1 0x0 SWAP3 PUSH1 0x20 DUP1 SWAP4 ADD DUP4 DUP7 ADD CALLDATACOPY DUP4 ADD ADD MSTORE SWAP1 JUMP JUMPDEST PUSH1 0x5 SLOAD DUP2 LT ISZERO PUSH2 0x1723 JUMPI PUSH1 0x5 PUSH1 0x0 MSTORE PUSH1 0x20 PUSH1 0x0 KECCAK256 ADD SWAP1 PUSH1 0x0 SWAP1 JUMP JUMPDEST PUSH4 0x4E487B71 PUSH1 0xE0 SHL PUSH1 0x0 MSTORE PUSH1 0x32 PUSH1 0x4 MSTORE PUSH1 0x24 PUSH1 0x0 REVERT JUMPDEST PUSH1 0x4 SLOAD DUP2 LT ISZERO PUSH2 0x1723 JUMPI PUSH1 0x4 PUSH1 0x0 MSTORE PUSH1 0x20 PUSH1 0x0 KECCAK256 ADD SWAP1 PUSH1 0x0 SWAP1 JUMP JUMPDEST DUP1 SLOAD DUP3 LT ISZERO PUSH2 0x1723 JUMPI PUSH1 0x0 MSTORE PUSH1 0x20 PUSH1 0x0 KECCAK256 ADD SWAP1 PUSH1 0x0 SWAP1 JUMP JUMPDEST PUSH1 0x24 CALLDATALOAD SWAP1 PUSH1 0x1 PUSH1 0x1 PUSH1 0xA0 SHL SUB DUP3 AND DUP3 SUB PUSH2 0x209 JUMPI JUMP JUMPDEST SWAP1 PUSH1 0x40 MLOAD SWAP2 DUP3 DUP2 SLOAD SWAP2 DUP3 DUP3 MSTORE PUSH1 0x20 DUP3 ADD SWAP1 PUSH1 0x0 MSTORE PUSH1 0x20 PUSH1 0x0 KECCAK256 SWAP3 PUSH1 0x0 JUMPDEST DUP2 DUP2 LT PUSH2 0x17B4 JUMPI POP POP PUSH2 0x15D5 SWAP3 POP SUB DUP4 PUSH2 0x157B JUMP JUMPDEST DUP5 SLOAD DUP4 MSTORE PUSH1 0x1 SWAP5 DUP6 ADD SWAP5 DUP8 SWAP5 POP PUSH1 0x20 SWAP1 SWAP4 ADD SWAP3 ADD PUSH2 0x179F JUMP JUMPDEST SWAP1 PUSH2 0x17D7 DUP3 PUSH2 0x169B JUMP JUMPDEST PUSH2 0x17E4 PUSH1 0x40 MLOAD SWAP2 DUP3 PUSH2 0x157B JUMP JUMPDEST DUP3 DUP2 MSTORE DUP1 SWAP3 PUSH2 0x17F5 PUSH1 0x1F NOT SWAP2 PUSH2 0x169B JUMP JUMPDEST ADD SWAP1 PUSH1 0x20 CALLDATASIZE SWAP2 ADD CALLDATACOPY JUMP JUMPDEST DUP1 SLOAD DUP3 LT ISZERO PUSH2 0x1723 JUMPI PUSH1 0x0 MSTORE PUSH1 0x3 PUSH1 0x20 PUSH1 0x0 KECCAK256 SWAP2 MUL ADD SWAP1 PUSH1 0x0 SWAP1 JUMP JUMPDEST DUP1 MLOAD DUP3 LT ISZERO PUSH2 0x1723 JUMPI PUSH1 0x20 SWAP2 PUSH1 0x5 SHL ADD ADD SWAP1 JUMP JUMPDEST PUSH1 0x5 SLOAD SWAP1 PUSH1 0x1 PUSH1 0x40 SHL DUP3 LT ISZERO PUSH2 0x926 JUMPI PUSH2 0x1854 DUP3 PUSH1 0x1 PUSH2 0x15D5 SWAP5 ADD PUSH1 0x5 SSTORE PUSH1 0x5 PUSH2 0x1754 JUMP JUMPDEST SWAP1 SWAP2 SWAP1 DUP3 SLOAD SWAP1 PUSH1 0x3 SHL SWAP2 DUP3 SHL SWAP2 PUSH1 0x0 NOT SWAP1 SHL NOT AND OR SWAP1 SSTORE JUMP JUMPDEST DUP2 DUP2 LT PUSH2 0x1878 JUMPI POP POP JUMP JUMPDEST PUSH1 0x0 DUP2 SSTORE PUSH1 0x1 ADD PUSH2 0x186D JUMP JUMPDEST SWAP2 SWAP1 DUP3 ADD DUP1 SWAP3 GT PUSH2 0xCA9 JUMPI JUMP JUMPDEST SWAP2 SWAP1 DUP3 SUB SWAP2 DUP3 GT PUSH2 0xCA9 JUMPI JUMP JUMPDEST PUSH1 0x0 MSTORE PUSH1 0x2 PUSH1 0x20 MSTORE PUSH1 0x40 PUSH1 0x0 KECCAK256 PUSH1 0xFF PUSH1 0x6 DUP3 ADD SLOAD AND PUSH1 0x3 DUP2 LT ISZERO PUSH2 0xC5B JUMPI PUSH2 0x18E2 JUMPI PUSH1 0xD ADD SLOAD DUP1 ISZERO PUSH2 0x18DC JUMPI PUSH1 0x3B NOT DUP2 ADD SWAP1 DUP2 GT PUSH2 0xCA9 JUMPI TIMESTAMP GT ISZERO SWAP1 JUMP JUMPDEST POP PUSH1 0x1 SWAP1 JUMP JUMPDEST POP PUSH1 0x0 SWAP1 JUMP JUMPDEST DUP1 PUSH1 0x0 MSTORE PUSH1 0x2 PUSH1 0x20 MSTORE PUSH1 0x40 PUSH1 0x0 KECCAK256 SWAP1 PUSH1 0xFF PUSH1 0x6 DUP4 ADD SLOAD AND PUSH1 0x3 DUP2 LT ISZERO PUSH2 0xC5B JUMPI PUSH1 0x1 DUP2 EQ ISZERO SWAP1 DUP2 PUSH2 0x1C34 JUMPI JUMPDEST POP PUSH2 0x1C23 JUMPI PUSH1 0xFF PUSH1 0x9 DUP4 ADD SLOAD AND PUSH2 0x1AD8 JUMPI PUSH1 0x0 DUP1 PUSH1 0x0 PUSH1 0xA DUP6 ADD SWAP1 DUP2 SLOAD SWAP1 JUMPDEST DUP2 DUP2 LT PUSH2 0x1AAA JUMPI JUMPDEST POP POP PUSH1 0x0 SWAP3 PUSH1 0x8 DUP7 ADD SWAP4 DUP5 SLOAD SWAP1 JUMPDEST DUP2 DUP2 LT PUSH2 0x1A7F JUMPI JUMPDEST POP POP ISZERO DUP1 ISZERO PUSH2 0x1A67 JUMPI JUMPDEST PUSH2 0x1A56 JUMPI PUSH1 0x2 SWAP2 PUSH2 0x196B SWAP2 PUSH2 0x17FF JUMP JUMPDEST POP ADD PUSH1 0x1 PUSH1 0xFF NOT DUP3 SLOAD AND OR SWAP1 SSTORE PUSH1 0x7 DUP4 ADD SLOAD PUSH1 0x5 DUP2 MUL SWAP1 DUP1 DUP3 DIV PUSH1 0x5 EQ DUP2 ISZERO OR ISZERO PUSH2 0xCA9 JUMPI PUSH1 0x64 PUSH2 0x199D SWAP3 DIV SWAP1 PUSH2 0x1891 JUMP JUMPDEST SWAP1 SLOAD SWAP1 PUSH1 0x0 DUP3 ISZERO PUSH2 0x1A42 JUMPI POP PUSH1 0xFF SWAP2 PUSH1 0x3 SWAP2 DIV SWAP4 ADD SLOAD AND PUSH1 0x2 DUP2 LT ISZERO PUSH2 0xC5B JUMPI PUSH2 0x1A12 JUMPI DUP2 PUSH1 0x0 DUP2 ISZERO PUSH2 0x1A09 JUMPI JUMPDEST PUSH1 0x0 DUP1 DUP1 SWAP4 DUP2 SWAP4 CALLER SWAP1 CALL ISZERO PUSH2 0xC3E JUMPI JUMPDEST PUSH1 0x40 MLOAD SWAP2 DUP3 MSTORE PUSH32 0x4AA95F981A8337CB337DE335B965507DA0879C3B49F799D20058E913F5AD2C26 PUSH1 0x20 CALLER SWAP4 LOG3 JUMP JUMPDEST POP PUSH2 0x8FC PUSH2 0x19CB JUMP JUMPDEST PUSH2 0x1A3D DUP3 CALLER PUSH32 0x0 PUSH2 0x1EFF JUMP JUMPDEST PUSH2 0x19DB JUMP JUMPDEST PUSH4 0x4E487B71 PUSH1 0xE0 SHL DUP2 MSTORE PUSH1 0x12 PUSH1 0x4 MSTORE PUSH1 0x24 SWAP1 REVERT JUMPDEST PUSH4 0x316B3F89 PUSH1 0xE1 SHL PUSH1 0x0 MSTORE PUSH1 0x4 PUSH1 0x0 REVERT JUMPDEST POP PUSH1 0xFF PUSH1 0x2 PUSH2 0x1A76 DUP5 DUP5 PUSH2 0x17FF JUMP JUMPDEST POP ADD SLOAD AND PUSH2 0x195B JUMP JUMPDEST DUP5 PUSH2 0x1A8A DUP3 DUP9 PUSH2 0x1754 JUMP JUMPDEST SWAP1 SLOAD SWAP1 PUSH1 0x3 SHL SHR EQ PUSH2 0x1A9E JUMPI PUSH1 0x1 ADD PUSH2 0x1949 JUMP JUMPDEST POP POP POP PUSH1 0x1 CODESIZE DUP1 PUSH2 0x1951 JUMP JUMPDEST PUSH2 0x1AB4 DUP2 DUP5 PUSH2 0x17FF JUMP JUMPDEST POP SLOAD PUSH1 0x1 PUSH1 0x1 PUSH1 0xA0 SHL SUB AND CALLER EQ PUSH2 0x1ACD JUMPI PUSH1 0x1 ADD PUSH2 0x1933 JUMP JUMPDEST SWAP3 POP CODESIZE SWAP1 POP DUP1 PUSH2 0x193B JUMP JUMPDEST DUP1 SWAP2 POP PUSH1 0x0 MSTORE PUSH1 0x2 PUSH1 0x20 MSTORE PUSH1 0x40 PUSH1 0x0 KECCAK256 PUSH1 0x0 NOT PUSH1 0x0 PUSH1 0xA DUP4 ADD SWAP1 DUP2 SLOAD SWAP1 JUMPDEST DUP2 DUP2 LT PUSH2 0x1BF5 JUMPI JUMPDEST POP POP PUSH1 0x0 NOT DUP3 EQ DUP1 ISZERO PUSH2 0x1BDD JUMPI JUMPDEST PUSH2 0x1BCC JUMPI PUSH1 0x2 SWAP2 PUSH2 0x1B1C SWAP2 PUSH2 0x17FF JUMP JUMPDEST POP ADD DUP1 SLOAD PUSH1 0xFF NOT AND PUSH1 0x1 OR SWAP1 SSTORE PUSH1 0x3 DUP2 ADD SLOAD PUSH1 0xFF AND PUSH1 0x2 DUP2 LT ISZERO PUSH2 0xC5B JUMPI PUSH2 0x1B96 JUMPI PUSH1 0x0 DUP1 DUP1 DUP1 PUSH1 0x4 DUP6 ADD SLOAD DUP2 DUP2 ISZERO PUSH2 0x1B8D JUMPI JUMPDEST CALLER SWAP1 CALL ISZERO PUSH2 0xC3E JUMPI PUSH1 0x4 SWAP1 JUMPDEST ADD SLOAD SWAP1 PUSH1 0x40 MLOAD SWAP2 DUP3 MSTORE PUSH32 0xF3F402280EF0A7905E124AA621B65EAEB2725C343E8B36D398ED78C29DAF285C PUSH1 0x20 CALLER SWAP4 LOG3 JUMP JUMPDEST POP PUSH2 0x8FC PUSH2 0x1B50 JUMP JUMPDEST DUP1 PUSH2 0x1BC7 PUSH1 0x4 DUP1 SWAP4 ADD SLOAD CALLER PUSH32 0x0 PUSH2 0x1EFF JUMP JUMPDEST PUSH2 0x1B5C JUMP JUMPDEST PUSH4 0xE49C14CB PUSH1 0xE0 SHL PUSH1 0x0 MSTORE PUSH1 0x4 PUSH1 0x0 REVERT JUMPDEST POP PUSH1 0xFF PUSH1 0x2 PUSH2 0x1BEC DUP5 DUP5 PUSH2 0x17FF JUMP JUMPDEST POP ADD SLOAD AND PUSH2 0x1B0C JUMP JUMPDEST PUSH2 0x1BFF DUP2 DUP5 PUSH2 0x17FF JUMP JUMPDEST POP SLOAD PUSH1 0x1 PUSH1 0x1 PUSH1 0xA0 SHL SUB AND CALLER EQ PUSH2 0x1C18 JUMPI PUSH1 0x1 ADD PUSH2 0x1AF6 JUMP JUMPDEST SWAP3 POP CODESIZE SWAP1 POP DUP1 PUSH2 0x1AFE JUMP JUMPDEST PUSH4 0x616E4DC1 PUSH1 0xE0 SHL PUSH1 0x0 MSTORE PUSH1 0x4 PUSH1 0x0 REVERT JUMPDEST PUSH1 0x2 SWAP2 POP EQ ISZERO CODESIZE PUSH2 0x1914 JUMP JUMPDEST SWAP2 SWAP1 SWAP2 PUSH1 0x0 MSTORE PUSH1 0x2 PUSH1 0x20 MSTORE PUSH1 0x40 PUSH1 0x0 KECCAK256 SWAP1 PUSH1 0xA PUSH1 0x0 SWAP3 ADD SWAP3 DUP4 SLOAD SWAP3 JUMPDEST DUP4 DUP2 LT PUSH2 0x1CA8 JUMPI PUSH1 0x40 MLOAD PUSH3 0x461BCD PUSH1 0xE5 SHL DUP2 MSTORE PUSH1 0x20 PUSH1 0x4 DUP3 ADD MSTORE PUSH1 0x1F PUSH1 0x24 DUP3 ADD MSTORE PUSH32 0x506C6179657220686173206E6F7420626574206F6E20746869732067616D6500 PUSH1 0x44 DUP3 ADD MSTORE PUSH1 0x64 SWAP1 REVERT JUMPDEST PUSH2 0x1CB2 DUP2 DUP7 PUSH2 0x17FF JUMP JUMPDEST POP SLOAD PUSH1 0x1 PUSH1 0x1 PUSH1 0xA0 SHL SUB DUP4 DUP2 AND SWAP2 AND EQ PUSH2 0x1CCE JUMPI PUSH1 0x1 ADD PUSH2 0x1C5C JUMP JUMPDEST PUSH1 0xFF SWAP3 SWAP4 POP PUSH1 0x2 SWAP2 POP DUP1 PUSH1 0x1 PUSH2 0x1CE7 PUSH2 0x1CF0 SWAP4 DUP9 PUSH2 0x17FF JUMP JUMPDEST POP ADD SLOAD SWAP6 PUSH2 0x17FF JUMP JUMPDEST POP ADD SLOAD AND SWAP1 JUMP JUMPDEST PUSH1 0x0 SLOAD PUSH1 0x1 PUSH1 0x1 PUSH1 0xA0 SHL SUB AND CALLER SUB PUSH2 0x1D0B JUMPI JUMP JUMPDEST PUSH4 0x118CDAA7 PUSH1 0xE0 SHL PUSH1 0x0 MSTORE CALLER PUSH1 0x4 MSTORE PUSH1 0x24 PUSH1 0x0 REVERT JUMPDEST SWAP2 SWAP1 SWAP2 DUP1 PUSH1 0x0 MSTORE PUSH1 0x2 PUSH1 0x20 MSTORE PUSH1 0x40 PUSH1 0x0 KECCAK256 SWAP3 PUSH1 0x6 DUP5 ADD PUSH1 0xFF DUP2 SLOAD AND PUSH1 0x3 DUP2 LT ISZERO PUSH2 0xC5B JUMPI PUSH2 0x105C JUMPI DUP2 PUSH1 0x5 DUP7 ADD SSTORE PUSH1 0x1 PUSH1 0xFF NOT DUP3 SLOAD AND OR SWAP1 SSTORE PUSH2 0x1D62 DUP3 PUSH2 0x1E64 JUMP JUMPDEST PUSH2 0x1D6B DUP3 PUSH2 0x182F JUMP JUMPDEST PUSH2 0x1D75 DUP2 DUP4 PUSH2 0x224F JUMP JUMPDEST SWAP1 PUSH1 0x8 DUP6 ADD SWAP5 DUP3 MLOAD PUSH1 0x1 PUSH1 0x1 PUSH1 0x40 SHL SUB DUP2 GT PUSH2 0x926 JUMPI PUSH1 0x1 PUSH1 0x40 SHL DUP2 GT PUSH2 0x926 JUMPI DUP7 SLOAD DUP2 DUP9 SSTORE DUP1 DUP3 LT PUSH2 0x1E46 JUMPI JUMPDEST POP PUSH1 0x20 DUP5 ADD SWAP7 PUSH1 0x0 MSTORE PUSH1 0x20 PUSH1 0x0 KECCAK256 SWAP7 PUSH1 0x0 JUMPDEST DUP3 DUP2 LT PUSH2 0x1E32 JUMPI POP POP POP PUSH32 0xDF87C3DD2376D585C2B92555576F9851CB972FEA40376668E9EB8E7CEC82E6F1 SWAP4 SWAP5 SWAP6 POP DUP1 PUSH1 0x1 PUSH1 0xA PUSH1 0x7 SWAP4 ADD SLOAD GT ISZERO PUSH2 0x1E1E JUMPI JUMPDEST ADD SLOAD PUSH2 0x1E13 PUSH1 0x40 MLOAD SWAP4 DUP5 SWAP4 DUP5 MSTORE PUSH1 0x60 PUSH1 0x20 DUP6 ADD MSTORE PUSH1 0x60 DUP5 ADD SWAP1 PUSH2 0x14F2 JUMP JUMPDEST SWAP1 PUSH1 0x40 DUP4 ADD MSTORE SUB SWAP1 LOG2 JUMP JUMPDEST PUSH1 0x9 DUP2 ADD DUP1 SLOAD PUSH1 0xFF NOT AND PUSH1 0x1 OR SWAP1 SSTORE PUSH2 0x1DF5 JUMP JUMPDEST PUSH1 0x1 SWAP1 PUSH1 0x20 DUP4 MLOAD SWAP4 ADD SWAP3 DUP2 DUP12 ADD SSTORE ADD PUSH2 0x1DB5 JUMP JUMPDEST PUSH2 0x1E5E SWAP1 DUP9 PUSH1 0x0 MSTORE DUP3 PUSH1 0x20 PUSH1 0x0 KECCAK256 SWAP2 DUP3 ADD SWAP2 ADD PUSH2 0x186D JUMP JUMPDEST CODESIZE PUSH2 0x1DA3 JUMP JUMPDEST PUSH1 0x0 JUMPDEST PUSH1 0x4 SLOAD DUP1 DUP3 LT ISZERO PUSH2 0x1EFA JUMPI DUP3 PUSH2 0x1E7C DUP4 PUSH2 0x1739 JUMP JUMPDEST SWAP1 SLOAD SWAP1 PUSH1 0x3 SHL SHR EQ PUSH2 0x1E91 JUMPI POP PUSH1 0x1 ADD PUSH2 0x1E67 JUMP JUMPDEST PUSH1 0x0 NOT DUP2 ADD SWAP3 POP DUP3 GT PUSH2 0xCA9 JUMPI PUSH2 0x1854 PUSH2 0x1EAD PUSH2 0x1EBA SWAP4 PUSH2 0x1739 JUMP JUMPDEST SWAP1 SLOAD SWAP1 PUSH1 0x3 SHL SHR SWAP2 PUSH2 0x1739 JUMP JUMPDEST PUSH1 0x4 SLOAD DUP1 ISZERO PUSH2 0x1EE4 JUMPI PUSH1 0x0 NOT ADD PUSH2 0x1ED0 DUP2 PUSH2 0x1739 JUMP JUMPDEST DUP2 SLOAD SWAP1 PUSH1 0x0 NOT SWAP1 PUSH1 0x3 SHL SHL NOT AND SWAP1 SSTORE PUSH1 0x4 SSTORE JUMP JUMPDEST PUSH4 0x4E487B71 PUSH1 0xE0 SHL PUSH1 0x0 MSTORE PUSH1 0x31 PUSH1 0x4 MSTORE PUSH1 0x24 PUSH1 0x0 REVERT JUMPDEST POP POP POP JUMP JUMPDEST PUSH1 0x40 MLOAD PUSH4 0xA9059CBB PUSH1 0xE0 SHL PUSH1 0x20 DUP3 ADD MSTORE PUSH1 0x1 PUSH1 0x1 PUSH1 0xA0 SHL SUB SWAP1 SWAP3 AND PUSH1 0x24 DUP4 ADD MSTORE PUSH1 0x44 DUP1 DUP4 ADD SWAP4 SWAP1 SWAP4 MSTORE SWAP2 DUP2 MSTORE PUSH2 0x15D5 SWAP2 PUSH2 0xBF1 PUSH1 0x64 DUP4 PUSH2 0x157B JUMP JUMPDEST PUSH1 0x0 NOT DUP2 EQ PUSH2 0xCA9 JUMPI PUSH1 0x1 ADD SWAP1 JUMP JUMPDEST SWAP1 SWAP3 SWAP4 DUP5 ISZERO PUSH2 0xB3D JUMPI PUSH1 0x1 SLOAD SWAP6 PUSH2 0x1F5F DUP8 PUSH2 0x1F3A JUMP JUMPDEST PUSH1 0x1 SSTORE DUP7 PUSH1 0x0 MSTORE PUSH1 0x2 PUSH1 0x20 MSTORE PUSH1 0x40 PUSH1 0x0 KECCAK256 SWAP2 DUP8 DUP4 SSTORE PUSH1 0x1 DUP4 ADD DUP5 MLOAD PUSH1 0x1 PUSH1 0x1 PUSH1 0x40 SHL SUB DUP2 GT PUSH2 0x926 JUMPI PUSH2 0x1F92 DUP3 SLOAD PUSH2 0x1526 JUMP JUMPDEST PUSH1 0x1F DUP2 GT PUSH2 0x221D JUMPI JUMPDEST POP DUP1 PUSH1 0x20 PUSH1 0x1F DUP3 GT PUSH1 0x1 EQ PUSH2 0x21BA JUMPI PUSH1 0x0 SWAP2 PUSH2 0x21AF JUMPI JUMPDEST POP DUP2 PUSH1 0x1 SHL SWAP2 PUSH1 0x0 NOT SWAP1 PUSH1 0x3 SHL SHR NOT AND OR SWAP1 SSTORE JUMPDEST PUSH1 0x2 DUP4 ADD DUP7 MLOAD PUSH1 0x1 PUSH1 0x1 PUSH1 0x40 SHL SUB DUP2 GT PUSH2 0x926 JUMPI PUSH2 0x1FE4 DUP3 SLOAD PUSH2 0x1526 JUMP JUMPDEST PUSH1 0x1F DUP2 GT PUSH2 0x217D JUMPI JUMPDEST POP DUP1 PUSH1 0x20 PUSH1 0x1F DUP3 GT PUSH1 0x1 EQ PUSH2 0x2118 JUMPI PUSH1 0x0 SWAP2 PUSH2 0x210D JUMPI JUMPDEST POP DUP2 PUSH1 0x1 SHL SWAP2 PUSH1 0x0 NOT SWAP1 PUSH1 0x3 SHL SHR NOT AND OR SWAP1 SSTORE JUMPDEST PUSH1 0x3 DUP4 ADD PUSH1 0x2 DUP7 LT ISZERO PUSH2 0xC5B JUMPI PUSH1 0xFF NOT DUP2 SLOAD AND PUSH1 0xFF DUP8 AND OR SWAP1 SSTORE DUP7 PUSH1 0x4 DUP5 ADD SSTORE PUSH1 0x6 DUP4 ADD PUSH1 0xFF NOT DUP2 SLOAD AND SWAP1 SSTORE TIMESTAMP PUSH1 0xB DUP5 ADD SSTORE DUP1 ISZERO PUSH1 0x0 EQ PUSH2 0x2108 JUMPI POP TIMESTAMP JUMPDEST PUSH1 0xC DUP4 ADD SSTORE DUP1 PUSH2 0x20FF JUMPI POP PUSH2 0x12C TIMESTAMP ADD DUP1 TIMESTAMP GT PUSH2 0xCA9 JUMPI PUSH1 0xD SWAP1 SWAP2 JUMPDEST ADD SSTORE PUSH1 0x4 SLOAD SWAP2 PUSH1 0x1 PUSH1 0x40 SHL DUP4 LT ISZERO PUSH2 0x926 JUMPI DUP6 SWAP5 PUSH2 0x20F4 PUSH2 0x20E9 PUSH32 0xF7DFCAB2992417049CB3E78DCB5D3AC9520E053800DAAB4885BC264A958F19F8 SWAP7 PUSH2 0x20C7 DUP10 PUSH2 0x1854 DUP10 PUSH1 0x1 PUSH2 0x20DB SWAP12 ADD PUSH1 0x4 SSTORE PUSH1 0x4 PUSH2 0x1754 JUMP JUMPDEST PUSH1 0x40 MLOAD SWAP7 DUP8 SWAP7 PUSH1 0x80 DUP9 MSTORE PUSH1 0x80 DUP9 ADD SWAP1 PUSH2 0x1640 JUMP JUMPDEST SWAP1 DUP7 DUP3 SUB PUSH1 0x20 DUP9 ADD MSTORE PUSH2 0x1640 JUMP JUMPDEST SWAP3 PUSH1 0x40 DUP6 ADD SWAP1 PUSH2 0x1681 JUMP JUMPDEST PUSH1 0x60 DUP4 ADD MSTORE SUB SWAP1 LOG2 SWAP1 JUMP JUMPDEST PUSH1 0xD SWAP1 SWAP2 PUSH2 0x2072 JUMP JUMPDEST PUSH2 0x2056 JUMP JUMPDEST SWAP1 POP DUP9 ADD MLOAD CODESIZE PUSH2 0x2004 JUMP JUMPDEST PUSH1 0x0 DUP5 DUP2 MSTORE DUP2 DUP2 KECCAK256 SWAP3 POP PUSH1 0x1F NOT DUP5 AND SWAP1 JUMPDEST DUP12 DUP3 DUP3 LT PUSH2 0x2165 JUMPI POP POP SWAP1 DUP4 PUSH1 0x1 SWAP5 SWAP4 SWAP3 LT PUSH2 0x214C JUMPI JUMPDEST POP POP DUP2 SHL ADD SWAP1 SSTORE PUSH2 0x2018 JUMP JUMPDEST DUP11 ADD MLOAD PUSH1 0x0 NOT PUSH1 0xF8 DUP5 PUSH1 0x3 SHL AND SHR NOT AND SWAP1 SSTORE CODESIZE DUP1 PUSH2 0x2140 JUMP JUMPDEST PUSH1 0x1 DUP5 SWAP6 PUSH1 0x20 SWAP4 SWAP6 DUP5 SWAP4 ADD MLOAD DUP2 SSTORE ADD SWAP5 ADD SWAP3 ADD PUSH2 0x2129 JUMP JUMPDEST PUSH2 0x21A9 SWAP1 DUP4 PUSH1 0x0 MSTORE PUSH1 0x20 PUSH1 0x0 KECCAK256 PUSH1 0x1F DUP5 ADD PUSH1 0x5 SHR DUP2 ADD SWAP2 PUSH1 0x20 DUP6 LT PUSH2 0x91C JUMPI PUSH1 0x1F ADD PUSH1 0x5 SHR ADD SWAP1 PUSH2 0x186D JUMP JUMPDEST CODESIZE PUSH2 0x1FED JUMP JUMPDEST SWAP1 POP DUP7 ADD MLOAD CODESIZE PUSH2 0x1FB2 JUMP JUMPDEST PUSH1 0x0 DUP5 DUP2 MSTORE DUP2 DUP2 KECCAK256 SWAP3 POP PUSH1 0x1F NOT DUP5 AND SWAP1 JUMPDEST DUP2 DUP2 LT PUSH2 0x2205 JUMPI POP SWAP1 DUP4 PUSH1 0x1 SWAP5 SWAP4 SWAP3 LT PUSH2 0x21EC JUMPI JUMPDEST POP POP DUP2 SHL ADD SWAP1 SSTORE PUSH2 0x1FC6 JUMP JUMPDEST DUP9 ADD MLOAD PUSH1 0x0 NOT PUSH1 0xF8 DUP5 PUSH1 0x3 SHL AND SHR NOT AND SWAP1 SSTORE CODESIZE DUP1 PUSH2 0x21E0 JUMP JUMPDEST SWAP2 SWAP3 PUSH1 0x20 PUSH1 0x1 DUP2 SWAP3 DUP7 DUP14 ADD MLOAD DUP2 SSTORE ADD SWAP5 ADD SWAP3 ADD PUSH2 0x21CB JUMP JUMPDEST PUSH2 0x2249 SWAP1 DUP4 PUSH1 0x0 MSTORE PUSH1 0x20 PUSH1 0x0 KECCAK256 PUSH1 0x1F DUP5 ADD PUSH1 0x5 SHR DUP2 ADD SWAP2 PUSH1 0x20 DUP6 LT PUSH2 0x91C JUMPI PUSH1 0x1F ADD PUSH1 0x5 SHR ADD SWAP1 PUSH2 0x186D JUMP JUMPDEST CODESIZE PUSH2 0x1F9B JUMP JUMPDEST PUSH1 0x0 MSTORE PUSH1 0x2 PUSH1 0x20 MSTORE PUSH1 0xA PUSH1 0x40 PUSH1 0x0 KECCAK256 ADD DUP1 SLOAD SWAP1 DUP2 ISZERO PUSH2 0x232D JUMPI PUSH1 0x0 NOT PUSH1 0x0 DUP1 JUMPDEST DUP5 DUP2 LT PUSH2 0x22DE JUMPI POP PUSH2 0x2280 SWAP1 PUSH2 0x17CD JUMP JUMPDEST SWAP4 PUSH1 0x0 SWAP3 PUSH1 0x0 JUMPDEST DUP6 DUP2 LT PUSH2 0x2297 JUMPI POP POP POP POP POP POP SWAP1 JUMP JUMPDEST DUP4 PUSH2 0x22B0 DUP5 PUSH1 0x1 PUSH2 0x22A8 DUP6 DUP8 PUSH2 0x17FF JUMP JUMPDEST POP ADD SLOAD PUSH2 0x23A5 JUMP JUMPDEST EQ PUSH2 0x22BE JUMPI JUMPDEST PUSH1 0x1 ADD PUSH2 0x2287 JUMP JUMPDEST SWAP4 PUSH2 0x22D6 DUP2 DUP7 PUSH2 0x22D0 PUSH1 0x1 SWAP5 DUP12 PUSH2 0x181B JUMP JUMPDEST MSTORE PUSH2 0x1F3A JUMP JUMPDEST SWAP5 SWAP1 POP PUSH2 0x22B6 JUMP JUMPDEST SWAP2 PUSH2 0x22EF DUP7 PUSH1 0x1 PUSH2 0x22A8 DUP7 DUP9 PUSH2 0x17FF JUMP JUMPDEST SWAP2 DUP2 DUP4 LT ISZERO PUSH2 0x2306 JUMPI POP POP SWAP1 PUSH1 0x1 DUP1 SWAP2 JUMPDEST ADD PUSH2 0x226F JUMP JUMPDEST SWAP2 SWAP1 DUP1 SWAP4 SWAP2 EQ PUSH2 0x2319 JUMPI JUMPDEST PUSH1 0x1 SWAP1 PUSH2 0x2300 JUMP JUMPDEST SWAP1 PUSH2 0x2325 PUSH1 0x1 SWAP2 PUSH2 0x1F3A JUMP JUMPDEST SWAP2 SWAP1 POP PUSH2 0x2311 JUMP JUMPDEST POP POP POP PUSH1 0x40 MLOAD PUSH2 0x233E PUSH1 0x20 DUP3 PUSH2 0x157B JUMP JUMPDEST PUSH1 0x0 DUP2 MSTORE PUSH1 0x0 CALLDATASIZE DUP2 CALLDATACOPY SWAP1 JUMP JUMPDEST SWAP1 PUSH1 0x0 PUSH1 0x20 SWAP2 DUP3 DUP2 MLOAD SWAP2 ADD DUP3 DUP6 GAS CALL ISZERO PUSH2 0xC3E JUMPI PUSH1 0x0 MLOAD RETURNDATASIZE PUSH2 0x239C JUMPI POP PUSH1 0x1 PUSH1 0x1 PUSH1 0xA0 SHL SUB DUP2 AND EXTCODESIZE ISZERO JUMPDEST PUSH2 0x237B JUMPI POP JUMP JUMPDEST PUSH4 0x5274AFE7 PUSH1 0xE0 SHL PUSH1 0x0 SWAP1 DUP2 MSTORE PUSH1 0x1 PUSH1 0x1 PUSH1 0xA0 SHL SUB SWAP2 SWAP1 SWAP2 AND PUSH1 0x4 MSTORE PUSH1 0x24 SWAP1 REVERT JUMPDEST PUSH1 0x1 EQ ISZERO PUSH2 0x2374 JUMP JUMPDEST DUP2 DUP2 GT ISZERO PUSH2 0x23BA JUMPI SWAP1 PUSH2 0x23B7 SWAP2 PUSH2 0x1891 JUMP JUMPDEST SWAP1 JUMP JUMPDEST PUSH2 0x23B7 SWAP2 PUSH2 0x1891 JUMP INVALID LOG2 PUSH5 0x6970667358 0x22 SLT KECCAK256 PUSH20 0xFD23E0DE274DC0DCD89FE0DC1ACDA9E565DDF817 SHR LOG3 0xE1 ADD PUSH22 0x96937DDBEDD764736F6C634300081C00330000000000 "
        },
        "methodIdentifiers": {
          "BETTING_CUTOFF_PERIOD()": "cae4ffbb",
          "BET_DURATION()": "e53d4c2d",
          "OWNER_FEE_PERCENT()": "a8a3221e",
          "activeBetIds(uint256)": "5195d612",
          "bets(uint256)": "22af00fa",
          "cancelBet(uint256)": "357401f5",
          "claimPrize(uint256)": "d7098154",
          "createAutomatedBet(string,string,uint8,uint256,uint256,uint256,uint256,string)": "67e90435",
          "createBet(string,string,uint8,uint256,uint256,uint256)": "c2f48eff",
          "getActiveBets()": "ada73020",
          "getBetAutomationData(uint256)": "b37f8c5d",
          "getBetInfo(uint256)": "79141f80",
          "getBetPlayerBets(uint256)": "28efa867",
          "getBetPlayerGuesses(uint256)": "1ca206d2",
          "getBetPlayers(uint256)": "ca8bcf39",
          "getBetPot(uint256)": "d8bf8974",
          "getBetSampledBlocks(uint256)": "1175c815",
          "getBetWinnerIndices(uint256)": "c303b902",
          "getPlayerBet(uint256,address)": "dd99717d",
          "getSettledBets()": "27baedd5",
          "hasPlayerBet(uint256,address)": "589f2410",
          "isBettingActive(uint256)": "a4cd5c43",
          "nextBetId()": "9aca2792",
          "owner()": "8da5cb5b",
          "placeBet(uint256,uint256)": "4afe62b5",
          "renounceOwnership()": "715018a6",
          "settleAutomatedBet(uint256,uint256,uint256,uint256[],string)": "427b3f44",
          "settleBet(uint256,uint256)": "0d2cbe13",
          "settledBetIds(uint256)": "ddd70709",
          "transferOwnership(address)": "f2fde38b",
          "usdcToken()": "11eac855",
          "withdrawFees()": "476343ee"
        }
      }
    }
  }
}